{
  "contractName": "AddressResolver",
  "abi": [
    {
      "anonymous": false,
      "inputs": [
        {
          "indexed": true,
          "internalType": "address",
          "name": "previousOwner",
          "type": "address"
        },
        {
          "indexed": true,
          "internalType": "address",
          "name": "newOwner",
          "type": "address"
        }
      ],
      "name": "OwnershipTransferred",
      "type": "event"
    },
    {
      "inputs": [],
      "name": "owner",
      "outputs": [
        {
          "internalType": "address",
          "name": "",
          "type": "address"
        }
      ],
      "stateMutability": "view",
      "type": "function"
    },
    {
      "inputs": [],
      "name": "renounceOwnership",
      "outputs": [],
      "stateMutability": "nonpayable",
      "type": "function"
    },
    {
      "inputs": [
        {
          "internalType": "bytes32",
          "name": "",
          "type": "bytes32"
        }
      ],
      "name": "repository",
      "outputs": [
        {
          "internalType": "address",
          "name": "",
          "type": "address"
        }
      ],
      "stateMutability": "view",
      "type": "function"
    },
    {
      "inputs": [
        {
          "internalType": "address",
          "name": "newOwner",
          "type": "address"
        }
      ],
      "name": "transferOwnership",
      "outputs": [],
      "stateMutability": "nonpayable",
      "type": "function"
    },
    {
      "inputs": [
        {
          "internalType": "bytes32[]",
          "name": "names",
          "type": "bytes32[]"
        },
        {
          "internalType": "address[]",
          "name": "destinations",
          "type": "address[]"
        }
      ],
      "name": "importAddresses",
      "outputs": [],
      "stateMutability": "nonpayable",
      "type": "function"
    }
  ],
  "bytecode": "0x608060405234801561001057600080fd5b50600061001b61006a565b600080546001600160a01b0319166001600160a01b0383169081178255604051929350917f8be0079c531659141344cd1fd0a4f28419497f9722a3daafe3b4186f6b6457e0908290a35061006e565b3390565b6105308061007d6000396000f3fe608060405234801561001057600080fd5b50600436106100575760003560e01c8063187f79351461005c578063715018a6146100955780638da5cb5b1461009f578063ab0b8f77146100a7578063f2fde38b14610169575b600080fd5b6100796004803603602081101561007257600080fd5b503561018f565b604080516001600160a01b039092168252519081900360200190f35b61009d6101aa565b005b610079610268565b61009d600480360360408110156100bd57600080fd5b8101906020810181356401000000008111156100d857600080fd5b8201836020820111156100ea57600080fd5b8035906020019184602083028401116401000000008311171561010c57600080fd5b91939092909160208101903564010000000081111561012a57600080fd5b82018360208201111561013c57600080fd5b8035906020019184602083028401116401000000008311171561015e57600080fd5b509092509050610277565b61009d6004803603602081101561017f57600080fd5b50356001600160a01b03166103bc565b6001602052600090815260409020546001600160a01b031681565b6101b26104d0565b6001600160a01b03166101c3610268565b6001600160a01b03161461021e576040805162461bcd60e51b815260206004820181905260248201527f4f776e61626c653a2063616c6c6572206973206e6f7420746865206f776e6572604482015290519081900360640190fd5b600080546040516001600160a01b03909116907f8be0079c531659141344cd1fd0a4f28419497f9722a3daafe3b4186f6b6457e0908390a3600080546001600160a01b0319169055565b6000546001600160a01b031690565b61027f6104d0565b6001600160a01b0316610290610268565b6001600160a01b0316146102eb576040805162461bcd60e51b815260206004820181905260248201527f4f776e61626c653a2063616c6c6572206973206e6f7420746865206f776e6572604482015290519081900360640190fd5b82811461033f576040805162461bcd60e51b815260206004820152601860248201527f496e707574206c656e67746873206d757374206d617463680000000000000000604482015290519081900360640190fd5b60005b838110156103b55782828281811061035657fe5b905060200201356001600160a01b03166001600087878581811061037657fe5b6020908102929092013583525081019190915260400160002080546001600160a01b0319166001600160a01b0392909216919091179055600101610342565b5050505050565b6103c46104d0565b6001600160a01b03166103d5610268565b6001600160a01b031614610430576040805162461bcd60e51b815260206004820181905260248201527f4f776e61626c653a2063616c6c6572206973206e6f7420746865206f776e6572604482015290519081900360640190fd5b6001600160a01b0381166104755760405162461bcd60e51b81526004018080602001828103825260268152602001806104d56026913960400191505060405180910390fd5b600080546040516001600160a01b03808516939216917f8be0079c531659141344cd1fd0a4f28419497f9722a3daafe3b4186f6b6457e091a3600080546001600160a01b0319166001600160a01b0392909216919091179055565b339056fe4f776e61626c653a206e6577206f776e657220697320746865207a65726f2061646472657373a2646970667358221220a15fd0e6d5661d2cad9965b12b7d8f7c61e0614f88f90ae2e1b9d235e7bdfcde64736f6c63430007060033",
  "immutableReferences": {},
  "source": "// SPDX-License-Identifier: GPL-3.0\npragma solidity 0.7.6;\n\nimport \"@openzeppelin/contracts/access/Ownable.sol\";\n\ncontract AddressResolver is Ownable {\n    mapping(bytes32 => address) public repository;\n\n    function importAddresses(bytes32[] calldata names, address[] calldata destinations) external onlyOwner {\n        require(names.length == destinations.length, \"Input lengths must match\");\n\n        for (uint i = 0; i < names.length; i++) {\n            repository[names[i]] = destinations[i];\n        }\n    }\n\n    function requireAndGetAddress(bytes32 name, string memory reason) internal view returns (address) {\n        address _foundAddress = repository[name];\n        require(_foundAddress != address(0), reason);\n        return _foundAddress;\n    }\n}\n",
  "sourcePath": "/mnt/zp/QiLin-v1/test/QiLin-v1-master/contracts/utils/AddressResolver.sol",
  "compiler": {
    "name": "solc",
    "version": "0.7.6+commit.7338295f.Emscripten.clang"
  },
  "schemaVersion": "3.4.1",
  "updatedAt": "2021-06-29T03:41:25.896Z",
  "devdoc": {
    "kind": "dev",
    "methods": {
      "owner()": {
        "details": "Returns the address of the current owner."
      },
      "renounceOwnership()": {
        "details": "Leaves the contract without owner. It will not be possible to call `onlyOwner` functions anymore. Can only be called by the current owner. NOTE: Renouncing ownership will leave the contract without an owner, thereby removing any functionality that is only available to the owner."
      },
      "transferOwnership(address)": {
        "details": "Transfers ownership of the contract to a new account (`newOwner`). Can only be called by the current owner."
      }
    },
    "version": 1
  },
  "userdoc": {
    "kind": "user",
    "methods": {},
    "version": 1
  }
}