{
  "contractName": "coinToken",
  "abi": [
    {
      "inputs": [],
      "stateMutability": "nonpayable",
      "type": "constructor"
    },
    {
      "anonymous": false,
      "inputs": [
        {
          "indexed": true,
          "internalType": "address",
          "name": "owner",
          "type": "address"
        },
        {
          "indexed": true,
          "internalType": "address",
          "name": "spender",
          "type": "address"
        },
        {
          "indexed": false,
          "internalType": "uint256",
          "name": "value",
          "type": "uint256"
        }
      ],
      "name": "Approval",
      "type": "event"
    },
    {
      "anonymous": false,
      "inputs": [
        {
          "indexed": true,
          "internalType": "address",
          "name": "previousOwner",
          "type": "address"
        },
        {
          "indexed": true,
          "internalType": "address",
          "name": "newOwner",
          "type": "address"
        }
      ],
      "name": "OwnershipTransferred",
      "type": "event"
    },
    {
      "anonymous": false,
      "inputs": [
        {
          "indexed": true,
          "internalType": "bytes32",
          "name": "role",
          "type": "bytes32"
        },
        {
          "indexed": true,
          "internalType": "bytes32",
          "name": "previousAdminRole",
          "type": "bytes32"
        },
        {
          "indexed": true,
          "internalType": "bytes32",
          "name": "newAdminRole",
          "type": "bytes32"
        }
      ],
      "name": "RoleAdminChanged",
      "type": "event"
    },
    {
      "anonymous": false,
      "inputs": [
        {
          "indexed": true,
          "internalType": "bytes32",
          "name": "role",
          "type": "bytes32"
        },
        {
          "indexed": true,
          "internalType": "address",
          "name": "account",
          "type": "address"
        },
        {
          "indexed": true,
          "internalType": "address",
          "name": "sender",
          "type": "address"
        }
      ],
      "name": "RoleGranted",
      "type": "event"
    },
    {
      "anonymous": false,
      "inputs": [
        {
          "indexed": true,
          "internalType": "bytes32",
          "name": "role",
          "type": "bytes32"
        },
        {
          "indexed": true,
          "internalType": "address",
          "name": "account",
          "type": "address"
        },
        {
          "indexed": true,
          "internalType": "address",
          "name": "sender",
          "type": "address"
        }
      ],
      "name": "RoleRevoked",
      "type": "event"
    },
    {
      "anonymous": false,
      "inputs": [
        {
          "indexed": true,
          "internalType": "address",
          "name": "from",
          "type": "address"
        },
        {
          "indexed": true,
          "internalType": "address",
          "name": "to",
          "type": "address"
        },
        {
          "indexed": false,
          "internalType": "uint256",
          "name": "value",
          "type": "uint256"
        }
      ],
      "name": "Transfer",
      "type": "event"
    },
    {
      "inputs": [],
      "name": "CONTROLER_ROLE",
      "outputs": [
        {
          "internalType": "bytes32",
          "name": "",
          "type": "bytes32"
        }
      ],
      "stateMutability": "view",
      "type": "function"
    },
    {
      "inputs": [],
      "name": "DEFAULT_ADMIN_ROLE",
      "outputs": [
        {
          "internalType": "bytes32",
          "name": "",
          "type": "bytes32"
        }
      ],
      "stateMutability": "view",
      "type": "function"
    },
    {
      "inputs": [
        {
          "internalType": "address",
          "name": "account",
          "type": "address"
        }
      ],
      "name": "addControler",
      "outputs": [],
      "stateMutability": "nonpayable",
      "type": "function"
    },
    {
      "inputs": [
        {
          "internalType": "address",
          "name": "owner",
          "type": "address"
        },
        {
          "internalType": "address",
          "name": "spender",
          "type": "address"
        }
      ],
      "name": "allowance",
      "outputs": [
        {
          "internalType": "uint256",
          "name": "",
          "type": "uint256"
        }
      ],
      "stateMutability": "view",
      "type": "function"
    },
    {
      "inputs": [
        {
          "internalType": "address",
          "name": "spender",
          "type": "address"
        },
        {
          "internalType": "uint256",
          "name": "amount",
          "type": "uint256"
        }
      ],
      "name": "approve",
      "outputs": [
        {
          "internalType": "bool",
          "name": "",
          "type": "bool"
        }
      ],
      "stateMutability": "nonpayable",
      "type": "function"
    },
    {
      "inputs": [
        {
          "internalType": "address",
          "name": "account",
          "type": "address"
        }
      ],
      "name": "balanceOf",
      "outputs": [
        {
          "internalType": "uint256",
          "name": "",
          "type": "uint256"
        }
      ],
      "stateMutability": "view",
      "type": "function"
    },
    {
      "inputs": [],
      "name": "decimals",
      "outputs": [
        {
          "internalType": "uint8",
          "name": "",
          "type": "uint8"
        }
      ],
      "stateMutability": "view",
      "type": "function"
    },
    {
      "inputs": [
        {
          "internalType": "address",
          "name": "spender",
          "type": "address"
        },
        {
          "internalType": "uint256",
          "name": "subtractedValue",
          "type": "uint256"
        }
      ],
      "name": "decreaseAllowance",
      "outputs": [
        {
          "internalType": "bool",
          "name": "",
          "type": "bool"
        }
      ],
      "stateMutability": "nonpayable",
      "type": "function"
    },
    {
      "inputs": [
        {
          "internalType": "bytes32",
          "name": "role",
          "type": "bytes32"
        }
      ],
      "name": "getRoleAdmin",
      "outputs": [
        {
          "internalType": "bytes32",
          "name": "",
          "type": "bytes32"
        }
      ],
      "stateMutability": "view",
      "type": "function"
    },
    {
      "inputs": [
        {
          "internalType": "bytes32",
          "name": "role",
          "type": "bytes32"
        },
        {
          "internalType": "uint256",
          "name": "index",
          "type": "uint256"
        }
      ],
      "name": "getRoleMember",
      "outputs": [
        {
          "internalType": "address",
          "name": "",
          "type": "address"
        }
      ],
      "stateMutability": "view",
      "type": "function"
    },
    {
      "inputs": [
        {
          "internalType": "bytes32",
          "name": "role",
          "type": "bytes32"
        }
      ],
      "name": "getRoleMemberCount",
      "outputs": [
        {
          "internalType": "uint256",
          "name": "",
          "type": "uint256"
        }
      ],
      "stateMutability": "view",
      "type": "function"
    },
    {
      "inputs": [
        {
          "internalType": "bytes32",
          "name": "role",
          "type": "bytes32"
        },
        {
          "internalType": "address",
          "name": "account",
          "type": "address"
        }
      ],
      "name": "grantRole",
      "outputs": [],
      "stateMutability": "nonpayable",
      "type": "function"
    },
    {
      "inputs": [
        {
          "internalType": "bytes32",
          "name": "role",
          "type": "bytes32"
        },
        {
          "internalType": "address",
          "name": "account",
          "type": "address"
        }
      ],
      "name": "hasRole",
      "outputs": [
        {
          "internalType": "bool",
          "name": "",
          "type": "bool"
        }
      ],
      "stateMutability": "view",
      "type": "function"
    },
    {
      "inputs": [
        {
          "internalType": "address",
          "name": "spender",
          "type": "address"
        },
        {
          "internalType": "uint256",
          "name": "addedValue",
          "type": "uint256"
        }
      ],
      "name": "increaseAllowance",
      "outputs": [
        {
          "internalType": "bool",
          "name": "",
          "type": "bool"
        }
      ],
      "stateMutability": "nonpayable",
      "type": "function"
    },
    {
      "inputs": [
        {
          "internalType": "address",
          "name": "account",
          "type": "address"
        }
      ],
      "name": "isControler",
      "outputs": [
        {
          "internalType": "bool",
          "name": "",
          "type": "bool"
        }
      ],
      "stateMutability": "view",
      "type": "function"
    },
    {
      "inputs": [],
      "name": "name",
      "outputs": [
        {
          "internalType": "string",
          "name": "",
          "type": "string"
        }
      ],
      "stateMutability": "view",
      "type": "function"
    },
    {
      "inputs": [],
      "name": "owner",
      "outputs": [
        {
          "internalType": "address",
          "name": "",
          "type": "address"
        }
      ],
      "stateMutability": "view",
      "type": "function"
    },
    {
      "inputs": [
        {
          "internalType": "address",
          "name": "account",
          "type": "address"
        }
      ],
      "name": "removeControler",
      "outputs": [],
      "stateMutability": "nonpayable",
      "type": "function"
    },
    {
      "inputs": [],
      "name": "renounceOwnership",
      "outputs": [],
      "stateMutability": "nonpayable",
      "type": "function"
    },
    {
      "inputs": [
        {
          "internalType": "bytes32",
          "name": "role",
          "type": "bytes32"
        },
        {
          "internalType": "address",
          "name": "account",
          "type": "address"
        }
      ],
      "name": "renounceRole",
      "outputs": [],
      "stateMutability": "nonpayable",
      "type": "function"
    },
    {
      "inputs": [],
      "name": "renounceSigner",
      "outputs": [],
      "stateMutability": "nonpayable",
      "type": "function"
    },
    {
      "inputs": [
        {
          "internalType": "bytes32",
          "name": "role",
          "type": "bytes32"
        },
        {
          "internalType": "address",
          "name": "account",
          "type": "address"
        }
      ],
      "name": "revokeRole",
      "outputs": [],
      "stateMutability": "nonpayable",
      "type": "function"
    },
    {
      "inputs": [],
      "name": "symbol",
      "outputs": [
        {
          "internalType": "string",
          "name": "",
          "type": "string"
        }
      ],
      "stateMutability": "view",
      "type": "function"
    },
    {
      "inputs": [],
      "name": "totalSupply",
      "outputs": [
        {
          "internalType": "uint256",
          "name": "",
          "type": "uint256"
        }
      ],
      "stateMutability": "view",
      "type": "function"
    },
    {
      "inputs": [
        {
          "internalType": "address",
          "name": "recipient",
          "type": "address"
        },
        {
          "internalType": "uint256",
          "name": "amount",
          "type": "uint256"
        }
      ],
      "name": "transfer",
      "outputs": [
        {
          "internalType": "bool",
          "name": "",
          "type": "bool"
        }
      ],
      "stateMutability": "nonpayable",
      "type": "function"
    },
    {
      "inputs": [
        {
          "internalType": "address",
          "name": "sender",
          "type": "address"
        },
        {
          "internalType": "address",
          "name": "recipient",
          "type": "address"
        },
        {
          "internalType": "uint256",
          "name": "amount",
          "type": "uint256"
        }
      ],
      "name": "transferFrom",
      "outputs": [
        {
          "internalType": "bool",
          "name": "",
          "type": "bool"
        }
      ],
      "stateMutability": "nonpayable",
      "type": "function"
    },
    {
      "inputs": [
        {
          "internalType": "address",
          "name": "newOwner",
          "type": "address"
        }
      ],
      "name": "transferOwnership",
      "outputs": [],
      "stateMutability": "nonpayable",
      "type": "function"
    },
    {
      "inputs": [
        {
          "internalType": "uint256",
          "name": "amount",
          "type": "uint256"
        }
      ],
      "name": "mint",
      "outputs": [],
      "stateMutability": "nonpayable",
      "type": "function"
    }
  ],
  "bytecode": "0x60806040523480156200001157600080fd5b5060408051808201825260048082526321a7a4a760e11b602080840182815285518087019096529285528401528151919291620000519160039162000270565b5080516200006790600490602084019062000270565b50506005805460ff1916601217905550600062000083620000f6565b60058054610100600160a81b0319166101006001600160a01b03841690810291909117909155604051919250906000907f8be0079c531659141344cd1fd0a4f28419497f9722a3daafe3b4186f6b6457e0908290a350620000f0336a52b7d2dcc80cd2e4000000620000fa565b6200031c565b3390565b6001600160a01b03821662000156576040805162461bcd60e51b815260206004820152601f60248201527f45524332303a206d696e7420746f20746865207a65726f206164647265737300604482015290519081900360640190fd5b620001646000838362000209565b62000180816002546200020e60201b62000dba1790919060201c565b6002556001600160a01b03821660009081526020818152604090912054620001b391839062000dba6200020e821b17901c565b6001600160a01b0383166000818152602081815260408083209490945583518581529351929391927fddf252ad1be2c89b69c2b068fc378daa952ba7f163c4a11628f55a4df523b3ef9281900390910190a35050565b505050565b60008282018381101562000269576040805162461bcd60e51b815260206004820152601b60248201527f536166654d6174683a206164646974696f6e206f766572666c6f770000000000604482015290519081900360640190fd5b9392505050565b828054600181600116156101000203166002900490600052602060002090601f016020900481019282620002a85760008555620002f3565b82601f10620002c357805160ff1916838001178555620002f3565b82800160010185558215620002f3579182015b82811115620002f3578251825591602001919060010190620002d6565b506200030192915062000305565b5090565b5b8082111562000301576000815560010162000306565b611726806200032c6000396000f3fe608060405234801561001057600080fd5b50600436106101c45760003560e01c80638f0858fb116100f9578063a9059cbb11610097578063dd62ed3e11610071578063dd62ed3e1461055a578063e5c8b03d14610588578063f2aa7b0b14610590578063f2fde38b146105b6576101c4565b8063a9059cbb146104e5578063ca15c87314610511578063d547741f1461052e576101c4565b806395d89b41116100d357806395d89b411461048c578063a0712d6814610494578063a217fddf146104b1578063a457c2d7146104b9576101c4565b80638f0858fb146104355780639010d07c1461043d57806391d1485414610460576101c4565b8063313ce56711610166578063395093511161014057806339509351146103b757806370a08231146103e3578063715018a6146104095780638da5cb5b14610411576101c4565b8063313ce5671461034757806333f1b0851461036557806336568abe1461038b576101c4565b806318160ddd116101a257806318160ddd146102ac57806323b872dd146102c6578063248a9ca3146102fc5780632f2ff15d14610319576101c4565b806306fdde03146101c9578063095ea7b314610246578063132b984714610286575b600080fd5b6101d16105dc565b6040805160208082528351818301528351919283929083019185019080838360005b8381101561020b5781810151838201526020016101f3565b50505050905090810190601f1680156102385780820380516001836020036101000a031916815260200191505b509250505060405180910390f35b6102726004803603604081101561025c57600080fd5b506001600160a01b038135169060200135610672565b604080519115158252519081900360200190f35b6102726004803603602081101561029c57600080fd5b50356001600160a01b0316610690565b6102b46106d2565b60408051918252519081900360200190f35b610272600480360360608110156102dc57600080fd5b506001600160a01b038135811691602081013590911690604001356106d8565b6102b46004803603602081101561031257600080fd5b503561075f565b6103456004803603604081101561032f57600080fd5b50803590602001356001600160a01b0316610774565b005b61034f6107e0565b6040805160ff9092168252519081900360200190f35b6103456004803603602081101561037b57600080fd5b50356001600160a01b03166107e9565b610345600480360360408110156103a157600080fd5b50803590602001356001600160a01b0316610866565b610272600480360360408110156103cd57600080fd5b506001600160a01b0381351690602001356108c7565b6102b4600480360360208110156103f957600080fd5b50356001600160a01b0316610915565b610345610930565b6104196109e2565b604080516001600160a01b039092168252519081900360200190f35b6102b46109f6565b6104196004803603604081101561045357600080fd5b5080359060200135610a08565b6102726004803603604081101561047657600080fd5b50803590602001356001600160a01b0316610a27565b6101d1610a3f565b610345600480360360208110156104aa57600080fd5b5035610aa0565b6102b4610af5565b610272600480360360408110156104cf57600080fd5b506001600160a01b038135169060200135610afa565b610272600480360360408110156104fb57600080fd5b506001600160a01b038135169060200135610b62565b6102b46004803603602081101561052757600080fd5b5035610b76565b6103456004803603604081101561054457600080fd5b50803590602001356001600160a01b0316610b8d565b6102b46004803603604081101561057057600080fd5b506001600160a01b0381358116916020013516610be6565b610345610c11565b610345600480360360208110156105a657600080fd5b50356001600160a01b0316610c32565b610345600480360360208110156105cc57600080fd5b50356001600160a01b0316610cac565b60038054604080516020601f60026000196101006001881615020190951694909404938401819004810282018101909252828152606093909290918301828280156106685780601f1061063d57610100808354040283529160200191610668565b820191906000526020600020905b81548152906001019060200180831161064b57829003601f168201915b5050505050905090565b600061068661067f610e14565b8484610e18565b5060015b92915050565b60006106aa60008051602061156083398151915283610a27565b8061068a5750816001600160a01b03166106c26109e2565b6001600160a01b03161492915050565b60025490565b60006106e5848484610f04565b610755846106f1610e14565b6107508560405180606001604052806028815260200161160c602891396001600160a01b038a1660009081526001602052604081209061072f610e14565b6001600160a01b03168152602081019190915260400160002054919061105f565b610e18565b5060019392505050565b60009081526006602052604090206002015490565b60008281526006602052604090206002015461079790610792610e14565b610a27565b6107d25760405162461bcd60e51b815260040180806020018281038252602f8152602001806114e9602f913960400191505060405180910390fd5b6107dc82826110f6565b5050565b60055460ff1690565b6107f1610e14565b6001600160a01b03166108026109e2565b6001600160a01b03161461084b576040805162461bcd60e51b81526020600482018190526024820152600080516020611634833981519152604482015290519081900360640190fd5b610863600080516020611560833981519152826107d2565b50565b61086e610e14565b6001600160a01b0316816001600160a01b0316146108bd5760405162461bcd60e51b815260040180806020018281038252602f8152602001806116c2602f913960400191505060405180910390fd5b6107dc828261115f565b60006106866108d4610e14565b8461075085600160006108e5610e14565b6001600160a01b03908116825260208083019390935260409182016000908120918c168152925290205490610dba565b6001600160a01b031660009081526020819052604090205490565b610938610e14565b6001600160a01b03166109496109e2565b6001600160a01b031614610992576040805162461bcd60e51b81526020600482018190526024820152600080516020611634833981519152604482015290519081900360640190fd5b60055460405160009161010090046001600160a01b0316907f8be0079c531659141344cd1fd0a4f28419497f9722a3daafe3b4186f6b6457e0908390a360058054610100600160a81b0319169055565b60055461010090046001600160a01b031690565b60008051602061156083398151915281565b6000828152600660205260408120610a2090836111c8565b9392505050565b6000828152600660205260408120610a2090836111d4565b60048054604080516020601f60026000196101006001881615020190951694909404938401819004810282018101909252828152606093909290918301828280156106685780601f1061063d57610100808354040283529160200191610668565b610ab0610aab610e14565b610690565b610aeb5760405162461bcd60e51b81526004018080602001828103825260368152602001806115a66036913960400191505060405180910390fd5b61086333826111e9565b600081565b6000610686610b07610e14565b846107508560405180606001604052806025815260200161169d6025913960016000610b31610e14565b6001600160a01b03908116825260208083019390935260409182016000908120918d1681529252902054919061105f565b6000610686610b6f610e14565b8484610f04565b600081815260066020526040812061068a906112d9565b600082815260066020526040902060020154610bab90610792610e14565b6108bd5760405162461bcd60e51b81526004018080602001828103825260308152602001806115dc6030913960400191505060405180910390fd5b6001600160a01b03918216600090815260016020908152604080832093909416825291909152205490565b610c30600080516020611560833981519152610c2b610e14565b610866565b565b610c3a610e14565b6001600160a01b0316610c4b6109e2565b6001600160a01b031614610c94576040805162461bcd60e51b81526020600482018190526024820152600080516020611634833981519152604482015290519081900360640190fd5b61086360008051602061156083398151915282610b8d565b610cb4610e14565b6001600160a01b0316610cc56109e2565b6001600160a01b031614610d0e576040805162461bcd60e51b81526020600482018190526024820152600080516020611634833981519152604482015290519081900360640190fd5b6001600160a01b038116610d535760405162461bcd60e51b81526004018080602001828103825260268152602001806115186026913960400191505060405180910390fd5b6005546040516001600160a01b0380841692610100900416907f8be0079c531659141344cd1fd0a4f28419497f9722a3daafe3b4186f6b6457e090600090a3600580546001600160a01b0390921661010002610100600160a81b0319909216919091179055565b600082820183811015610a20576040805162461bcd60e51b815260206004820152601b60248201527f536166654d6174683a206164646974696f6e206f766572666c6f770000000000604482015290519081900360640190fd5b3390565b6001600160a01b038316610e5d5760405162461bcd60e51b81526004018080602001828103825260248152602001806116796024913960400191505060405180910390fd5b6001600160a01b038216610ea25760405162461bcd60e51b815260040180806020018281038252602281526020018061153e6022913960400191505060405180910390fd5b6001600160a01b03808416600081815260016020908152604080832094871680845294825291829020859055815185815291517f8c5be1e5ebec7d5bd14f71427d1e84f3dd0314c0f7b2291e5b200ac8c7c3b9259281900390910190a3505050565b6001600160a01b038316610f495760405162461bcd60e51b81526004018080602001828103825260258152602001806116546025913960400191505060405180910390fd5b6001600160a01b038216610f8e5760405162461bcd60e51b81526004018080602001828103825260238152602001806114c66023913960400191505060405180910390fd5b610f998383836112e4565b610fd681604051806060016040528060268152602001611580602691396001600160a01b038616600090815260208190526040902054919061105f565b6001600160a01b0380851660009081526020819052604080822093909355908416815220546110059082610dba565b6001600160a01b038084166000818152602081815260409182902094909455805185815290519193928716927fddf252ad1be2c89b69c2b068fc378daa952ba7f163c4a11628f55a4df523b3ef92918290030190a3505050565b600081848411156110ee5760405162461bcd60e51b81526004018080602001828103825283818151815260200191508051906020019080838360005b838110156110b357818101518382015260200161109b565b50505050905090810190601f1680156110e05780820380516001836020036101000a031916815260200191505b509250505060405180910390fd5b505050900390565b600082815260066020526040902061110e90826112e9565b156107dc5761111b610e14565b6001600160a01b0316816001600160a01b0316837f2f8788117e7eff1d82e926ec794901d17c78024a50270940304540a733656f0d60405160405180910390a45050565b600082815260066020526040902061117790826112fe565b156107dc57611184610e14565b6001600160a01b0316816001600160a01b0316837ff6391f5c32d9c69d2a47ea670b442974b53935d1edc7fd64eb21e047a839171b60405160405180910390a45050565b6000610a208383611313565b6000610a20836001600160a01b038416611377565b6001600160a01b038216611244576040805162461bcd60e51b815260206004820152601f60248201527f45524332303a206d696e7420746f20746865207a65726f206164647265737300604482015290519081900360640190fd5b611250600083836112e4565b60025461125d9082610dba565b6002556001600160a01b0382166000908152602081905260409020546112839082610dba565b6001600160a01b0383166000818152602081815260408083209490945583518581529351929391927fddf252ad1be2c89b69c2b068fc378daa952ba7f163c4a11628f55a4df523b3ef9281900390910190a35050565b600061068a8261138f565b505050565b6000610a20836001600160a01b038416611393565b6000610a20836001600160a01b0384166113dd565b815460009082106113555760405162461bcd60e51b81526004018080602001828103825260228152602001806114a46022913960400191505060405180910390fd5b82600001828154811061136457fe5b9060005260206000200154905092915050565b60009081526001919091016020526040902054151590565b5490565b600061139f8383611377565b6113d55750815460018181018455600084815260208082209093018490558454848252828601909352604090209190915561068a565b50600061068a565b60008181526001830160205260408120548015611499578354600019808301919081019060009087908390811061141057fe5b906000526020600020015490508087600001848154811061142d57fe5b60009182526020808320909101929092558281526001898101909252604090209084019055865487908061145d57fe5b6001900381819060005260206000200160009055905586600101600087815260200190815260200160002060009055600194505050505061068a565b600091505061068a56fe456e756d657261626c655365743a20696e646578206f7574206f6620626f756e647345524332303a207472616e7366657220746f20746865207a65726f2061646472657373416363657373436f6e74726f6c3a2073656e646572206d75737420626520616e2061646d696e20746f206772616e744f776e61626c653a206e6577206f776e657220697320746865207a65726f206164647265737345524332303a20617070726f766520746f20746865207a65726f2061646472657373641e16bf8adecd73ba0a8375248f9ed087f0f27a2661b4fd664ad5eda0506f7d45524332303a207472616e7366657220616d6f756e7420657863656564732062616c616e6365436f6e74726f6c6572526f6c653a2063616c6c657220646f6573206e6f7420686176652074686520436f6e74726f6c657220726f6c65416363657373436f6e74726f6c3a2073656e646572206d75737420626520616e2061646d696e20746f207265766f6b6545524332303a207472616e7366657220616d6f756e74206578636565647320616c6c6f77616e63654f776e61626c653a2063616c6c6572206973206e6f7420746865206f776e657245524332303a207472616e736665722066726f6d20746865207a65726f206164647265737345524332303a20617070726f76652066726f6d20746865207a65726f206164647265737345524332303a2064656372656173656420616c6c6f77616e63652062656c6f77207a65726f416363657373436f6e74726f6c3a2063616e206f6e6c792072656e6f756e636520726f6c657320666f722073656c66a2646970667358221220b441d1eae67d3045015d9dbb8fed69d91389ec286acab05591bd8be3ceb01fde64736f6c63430007060033",
  "immutableReferences": {},
  "source": "// SPDX-License-Identifier: GPL-3.0\npragma solidity 0.7.6;\n\nimport \"@openzeppelin/contracts/token/ERC20/ERC20.sol\";\nimport \"@openzeppelin/contracts/math/SafeMath.sol\";\n\nimport \"../../utils/ControlerRole.sol\";\n\ncontract coinToken is ERC20(\"COIN\", \"COIN\"), ControlerRole {\n    using SafeMath for uint256;\n\n    constructor() public {\n        _mint(msg.sender, 100000000000000000000000000);\n    }\n\n    function mint(uint256 amount) public onlyControler {\n        _mint(msg.sender, amount);\n    }\n}\n",
  "sourcePath": "/mnt/zp/QiLin-v1/test/QiLin-v1-master/contracts/mocks/tokenization/coinToken.sol",
  "compiler": {
    "name": "solc",
    "version": "0.7.6+commit.7338295f.Emscripten.clang"
  },
  "schemaVersion": "3.4.1",
  "updatedAt": "2021-06-29T03:41:25.887Z",
  "devdoc": {
    "kind": "dev",
    "methods": {
      "allowance(address,address)": {
        "details": "See {IERC20-allowance}."
      },
      "approve(address,uint256)": {
        "details": "See {IERC20-approve}. Requirements: - `spender` cannot be the zero address."
      },
      "balanceOf(address)": {
        "details": "See {IERC20-balanceOf}."
      },
      "decimals()": {
        "details": "Returns the number of decimals used to get its user representation. For example, if `decimals` equals `2`, a balance of `505` tokens should be displayed to a user as `5,05` (`505 / 10 ** 2`). Tokens usually opt for a value of 18, imitating the relationship between Ether and Wei. This is the value {ERC20} uses, unless {_setupDecimals} is called. NOTE: This information is only used for _display_ purposes: it in no way affects any of the arithmetic of the contract, including {IERC20-balanceOf} and {IERC20-transfer}."
      },
      "decreaseAllowance(address,uint256)": {
        "details": "Atomically decreases the allowance granted to `spender` by the caller. This is an alternative to {approve} that can be used as a mitigation for problems described in {IERC20-approve}. Emits an {Approval} event indicating the updated allowance. Requirements: - `spender` cannot be the zero address. - `spender` must have allowance for the caller of at least `subtractedValue`."
      },
      "getRoleAdmin(bytes32)": {
        "details": "Returns the admin role that controls `role`. See {grantRole} and {revokeRole}. To change a role's admin, use {_setRoleAdmin}."
      },
      "getRoleMember(bytes32,uint256)": {
        "details": "Returns one of the accounts that have `role`. `index` must be a value between 0 and {getRoleMemberCount}, non-inclusive. Role bearers are not sorted in any particular way, and their ordering may change at any point. WARNING: When using {getRoleMember} and {getRoleMemberCount}, make sure you perform all queries on the same block. See the following https://forum.openzeppelin.com/t/iterating-over-elements-on-enumerableset-in-openzeppelin-contracts/2296[forum post] for more information."
      },
      "getRoleMemberCount(bytes32)": {
        "details": "Returns the number of accounts that have `role`. Can be used together with {getRoleMember} to enumerate all bearers of a role."
      },
      "grantRole(bytes32,address)": {
        "details": "Grants `role` to `account`. If `account` had not been already granted `role`, emits a {RoleGranted} event. Requirements: - the caller must have ``role``'s admin role."
      },
      "hasRole(bytes32,address)": {
        "details": "Returns `true` if `account` has been granted `role`."
      },
      "increaseAllowance(address,uint256)": {
        "details": "Atomically increases the allowance granted to `spender` by the caller. This is an alternative to {approve} that can be used as a mitigation for problems described in {IERC20-approve}. Emits an {Approval} event indicating the updated allowance. Requirements: - `spender` cannot be the zero address."
      },
      "name()": {
        "details": "Returns the name of the token."
      },
      "owner()": {
        "details": "Returns the address of the current owner."
      },
      "renounceOwnership()": {
        "details": "Leaves the contract without owner. It will not be possible to call `onlyOwner` functions anymore. Can only be called by the current owner. NOTE: Renouncing ownership will leave the contract without an owner, thereby removing any functionality that is only available to the owner."
      },
      "renounceRole(bytes32,address)": {
        "details": "Revokes `role` from the calling account. Roles are often managed via {grantRole} and {revokeRole}: this function's purpose is to provide a mechanism for accounts to lose their privileges if they are compromised (such as when a trusted device is misplaced). If the calling account had been granted `role`, emits a {RoleRevoked} event. Requirements: - the caller must be `account`."
      },
      "revokeRole(bytes32,address)": {
        "details": "Revokes `role` from `account`. If `account` had been granted `role`, emits a {RoleRevoked} event. Requirements: - the caller must have ``role``'s admin role."
      },
      "symbol()": {
        "details": "Returns the symbol of the token, usually a shorter version of the name."
      },
      "totalSupply()": {
        "details": "See {IERC20-totalSupply}."
      },
      "transfer(address,uint256)": {
        "details": "See {IERC20-transfer}. Requirements: - `recipient` cannot be the zero address. - the caller must have a balance of at least `amount`."
      },
      "transferFrom(address,address,uint256)": {
        "details": "See {IERC20-transferFrom}. Emits an {Approval} event indicating the updated allowance. This is not required by the EIP. See the note at the beginning of {ERC20}. Requirements: - `sender` and `recipient` cannot be the zero address. - `sender` must have a balance of at least `amount`. - the caller must have allowance for ``sender``'s tokens of at least `amount`."
      },
      "transferOwnership(address)": {
        "details": "Transfers ownership of the contract to a new account (`newOwner`). Can only be called by the current owner."
      }
    },
    "version": 1
  },
  "userdoc": {
    "kind": "user",
    "methods": {},
    "version": 1
  }
}