{
  "contractName": "Depot",
  "abi": [
    {
      "inputs": [
        {
          "internalType": "address[]",
          "name": "powers",
          "type": "address[]"
        }
      ],
      "stateMutability": "nonpayable",
      "type": "constructor"
    },
    {
      "anonymous": false,
      "inputs": [
        {
          "indexed": true,
          "internalType": "address",
          "name": "previousOwner",
          "type": "address"
        },
        {
          "indexed": true,
          "internalType": "address",
          "name": "newOwner",
          "type": "address"
        }
      ],
      "name": "OwnershipTransferred",
      "type": "event"
    },
    {
      "inputs": [],
      "name": "_positionIndex",
      "outputs": [
        {
          "internalType": "uint32",
          "name": "",
          "type": "uint32"
        }
      ],
      "stateMutability": "view",
      "type": "function"
    },
    {
      "inputs": [
        {
          "internalType": "uint32",
          "name": "",
          "type": "uint32"
        }
      ],
      "name": "_positions",
      "outputs": [
        {
          "internalType": "uint256",
          "name": "share",
          "type": "uint256"
        },
        {
          "internalType": "uint256",
          "name": "openPositionPrice",
          "type": "uint256"
        },
        {
          "internalType": "uint256",
          "name": "leveragedPosition",
          "type": "uint256"
        },
        {
          "internalType": "uint256",
          "name": "margin",
          "type": "uint256"
        },
        {
          "internalType": "uint256",
          "name": "openRebaseLeft",
          "type": "uint256"
        },
        {
          "internalType": "address",
          "name": "account",
          "type": "address"
        },
        {
          "internalType": "uint32",
          "name": "currencyKeyIdx",
          "type": "uint32"
        },
        {
          "internalType": "uint8",
          "name": "direction",
          "type": "uint8"
        }
      ],
      "stateMutability": "view",
      "type": "function"
    },
    {
      "inputs": [
        {
          "internalType": "address",
          "name": "",
          "type": "address"
        }
      ],
      "name": "_powers",
      "outputs": [
        {
          "internalType": "uint8",
          "name": "",
          "type": "uint8"
        }
      ],
      "stateMutability": "view",
      "type": "function"
    },
    {
      "inputs": [],
      "name": "_rebaseLeftLong",
      "outputs": [
        {
          "internalType": "uint256",
          "name": "",
          "type": "uint256"
        }
      ],
      "stateMutability": "view",
      "type": "function"
    },
    {
      "inputs": [],
      "name": "_rebaseLeftShort",
      "outputs": [
        {
          "internalType": "uint256",
          "name": "",
          "type": "uint256"
        }
      ],
      "stateMutability": "view",
      "type": "function"
    },
    {
      "inputs": [],
      "name": "_totalLeveragedPositionsLong",
      "outputs": [
        {
          "internalType": "uint256",
          "name": "",
          "type": "uint256"
        }
      ],
      "stateMutability": "view",
      "type": "function"
    },
    {
      "inputs": [],
      "name": "_totalLeveragedPositionsShort",
      "outputs": [
        {
          "internalType": "uint256",
          "name": "",
          "type": "uint256"
        }
      ],
      "stateMutability": "view",
      "type": "function"
    },
    {
      "inputs": [],
      "name": "_totalMarginLong",
      "outputs": [
        {
          "internalType": "uint256",
          "name": "",
          "type": "uint256"
        }
      ],
      "stateMutability": "view",
      "type": "function"
    },
    {
      "inputs": [],
      "name": "_totalMarginShort",
      "outputs": [
        {
          "internalType": "uint256",
          "name": "",
          "type": "uint256"
        }
      ],
      "stateMutability": "view",
      "type": "function"
    },
    {
      "inputs": [],
      "name": "_totalShareLong",
      "outputs": [
        {
          "internalType": "uint256",
          "name": "",
          "type": "uint256"
        }
      ],
      "stateMutability": "view",
      "type": "function"
    },
    {
      "inputs": [],
      "name": "_totalShareShort",
      "outputs": [
        {
          "internalType": "uint256",
          "name": "",
          "type": "uint256"
        }
      ],
      "stateMutability": "view",
      "type": "function"
    },
    {
      "inputs": [],
      "name": "_totalSizeLong",
      "outputs": [
        {
          "internalType": "uint256",
          "name": "",
          "type": "uint256"
        }
      ],
      "stateMutability": "view",
      "type": "function"
    },
    {
      "inputs": [],
      "name": "_totalSizeShort",
      "outputs": [
        {
          "internalType": "uint256",
          "name": "",
          "type": "uint256"
        }
      ],
      "stateMutability": "view",
      "type": "function"
    },
    {
      "inputs": [
        {
          "internalType": "bytes32[]",
          "name": "names",
          "type": "bytes32[]"
        },
        {
          "internalType": "address[]",
          "name": "destinations",
          "type": "address[]"
        }
      ],
      "name": "importAddresses",
      "outputs": [],
      "stateMutability": "nonpayable",
      "type": "function"
    },
    {
      "inputs": [],
      "name": "owner",
      "outputs": [
        {
          "internalType": "address",
          "name": "",
          "type": "address"
        }
      ],
      "stateMutability": "view",
      "type": "function"
    },
    {
      "inputs": [],
      "name": "renounceOwnership",
      "outputs": [],
      "stateMutability": "nonpayable",
      "type": "function"
    },
    {
      "inputs": [
        {
          "internalType": "bytes32",
          "name": "",
          "type": "bytes32"
        }
      ],
      "name": "repository",
      "outputs": [
        {
          "internalType": "address",
          "name": "",
          "type": "address"
        }
      ],
      "stateMutability": "view",
      "type": "function"
    },
    {
      "inputs": [
        {
          "internalType": "address",
          "name": "newOwner",
          "type": "address"
        }
      ],
      "name": "transferOwnership",
      "outputs": [],
      "stateMutability": "nonpayable",
      "type": "function"
    },
    {
      "inputs": [
        {
          "internalType": "uint8",
          "name": "direction",
          "type": "uint8"
        }
      ],
      "name": "netValue",
      "outputs": [
        {
          "internalType": "uint256",
          "name": "",
          "type": "uint256"
        }
      ],
      "stateMutability": "view",
      "type": "function"
    },
    {
      "inputs": [
        {
          "internalType": "uint256",
          "name": "leveragedPosition",
          "type": "uint256"
        },
        {
          "internalType": "uint256",
          "name": "share",
          "type": "uint256"
        },
        {
          "internalType": "uint8",
          "name": "direction",
          "type": "uint8"
        }
      ],
      "name": "calMarginLoss",
      "outputs": [
        {
          "internalType": "uint256",
          "name": "",
          "type": "uint256"
        }
      ],
      "stateMutability": "view",
      "type": "function"
    },
    {
      "inputs": [
        {
          "internalType": "uint32",
          "name": "currencyKeyIdx",
          "type": "uint32"
        },
        {
          "internalType": "uint256",
          "name": "leveragedPosition",
          "type": "uint256"
        },
        {
          "internalType": "uint256",
          "name": "openPositionPrice",
          "type": "uint256"
        },
        {
          "internalType": "uint8",
          "name": "direction",
          "type": "uint8"
        }
      ],
      "name": "calNetProfit",
      "outputs": [
        {
          "internalType": "bool",
          "name": "",
          "type": "bool"
        },
        {
          "internalType": "uint256",
          "name": "",
          "type": "uint256"
        }
      ],
      "stateMutability": "view",
      "type": "function"
    },
    {
      "inputs": [
        {
          "internalType": "bool",
          "name": "isLong",
          "type": "bool"
        },
        {
          "internalType": "uint256",
          "name": "liquidity",
          "type": "uint256"
        },
        {
          "internalType": "uint256",
          "name": "detaMargin",
          "type": "uint256"
        },
        {
          "internalType": "uint256",
          "name": "detaLeveraged",
          "type": "uint256"
        },
        {
          "internalType": "uint256",
          "name": "detaShare",
          "type": "uint256"
        },
        {
          "internalType": "uint256",
          "name": "rebaseLeft",
          "type": "uint256"
        }
      ],
      "name": "updateSubTotalState",
      "outputs": [],
      "stateMutability": "nonpayable",
      "type": "function"
    },
    {
      "inputs": [
        {
          "internalType": "address",
          "name": "account",
          "type": "address"
        },
        {
          "internalType": "uint256",
          "name": "openPositionPrice",
          "type": "uint256"
        },
        {
          "internalType": "uint256",
          "name": "margin",
          "type": "uint256"
        },
        {
          "internalType": "uint32",
          "name": "currencyKeyIdx",
          "type": "uint32"
        },
        {
          "internalType": "uint16",
          "name": "level",
          "type": "uint16"
        },
        {
          "internalType": "uint8",
          "name": "direction",
          "type": "uint8"
        }
      ],
      "name": "newPosition",
      "outputs": [
        {
          "internalType": "uint32",
          "name": "",
          "type": "uint32"
        }
      ],
      "stateMutability": "nonpayable",
      "type": "function"
    },
    {
      "inputs": [
        {
          "internalType": "address",
          "name": "account",
          "type": "address"
        },
        {
          "internalType": "uint32",
          "name": "positionId",
          "type": "uint32"
        },
        {
          "internalType": "uint256",
          "name": "margin",
          "type": "uint256"
        }
      ],
      "name": "addDeposit",
      "outputs": [],
      "stateMutability": "nonpayable",
      "type": "function"
    },
    {
      "inputs": [
        {
          "components": [
            {
              "internalType": "uint256",
              "name": "share",
              "type": "uint256"
            },
            {
              "internalType": "uint256",
              "name": "openPositionPrice",
              "type": "uint256"
            },
            {
              "internalType": "uint256",
              "name": "leveragedPosition",
              "type": "uint256"
            },
            {
              "internalType": "uint256",
              "name": "margin",
              "type": "uint256"
            },
            {
              "internalType": "uint256",
              "name": "openRebaseLeft",
              "type": "uint256"
            },
            {
              "internalType": "address",
              "name": "account",
              "type": "address"
            },
            {
              "internalType": "uint32",
              "name": "currencyKeyIdx",
              "type": "uint32"
            },
            {
              "internalType": "uint8",
              "name": "direction",
              "type": "uint8"
            }
          ],
          "internalType": "struct Position",
          "name": "position",
          "type": "tuple"
        },
        {
          "internalType": "uint32",
          "name": "positionId",
          "type": "uint32"
        },
        {
          "internalType": "bool",
          "name": "isProfit",
          "type": "bool"
        },
        {
          "internalType": "uint256",
          "name": "fee",
          "type": "uint256"
        },
        {
          "internalType": "uint256",
          "name": "value",
          "type": "uint256"
        },
        {
          "internalType": "uint256",
          "name": "marginLoss",
          "type": "uint256"
        },
        {
          "internalType": "uint256",
          "name": "liqReward",
          "type": "uint256"
        }
      ],
      "name": "liquidate",
      "outputs": [],
      "stateMutability": "nonpayable",
      "type": "function"
    },
    {
      "inputs": [
        {
          "components": [
            {
              "internalType": "uint256",
              "name": "share",
              "type": "uint256"
            },
            {
              "internalType": "uint256",
              "name": "openPositionPrice",
              "type": "uint256"
            },
            {
              "internalType": "uint256",
              "name": "leveragedPosition",
              "type": "uint256"
            },
            {
              "internalType": "uint256",
              "name": "margin",
              "type": "uint256"
            },
            {
              "internalType": "uint256",
              "name": "openRebaseLeft",
              "type": "uint256"
            },
            {
              "internalType": "address",
              "name": "account",
              "type": "address"
            },
            {
              "internalType": "uint32",
              "name": "currencyKeyIdx",
              "type": "uint32"
            },
            {
              "internalType": "uint8",
              "name": "direction",
              "type": "uint8"
            }
          ],
          "internalType": "struct Position",
          "name": "position",
          "type": "tuple"
        },
        {
          "internalType": "uint32",
          "name": "positionId",
          "type": "uint32"
        },
        {
          "internalType": "uint256",
          "name": "liquidateFee",
          "type": "uint256"
        },
        {
          "internalType": "uint256",
          "name": "marginLoss",
          "type": "uint256"
        }
      ],
      "name": "bankruptedLiquidate",
      "outputs": [],
      "stateMutability": "nonpayable",
      "type": "function"
    },
    {
      "inputs": [
        {
          "components": [
            {
              "internalType": "uint256",
              "name": "share",
              "type": "uint256"
            },
            {
              "internalType": "uint256",
              "name": "openPositionPrice",
              "type": "uint256"
            },
            {
              "internalType": "uint256",
              "name": "leveragedPosition",
              "type": "uint256"
            },
            {
              "internalType": "uint256",
              "name": "margin",
              "type": "uint256"
            },
            {
              "internalType": "uint256",
              "name": "openRebaseLeft",
              "type": "uint256"
            },
            {
              "internalType": "address",
              "name": "account",
              "type": "address"
            },
            {
              "internalType": "uint32",
              "name": "currencyKeyIdx",
              "type": "uint32"
            },
            {
              "internalType": "uint8",
              "name": "direction",
              "type": "uint8"
            }
          ],
          "internalType": "struct Position",
          "name": "position",
          "type": "tuple"
        },
        {
          "internalType": "uint32",
          "name": "positionId",
          "type": "uint32"
        },
        {
          "internalType": "bool",
          "name": "isProfit",
          "type": "bool"
        },
        {
          "internalType": "uint256",
          "name": "value",
          "type": "uint256"
        },
        {
          "internalType": "uint256",
          "name": "marginLoss",
          "type": "uint256"
        },
        {
          "internalType": "uint256",
          "name": "fee",
          "type": "uint256"
        }
      ],
      "name": "closePosition",
      "outputs": [],
      "stateMutability": "nonpayable",
      "type": "function"
    },
    {
      "inputs": [
        {
          "internalType": "address",
          "name": "account",
          "type": "address"
        },
        {
          "internalType": "uint256",
          "name": "value",
          "type": "uint256"
        }
      ],
      "name": "addLiquidity",
      "outputs": [],
      "stateMutability": "nonpayable",
      "type": "function"
    },
    {
      "inputs": [
        {
          "internalType": "address",
          "name": "account",
          "type": "address"
        },
        {
          "internalType": "uint256",
          "name": "value",
          "type": "uint256"
        }
      ],
      "name": "withdrawLiquidity",
      "outputs": [],
      "stateMutability": "nonpayable",
      "type": "function"
    },
    {
      "inputs": [
        {
          "internalType": "uint32",
          "name": "positionId",
          "type": "uint32"
        }
      ],
      "name": "position",
      "outputs": [
        {
          "internalType": "address",
          "name": "account",
          "type": "address"
        },
        {
          "internalType": "uint256",
          "name": "share",
          "type": "uint256"
        },
        {
          "internalType": "uint256",
          "name": "leveragedPosition",
          "type": "uint256"
        },
        {
          "internalType": "uint256",
          "name": "openPositionPrice",
          "type": "uint256"
        },
        {
          "internalType": "uint32",
          "name": "currencyKeyIdx",
          "type": "uint32"
        },
        {
          "internalType": "uint8",
          "name": "direction",
          "type": "uint8"
        },
        {
          "internalType": "uint256",
          "name": "margin",
          "type": "uint256"
        },
        {
          "internalType": "uint256",
          "name": "openRebaseLeft",
          "type": "uint256"
        }
      ],
      "stateMutability": "view",
      "type": "function"
    },
    {
      "inputs": [
        {
          "internalType": "bytes32",
          "name": "currencyKey",
          "type": "bytes32"
        },
        {
          "internalType": "uint32",
          "name": "positionId",
          "type": "uint32"
        }
      ],
      "name": "positionState",
      "outputs": [
        {
          "internalType": "address",
          "name": "account",
          "type": "address"
        },
        {
          "internalType": "uint256",
          "name": "pSize",
          "type": "uint256"
        },
        {
          "internalType": "uint256",
          "name": "pValue",
          "type": "uint256"
        },
        {
          "internalType": "uint256",
          "name": "forceLiquidation",
          "type": "uint256"
        },
        {
          "internalType": "uint256",
          "name": "PnL",
          "type": "uint256"
        }
      ],
      "stateMutability": "view",
      "type": "function"
    },
    {
      "inputs": [],
      "name": "initialFundingCompleted",
      "outputs": [
        {
          "internalType": "bool",
          "name": "",
          "type": "bool"
        }
      ],
      "stateMutability": "view",
      "type": "function"
    },
    {
      "inputs": [],
      "name": "liquidityPool",
      "outputs": [
        {
          "internalType": "uint256",
          "name": "",
          "type": "uint256"
        }
      ],
      "stateMutability": "view",
      "type": "function"
    },
    {
      "inputs": [],
      "name": "totalLeveragedPositions",
      "outputs": [
        {
          "internalType": "uint256",
          "name": "",
          "type": "uint256"
        }
      ],
      "stateMutability": "view",
      "type": "function"
    },
    {
      "inputs": [],
      "name": "totalValue",
      "outputs": [
        {
          "internalType": "uint256",
          "name": "",
          "type": "uint256"
        }
      ],
      "stateMutability": "view",
      "type": "function"
    },
    {
      "inputs": [],
      "name": "completeInitialFunding",
      "outputs": [],
      "stateMutability": "nonpayable",
      "type": "function"
    },
    {
      "inputs": [],
      "name": "getTotalPositionState",
      "outputs": [
        {
          "internalType": "uint256",
          "name": "",
          "type": "uint256"
        },
        {
          "internalType": "uint256",
          "name": "",
          "type": "uint256"
        },
        {
          "internalType": "uint256",
          "name": "",
          "type": "uint256"
        },
        {
          "internalType": "uint256",
          "name": "",
          "type": "uint256"
        }
      ],
      "stateMutability": "view",
      "type": "function"
    }
  ],
  "bytecode": "0x60806040526003805464ffffffffff19169055600060058190556006819055600781905560088190556009819055600a819055600b819055600c819055600d819055600e819055600f553480156200005657600080fd5b5060405162002e6238038062002e62833981016040819052620000799162000167565b60006200008562000146565b600080546001600160a01b0319166001600160a01b0383169081178255604051929350917f8be0079c531659141344cd1fd0a4f28419497f9722a3daafe3b4186f6b6457e0908290a350670de0b6b3a7640000600e819055600f5560005b81518110156200013e576001600260008484815181106200010057fe5b6020908102919091018101516001600160a01b03168252810191909152604001600020805460ff191660ff92909216919091179055600101620000e3565b505062000225565b3390565b80516001600160a01b03811681146200016257600080fd5b919050565b600060208083850312156200017a578182fd5b82516001600160401b038082111562000191578384fd5b818501915085601f830112620001a5578384fd5b815181811115620001b257fe5b83810260405185828201018181108582111715620001cc57fe5b604052828152858101935084860182860187018a1015620001eb578788fd5b8795505b83861015620002185762000203816200014a565b855260019590950194938601938601620001ef565b5098975050505050505050565b612c2d80620002356000396000f3fe608060405234801561001057600080fd5b50600436106102275760003560e01c80637b08e9df11610130578063afaeca03116100b8578063d8097c901161007c578063d8097c9014610460578063dec5250214610468578063e6235a8d14610470578063f2fde38b14610483578063f77fc8011461049657610227565b8063afaeca0314610438578063b040283714610440578063b707590114610448578063cb02869214610450578063d4c3eea01461045857610227565b80638da5cb5b116100ff5780638da5cb5b1461040557806399210dd01461040d578063a67c4e5014610415578063a96b16341461041d578063ab0b8f771461042557610227565b80637b08e9df146103ae5780637d2a8ff9146103d55780637e94cc79146103ea5780637f1aedc3146103fd57610227565b806337884700116101b357806356688700116101825780635668870014610358578063603ec4761461036b578063665a11ca1461038b578063715018a614610393578063739039f11461039b57610227565b8063378847001461030657806338dcc48a1461030e57806345d07772146103215780634622f4391461034557610227565b80631e5ffd69116101fa5780631e5ffd6914610297578063210f1e06146102aa5780632215b77c146102bf57806328169307146102d257806337081dae146102f357610227565b806306d47de91461022c57806309898ade14610241578063120089ff1461025f578063187f793514610277575b600080fd5b61023f61023a366004612538565b6104bd565b005b610249610529565b60405161025691906129de565b60405180910390f35b61026761052f565b6040516102569493929190612aef565b61028a6102853660046126c0565b610634565b604051610256919061291d565b61023f6102a53660046125d0565b61064f565b6102b261084f565b60405161025691906129c3565b61023f6102cd3660046127df565b610858565b6102e56102e03660046128bc565b610a76565b6040516102569291906129ce565b61023f610301366004612707565b610b5d565b610249610dab565b61023f61031c366004612677565b610db1565b61033461032f3660046126d8565b610ee9565b60405161025695949392919061294b565b61023f61035336600461276e565b6111d7565b61023f610366366004612538565b611378565b61037e61037936600461251e565b6113d9565b6040516102569190612b63565b6102496113ee565b61023f6113f4565b6102496103a9366004612903565b6114b2565b6103c16103bc366004612873565b6114c5565b604051610256989796959493929190612b0a565b6103dd61151d565b6040516102569190612b52565b6103dd6103f8366004612561565b61152e565b6102496118c3565b61028a6118e1565b6102496118f0565b6102496118f6565b6102496118fc565b61023f61043336600461260e565b611902565b610249611a40565b610249611a46565b61023f611a4c565b610249611a8d565b610249611a93565b610249611b5d565b610249611b63565b61024961047e36600461283f565b611b69565b61023f61049136600461251e565b611ba4565b6104a96104a4366004612873565b611cb8565b604051610256989796959493929190612979565b3360009081526002602052604090205460ff166001146104f85760405162461bcd60e51b81526004016104ef90612a33565b60405180910390fd5b6005546105059082611d53565b6005556105258282610515611db5565b6001600160a01b03169190611e05565b5050565b600e5481565b600080600080600061053f611e5c565b6001600160a01b031663ac82f60861636b60f01b6040518263ffffffff1660e01b815260040161056f91906129de565b604080518083038186803b15801561058657600080fd5b505afa15801561059a573d6000803e3d6000fd5b505050506040513d601f19601f820116820180604052508101906105be919061288f565b91505060006c0c9f2c9cd04674edea400000006105e683600c54611ead90919063ffffffff16565b816105ed57fe5b04905060006c0c9f2c9cd04674edea4000000061061584600d54611ead90919063ffffffff16565b8161061c57fe5b600654600754909a9099509397500494509092505050565b6001602052600090815260409020546001600160a01b031681565b3360009081526002602052604090205460ff166001146106815760405162461bcd60e51b81526004016104ef90612a33565b63ffffffff82811660009081526004602081815260409283902083516101008101855281548152600182015492810192909252600281015493820193909352600383015460608201529082015460808201526005909101546001600160a01b0380821660a08401819052600160a01b830490941660c0840152600160c01b90910460ff1660e083015290919085161461072c5760405162461bcd60e51b81526004016104ef90612ac3565b6000610736611db5565b905082816001600160a01b031663dd62ed3e87306040518363ffffffff1660e01b8152600401610767929190612931565b60206040518083038186803b15801561077f57600080fd5b505afa158015610793573d6000803e3d6000fd5b505050506040513d601f19601f820116820180604052508101906107b79190612827565b10156107d55760405162461bcd60e51b81526004016104ef906129e7565b6107ea6001600160a01b038216863086611f06565b60608201516107f99084611f66565b63ffffffff851660009081526004602052604090206003015560e082015160ff16600114156108375760065461082f9084611f66565b600655610848565b6007546108449084611f66565b6007555b5050505050565b60035460ff1690565b3360009081526002602052604090205460ff1660011461088a5760405162461bcd60e51b81526004016104ef90612a33565b60006108c1836108bb6005546108ad868a60600151611fc090919063ffffffff16565b60608a015187109190611fdb565b90611d53565b90506000670de0b6b3a76400006108e66108de8860e00151611ffe565b885190611ead565b816108ed57fe5b0490506000866020015161091b6c0c9f2c9cd04674edea400000008960400151611ead90919063ffffffff16565b8161092257fe5b0490508660e0015160ff16600114156109a7576005839055606087015160065461095191906108bb9087611f66565b6006556008546109619083611d53565b6008558651600a5461097291611d53565b600a556080870151600e5461099f919061098d908490611ead565b8161099457fe5b600c54919004611d53565b600c55610a15565b600583905560608701516007546109c391906108bb9087611f66565b6007556009546109d39083611d53565b6009558651600b546109e491611d53565b600b556080870151600f54610a1191906109ff908490611ead565b81610a0657fe5b600d54919004611d53565b600d555b610a268760a0015186610515611db5565b50505063ffffffff909216600090815260046020819052604082208281556001810183905560028101839055600381018390559081019190915560050180546001600160c81b0319169055505050565b6000806000610a83611e5c565b6001600160a01b03166316d71eb6886040518263ffffffff1660e01b8152600401610aae9190612b52565b60206040518083038186803b158015610ac657600080fd5b505afa158015610ada573d6000803e3d6000fd5b505050506040513d601f19601f82011682018060405250810190610afe9190612827565b90506000858210158015610b1557508460ff166001145b80610b2e57508582108015610b2e57508460ff16600114155b90508086610b46610b3f8583611fc0565b8a90611ead565b81610b4d57fe5b0493509350505094509492505050565b3360009081526002602052604090205460ff16600114610b8f5760405162461bcd60e51b81526004016104ef90612a33565b6000610bb4836108bb846108bb8b60600151898b1515611fdb9092919063ffffffff16565b9050848015610bdb575080610bd88860600151600554611f6690919063ffffffff16565b11155b15610bf4576060870151600554610bf191611f66565b90505b610c058760a0015182610515611db5565b6000610c28610c1f84600554611f6690919063ffffffff16565b8715908761206d565b90506000670de0b6b3a7640000610c4d610c458b60e00151611ffe565b8b5190611ead565b81610c5457fe5b04905060008960200151610c826c0c9f2c9cd04674edea400000008c60400151611ead90919063ffffffff16565b81610c8957fe5b0490508960e0015160ff1660011415610cfc57600583905560608a0151600654610cb891906108bb9089611f66565b600655600854610cc89083611d53565b6008558951600a54610cd991611d53565b600a5560808a0151600e54610cf4919061098d908490611ead565b600c55610d58565b600583905560608a0151600754610d1891906108bb9089611f66565b600755600954610d289083611d53565b6009558951600b54610d3991611d53565b600b5560808a0151600f54610d5491906109ff908490611ead565b600d555b50505063ffffffff909516600090815260046020819052604082208281556001810183905560028101839055600381018390559081019190915560050180546001600160c81b0319169055505050505050565b600d5481565b3360009081526002602052604090205460ff16600114610de35760405162461bcd60e51b81526004016104ef90612a33565b8515610e67576005859055600654610dfb9085611d53565b600655600854610e0b9084611d53565b600855600a54610e1b9083611d53565b600a55600e54670de0b6b3a764000090610e359083611ead565b81610e3c57fe5b04600e55600c54670de0b6b3a764000090610e579083611ead565b81610e5e57fe5b04600c55610ee1565b6005859055600754610e799085611d53565b600755600954610e899084611d53565b600955600b54610e999083611d53565b600b55600f54670de0b6b3a764000090610eb39083611ead565b81610eba57fe5b04600f55600d54670de0b6b3a764000090610ed59083611ead565b81610edc57fe5b04600d555b505050505050565b600080600080600080610efa612098565b63ffffffff888116600090815260046020818152604092839020835161010081018552815481526001820154928101839052600282015494810185905260038201546060820152928101546080840152600501546001600160a01b03811660a0840152600160a01b8104851660c0840152600160c01b900460ff1660e08301529394509291610fa59164e8d4a5100091610f9f9190670de0b6b3a764000090611ead16565b90611ead565b81610fac57fe5b049550600080610fba611e5c565b6001600160a01b031663ac82f6088c6040518263ffffffff1660e01b8152600401610fe591906129de565b604080518083038186803b158015610ffc57600080fd5b505afa158015611010573d6000803e3d6000fd5b505050506040513d601f19601f82011682018060405250810190611034919061288f565b91509150670de0b6b3a76400008189028161104b57fe5b0496508260e0015160ff16600114156110fc5787846001600160a01b0316632d31c16e6040518163ffffffff1660e01b815260040160206040518083038186803b15801561109857600080fd5b505afa1580156110ac573d6000803e3d6000fd5b505050506040513d601f19601f820116820180604052508101906110d09190612827565b670de0b6b3a764000003846060015102816110e757fe5b0464e8d4a51000028360200151039550611196565b87846001600160a01b0316632d31c16e6040518163ffffffff1660e01b815260040160206040518083038186803b15801561113657600080fd5b505afa15801561114a573d6000803e3d6000fd5b505050506040513d601f19601f8201168201806040525081019061116e9190612827565b670de0b6b3a7640000038460600151028161118557fe5b0464e8d4a510000283602001510195505b87670de0b6b3a76400006111b7838660200151611fc090919063ffffffff16565b816111be57fe5b040294508260a001519850505050509295509295909350565b3360009081526002602052604090205460ff166001146112095760405162461bcd60e51b81526004016104ef90612a33565b600061123f6112258960600151856120e990919063ffffffff16565b6005546108bb906112369089611f66565b8915908861206d565b90506000670de0b6b3a764000061125c610c458b60e00151611ffe565b8161126357fe5b049050600089602001516112916c0c9f2c9cd04674edea400000008c60400151611ead90919063ffffffff16565b8161129857fe5b0490508960e0015160ff166001141561130b57600583905560608a01516006546112c791906108bb9088611f66565b6006556008546112d79083611d53565b6008558951600a546112e891611d53565b600a5560808a0151600e54611303919061098d908490611ead565b600c55611367565b600583905560608a015160075461132791906108bb9088611f66565b6007556009546113379083611d53565b6009558951600b5461134891611d53565b600b5560808a0151600f5461136391906109ff908490611ead565b600d555b610d588a60a0015185610515611db5565b3360009081526002602052604090205460ff166001146113aa5760405162461bcd60e51b81526004016104ef90612a33565b6005546113b79082611f66565b6005556105258230836113c8611db5565b6001600160a01b0316929190611f06565b60026020526000908152604090205460ff1681565b60055490565b6113fc612104565b6001600160a01b031661140d6118e1565b6001600160a01b031614611468576040805162461bcd60e51b815260206004820181905260248201527f4f776e61626c653a2063616c6c6572206973206e6f7420746865206f776e6572604482015290519081900360640190fd5b600080546040516001600160a01b03909116907f8be0079c531659141344cd1fd0a4f28419497f9722a3daafe3b4186f6b6457e0908390a3600080546001600160a01b0319169055565b60006114bd82611ffe565b90505b919050565b60046020819052600091825260409091208054600182015460028301546003840154948401546005909401549294919390926001600160a01b03811690600160a01b810463ffffffff1690600160c01b900460ff1688565b600354610100900463ffffffff1681565b3360009081526002602052604081205460ff166001146115605760405162461bcd60e51b81526004016104ef90612a33565b60035460ff166115825760405162461bcd60e51b81526004016104ef90612a82565b600061158c611db5565b905085816001600160a01b031663dd62ed3e8a306040518363ffffffff1660e01b81526004016115bd929190612931565b60206040518083038186803b1580156115d557600080fd5b505afa1580156115e9573d6000803e3d6000fd5b505050506040513d601f19601f8201168201806040525081019061160d9190612827565b101561162b5760405162461bcd60e51b81526004016104ef906129e7565b6116406001600160a01b038216893089611f06565b60006116508761ffff8716611ead565b9050600061165d85611ffe565b61166f83670de0b6b3a7640000611ead565b8161167657fe5b04905060008961169764e8d4a51000610f9f86670de0b6b3a7640000611ead565b8161169e57fe5b04905060008660ff16600114156116f8576006546116bc908b611f66565b6006556008546116cc9085611f66565b600855600a546116dc9084611f66565b600a55600c546116ec9083611f66565b600c5550600e5461173d565b600754611705908b611f66565b6007556009546117159085611f66565b600955600b546117259084611f66565b600b55600d546117359083611f66565b600d5550600f545b6003600181819054906101000a900463ffffffff168092919060010191906101000a81548163ffffffff021916908363ffffffff160217905550506040518061010001604052808481526020018c81526020018581526020018b81526020018281526020018d6001600160a01b031681526020018a63ffffffff1681526020018860ff1681525060046000600360019054906101000a900463ffffffff1663ffffffff1663ffffffff168152602001908152602001600020600082015181600001556020820151816001015560408201518160020155606082015181600301556080820151816004015560a08201518160050160006101000a8154816001600160a01b0302191690836001600160a01b0316021790555060c08201518160050160146101000a81548163ffffffff021916908363ffffffff16021790555060e08201518160050160186101000a81548160ff021916908360ff160217905550905050600360019054906101000a900463ffffffff16955050505050509695505050505050565b60006118dc600954600854611f6690919063ffffffff16565b905090565b6000546001600160a01b031690565b600c5481565b600f5481565b60075481565b61190a612104565b6001600160a01b031661191b6118e1565b6001600160a01b031614611976576040805162461bcd60e51b815260206004820181905260248201527f4f776e61626c653a2063616c6c6572206973206e6f7420746865206f776e6572604482015290519081900360640190fd5b8281146119ca576040805162461bcd60e51b815260206004820152601860248201527f496e707574206c656e67746873206d757374206d617463680000000000000000604482015290519081900360640190fd5b60005b83811015610848578282828181106119e157fe5b905060200201356001600160a01b031660016000878785818110611a0157fe5b6020908102929092013583525081019190915260400160002080546001600160a01b0319166001600160a01b03929092169190911790556001016119cd565b60065481565b60095481565b3360009081526002602052604090205460ff16600114611a7e5760405162461bcd60e51b81526004016104ef90612a33565b6003805460ff19166001179055565b600a5481565b600080611a9e611e5c565b6001600160a01b031663ac82f60861636b60f01b6040518263ffffffff1660e01b8152600401611ace91906129de565b604080518083038186803b158015611ae557600080fd5b505afa158015611af9573d6000803e3d6000fd5b505050506040513d601f19601f82011682018060405250810190611b1d919061288f565b9150506c0c9f2c9cd04674edea40000000611b4f611b48600d54600c54611f6690919063ffffffff16565b8390611ead565b81611b5657fe5b0491505090565b600b5481565b60085481565b6000611b9a670de0b6b3a7640000611b8a611b8385611ffe565b8690611ead565b81611b9157fe5b869190046120e9565b90505b9392505050565b611bac612104565b6001600160a01b0316611bbd6118e1565b6001600160a01b031614611c18576040805162461bcd60e51b815260206004820181905260248201527f4f776e61626c653a2063616c6c6572206973206e6f7420746865206f776e6572604482015290519081900360640190fd5b6001600160a01b038116611c5d5760405162461bcd60e51b8152600401808060200182810382526026815260200180612b876026913960400191505060405180910390fd5b600080546040516001600160a01b03808516939216917f8be0079c531659141344cd1fd0a4f28419497f9722a3daafe3b4186f6b6457e091a3600080546001600160a01b0319166001600160a01b0392909216919091179055565b63ffffffff90811660009081526004602081815260409283902083516101008101855281548082526001830154938201849052600283015495820186905260038301546060830181905294830154608083018190526005909301546001600160a01b03811660a08401819052600160a01b820490981660c08401819052600160c01b90910460ff1660e0909301839052969790969394919290565b600082821115611daa576040805162461bcd60e51b815260206004820152601e60248201527f536166654d6174683a207375627472616374696f6e206f766572666c6f770000604482015290519081900360640190fd5b508082035b92915050565b60006118dc6b4261736543757272656e637960a01b6040518060400160405280601c81526020017f4d697373696e67204261736543757272656e6379204164647265737300000000815250612108565b604080516001600160a01b038416602482015260448082018490528251808303909101815260649091019091526020810180516001600160e01b031663a9059cbb60e01b179052611e579084906121b2565b505050565b60006118dc6c45786368616e6765526174657360981b6040518060400160405280601d81526020017f4d697373696e672045786368616e676552617465732041646472657373000000815250612108565b600082611ebc57506000611daf565b82820282848281611ec957fe5b0414611b9d5760405162461bcd60e51b8152600401808060200182810382526021815260200180612bad6021913960400191505060405180910390fd5b604080516001600160a01b0380861660248301528416604482015260648082018490528251808303909101815260849091019091526020810180516001600160e01b03166323b872dd60e01b179052611f609085906121b2565b50505050565b600082820183811015611b9d576040805162461bcd60e51b815260206004820152601b60248201527f536166654d6174683a206164646974696f6e206f766572666c6f770000000000604482015290519081900360640190fd5b6000818310611fd25750808203611daf565b50818103611daf565b60008315611ff457611fed8383611f66565b9050611b9d565b611fed8383611d53565b60008160ff166001141561204457600a5461201d5750620f42406114c0565b600a5460085461203590670de0b6b3a7640000611ead565b8161203c57fe5b0490506114c0565b600b546120555750620f42406114c0565b600b5460095461203590670de0b6b3a7640000611ead565b6000831561207f57611fed8383611f66565b818311156120905750808203611b9d565b506000611b9d565b60006118dc6c53797374656d53657474696e6760981b6040518060400160405280601d81526020017f4d697373696e672053797374656d53657474696e672041646472657373000000815250612108565b6000818311156120fc5750808203611daf565b506000611daf565b3390565b6000828152600160205260408120546001600160a01b031682816121aa5760405162461bcd60e51b81526004018080602001828103825283818151815260200191508051906020019080838360005b8381101561216f578181015183820152602001612157565b50505050905090810190601f16801561219c5780820380516001836020036101000a031916815260200191505b509250505060405180910390fd5b509392505050565b6000612207826040518060400160405280602081526020017f5361666545524332303a206c6f772d6c6576656c2063616c6c206661696c6564815250856001600160a01b03166122639092919063ffffffff16565b805190915015611e575780806020019051602081101561222657600080fd5b5051611e575760405162461bcd60e51b815260040180806020018281038252602a815260200180612bce602a913960400191505060405180910390fd5b6060611b9a84846000858561227785612388565b6122c8576040805162461bcd60e51b815260206004820152601d60248201527f416464726573733a2063616c6c20746f206e6f6e2d636f6e7472616374000000604482015290519081900360640190fd5b600080866001600160a01b031685876040518082805190602001908083835b602083106123065780518252601f1990920191602091820191016122e7565b6001836020036101000a03801982511681845116808217855250505050505090500191505060006040518083038185875af1925050503d8060008114612368576040519150601f19603f3d011682016040523d82523d6000602084013e61236d565b606091505b509150915061237d82828661238e565b979650505050505050565b3b151590565b6060831561239d575081611b9d565b8251156123ad5782518084602001fd5b60405162461bcd60e51b815260206004820181815284516024840152845185939192839260440191908501908083836000831561216f578181015183820152602001612157565b80356001600160a01b03811681146114c057600080fd5b60008083601f84011261241c578182fd5b50813567ffffffffffffffff811115612433578182fd5b602083019150836020808302850101111561244d57600080fd5b9250929050565b803580151581146114c057600080fd5b6000610100808385031215612477578182fd5b6040519081019067ffffffffffffffff8211818310171561249457fe5b8160405280925083358152602084013560208201526040840135604082015260608401356060820152608084013560808201526124d360a085016123f4565b60a08201526124e460c08501612502565b60c08201526124f560e0850161250d565b60e0820152505092915050565b80356114c081612b71565b803560ff811681146114c057600080fd5b60006020828403121561252f578081fd5b611b9d826123f4565b6000806040838503121561254a578081fd5b612553836123f4565b946020939093013593505050565b60008060008060008060c08789031215612579578182fd5b612582876123f4565b9550602087013594506040870135935060608701356125a081612b71565b9250608087013561ffff811681146125b6578283fd5b91506125c460a0880161250d565b90509295509295509295565b6000806000606084860312156125e4578283fd5b6125ed846123f4565b925060208401356125fd81612b71565b929592945050506040919091013590565b60008060008060408587031215612623578384fd5b843567ffffffffffffffff8082111561263a578586fd5b6126468883890161240b565b9096509450602087013591508082111561265e578384fd5b5061266b8782880161240b565b95989497509550505050565b60008060008060008060c0878903121561268f578182fd5b61269887612454565b9860208801359850604088013597606081013597506080810135965060a00135945092505050565b6000602082840312156126d1578081fd5b5035919050565b600080604083850312156126ea578182fd5b8235915060208301356126fc81612b71565b809150509250929050565b6000806000806000806101a08789031215612720578384fd5b61272a8888612464565b955061010087013561273b81612b71565b945061274a6101208801612454565b93506101408701359250610160870135915061018087013590509295509295509295565b60008060008060008060006101c0888a031215612789578485fd5b6127938989612464565b96506101008801356127a481612b71565b95506127b36101208901612454565b9699959850959661014081013596506101608101359561018082013595506101a0909101359350915050565b60008060008061016085870312156127f5578182fd5b6127ff8686612464565b935061010085013561281081612b71565b939693955050505061012082013591610140013590565b600060208284031215612838578081fd5b5051919050565b600080600060608486031215612853578081fd5b833592506020840135915061286a6040850161250d565b90509250925092565b600060208284031215612884578081fd5b8135611b9d81612b71565b600080604083850312156128a1578182fd5b82516128ac81612b71565b6020939093015192949293505050565b600080600080608085870312156128d1578182fd5b84356128dc81612b71565b935060208501359250604085013591506128f86060860161250d565b905092959194509250565b600060208284031215612914578081fd5b611b9d8261250d565b6001600160a01b0391909116815260200190565b6001600160a01b0392831681529116602082015260400190565b6001600160a01b03959095168552602085019390935260408401919091526060830152608082015260a00190565b6001600160a01b0398909816885260208801969096526040870194909452606086019290925263ffffffff16608085015260ff1660a084015260c083015260e08201526101000190565b901515815260200190565b9115158252602082015260400190565b90815260200190565b6020808252602c908201527f4261736543757272656e637920417070726f76656420546f204465706f74204960408201526b0e6409cdee8408adcdeeaced60a31b606082015260800190565b6020808252602f908201527f4f6e6c792074686520636f6e7472616374206f776e6572206d6179207065726660408201526e37b936903a3434b99030b1ba34b7b760891b606082015260800190565b60208082526021908201527f496e697469616c2046756e64696e6720486173204e6f7420436f6d706c6574656040820152601960fa1b606082015260800190565b6020808252601290820152710a0dee6d2e8d2dedc409cdee8409ac2e8c6d60731b604082015260600190565b93845260208401929092526040830152606082015260800190565b97885260208801969096526040870194909452606086019290925260808501526001600160a01b031660a084015263ffffffff1660c083015260ff1660e08201526101000190565b63ffffffff91909116815260200190565b60ff91909116815260200190565b63ffffffff81168114612b8357600080fd5b5056fe4f776e61626c653a206e6577206f776e657220697320746865207a65726f2061646472657373536166654d6174683a206d756c7469706c69636174696f6e206f766572666c6f775361666545524332303a204552433230206f7065726174696f6e20646964206e6f742073756363656564a2646970667358221220bb49fa09426a5567668a1520d7003446e9264c7cdc4829ce27e1c96715bc342c64736f6c63430007060033",
  "immutableReferences": {},
  "source": "// SPDX-License-Identifier: GPL-3.0\npragma solidity 0.7.6;\npragma abicoder v2;\n\nimport \"@openzeppelin/contracts/math/SafeMath.sol\";\nimport \"@openzeppelin/contracts/token/ERC20/IERC20.sol\";\nimport \"@openzeppelin/contracts/token/ERC20/SafeERC20.sol\";\n\nimport \"./interfaces/IDepot.sol\";\nimport \"./interfaces/IExchangeRates.sol\";\nimport \"./interfaces/ISystemSetting.sol\";\nimport \"./utils/AddressResolver.sol\";\nimport \"./utils/BasicMaths.sol\";\n\ncontract Depot is IDepot, AddressResolver {\n    using SafeMath for uint;\n    using BasicMaths for uint;\n    using BasicMaths for bool;\n    using SafeERC20 for IERC20;\n\n    mapping(address => uint8) public _powers;\n\n    bool private _initialFundingCompleted = false;\n\n    uint32 public _positionIndex = 0;\n    mapping(uint32 => Position) public _positions;\n\n    uint private _liquidityPool = 0;                // decimals 6\n    uint public _totalMarginLong = 0;               // decimals 6\n    uint public _totalMarginShort = 0;              // decimals 6\n    uint public _totalLeveragedPositionsLong = 0;   // decimals 6\n    uint public _totalLeveragedPositionsShort = 0;  // decimals 6\n    uint public _totalShareLong = 0;                // decimals 18\n    uint public _totalShareShort = 0;               // decimals 18\n    uint public _totalSizeLong = 0;                 // decimals 18\n    uint public _totalSizeShort = 0;                // decimals 18\n    uint public _rebaseLeftLong = 0;                // decimals 18\n    uint public _rebaseLeftShort = 0;               // decimals 18\n\n    uint private constant E30 = 1e18 * 1e12;\n    bytes32 private constant CONTRACT_EXCHANGERATES = \"ExchangeRates\";\n    bytes32 private constant CONTRACT_BASECURRENCY = \"BaseCurrency\";\n    //bytes32 private constant CURRENCY_KEY_ETH_USDC = \"ETH-USDC\";0x636b000000000000000000000000000000000000000000000000000000000000\n    bytes32 private constant CURRENCY_KEY_ETH_USDC = \"ck\";\n    bytes32 private constant CONTRACT_SYSTEMSETTING = \"SystemSetting\";\n\n    constructor(address[] memory powers) AddressResolver() {\n        _rebaseLeftLong = 1e18;\n        _rebaseLeftShort = 1e18;\n        for (uint i = 0; i < powers.length; i++) {\n            _powers[powers[i]] = 1;\n        }\n    }\n\n    function exchangeRates() internal view returns (IExchangeRates) {\n        return IExchangeRates(requireAndGetAddress(CONTRACT_EXCHANGERATES, \"Missing ExchangeRates Address\"));\n    }\n\n    function baseCurrency() internal view returns (IERC20) {\n        return IERC20(requireAndGetAddress(CONTRACT_BASECURRENCY, \"Missing BaseCurrency Address\"));\n    }\n    function systemSetting() internal view returns (ISystemSetting) {\n        return ISystemSetting(requireAndGetAddress(CONTRACT_SYSTEMSETTING, \"Missing SystemSetting Address\"));\n    }\n\n    // decimals 6\n    function _netValue(uint8 direction) internal view returns (uint) {\n        if(direction == 1) {\n            if(_totalShareLong == 0) {\n                return 1e6;\n            } else {\n                return _totalLeveragedPositionsLong.mul(1e18) / _totalShareLong;\n            }\n        } else {\n            if(_totalShareShort == 0) {\n                return 1e6;\n            } else {\n                return _totalLeveragedPositionsShort.mul(1e18) / _totalShareShort;\n            }\n        }\n    }\n\n    // decimals 6\n    function netValue(uint8 direction) external override view returns (uint) {\n        return _netValue(direction);\n    }\n\n    // decimals 6\n    function calMarginLoss(uint leveragedPosition, uint share, uint8 direction) external override view returns (uint) {\n        return leveragedPosition.sub2Zero(share.mul(_netValue(direction)) / 1e18);\n    }\n\n    // decimals 6\n    function calNetProfit(\n        uint32 currencyKeyIdx,\n        uint leveragedPosition,\n        uint openPositionPrice,\n        uint8 direction) external override view returns (bool, uint) {\n        uint rateForCurrency = exchangeRates().rateForCurrencyByIdx(currencyKeyIdx);\n        bool isProfit = ((rateForCurrency >= openPositionPrice) && (direction == 1)) ||\n             ((rateForCurrency < openPositionPrice) && (direction != 1));\n\n        return (isProfit, leveragedPosition.mul(rateForCurrency.diff(openPositionPrice)) / openPositionPrice);\n    }\n\n    function updateSubTotalState(bool isLong, uint liquidity, uint detaMargin,\n        uint detaLeveraged, uint detaShare, uint rebaseLeft) external override onlyPower {\n        if (isLong) {\n            _liquidityPool = liquidity;\n            _totalMarginLong = _totalMarginLong.sub(detaMargin);\n            _totalLeveragedPositionsLong = _totalLeveragedPositionsLong.sub(detaLeveraged);\n            _totalShareLong = _totalShareLong.sub(detaShare);\n            _rebaseLeftLong = _rebaseLeftLong.mul(rebaseLeft) / 1e18;\n            _totalSizeLong = _totalSizeLong.mul(rebaseLeft) / 1e18;\n        } else {\n            _liquidityPool = liquidity;\n            _totalMarginShort = _totalMarginShort.sub(detaMargin);\n            _totalLeveragedPositionsShort = _totalLeveragedPositionsShort.sub(detaLeveraged);\n            _totalShareShort = _totalShareShort.sub(detaShare);\n            _rebaseLeftShort = _rebaseLeftShort.mul(rebaseLeft) / 1e18;\n            _totalSizeShort = _totalSizeShort.mul(rebaseLeft) / 1e18;\n        }\n    }\n\n    function newPosition(\n        address account,\n        uint openPositionPrice,\n        uint margin,\n        uint32 currencyKeyIdx,\n        uint16 level,\n        uint8 direction) external override onlyPower returns (uint32) {\n        require(_initialFundingCompleted, 'Initial Funding Has Not Completed');\n\n        IERC20 baseCurrencyContract = baseCurrency();\n\n        require(\n            baseCurrencyContract.allowance(account, address(this)) >= margin,\n            \"BaseCurrency Approved To Depot Is Not Enough\");\n        baseCurrencyContract.safeTransferFrom(account, address(this), margin);\n\n        uint leveragedPosition = margin.mul(level);\n        uint share = leveragedPosition.mul(1e18) / _netValue(direction);\n        uint size = leveragedPosition.mul(1e18).mul(1e12) / openPositionPrice;\n        uint openRebaseLeft;\n\n        if (direction == 1) {\n            _totalMarginLong = _totalMarginLong.add(margin);\n            _totalLeveragedPositionsLong = _totalLeveragedPositionsLong.add(leveragedPosition);\n            _totalShareLong = _totalShareLong.add(share);\n            _totalSizeLong = _totalSizeLong.add(size);\n            openRebaseLeft = _rebaseLeftLong;\n        } else {\n            _totalMarginShort = _totalMarginShort.add(margin);\n            _totalLeveragedPositionsShort = _totalLeveragedPositionsShort.add(leveragedPosition);\n            _totalShareShort = _totalShareShort.add(share);\n            _totalSizeShort = _totalSizeShort.add(size);\n            openRebaseLeft = _rebaseLeftShort;\n        }\n\n        _positionIndex++;\n        _positions[_positionIndex] = Position(\n            share,\n            openPositionPrice,\n            leveragedPosition,\n            margin,\n            openRebaseLeft,\n            account,\n            currencyKeyIdx,\n            direction);\n\n        return _positionIndex;\n    }\n\n    function addDeposit(\n        address account,\n        uint32 positionId,\n        uint margin) external override onlyPower {\n        Position memory p = _positions[positionId];\n\n        require(account == p.account, \"Position Not Match\");\n\n        IERC20 baseCurrencyContract = baseCurrency();\n\n        require(\n            baseCurrencyContract.allowance(account, address(this)) >= margin,\n            \"BaseCurrency Approved To Depot Is Not Enough\");\n        baseCurrencyContract.safeTransferFrom(account, address(this), margin);\n\n        _positions[positionId].margin = p.margin.add(margin);\n        if (p.direction == 1) {\n            _totalMarginLong = _totalMarginLong.add(margin);\n        } else {\n            _totalMarginShort = _totalMarginShort.add(margin);\n        }\n    }\n\n    function liquidate(\n        Position memory position,\n        uint32 positionId,\n        bool isProfit,\n        uint fee,\n        uint value,\n        uint marginLoss,\n        uint liqReward) external override onlyPower {\n        uint liquidity = (!isProfit).addOrSub2Zero(_liquidityPool.add(fee), value)\n                                    .sub(marginLoss.sub2Zero(position.margin));\n\n        uint detaLeveraged = position.share.mul(_netValue(position.direction)) / 1e18;\n        uint openSize = position.leveragedPosition.mul(1e30) / position.openPositionPrice;\n\n        if (position.direction == 1) {\n            _liquidityPool = liquidity;\n            _totalMarginLong = _totalMarginLong.add(marginLoss).sub(position.margin);\n            _totalLeveragedPositionsLong = _totalLeveragedPositionsLong.sub(detaLeveraged);\n            _totalShareLong = _totalShareLong.sub(position.share);\n            _totalSizeLong = _totalSizeLong.sub(openSize.mul(_rebaseLeftLong) / position.openRebaseLeft);\n        } else {\n            _liquidityPool = liquidity;\n            _totalMarginShort = _totalMarginShort.add(marginLoss).sub(position.margin);\n            _totalLeveragedPositionsShort = _totalLeveragedPositionsShort.sub(detaLeveraged);\n            _totalShareShort = _totalShareShort.sub(position.share);\n            _totalSizeShort = _totalSizeShort.sub(openSize.mul(_rebaseLeftShort) / position.openRebaseLeft);\n        }\n\n        baseCurrency().safeTransfer(position.account, liqReward);\n        delete _positions[positionId];\n    }\n\n    function bankruptedLiquidate(\n        Position memory position,\n        uint32 positionId,\n        uint liquidateFee,\n        uint marginLoss) external override onlyPower {\n        uint liquidity = (position.margin > marginLoss).addOrSub(\n            _liquidityPool, position.margin.diff(marginLoss)).sub(liquidateFee);\n\n        uint detaLeveraged = position.share.mul(_netValue(position.direction)) / 1e18;\n        uint openSize = position.leveragedPosition.mul(1e30) / position.openPositionPrice;\n\n        if (position.direction == 1) {\n            _liquidityPool = liquidity;\n            _totalMarginLong = _totalMarginLong.add(marginLoss).sub(position.margin);\n            _totalLeveragedPositionsLong = _totalLeveragedPositionsLong.sub(detaLeveraged);\n            _totalShareLong = _totalShareLong.sub(position.share);\n            _totalSizeLong = _totalSizeLong.sub(openSize.mul(_rebaseLeftLong) / position.openRebaseLeft);\n        } else {\n            _liquidityPool = liquidity;\n            _totalMarginShort = _totalMarginShort.add(marginLoss).sub(position.margin);\n            _totalLeveragedPositionsShort = _totalLeveragedPositionsShort.sub(detaLeveraged);\n            _totalShareShort = _totalShareShort.sub(position.share);\n            _totalSizeShort = _totalSizeShort.sub(openSize.mul(_rebaseLeftShort) / position.openRebaseLeft);\n        }\n\n        baseCurrency().safeTransfer(position.account, liquidateFee);\n\n        delete _positions[positionId];\n    }\n\n    function closePosition(\n        Position memory position,\n        uint32 positionId,\n        bool isProfit,\n        uint value,\n        uint marginLoss,\n        uint fee) external override onlyPower {\n        uint transferOutValue = isProfit.addOrSub(position.margin, value).sub(fee).sub(marginLoss);\n        if ( isProfit && (_liquidityPool.add(position.margin) <= transferOutValue) ){\n            transferOutValue = _liquidityPool.add(position.margin);\n        }\n        baseCurrency().safeTransfer(position.account, transferOutValue);\n\n        uint liquidityPoolVal = (!isProfit).addOrSub2Zero(_liquidityPool.add(fee), value);\n        uint detaLeveraged = position.share.mul(_netValue(position.direction)) / 1e18;\n        uint openSize = position.leveragedPosition.mul(1e30) / position.openPositionPrice;\n\n        if (position.direction == 1) {\n            _liquidityPool = liquidityPoolVal;\n            _totalMarginLong = _totalMarginLong.add(marginLoss).sub(position.margin);\n            _totalLeveragedPositionsLong = _totalLeveragedPositionsLong.sub(detaLeveraged);\n            _totalShareLong = _totalShareLong.sub(position.share);\n            _totalSizeLong = _totalSizeLong.sub(openSize.mul(_rebaseLeftLong) / position.openRebaseLeft);\n        } else {\n            _liquidityPool = liquidityPoolVal;\n            _totalMarginShort = _totalMarginShort.add(marginLoss).sub(position.margin);\n            _totalLeveragedPositionsShort = _totalLeveragedPositionsShort.sub(detaLeveraged);\n            _totalShareShort = _totalShareShort.sub(position.share);\n            _totalSizeShort = _totalSizeShort.sub(openSize.mul(_rebaseLeftShort) / position.openRebaseLeft);\n        }\n\n        delete _positions[positionId];\n    }\n\n    function addLiquidity(address account, uint value) external override onlyPower {\n        _liquidityPool = _liquidityPool.add(value);\n        baseCurrency().safeTransferFrom(account, address(this), value);\n    }\n\n    function withdrawLiquidity(address account, uint value) external override onlyPower {\n        _liquidityPool = _liquidityPool.sub(value);\n        baseCurrency().safeTransfer(account, value);\n    }\n\n    function position(uint32 positionId) external override view returns (address account, uint share, uint leveragedPosition,\n        uint openPositionPrice, uint32 currencyKeyIdx, uint8 direction, uint margin, uint openRebaseLeft) {\n        Position memory p = _positions[positionId];\n        return (p.account, p.share, p.leveragedPosition, p.openPositionPrice, p.currencyKeyIdx, p.direction, p.margin, p.openRebaseLeft);\n    }\n    function positionState(bytes32 currencyKey, uint32 positionId) external  view returns (address account,uint256 pSize,\n    uint256 pValue,uint256 forceLiquidation,uint256 PnL) {\n        ISystemSetting setting = systemSetting();\n\n        Position memory p = _positions[positionId];\n        \n        pSize=p.leveragedPosition.mul(1e18).mul(1e12) / p.openPositionPrice ;\n        //pSize=p.leveragedPosition;\n        (uint32 currencyKeyIdx, uint newPrice) = exchangeRates().rateForCurrency(currencyKey);\n        pValue = pSize*newPrice/1e18;  \n        if (p.direction==1){\n            forceLiquidation =  (p.openPositionPrice) -(p.margin*(1*1e18-setting.marginRatio())/pSize*1e12);\n        }else{\n            forceLiquidation =  (p.openPositionPrice) +(p.margin*(1*1e18-setting.marginRatio())/pSize*1e12);\n        }\n        \n        //forceLiquidation= newPrice;\n        //require(false,\"false\");\n        PnL = p.openPositionPrice.diff(newPrice)/1e18*pSize;\n    \n\n        return (p.account, pSize,pValue,forceLiquidation,PnL);\n    }\n\n\n    function initialFundingCompleted() external override view returns (bool) {\n        return _initialFundingCompleted;\n    }\n\n    // decimals 6\n    function liquidityPool() external override view returns (uint) {\n        return _liquidityPool;\n    }\n\n    // decimals 6\n    function totalLeveragedPositions() external override view returns (uint) {\n        return _totalLeveragedPositionsLong.add(_totalLeveragedPositionsShort);\n    }\n\n    // decimals 6    function totalValue() external override view returns (uint) {\n    function totalValue() external override view returns (uint) {\n        //require(false,\"!!!!t1!!!!\");\n        //(, uint nowPrice) = exchangeRates().rateForCurrency(CURRENCY_KEY_ETH_USDC);\n    (, uint nowPrice) = exchangeRates().rateForCurrency(CURRENCY_KEY_ETH_USDC);\n       \n    return nowPrice.mul(_totalSizeLong.add(_totalSizeShort)) / E30;\n   \n    }\n\n    function completeInitialFunding() external override onlyPower {\n        _initialFundingCompleted = true;\n    }\n\n    // decimals 6\n    function getTotalPositionState() external override view returns (uint, uint, uint, uint) {\n        (, uint nowPrice) = exchangeRates().rateForCurrency(CURRENCY_KEY_ETH_USDC);\n\n        uint totalValueLong = _totalSizeLong.mul(nowPrice) / E30;\n        uint totalValueShort = _totalSizeShort.mul(nowPrice) / E30;\n        return (_totalMarginLong, _totalMarginShort, totalValueLong, totalValueShort);\n    }\n\n    modifier onlyPower {\n        require(_powers[msg.sender] == 1, \"Only the contract owner may perform this action\");\n        _;\n    }\n}\n",
  "sourcePath": "/mnt/zp/QiLin-v1/test/QiLin-v1-master/contracts/Depot.sol",
  "compiler": {
    "name": "solc",
    "version": "0.7.6+commit.7338295f.Emscripten.clang"
  },
  "schemaVersion": "3.4.1",
  "updatedAt": "2021-07-05T02:57:09.767Z",
  "devdoc": {
    "kind": "dev",
    "methods": {
      "owner()": {
        "details": "Returns the address of the current owner."
      },
      "renounceOwnership()": {
        "details": "Leaves the contract without owner. It will not be possible to call `onlyOwner` functions anymore. Can only be called by the current owner. NOTE: Renouncing ownership will leave the contract without an owner, thereby removing any functionality that is only available to the owner."
      },
      "transferOwnership(address)": {
        "details": "Transfers ownership of the contract to a new account (`newOwner`). Can only be called by the current owner."
      }
    },
    "version": 1
  },
  "userdoc": {
    "kind": "user",
    "methods": {},
    "version": 1
  }
}