{
  "contractName": "DepotMock",
  "abi": [
    {
      "inputs": [
        {
          "internalType": "address[]",
          "name": "powers",
          "type": "address[]"
        }
      ],
      "stateMutability": "nonpayable",
      "type": "constructor"
    },
    {
      "anonymous": false,
      "inputs": [
        {
          "indexed": true,
          "internalType": "address",
          "name": "previousOwner",
          "type": "address"
        },
        {
          "indexed": true,
          "internalType": "address",
          "name": "newOwner",
          "type": "address"
        }
      ],
      "name": "OwnershipTransferred",
      "type": "event"
    },
    {
      "inputs": [],
      "name": "_positionIndex",
      "outputs": [
        {
          "internalType": "uint32",
          "name": "",
          "type": "uint32"
        }
      ],
      "stateMutability": "view",
      "type": "function"
    },
    {
      "inputs": [
        {
          "internalType": "uint32",
          "name": "",
          "type": "uint32"
        }
      ],
      "name": "_positions",
      "outputs": [
        {
          "internalType": "uint256",
          "name": "share",
          "type": "uint256"
        },
        {
          "internalType": "uint256",
          "name": "openPositionPrice",
          "type": "uint256"
        },
        {
          "internalType": "uint256",
          "name": "leveragedPosition",
          "type": "uint256"
        },
        {
          "internalType": "uint256",
          "name": "margin",
          "type": "uint256"
        },
        {
          "internalType": "uint256",
          "name": "openRebaseLeft",
          "type": "uint256"
        },
        {
          "internalType": "address",
          "name": "account",
          "type": "address"
        },
        {
          "internalType": "uint32",
          "name": "currencyKeyIdx",
          "type": "uint32"
        },
        {
          "internalType": "uint8",
          "name": "direction",
          "type": "uint8"
        }
      ],
      "stateMutability": "view",
      "type": "function"
    },
    {
      "inputs": [
        {
          "internalType": "address",
          "name": "",
          "type": "address"
        }
      ],
      "name": "_powers",
      "outputs": [
        {
          "internalType": "uint8",
          "name": "",
          "type": "uint8"
        }
      ],
      "stateMutability": "view",
      "type": "function"
    },
    {
      "inputs": [],
      "name": "_rebaseLeftLong",
      "outputs": [
        {
          "internalType": "uint256",
          "name": "",
          "type": "uint256"
        }
      ],
      "stateMutability": "view",
      "type": "function"
    },
    {
      "inputs": [],
      "name": "_rebaseLeftShort",
      "outputs": [
        {
          "internalType": "uint256",
          "name": "",
          "type": "uint256"
        }
      ],
      "stateMutability": "view",
      "type": "function"
    },
    {
      "inputs": [],
      "name": "_totalLeveragedPositionsLong",
      "outputs": [
        {
          "internalType": "uint256",
          "name": "",
          "type": "uint256"
        }
      ],
      "stateMutability": "view",
      "type": "function"
    },
    {
      "inputs": [],
      "name": "_totalLeveragedPositionsShort",
      "outputs": [
        {
          "internalType": "uint256",
          "name": "",
          "type": "uint256"
        }
      ],
      "stateMutability": "view",
      "type": "function"
    },
    {
      "inputs": [],
      "name": "_totalMarginLong",
      "outputs": [
        {
          "internalType": "uint256",
          "name": "",
          "type": "uint256"
        }
      ],
      "stateMutability": "view",
      "type": "function"
    },
    {
      "inputs": [],
      "name": "_totalMarginShort",
      "outputs": [
        {
          "internalType": "uint256",
          "name": "",
          "type": "uint256"
        }
      ],
      "stateMutability": "view",
      "type": "function"
    },
    {
      "inputs": [],
      "name": "_totalShareLong",
      "outputs": [
        {
          "internalType": "uint256",
          "name": "",
          "type": "uint256"
        }
      ],
      "stateMutability": "view",
      "type": "function"
    },
    {
      "inputs": [],
      "name": "_totalShareShort",
      "outputs": [
        {
          "internalType": "uint256",
          "name": "",
          "type": "uint256"
        }
      ],
      "stateMutability": "view",
      "type": "function"
    },
    {
      "inputs": [],
      "name": "_totalSizeLong",
      "outputs": [
        {
          "internalType": "uint256",
          "name": "",
          "type": "uint256"
        }
      ],
      "stateMutability": "view",
      "type": "function"
    },
    {
      "inputs": [],
      "name": "_totalSizeShort",
      "outputs": [
        {
          "internalType": "uint256",
          "name": "",
          "type": "uint256"
        }
      ],
      "stateMutability": "view",
      "type": "function"
    },
    {
      "inputs": [
        {
          "internalType": "address",
          "name": "account",
          "type": "address"
        },
        {
          "internalType": "uint32",
          "name": "positionId",
          "type": "uint32"
        },
        {
          "internalType": "uint256",
          "name": "margin",
          "type": "uint256"
        }
      ],
      "name": "addDeposit",
      "outputs": [],
      "stateMutability": "nonpayable",
      "type": "function"
    },
    {
      "inputs": [
        {
          "internalType": "address",
          "name": "account",
          "type": "address"
        },
        {
          "internalType": "uint256",
          "name": "value",
          "type": "uint256"
        }
      ],
      "name": "addLiquidity",
      "outputs": [],
      "stateMutability": "nonpayable",
      "type": "function"
    },
    {
      "inputs": [
        {
          "components": [
            {
              "internalType": "uint256",
              "name": "share",
              "type": "uint256"
            },
            {
              "internalType": "uint256",
              "name": "openPositionPrice",
              "type": "uint256"
            },
            {
              "internalType": "uint256",
              "name": "leveragedPosition",
              "type": "uint256"
            },
            {
              "internalType": "uint256",
              "name": "margin",
              "type": "uint256"
            },
            {
              "internalType": "uint256",
              "name": "openRebaseLeft",
              "type": "uint256"
            },
            {
              "internalType": "address",
              "name": "account",
              "type": "address"
            },
            {
              "internalType": "uint32",
              "name": "currencyKeyIdx",
              "type": "uint32"
            },
            {
              "internalType": "uint8",
              "name": "direction",
              "type": "uint8"
            }
          ],
          "internalType": "struct Position",
          "name": "position",
          "type": "tuple"
        },
        {
          "internalType": "uint32",
          "name": "positionId",
          "type": "uint32"
        },
        {
          "internalType": "uint256",
          "name": "liquidateFee",
          "type": "uint256"
        },
        {
          "internalType": "uint256",
          "name": "marginLoss",
          "type": "uint256"
        }
      ],
      "name": "bankruptedLiquidate",
      "outputs": [],
      "stateMutability": "nonpayable",
      "type": "function"
    },
    {
      "inputs": [
        {
          "internalType": "uint256",
          "name": "leveragedPosition",
          "type": "uint256"
        },
        {
          "internalType": "uint256",
          "name": "share",
          "type": "uint256"
        },
        {
          "internalType": "uint8",
          "name": "direction",
          "type": "uint8"
        }
      ],
      "name": "calMarginLoss",
      "outputs": [
        {
          "internalType": "uint256",
          "name": "",
          "type": "uint256"
        }
      ],
      "stateMutability": "view",
      "type": "function"
    },
    {
      "inputs": [
        {
          "internalType": "uint32",
          "name": "currencyKeyIdx",
          "type": "uint32"
        },
        {
          "internalType": "uint256",
          "name": "leveragedPosition",
          "type": "uint256"
        },
        {
          "internalType": "uint256",
          "name": "openPositionPrice",
          "type": "uint256"
        },
        {
          "internalType": "uint8",
          "name": "direction",
          "type": "uint8"
        }
      ],
      "name": "calNetProfit",
      "outputs": [
        {
          "internalType": "bool",
          "name": "",
          "type": "bool"
        },
        {
          "internalType": "uint256",
          "name": "",
          "type": "uint256"
        }
      ],
      "stateMutability": "view",
      "type": "function"
    },
    {
      "inputs": [
        {
          "components": [
            {
              "internalType": "uint256",
              "name": "share",
              "type": "uint256"
            },
            {
              "internalType": "uint256",
              "name": "openPositionPrice",
              "type": "uint256"
            },
            {
              "internalType": "uint256",
              "name": "leveragedPosition",
              "type": "uint256"
            },
            {
              "internalType": "uint256",
              "name": "margin",
              "type": "uint256"
            },
            {
              "internalType": "uint256",
              "name": "openRebaseLeft",
              "type": "uint256"
            },
            {
              "internalType": "address",
              "name": "account",
              "type": "address"
            },
            {
              "internalType": "uint32",
              "name": "currencyKeyIdx",
              "type": "uint32"
            },
            {
              "internalType": "uint8",
              "name": "direction",
              "type": "uint8"
            }
          ],
          "internalType": "struct Position",
          "name": "position",
          "type": "tuple"
        },
        {
          "internalType": "uint32",
          "name": "positionId",
          "type": "uint32"
        },
        {
          "internalType": "bool",
          "name": "isProfit",
          "type": "bool"
        },
        {
          "internalType": "uint256",
          "name": "value",
          "type": "uint256"
        },
        {
          "internalType": "uint256",
          "name": "marginLoss",
          "type": "uint256"
        },
        {
          "internalType": "uint256",
          "name": "fee",
          "type": "uint256"
        }
      ],
      "name": "closePosition",
      "outputs": [],
      "stateMutability": "nonpayable",
      "type": "function"
    },
    {
      "inputs": [],
      "name": "completeInitialFunding",
      "outputs": [],
      "stateMutability": "nonpayable",
      "type": "function"
    },
    {
      "inputs": [],
      "name": "getTotalPositionState",
      "outputs": [
        {
          "internalType": "uint256",
          "name": "",
          "type": "uint256"
        },
        {
          "internalType": "uint256",
          "name": "",
          "type": "uint256"
        },
        {
          "internalType": "uint256",
          "name": "",
          "type": "uint256"
        },
        {
          "internalType": "uint256",
          "name": "",
          "type": "uint256"
        }
      ],
      "stateMutability": "view",
      "type": "function"
    },
    {
      "inputs": [
        {
          "internalType": "bytes32[]",
          "name": "names",
          "type": "bytes32[]"
        },
        {
          "internalType": "address[]",
          "name": "destinations",
          "type": "address[]"
        }
      ],
      "name": "importAddresses",
      "outputs": [],
      "stateMutability": "nonpayable",
      "type": "function"
    },
    {
      "inputs": [],
      "name": "initialFundingCompleted",
      "outputs": [
        {
          "internalType": "bool",
          "name": "",
          "type": "bool"
        }
      ],
      "stateMutability": "view",
      "type": "function"
    },
    {
      "inputs": [
        {
          "components": [
            {
              "internalType": "uint256",
              "name": "share",
              "type": "uint256"
            },
            {
              "internalType": "uint256",
              "name": "openPositionPrice",
              "type": "uint256"
            },
            {
              "internalType": "uint256",
              "name": "leveragedPosition",
              "type": "uint256"
            },
            {
              "internalType": "uint256",
              "name": "margin",
              "type": "uint256"
            },
            {
              "internalType": "uint256",
              "name": "openRebaseLeft",
              "type": "uint256"
            },
            {
              "internalType": "address",
              "name": "account",
              "type": "address"
            },
            {
              "internalType": "uint32",
              "name": "currencyKeyIdx",
              "type": "uint32"
            },
            {
              "internalType": "uint8",
              "name": "direction",
              "type": "uint8"
            }
          ],
          "internalType": "struct Position",
          "name": "position",
          "type": "tuple"
        },
        {
          "internalType": "uint32",
          "name": "positionId",
          "type": "uint32"
        },
        {
          "internalType": "bool",
          "name": "isProfit",
          "type": "bool"
        },
        {
          "internalType": "uint256",
          "name": "fee",
          "type": "uint256"
        },
        {
          "internalType": "uint256",
          "name": "value",
          "type": "uint256"
        },
        {
          "internalType": "uint256",
          "name": "marginLoss",
          "type": "uint256"
        },
        {
          "internalType": "uint256",
          "name": "liqReward",
          "type": "uint256"
        }
      ],
      "name": "liquidate",
      "outputs": [],
      "stateMutability": "nonpayable",
      "type": "function"
    },
    {
      "inputs": [],
      "name": "liquidityPool",
      "outputs": [
        {
          "internalType": "uint256",
          "name": "",
          "type": "uint256"
        }
      ],
      "stateMutability": "view",
      "type": "function"
    },
    {
      "inputs": [
        {
          "internalType": "uint8",
          "name": "direction",
          "type": "uint8"
        }
      ],
      "name": "netValue",
      "outputs": [
        {
          "internalType": "uint256",
          "name": "",
          "type": "uint256"
        }
      ],
      "stateMutability": "view",
      "type": "function"
    },
    {
      "inputs": [
        {
          "internalType": "address",
          "name": "account",
          "type": "address"
        },
        {
          "internalType": "uint256",
          "name": "openPositionPrice",
          "type": "uint256"
        },
        {
          "internalType": "uint256",
          "name": "margin",
          "type": "uint256"
        },
        {
          "internalType": "uint32",
          "name": "currencyKeyIdx",
          "type": "uint32"
        },
        {
          "internalType": "uint16",
          "name": "level",
          "type": "uint16"
        },
        {
          "internalType": "uint8",
          "name": "direction",
          "type": "uint8"
        }
      ],
      "name": "newPosition",
      "outputs": [
        {
          "internalType": "uint32",
          "name": "",
          "type": "uint32"
        }
      ],
      "stateMutability": "nonpayable",
      "type": "function"
    },
    {
      "inputs": [],
      "name": "owner",
      "outputs": [
        {
          "internalType": "address",
          "name": "",
          "type": "address"
        }
      ],
      "stateMutability": "view",
      "type": "function"
    },
    {
      "inputs": [
        {
          "internalType": "uint32",
          "name": "positionId",
          "type": "uint32"
        }
      ],
      "name": "position",
      "outputs": [
        {
          "internalType": "address",
          "name": "account",
          "type": "address"
        },
        {
          "internalType": "uint256",
          "name": "share",
          "type": "uint256"
        },
        {
          "internalType": "uint256",
          "name": "leveragedPosition",
          "type": "uint256"
        },
        {
          "internalType": "uint256",
          "name": "openPositionPrice",
          "type": "uint256"
        },
        {
          "internalType": "uint32",
          "name": "currencyKeyIdx",
          "type": "uint32"
        },
        {
          "internalType": "uint8",
          "name": "direction",
          "type": "uint8"
        },
        {
          "internalType": "uint256",
          "name": "margin",
          "type": "uint256"
        },
        {
          "internalType": "uint256",
          "name": "openRebaseLeft",
          "type": "uint256"
        }
      ],
      "stateMutability": "view",
      "type": "function"
    },
    {
      "inputs": [
        {
          "internalType": "bytes32",
          "name": "currencyKey",
          "type": "bytes32"
        },
        {
          "internalType": "uint32",
          "name": "positionId",
          "type": "uint32"
        }
      ],
      "name": "positionState",
      "outputs": [
        {
          "internalType": "address",
          "name": "account",
          "type": "address"
        },
        {
          "internalType": "uint256",
          "name": "pSize",
          "type": "uint256"
        },
        {
          "internalType": "uint256",
          "name": "pValue",
          "type": "uint256"
        },
        {
          "internalType": "uint256",
          "name": "forceLiquidation",
          "type": "uint256"
        },
        {
          "internalType": "uint256",
          "name": "PnL",
          "type": "uint256"
        }
      ],
      "stateMutability": "view",
      "type": "function"
    },
    {
      "inputs": [],
      "name": "renounceOwnership",
      "outputs": [],
      "stateMutability": "nonpayable",
      "type": "function"
    },
    {
      "inputs": [
        {
          "internalType": "bytes32",
          "name": "",
          "type": "bytes32"
        }
      ],
      "name": "repository",
      "outputs": [
        {
          "internalType": "address",
          "name": "",
          "type": "address"
        }
      ],
      "stateMutability": "view",
      "type": "function"
    },
    {
      "inputs": [],
      "name": "totalLeveragedPositions",
      "outputs": [
        {
          "internalType": "uint256",
          "name": "",
          "type": "uint256"
        }
      ],
      "stateMutability": "view",
      "type": "function"
    },
    {
      "inputs": [],
      "name": "totalValue",
      "outputs": [
        {
          "internalType": "uint256",
          "name": "",
          "type": "uint256"
        }
      ],
      "stateMutability": "view",
      "type": "function"
    },
    {
      "inputs": [
        {
          "internalType": "address",
          "name": "newOwner",
          "type": "address"
        }
      ],
      "name": "transferOwnership",
      "outputs": [],
      "stateMutability": "nonpayable",
      "type": "function"
    },
    {
      "inputs": [
        {
          "internalType": "bool",
          "name": "isLong",
          "type": "bool"
        },
        {
          "internalType": "uint256",
          "name": "liquidity",
          "type": "uint256"
        },
        {
          "internalType": "uint256",
          "name": "detaMargin",
          "type": "uint256"
        },
        {
          "internalType": "uint256",
          "name": "detaLeveraged",
          "type": "uint256"
        },
        {
          "internalType": "uint256",
          "name": "detaShare",
          "type": "uint256"
        },
        {
          "internalType": "uint256",
          "name": "rebaseLeft",
          "type": "uint256"
        }
      ],
      "name": "updateSubTotalState",
      "outputs": [],
      "stateMutability": "nonpayable",
      "type": "function"
    },
    {
      "inputs": [
        {
          "internalType": "address",
          "name": "account",
          "type": "address"
        },
        {
          "internalType": "uint256",
          "name": "value",
          "type": "uint256"
        }
      ],
      "name": "withdrawLiquidity",
      "outputs": [],
      "stateMutability": "nonpayable",
      "type": "function"
    },
    {
      "inputs": [
        {
          "internalType": "address",
          "name": "add",
          "type": "address"
        }
      ],
      "name": "getPower_",
      "outputs": [
        {
          "internalType": "uint8",
          "name": "",
          "type": "uint8"
        }
      ],
      "stateMutability": "view",
      "type": "function"
    },
    {
      "inputs": [
        {
          "internalType": "address",
          "name": "account",
          "type": "address"
        }
      ],
      "name": "positionsByAccount",
      "outputs": [
        {
          "internalType": "uint32[]",
          "name": "",
          "type": "uint32[]"
        }
      ],
      "stateMutability": "view",
      "type": "function"
    },
    {
      "inputs": [],
      "name": "allPositions",
      "outputs": [
        {
          "internalType": "uint32[]",
          "name": "",
          "type": "uint32[]"
        }
      ],
      "stateMutability": "view",
      "type": "function"
    },
    {
      "inputs": [],
      "name": "getCurrPosIdx",
      "outputs": [
        {
          "internalType": "uint32",
          "name": "",
          "type": "uint32"
        }
      ],
      "stateMutability": "view",
      "type": "function"
    }
  ],
  "bytecode": "0x60806040526003805464ffffffffff19169055600060058190556006819055600781905560088190556009819055600a819055600b819055600c819055600d819055600e819055600f553480156200005657600080fd5b506040516200318c3803806200318c833981016040819052620000799162000169565b8060006200008662000148565b600080546001600160a01b0319166001600160a01b0383169081178255604051929350917f8be0079c531659141344cd1fd0a4f28419497f9722a3daafe3b4186f6b6457e0908290a350670de0b6b3a7640000600e819055600f5560005b81518110156200013f576001600260008484815181106200010157fe5b6020908102919091018101516001600160a01b03168252810191909152604001600020805460ff191660ff92909216919091179055600101620000e4565b50505062000227565b3390565b80516001600160a01b03811681146200016457600080fd5b919050565b600060208083850312156200017c578182fd5b82516001600160401b038082111562000193578384fd5b818501915085601f830112620001a7578384fd5b815181811115620001b457fe5b83810260405185828201018181108582111715620001ce57fe5b604052828152858101935084860182860187018a1015620001ed578788fd5b8795505b838610156200021a5762000205816200014c565b855260019590950194938601938601620001f1565b5098975050505050505050565b612f5580620002376000396000f3fe608060405234801561001057600080fd5b50600436106102535760003560e01c8063739039f111610146578063afaeca03116100c3578063d4f4608811610087578063d4f46088146104c7578063d8097c90146104cf578063dec52502146104d7578063e6235a8d146104df578063f2fde38b146104f2578063f77fc8011461050557610253565b8063afaeca031461049f578063b0402837146104a7578063b7075901146104af578063cb028692146104b7578063d4c3eea0146104bf57610253565b80638da5cb5b1161010a5780638da5cb5b1461046c57806399210dd014610474578063a67c4e501461047c578063a96b163414610484578063ab0b8f771461048c57610253565b8063739039f11461040f5780637b08e9df146104225780637d2a8ff9146104495780637e94cc79146104515780637f1aedc31461046457610253565b806337081dae116101d4578063566887001161019857806356688700146103c4578063603ec476146103d7578063665a11ca146103ea578063715018a6146103f25780637271dd1b146103fa57610253565b806337081dae1461035f578063378847001461037257806338dcc48a1461037a57806345d077721461038d5780634622f439146103b157610253565b8063187f79351161021b578063187f7935146102e35780631e5ffd6914610303578063210f1e06146103165780632215b77c1461032b578063281693071461033e57610253565b806306d47de91461025857806309898ade1461026d5780630c11d7f31461028b578063112d1409146102ab578063120089ff146102cb575b600080fd5b61026b610266366004612816565b61052c565b005b610275610598565b6040516102829190612d06565b60405180910390f35b61029e6102993660046127fc565b61059e565b6040516102829190612ca1565b6102be6102b93660046127fc565b6106c8565b6040516102829190612e8b565b6102d36106e6565b6040516102829493929190612e17565b6102f66102f136600461299e565b6107eb565b6040516102829190612bfb565b61026b6103113660046128ae565b610806565b61031e610a06565b6040516102829190612ceb565b61026b610339366004612abd565b610a0f565b61035161034c366004612b9a565b610c2d565b604051610282929190612cf6565b61026b61036d3660046129e5565b610d14565b610275610f62565b61026b610388366004612955565b610f68565b6103a061039b3660046129b6565b6110a0565b604051610282959493929190612c29565b61026b6103bf366004612a4c565b61138e565b61026b6103d2366004612816565b61152f565b6102be6103e53660046127fc565b611590565b6102756115a5565b61026b6115ab565b610402611669565b6040516102829190612e7a565b61027561041d366004612be1565b61167a565b610435610430366004612b51565b61168b565b604051610282989796959493929190612e32565b6104026116e3565b61040261045f36600461283f565b6116f4565b610275611a89565b6102f6611aa7565b610275611ab6565b610275611abc565b610275611ac2565b61026b61049a3660046128ec565b611ac8565b610275611c06565b610275611c0c565b61026b611c12565b610275611c53565b610275611c59565b61029e611d23565b610275611e40565b610275611e46565b6102756104ed366004612b1d565b611e4c565b61026b6105003660046127fc565b611e87565b610518610513366004612b51565b611f9b565b604051610282989796959493929190612c57565b3360009081526002602052604090205460ff166001146105675760405162461bcd60e51b815260040161055e90612d5b565b60405180910390fd5b6005546105749082612036565b6005556105948282610584612093565b6001600160a01b031691906120e3565b5050565b600e5481565b606060008060015b60035463ffffffff6101009091048116908216116105f95763ffffffff81166000908152600460205260409020600501546001600160a01b03868116911614156105f1576001909201915b6001016105a6565b5060008267ffffffffffffffff8111801561061357600080fd5b5060405190808252806020026020018201604052801561063d578160200160208202803683370190505b50905060015b60035463ffffffff6101009091048116908216116106bd5763ffffffff81166000908152600460205260409020600501546001600160a01b03878116911614156106b5578082848060010195508151811061069a57fe5b602002602001019063ffffffff16908163ffffffff16815250505b600101610643565b50925050505b919050565b6001600160a01b031660009081526002602052604090205460ff1690565b60008060008060006106f661213a565b6001600160a01b031663ac82f60861636b60f01b6040518263ffffffff1660e01b81526004016107269190612d06565b604080518083038186803b15801561073d57600080fd5b505afa158015610751573d6000803e3d6000fd5b505050506040513d601f19601f820116820180604052508101906107759190612b6d565b91505060006c0c9f2c9cd04674edea4000000061079d83600c5461218b90919063ffffffff16565b816107a457fe5b04905060006c0c9f2c9cd04674edea400000006107cc84600d5461218b90919063ffffffff16565b816107d357fe5b600654600754909a9099509397500494509092505050565b6001602052600090815260409020546001600160a01b031681565b3360009081526002602052604090205460ff166001146108385760405162461bcd60e51b815260040161055e90612d5b565b63ffffffff82811660009081526004602081815260409283902083516101008101855281548152600182015492810192909252600281015493820193909352600383015460608201529082015460808201526005909101546001600160a01b0380821660a08401819052600160a01b830490941660c0840152600160c01b90910460ff1660e08301529091908516146108e35760405162461bcd60e51b815260040161055e90612deb565b60006108ed612093565b905082816001600160a01b031663dd62ed3e87306040518363ffffffff1660e01b815260040161091e929190612c0f565b60206040518083038186803b15801561093657600080fd5b505afa15801561094a573d6000803e3d6000fd5b505050506040513d601f19601f8201168201806040525081019061096e9190612b05565b101561098c5760405162461bcd60e51b815260040161055e90612d0f565b6109a16001600160a01b0382168630866121e4565b60608201516109b09084612244565b63ffffffff851660009081526004602052604090206003015560e082015160ff16600114156109ee576006546109e69084612244565b6006556109ff565b6007546109fb9084612244565b6007555b5050505050565b60035460ff1690565b3360009081526002602052604090205460ff16600114610a415760405162461bcd60e51b815260040161055e90612d5b565b6000610a7883610a72600554610a64868a6060015161229e90919063ffffffff16565b60608a0151871091906122b9565b90612036565b90506000670de0b6b3a7640000610a9d610a958860e001516122dc565b88519061218b565b81610aa457fe5b04905060008660200151610ad26c0c9f2c9cd04674edea40000000896040015161218b90919063ffffffff16565b81610ad957fe5b0490508660e0015160ff1660011415610b5e5760058390556060870151600654610b089190610a729087612244565b600655600854610b189083612036565b6008558651600a54610b2991612036565b600a556080870151600e54610b569190610b4490849061218b565b81610b4b57fe5b600c54919004612036565b600c55610bcc565b60058390556060870151600754610b7a9190610a729087612244565b600755600954610b8a9083612036565b6009558651600b54610b9b91612036565b600b556080870151600f54610bc89190610bb690849061218b565b81610bbd57fe5b600d54919004612036565b600d555b610bdd8760a0015186610584612093565b50505063ffffffff909216600090815260046020819052604082208281556001810183905560028101839055600381018390559081019190915560050180546001600160c81b0319169055505050565b6000806000610c3a61213a565b6001600160a01b03166316d71eb6886040518263ffffffff1660e01b8152600401610c659190612e7a565b60206040518083038186803b158015610c7d57600080fd5b505afa158015610c91573d6000803e3d6000fd5b505050506040513d601f19601f82011682018060405250810190610cb59190612b05565b90506000858210158015610ccc57508460ff166001145b80610ce557508582108015610ce557508460ff16600114155b90508086610cfd610cf6858361229e565b8a9061218b565b81610d0457fe5b0493509350505094509492505050565b3360009081526002602052604090205460ff16600114610d465760405162461bcd60e51b815260040161055e90612d5b565b6000610d6b83610a7284610a728b60600151898b15156122b99092919063ffffffff16565b9050848015610d92575080610d8f886060015160055461224490919063ffffffff16565b11155b15610dab576060870151600554610da891612244565b90505b610dbc8760a0015182610584612093565b6000610ddf610dd68460055461224490919063ffffffff16565b8715908761234b565b90506000670de0b6b3a7640000610e04610dfc8b60e001516122dc565b8b519061218b565b81610e0b57fe5b04905060008960200151610e396c0c9f2c9cd04674edea400000008c6040015161218b90919063ffffffff16565b81610e4057fe5b0490508960e0015160ff1660011415610eb357600583905560608a0151600654610e6f9190610a729089612244565b600655600854610e7f9083612036565b6008558951600a54610e9091612036565b600a5560808a0151600e54610eab9190610b4490849061218b565b600c55610f0f565b600583905560608a0151600754610ecf9190610a729089612244565b600755600954610edf9083612036565b6009558951600b54610ef091612036565b600b5560808a0151600f54610f0b9190610bb690849061218b565b600d555b50505063ffffffff909516600090815260046020819052604082208281556001810183905560028101839055600381018390559081019190915560050180546001600160c81b0319169055505050505050565b600d5481565b3360009081526002602052604090205460ff16600114610f9a5760405162461bcd60e51b815260040161055e90612d5b565b851561101e576005859055600654610fb29085612036565b600655600854610fc29084612036565b600855600a54610fd29083612036565b600a55600e54670de0b6b3a764000090610fec908361218b565b81610ff357fe5b04600e55600c54670de0b6b3a76400009061100e908361218b565b8161101557fe5b04600c55611098565b60058590556007546110309085612036565b6007556009546110409084612036565b600955600b546110509083612036565b600b55600f54670de0b6b3a76400009061106a908361218b565b8161107157fe5b04600f55600d54670de0b6b3a76400009061108c908361218b565b8161109357fe5b04600d555b505050505050565b6000806000806000806110b1612376565b63ffffffff888116600090815260046020818152604092839020835161010081018552815481526001820154928101839052600282015494810185905260038201546060820152928101546080840152600501546001600160a01b03811660a0840152600160a01b8104851660c0840152600160c01b900460ff1660e0830152939450929161115c9164e8d4a51000916111569190670de0b6b3a76400009061218b16565b9061218b565b8161116357fe5b04955060008061117161213a565b6001600160a01b031663ac82f6088c6040518263ffffffff1660e01b815260040161119c9190612d06565b604080518083038186803b1580156111b357600080fd5b505afa1580156111c7573d6000803e3d6000fd5b505050506040513d601f19601f820116820180604052508101906111eb9190612b6d565b91509150670de0b6b3a76400008189028161120257fe5b0496508260e0015160ff16600114156112b35787846001600160a01b0316632d31c16e6040518163ffffffff1660e01b815260040160206040518083038186803b15801561124f57600080fd5b505afa158015611263573d6000803e3d6000fd5b505050506040513d601f19601f820116820180604052508101906112879190612b05565b670de0b6b3a7640000038460600151028161129e57fe5b0464e8d4a5100002836020015103955061134d565b87846001600160a01b0316632d31c16e6040518163ffffffff1660e01b815260040160206040518083038186803b1580156112ed57600080fd5b505afa158015611301573d6000803e3d6000fd5b505050506040513d601f19601f820116820180604052508101906113259190612b05565b670de0b6b3a7640000038460600151028161133c57fe5b0464e8d4a510000283602001510195505b87670de0b6b3a764000061136e83866020015161229e90919063ffffffff16565b8161137557fe5b040294508260a001519850505050509295509295909350565b3360009081526002602052604090205460ff166001146113c05760405162461bcd60e51b815260040161055e90612d5b565b60006113f66113dc8960600151856123c790919063ffffffff16565b600554610a72906113ed9089612244565b8915908861234b565b90506000670de0b6b3a7640000611413610dfc8b60e001516122dc565b8161141a57fe5b049050600089602001516114486c0c9f2c9cd04674edea400000008c6040015161218b90919063ffffffff16565b8161144f57fe5b0490508960e0015160ff16600114156114c257600583905560608a015160065461147e9190610a729088612244565b60065560085461148e9083612036565b6008558951600a5461149f91612036565b600a5560808a0151600e546114ba9190610b4490849061218b565b600c5561151e565b600583905560608a01516007546114de9190610a729088612244565b6007556009546114ee9083612036565b6009558951600b546114ff91612036565b600b5560808a0151600f5461151a9190610bb690849061218b565b600d555b610f0f8a60a0015185610584612093565b3360009081526002602052604090205460ff166001146115615760405162461bcd60e51b815260040161055e90612d5b565b60055461156e9082612244565b60055561059482308361157f612093565b6001600160a01b03169291906121e4565b60026020526000908152604090205460ff1681565b60055490565b6115b36123e2565b6001600160a01b03166115c4611aa7565b6001600160a01b03161461161f576040805162461bcd60e51b815260206004820181905260248201527f4f776e61626c653a2063616c6c6572206973206e6f7420746865206f776e6572604482015290519081900360640190fd5b600080546040516001600160a01b03909116907f8be0079c531659141344cd1fd0a4f28419497f9722a3daafe3b4186f6b6457e0908390a3600080546001600160a01b0319169055565b600354610100900463ffffffff1690565b6000611685826122dc565b92915050565b60046020819052600091825260409091208054600182015460028301546003840154948401546005909401549294919390926001600160a01b03811690600160a01b810463ffffffff1690600160c01b900460ff1688565b600354610100900463ffffffff1681565b3360009081526002602052604081205460ff166001146117265760405162461bcd60e51b815260040161055e90612d5b565b60035460ff166117485760405162461bcd60e51b815260040161055e90612daa565b6000611752612093565b905085816001600160a01b031663dd62ed3e8a306040518363ffffffff1660e01b8152600401611783929190612c0f565b60206040518083038186803b15801561179b57600080fd5b505afa1580156117af573d6000803e3d6000fd5b505050506040513d601f19601f820116820180604052508101906117d39190612b05565b10156117f15760405162461bcd60e51b815260040161055e90612d0f565b6118066001600160a01b0382168930896121e4565b60006118168761ffff871661218b565b90506000611823856122dc565b61183583670de0b6b3a764000061218b565b8161183c57fe5b04905060008961185d64e8d4a5100061115686670de0b6b3a764000061218b565b8161186457fe5b04905060008660ff16600114156118be57600654611882908b612244565b6006556008546118929085612244565b600855600a546118a29084612244565b600a55600c546118b29083612244565b600c5550600e54611903565b6007546118cb908b612244565b6007556009546118db9085612244565b600955600b546118eb9084612244565b600b55600d546118fb9083612244565b600d5550600f545b6003600181819054906101000a900463ffffffff168092919060010191906101000a81548163ffffffff021916908363ffffffff160217905550506040518061010001604052808481526020018c81526020018581526020018b81526020018281526020018d6001600160a01b031681526020018a63ffffffff1681526020018860ff1681525060046000600360019054906101000a900463ffffffff1663ffffffff1663ffffffff168152602001908152602001600020600082015181600001556020820151816001015560408201518160020155606082015181600301556080820151816004015560a08201518160050160006101000a8154816001600160a01b0302191690836001600160a01b0316021790555060c08201518160050160146101000a81548163ffffffff021916908363ffffffff16021790555060e08201518160050160186101000a81548160ff021916908360ff160217905550905050600360019054906101000a900463ffffffff16955050505050509695505050505050565b6000611aa260095460085461224490919063ffffffff16565b905090565b6000546001600160a01b031690565b600c5481565b600f5481565b60075481565b611ad06123e2565b6001600160a01b0316611ae1611aa7565b6001600160a01b031614611b3c576040805162461bcd60e51b815260206004820181905260248201527f4f776e61626c653a2063616c6c6572206973206e6f7420746865206f776e6572604482015290519081900360640190fd5b828114611b90576040805162461bcd60e51b815260206004820152601860248201527f496e707574206c656e67746873206d757374206d617463680000000000000000604482015290519081900360640190fd5b60005b838110156109ff57828282818110611ba757fe5b905060200201356001600160a01b031660016000878785818110611bc757fe5b6020908102929092013583525081019190915260400160002080546001600160a01b0319166001600160a01b0392909216919091179055600101611b93565b60065481565b60095481565b3360009081526002602052604090205460ff16600114611c445760405162461bcd60e51b815260040161055e90612d5b565b6003805460ff19166001179055565b600a5481565b600080611c6461213a565b6001600160a01b031663ac82f60861636b60f01b6040518263ffffffff1660e01b8152600401611c949190612d06565b604080518083038186803b158015611cab57600080fd5b505afa158015611cbf573d6000803e3d6000fd5b505050506040513d601f19601f82011682018060405250810190611ce39190612b6d565b9150506c0c9f2c9cd04674edea40000000611d15611d0e600d54600c5461224490919063ffffffff16565b839061218b565b81611d1c57fe5b0491505090565b606060008060015b60035463ffffffff610100909104811690821611611d795763ffffffff81166000908152600460205260409020600501546001600160a01b031615611d71576001909201915b600101611d2b565b5060008267ffffffffffffffff81118015611d9357600080fd5b50604051908082528060200260200182016040528015611dbd578160200160208202803683370190505b50905060015b60035463ffffffff610100909104811690821611611e385763ffffffff81166000908152600460205260409020600501546001600160a01b031615611e305780828480600101955081518110611e1557fe5b602002602001019063ffffffff16908163ffffffff16815250505b600101611dc3565b509250505090565b600b5481565b60085481565b6000611e7d670de0b6b3a7640000611e6d611e66856122dc565b869061218b565b81611e7457fe5b869190046123c7565b90505b9392505050565b611e8f6123e2565b6001600160a01b0316611ea0611aa7565b6001600160a01b031614611efb576040805162461bcd60e51b815260206004820181905260248201527f4f776e61626c653a2063616c6c6572206973206e6f7420746865206f776e6572604482015290519081900360640190fd5b6001600160a01b038116611f405760405162461bcd60e51b8152600401808060200182810382526026815260200180612eaf6026913960400191505060405180910390fd5b600080546040516001600160a01b03808516939216917f8be0079c531659141344cd1fd0a4f28419497f9722a3daafe3b4186f6b6457e091a3600080546001600160a01b0319166001600160a01b0392909216919091179055565b63ffffffff90811660009081526004602081815260409283902083516101008101855281548082526001830154938201849052600283015495820186905260038301546060830181905294830154608083018190526005909301546001600160a01b03811660a08401819052600160a01b820490981660c08401819052600160c01b90910460ff1660e0909301839052969790969394919290565b60008282111561208d576040805162461bcd60e51b815260206004820152601e60248201527f536166654d6174683a207375627472616374696f6e206f766572666c6f770000604482015290519081900360640190fd5b50900390565b6000611aa26b4261736543757272656e637960a01b6040518060400160405280601c81526020017f4d697373696e67204261736543757272656e63792041646472657373000000008152506123e6565b604080516001600160a01b038416602482015260448082018490528251808303909101815260649091019091526020810180516001600160e01b031663a9059cbb60e01b179052612135908490612490565b505050565b6000611aa26c45786368616e6765526174657360981b6040518060400160405280601d81526020017f4d697373696e672045786368616e6765526174657320416464726573730000008152506123e6565b60008261219a57506000611685565b828202828482816121a757fe5b0414611e805760405162461bcd60e51b8152600401808060200182810382526021815260200180612ed56021913960400191505060405180910390fd5b604080516001600160a01b0380861660248301528416604482015260648082018490528251808303909101815260849091019091526020810180516001600160e01b03166323b872dd60e01b17905261223e908590612490565b50505050565b600082820183811015611e80576040805162461bcd60e51b815260206004820152601b60248201527f536166654d6174683a206164646974696f6e206f766572666c6f770000000000604482015290519081900360640190fd5b60008183106122b05750808203611685565b50818103611685565b600083156122d2576122cb8383612244565b9050611e80565b6122cb8383612036565b60008160ff166001141561232257600a546122fb5750620f42406106c3565b600a5460085461231390670de0b6b3a764000061218b565b8161231a57fe5b0490506106c3565b600b546123335750620f42406106c3565b600b5460095461231390670de0b6b3a764000061218b565b6000831561235d576122cb8383612244565b8183111561236e5750808203611e80565b506000611e80565b6000611aa26c53797374656d53657474696e6760981b6040518060400160405280601d81526020017f4d697373696e672053797374656d53657474696e6720416464726573730000008152506123e6565b6000818311156123da5750808203611685565b506000611685565b3390565b6000828152600160205260408120546001600160a01b031682816124885760405162461bcd60e51b81526004018080602001828103825283818151815260200191508051906020019080838360005b8381101561244d578181015183820152602001612435565b50505050905090810190601f16801561247a5780820380516001836020036101000a031916815260200191505b509250505060405180910390fd5b509392505050565b60006124e5826040518060400160405280602081526020017f5361666545524332303a206c6f772d6c6576656c2063616c6c206661696c6564815250856001600160a01b03166125419092919063ffffffff16565b8051909150156121355780806020019051602081101561250457600080fd5b50516121355760405162461bcd60e51b815260040180806020018281038252602a815260200180612ef6602a913960400191505060405180910390fd5b6060611e7d84846000858561255585612666565b6125a6576040805162461bcd60e51b815260206004820152601d60248201527f416464726573733a2063616c6c20746f206e6f6e2d636f6e7472616374000000604482015290519081900360640190fd5b600080866001600160a01b031685876040518082805190602001908083835b602083106125e45780518252601f1990920191602091820191016125c5565b6001836020036101000a03801982511681845116808217855250505050505090500191505060006040518083038185875af1925050503d8060008114612646576040519150601f19603f3d011682016040523d82523d6000602084013e61264b565b606091505b509150915061265b82828661266c565b979650505050505050565b3b151590565b6060831561267b575081611e80565b82511561268b5782518084602001fd5b60405162461bcd60e51b815260206004820181815284516024840152845185939192839260440191908501908083836000831561244d578181015183820152602001612435565b80356001600160a01b03811681146106c357600080fd5b60008083601f8401126126fa578182fd5b50813567ffffffffffffffff811115612711578182fd5b602083019150836020808302850101111561272b57600080fd5b9250929050565b803580151581146106c357600080fd5b6000610100808385031215612755578182fd5b6040519081019067ffffffffffffffff8211818310171561277257fe5b8160405280925083358152602084013560208201526040840135604082015260608401356060820152608084013560808201526127b160a085016126d2565b60a08201526127c260c085016127e0565b60c08201526127d360e085016127eb565b60e0820152505092915050565b80356106c381612e99565b803560ff811681146106c357600080fd5b60006020828403121561280d578081fd5b611e80826126d2565b60008060408385031215612828578081fd5b612831836126d2565b946020939093013593505050565b60008060008060008060c08789031215612857578182fd5b612860876126d2565b95506020870135945060408701359350606087013561287e81612e99565b9250608087013561ffff81168114612894578283fd5b91506128a260a088016127eb565b90509295509295509295565b6000806000606084860312156128c2578283fd5b6128cb846126d2565b925060208401356128db81612e99565b929592945050506040919091013590565b60008060008060408587031215612901578384fd5b843567ffffffffffffffff80821115612918578586fd5b612924888389016126e9565b9096509450602087013591508082111561293c578384fd5b50612949878288016126e9565b95989497509550505050565b60008060008060008060c0878903121561296d578182fd5b61297687612732565b9860208801359850604088013597606081013597506080810135965060a00135945092505050565b6000602082840312156129af578081fd5b5035919050565b600080604083850312156129c8578182fd5b8235915060208301356129da81612e99565b809150509250929050565b6000806000806000806101a087890312156129fe578384fd5b612a088888612742565b9550610100870135612a1981612e99565b9450612a286101208801612732565b93506101408701359250610160870135915061018087013590509295509295509295565b60008060008060008060006101c0888a031215612a67578485fd5b612a718989612742565b9650610100880135612a8281612e99565b9550612a916101208901612732565b9699959850959661014081013596506101608101359561018082013595506101a0909101359350915050565b6000806000806101608587031215612ad3578182fd5b612add8686612742565b9350610100850135612aee81612e99565b939693955050505061012082013591610140013590565b600060208284031215612b16578081fd5b5051919050565b600080600060608486031215612b31578081fd5b8335925060208401359150612b48604085016127eb565b90509250925092565b600060208284031215612b62578081fd5b8135611e8081612e99565b60008060408385031215612b7f578182fd5b8251612b8a81612e99565b6020939093015192949293505050565b60008060008060808587031215612baf578182fd5b8435612bba81612e99565b93506020850135925060408501359150612bd6606086016127eb565b905092959194509250565b600060208284031215612bf2578081fd5b611e80826127eb565b6001600160a01b0391909116815260200190565b6001600160a01b0392831681529116602082015260400190565b6001600160a01b03959095168552602085019390935260408401919091526060830152608082015260a00190565b6001600160a01b0398909816885260208801969096526040870194909452606086019290925263ffffffff16608085015260ff1660a084015260c083015260e08201526101000190565b6020808252825182820181905260009190848201906040850190845b81811015612cdf57835163ffffffff1683529284019291840191600101612cbd565b50909695505050505050565b901515815260200190565b9115158252602082015260400190565b90815260200190565b6020808252602c908201527f4261736543757272656e637920417070726f76656420546f204465706f74204960408201526b0e6409cdee8408adcdeeaced60a31b606082015260800190565b6020808252602f908201527f4f6e6c792074686520636f6e7472616374206f776e6572206d6179207065726660408201526e37b936903a3434b99030b1ba34b7b760891b606082015260800190565b60208082526021908201527f496e697469616c2046756e64696e6720486173204e6f7420436f6d706c6574656040820152601960fa1b606082015260800190565b6020808252601290820152710a0dee6d2e8d2dedc409cdee8409ac2e8c6d60731b604082015260600190565b93845260208401929092526040830152606082015260800190565b97885260208801969096526040870194909452606086019290925260808501526001600160a01b031660a084015263ffffffff1660c083015260ff1660e08201526101000190565b63ffffffff91909116815260200190565b60ff91909116815260200190565b63ffffffff81168114612eab57600080fd5b5056fe4f776e61626c653a206e6577206f776e657220697320746865207a65726f2061646472657373536166654d6174683a206d756c7469706c69636174696f6e206f766572666c6f775361666545524332303a204552433230206f7065726174696f6e20646964206e6f742073756363656564a2646970667358221220173384332d6253a403ea7cce5c93451be031959975e053e11b08570aa67a68d964736f6c63430007060033",
  "immutableReferences": {},
  "source": "// SPDX-License-Identifier: GPL-3.0\npragma solidity 0.7.6;\npragma abicoder v2;\n\nimport \"@openzeppelin/contracts/math/SafeMath.sol\";\n\nimport \"../Depot.sol\";\n\ncontract DepotMock is Depot {\n    constructor(address[] memory powers) Depot(powers) {}\n\n    function getPower_(address add) public view returns (uint8) {\n        return _powers[add];\n    }\n\n    function positionsByAccount(address account) external view returns (uint32[] memory) {\n        uint length = 0;\n        uint index = 0;\n\n        for (uint32 i = 1; i <= _positionIndex; i++) {\n            if (_positions[i].account == account) {\n                length++;\n            }\n        }\n\n        uint32[] memory res = new uint32[](length);\n        for (uint32 i = 1; i <= _positionIndex; i++){\n            if (_positions[i].account == account) {\n                res[index++] = i;\n            }\n        }\n\n        return res;\n    }\n\n    function allPositions() external view returns (uint32[] memory) {\n        uint length = 0;\n        uint index = 0;\n\n        for (uint32 i = 1; i <= _positionIndex; i++) {\n            if (_positions[i].account != address(0)) {\n                length++;\n            }\n        }\n\n        uint32[] memory res = new uint32[](length);\n        for (uint32 i = 1; i <= _positionIndex; i++) {\n            if (_positions[i].account != address(0)) {\n                res[index++] = i;\n            }\n        }\n\n        return res;\n    }\n\n    function getCurrPosIdx() external view returns (uint32){\n        return _positionIndex;\n    }\n}",
  "sourcePath": "/mnt/zp/QiLin-v1/test/QiLin-v1-master/contracts/mocks/DepotMock.sol",
  "compiler": {
    "name": "solc",
    "version": "0.7.6+commit.7338295f.Emscripten.clang"
  },
  "schemaVersion": "3.4.1",
  "updatedAt": "2021-07-05T02:57:09.786Z",
  "devdoc": {
    "kind": "dev",
    "methods": {
      "owner()": {
        "details": "Returns the address of the current owner."
      },
      "renounceOwnership()": {
        "details": "Leaves the contract without owner. It will not be possible to call `onlyOwner` functions anymore. Can only be called by the current owner. NOTE: Renouncing ownership will leave the contract without an owner, thereby removing any functionality that is only available to the owner."
      },
      "transferOwnership(address)": {
        "details": "Transfers ownership of the contract to a new account (`newOwner`). Can only be called by the current owner."
      }
    },
    "version": 1
  },
  "userdoc": {
    "kind": "user",
    "methods": {},
    "version": 1
  }
}