{
  "contractName": "ExchangeRates",
  "abi": [
    {
      "anonymous": false,
      "inputs": [
        {
          "indexed": true,
          "internalType": "bytes32",
          "name": "key",
          "type": "bytes32"
        },
        {
          "indexed": false,
          "internalType": "address",
          "name": "aggregator",
          "type": "address"
        },
        {
          "indexed": false,
          "internalType": "uint32",
          "name": "idx",
          "type": "uint32"
        }
      ],
      "name": "AddCurrencyKey",
      "type": "event"
    },
    {
      "anonymous": false,
      "inputs": [
        {
          "indexed": true,
          "internalType": "bytes32",
          "name": "key",
          "type": "bytes32"
        },
        {
          "indexed": false,
          "internalType": "uint32",
          "name": "idx",
          "type": "uint32"
        }
      ],
      "name": "DelCurrencyKey",
      "type": "event"
    },
    {
      "anonymous": false,
      "inputs": [
        {
          "indexed": true,
          "internalType": "address",
          "name": "previousOwner",
          "type": "address"
        },
        {
          "indexed": true,
          "internalType": "address",
          "name": "newOwner",
          "type": "address"
        }
      ],
      "name": "OwnershipTransferred",
      "type": "event"
    },
    {
      "anonymous": false,
      "inputs": [
        {
          "indexed": true,
          "internalType": "bytes32",
          "name": "key",
          "type": "bytes32"
        },
        {
          "indexed": false,
          "internalType": "address",
          "name": "from",
          "type": "address"
        },
        {
          "indexed": false,
          "internalType": "address",
          "name": "to",
          "type": "address"
        },
        {
          "indexed": false,
          "internalType": "uint32",
          "name": "idx",
          "type": "uint32"
        }
      ],
      "name": "UpdateCurrencyKey",
      "type": "event"
    },
    {
      "inputs": [],
      "name": "owner",
      "outputs": [
        {
          "internalType": "address",
          "name": "",
          "type": "address"
        }
      ],
      "stateMutability": "view",
      "type": "function"
    },
    {
      "inputs": [],
      "name": "renounceOwnership",
      "outputs": [],
      "stateMutability": "nonpayable",
      "type": "function"
    },
    {
      "inputs": [
        {
          "internalType": "address",
          "name": "newOwner",
          "type": "address"
        }
      ],
      "name": "transferOwnership",
      "outputs": [],
      "stateMutability": "nonpayable",
      "type": "function"
    },
    {
      "inputs": [
        {
          "internalType": "bytes32",
          "name": "currencyKey_",
          "type": "bytes32"
        },
        {
          "internalType": "address",
          "name": "aggregator_",
          "type": "address"
        }
      ],
      "name": "addCurrencyKey",
      "outputs": [],
      "stateMutability": "nonpayable",
      "type": "function"
    },
    {
      "inputs": [
        {
          "internalType": "bytes32",
          "name": "currencyKey_",
          "type": "bytes32"
        },
        {
          "internalType": "address",
          "name": "aggregator_",
          "type": "address"
        }
      ],
      "name": "updateCurrencyKey",
      "outputs": [],
      "stateMutability": "nonpayable",
      "type": "function"
    },
    {
      "inputs": [
        {
          "internalType": "bytes32",
          "name": "currencyKey_",
          "type": "bytes32"
        }
      ],
      "name": "deleteCurrencyKey",
      "outputs": [],
      "stateMutability": "nonpayable",
      "type": "function"
    },
    {
      "inputs": [
        {
          "internalType": "bytes32",
          "name": "currencyKey_",
          "type": "bytes32"
        }
      ],
      "name": "rateForCurrency",
      "outputs": [
        {
          "internalType": "uint32",
          "name": "",
          "type": "uint32"
        },
        {
          "internalType": "uint256",
          "name": "",
          "type": "uint256"
        }
      ],
      "stateMutability": "view",
      "type": "function"
    },
    {
      "inputs": [
        {
          "internalType": "uint32",
          "name": "idx",
          "type": "uint32"
        }
      ],
      "name": "rateForCurrencyByIdx",
      "outputs": [
        {
          "internalType": "uint256",
          "name": "",
          "type": "uint256"
        }
      ],
      "stateMutability": "view",
      "type": "function"
    },
    {
      "inputs": [
        {
          "internalType": "bytes32",
          "name": "currencyKey_",
          "type": "bytes32"
        }
      ],
      "name": "currencyKeyExist",
      "outputs": [
        {
          "internalType": "bool",
          "name": "",
          "type": "bool"
        }
      ],
      "stateMutability": "view",
      "type": "function"
    }
  ],
  "bytecode": "0x60806040526000805463ffffffff60a01b1916600160a01b17905534801561002657600080fd5b506000610031610080565b600080546001600160a01b0319166001600160a01b0383169081178255604051929350917f8be0079c531659141344cd1fd0a4f28419497f9722a3daafe3b4186f6b6457e0908290a350610084565b3390565b610ea6806100936000396000f3fe608060405234801561001057600080fd5b50600436106100935760003560e01c80638da5cb5b116100665780638da5cb5b146101205780639fa6752e14610144578063ac82f60814610175578063f2fde38b146101b2578063fa689e35146101d857610093565b806316d71eb6146100985780633f950006146100cd5780635699d59b146100fb578063715018a614610118575b600080fd5b6100bb600480360360208110156100ae57600080fd5b503563ffffffff16610204565b60408051918252519081900360200190f35b6100f9600480360360408110156100e357600080fd5b50803590602001356001600160a01b0316610373565b005b6100f96004803603602081101561011157600080fd5b50356105d1565b6100f961070f565b6101286107bb565b604080516001600160a01b039092168252519081900360200190f35b6101616004803603602081101561015a57600080fd5b50356107ca565b604080519115158252519081900360200190f35b6101926004803603602081101561018b57600080fd5b50356107e7565b6040805163ffffffff909316835260208301919091528051918290030190f35b6100f9600480360360208110156101c857600080fd5b50356001600160a01b031661093a565b6100f9600480360360408110156101ee57600080fd5b50803590602001356001600160a01b0316610a3c565b63ffffffff81166000908152600460205260408120546001600160a01b031680610271576040805162461bcd60e51b81526020600482015260196024820152781859d9dc9959d85d1bdc88191bd95cc81b9bdd08195e1a5cdd603a1b604482015290519081900360640190fd5b6000816001600160a01b03166350d25bcd6040518163ffffffff1660e01b815260040160206040518083038186803b1580156102ac57600080fd5b505afa1580156102c0573d6000803e3d6000fd5b505050506040513d60208110156102d657600080fd5b50516040805163313ce56760e01b8152905191925060009161035a916001600160a01b0386169163313ce56791600480820192602092909190829003018186803b15801561032357600080fd5b505afa158015610337573d6000803e3d6000fd5b505050506040513d602081101561034d57600080fd5b505160129060ff16610d43565b905061036a82600a83900a610da5565b95945050505050565b61037b610e05565b6001600160a01b031661038c6107bb565b6001600160a01b0316146103d5576040805162461bcd60e51b81526020600482018190526024820152600080516020610e51833981519152604482015290519081900360640190fd5b6000828152600160205260409020546001600160a01b03161561043f576040805162461bcd60e51b815260206004820152601860248201527f61676772656761746f7220616c72656164792065786973740000000000000000604482015290519081900360640190fd5b60008190506000816001600160a01b031663668a0f026040518163ffffffff1660e01b815260040160206040518083038186803b15801561047f57600080fd5b505afa158015610493573d6000803e3d6000fd5b505050506040513d60208110156104a957600080fd5b505110156104fe576040805162461bcd60e51b815260206004820152601b60248201527f476976656e2041676772656761746f7220697320696e76616c69640000000000604482015290519081900360640190fd5b600083815260016020818152604080842080546001600160a01b03199081166001600160a01b038916908117909255855463ffffffff60a01b198116600160a01b9182900463ffffffff9081169097018716820217808855049094168086526003845282862089905588865260028452828620805463ffffffff1916821790558086526004845294829020805490941681179093558051928352908201839052805186927f5154cd28537077117867318b33f0d1477d384478ef391bd4c96957520ad82f6492908290030190a250505050565b6105d9610e05565b6001600160a01b03166105ea6107bb565b6001600160a01b031614610633576040805162461bcd60e51b81526020600482018190526024820152600080516020610e51833981519152604482015290519081900360640190fd5b600081815260016020908152604080832080546001600160a01b0319169055600290915290205463ffffffff16806106b2576040805162461bcd60e51b815260206004820181905260248201527f5468652063757272656e6379206b657920696e7420626520696e646578656421604482015290519081900360640190fd5b63ffffffff811660008181526004602090815260409182902080546001600160a01b03191690558151928352905184927f01a020faa6f0e962eadd98f6505f10d59b84192e09be9e6173c5e48844eb356392908290030190a25050565b610717610e05565b6001600160a01b03166107286107bb565b6001600160a01b031614610771576040805162461bcd60e51b81526020600482018190526024820152600080516020610e51833981519152604482015290519081900360640190fd5b600080546040516001600160a01b03909116907f8be0079c531659141344cd1fd0a4f28419497f9722a3daafe3b4186f6b6457e0908390a3600080546001600160a01b0319169055565b6000546001600160a01b031690565b6000908152600160205260409020546001600160a01b0316151590565b60008181526001602052604081205481906001600160a01b03168061084f576040805162461bcd60e51b81526020600482015260196024820152781859d9dc9959d85d1bdc88191bd95cc81b9bdd08195e1a5cdd603a1b604482015290519081900360640190fd5b60008481526002602090815260408083205481516350d25bcd60e01b8152915163ffffffff90911693926001600160a01b038616926350d25bcd9260048083019392829003018186803b1580156108a557600080fd5b505afa1580156108b9573d6000803e3d6000fd5b505050506040513d60208110156108cf57600080fd5b50516040805163313ce56760e01b8152905191925060009161091c916001600160a01b0387169163313ce56791600480820192602092909190829003018186803b15801561032357600080fd5b90508261092d83600a84900a610da5565b9550955050505050915091565b610942610e05565b6001600160a01b03166109536107bb565b6001600160a01b03161461099c576040805162461bcd60e51b81526020600482018190526024820152600080516020610e51833981519152604482015290519081900360640190fd5b6001600160a01b0381166109e15760405162461bcd60e51b8152600401808060200182810382526026815260200180610e0a6026913960400191505060405180910390fd5b600080546040516001600160a01b03808516939216917f8be0079c531659141344cd1fd0a4f28419497f9722a3daafe3b4186f6b6457e091a3600080546001600160a01b0319166001600160a01b0392909216919091179055565b610a44610e05565b6001600160a01b0316610a556107bb565b6001600160a01b031614610a9e576040805162461bcd60e51b81526020600482018190526024820152600080516020610e51833981519152604482015290519081900360640190fd5b6000828152600160205260409020546001600160a01b031680610b04576040805162461bcd60e51b81526020600482015260196024820152781859d9dc9959d85d1bdc88191bd95cc81b9bdd08195e1a5cdd603a1b604482015290519081900360640190fd5b60008290506000816001600160a01b031663668a0f026040518163ffffffff1660e01b815260040160206040518083038186803b158015610b4457600080fd5b505afa158015610b58573d6000803e3d6000fd5b505050506040513d6020811015610b6e57600080fd5b50511015610bc3576040805162461bcd60e51b815260206004820152601b60248201527f476976656e2041676772656761746f7220697320696e76616c69640000000000604482015290519081900360640190fd5b600084815260016020908152604080832080546001600160a01b0319166001600160a01b038816179055600290915290205463ffffffff1680610c4d576040805162461bcd60e51b815260206004820181905260248201527f5468652063757272656e6379206b657920696e7420626520696e646578656421604482015290519081900360640190fd5b63ffffffff81166000908152600460205260409020546001600160a01b03848116911614610cc2576040805162461bcd60e51b815260206004820181905260248201527f5468652069647820746f2061646472657373206e6f7420657120746f206f6c64604482015290519081900360640190fd5b63ffffffff811660008181526004602090815260409182902080546001600160a01b03808a166001600160a01b031990921682179092558351918816825291810191909152808201929092525186917f18e9155a0f1eb6f3dd35d479861e892f91eb1f974c0de8d63adb78d3f9a4f9c4919081900360600190a25050505050565b600082821115610d9a576040805162461bcd60e51b815260206004820152601e60248201527f536166654d6174683a207375627472616374696f6e206f766572666c6f770000604482015290519081900360640190fd5b508082035b92915050565b600082610db457506000610d9f565b82820282848281610dc157fe5b0414610dfe5760405162461bcd60e51b8152600401808060200182810382526021815260200180610e306021913960400191505060405180910390fd5b9392505050565b339056fe4f776e61626c653a206e6577206f776e657220697320746865207a65726f2061646472657373536166654d6174683a206d756c7469706c69636174696f6e206f766572666c6f774f776e61626c653a2063616c6c6572206973206e6f7420746865206f776e6572a26469706673582212205867accf4dc7648f7e363c2c1a1631ed1755f1a5772ca386e2e16440d9da4c9d64736f6c63430007060033",
  "immutableReferences": {},
  "source": "// SPDX-License-Identifier: GPL-3.0\npragma solidity 0.7.6;\n\nimport \"@openzeppelin/contracts/math/SafeMath.sol\";\nimport \"@openzeppelin/contracts/access/Ownable.sol\";\nimport \"@chainlink/contracts/src/v0.5/interfaces/AggregatorV2V3Interface.sol\";\n\nimport \"./interfaces/IExchangeRates.sol\";\n\ncontract ExchangeRates is Ownable, IExchangeRates {\n    using SafeMath for uint;\n\n    uint32 private _indexNext = 1;\n    mapping(bytes32 => address) private _aggregators;\n    mapping(bytes32 => uint32) private _key2Indexs;\n    mapping(uint32 => bytes32) private _Indexs2Keys;\n    mapping(uint32 => address) private _keyAddressIndexs;\n\n    uint private constant DECIMALS18 = 18;\n\n    function addCurrencyKey(bytes32 currencyKey_, address aggregator_) external override onlyOwner {\n        require(address(_aggregators[currencyKey_]) == address(0), \"aggregator already exist\");\n        AggregatorV2V3Interface aggregator = AggregatorV2V3Interface(aggregator_);\n\n        require(aggregator.latestRound() >= 0, \"Given Aggregator is invalid\");\n\n        _aggregators[currencyKey_] = aggregator_;\n        _indexNext++;\n\n        uint32 idx = _indexNext;\n        _Indexs2Keys[idx] = currencyKey_;\n        _key2Indexs[currencyKey_] = idx;\n        _keyAddressIndexs[idx] = aggregator_;\n        \n        emit AddCurrencyKey(currencyKey_, aggregator_, idx);\n    }\n\n    function updateCurrencyKey(bytes32 currencyKey_, address aggregator_) external override onlyOwner {\n        address oldAggregator = address(_aggregators[currencyKey_]);\n        require(oldAggregator != address(0), \"aggregator does not exist\");\n\n        AggregatorV2V3Interface aggregator = AggregatorV2V3Interface(aggregator_);\n        require(aggregator.latestRound() >= 0, \"Given Aggregator is invalid\");\n\n        // update map to address\n        _aggregators[currencyKey_] = aggregator_;\n\n        // update the index\n        // update address to aggregator for a currencyKey will not update the idx\n\n        uint32 idx = _key2Indexs[currencyKey_];\n        require(idx != 0, \"The currency key int be indexed!\");\n        require(oldAggregator == _keyAddressIndexs[idx], \"The idx to address not eq to old\");\n\n        _keyAddressIndexs[idx] = aggregator_;\n\n        emit UpdateCurrencyKey(currencyKey_, oldAggregator, aggregator_, idx);\n    }\n\n    function deleteCurrencyKey(bytes32 currencyKey_) external override onlyOwner {\n        delete _aggregators[currencyKey_];\n\n        // not to delete index to key, but delete the idx to address\n        uint32 idx = _key2Indexs[currencyKey_];\n        require(idx != 0, \"The currency key int be indexed!\");\n\n        delete _keyAddressIndexs[idx];\n\n        emit DelCurrencyKey(currencyKey_, idx);\n    }\n\n    function rateForCurrency(bytes32 currencyKey_) external override view returns (uint32, uint) {\n        //require(false,\"t12!!!!\");\n        address aggregatorAddr = _aggregators[currencyKey_];\n        //require(false,\"t2!!!!\");\n        require(aggregatorAddr != address(0), \"aggregator does not exist\");\n\n        uint32 idx = _key2Indexs[currencyKey_];\n\n        uint price = uint(AggregatorV2V3Interface(aggregatorAddr).latestAnswer());\n        uint decimals = DECIMALS18.sub(uint(AggregatorV2V3Interface(aggregatorAddr).decimals()));\n\n        return (idx, price.mul(10 ** decimals));\n    }\n\n    function rateForCurrencyByIdx(uint32 idx) external override view returns (uint) {\n        address aggregatorAddr = _keyAddressIndexs[idx];\n        require(aggregatorAddr != address(0), \"aggregator does not exist\");\n\n        uint price = uint(AggregatorV2V3Interface(aggregatorAddr).latestAnswer());\n        uint decimals = DECIMALS18.sub(uint(AggregatorV2V3Interface(aggregatorAddr).decimals()));\n\n        return price.mul(10 ** decimals);\n    }\n\n    function currencyKeyExist(bytes32 currencyKey_) external override view returns (bool) {\n        return (_aggregators[currencyKey_] != address(0));\n    }\n\n    event AddCurrencyKey(bytes32 indexed key, address aggregator, uint32 idx);\n    event UpdateCurrencyKey(bytes32 indexed key, address from, address to, uint32 idx);\n    event DelCurrencyKey(bytes32 indexed key, uint32 idx);\n}\n",
  "sourcePath": "/mnt/zp/QiLin-v1/test/QiLin-v1-master/contracts/ExchangeRates.sol",
  "compiler": {
    "name": "solc",
    "version": "0.7.6+commit.7338295f.Emscripten.clang"
  },
  "schemaVersion": "3.4.1",
  "updatedAt": "2021-06-30T09:46:01.445Z",
  "devdoc": {
    "kind": "dev",
    "methods": {
      "owner()": {
        "details": "Returns the address of the current owner."
      },
      "renounceOwnership()": {
        "details": "Leaves the contract without owner. It will not be possible to call `onlyOwner` functions anymore. Can only be called by the current owner. NOTE: Renouncing ownership will leave the contract without an owner, thereby removing any functionality that is only available to the owner."
      },
      "transferOwnership(address)": {
        "details": "Transfers ownership of the contract to a new account (`newOwner`). Can only be called by the current owner."
      }
    },
    "version": 1
  },
  "userdoc": {
    "kind": "user",
    "methods": {},
    "version": 1
  }
}