{
  "contractName": "Exchange",
  "abi": [
    {
      "anonymous": false,
      "inputs": [
        {
          "indexed": true,
          "internalType": "address",
          "name": "sender",
          "type": "address"
        },
        {
          "indexed": false,
          "internalType": "uint32",
          "name": "positionId",
          "type": "uint32"
        },
        {
          "indexed": false,
          "internalType": "uint256",
          "name": "price",
          "type": "uint256"
        },
        {
          "indexed": false,
          "internalType": "uint256",
          "name": "serviceFee",
          "type": "uint256"
        },
        {
          "indexed": false,
          "internalType": "uint256",
          "name": "marginLoss",
          "type": "uint256"
        },
        {
          "indexed": false,
          "internalType": "bool",
          "name": "isProfit",
          "type": "bool"
        },
        {
          "indexed": false,
          "internalType": "uint256",
          "name": "value",
          "type": "uint256"
        }
      ],
      "name": "ClosePosition",
      "type": "event"
    },
    {
      "anonymous": false,
      "inputs": [
        {
          "indexed": true,
          "internalType": "address",
          "name": "sender",
          "type": "address"
        },
        {
          "indexed": false,
          "internalType": "uint32",
          "name": "positionId",
          "type": "uint32"
        },
        {
          "indexed": false,
          "internalType": "uint256",
          "name": "margin",
          "type": "uint256"
        }
      ],
      "name": "MarginCall",
      "type": "event"
    },
    {
      "anonymous": false,
      "inputs": [
        {
          "indexed": true,
          "internalType": "address",
          "name": "sender",
          "type": "address"
        },
        {
          "indexed": false,
          "internalType": "uint32",
          "name": "positionId",
          "type": "uint32"
        },
        {
          "indexed": false,
          "internalType": "uint256",
          "name": "price",
          "type": "uint256"
        },
        {
          "indexed": false,
          "internalType": "bytes32",
          "name": "currencyKey",
          "type": "bytes32"
        },
        {
          "indexed": false,
          "internalType": "uint8",
          "name": "direction",
          "type": "uint8"
        },
        {
          "indexed": false,
          "internalType": "uint16",
          "name": "level",
          "type": "uint16"
        },
        {
          "indexed": false,
          "internalType": "uint256",
          "name": "position",
          "type": "uint256"
        }
      ],
      "name": "OpenPosition",
      "type": "event"
    },
    {
      "anonymous": false,
      "inputs": [
        {
          "indexed": true,
          "internalType": "address",
          "name": "previousOwner",
          "type": "address"
        },
        {
          "indexed": true,
          "internalType": "address",
          "name": "newOwner",
          "type": "address"
        }
      ],
      "name": "OwnershipTransferred",
      "type": "event"
    },
    {
      "anonymous": false,
      "inputs": [
        {
          "indexed": false,
          "internalType": "uint256",
          "name": "time",
          "type": "uint256"
        },
        {
          "indexed": false,
          "internalType": "uint256",
          "name": "r",
          "type": "uint256"
        }
      ],
      "name": "Rebase",
      "type": "event"
    },
    {
      "inputs": [],
      "name": "_lastRebaseTime",
      "outputs": [
        {
          "internalType": "uint256",
          "name": "",
          "type": "uint256"
        }
      ],
      "stateMutability": "view",
      "type": "function"
    },
    {
      "inputs": [
        {
          "internalType": "bytes32[]",
          "name": "names",
          "type": "bytes32[]"
        },
        {
          "internalType": "address[]",
          "name": "destinations",
          "type": "address[]"
        }
      ],
      "name": "importAddresses",
      "outputs": [],
      "stateMutability": "nonpayable",
      "type": "function"
    },
    {
      "inputs": [],
      "name": "owner",
      "outputs": [
        {
          "internalType": "address",
          "name": "",
          "type": "address"
        }
      ],
      "stateMutability": "view",
      "type": "function"
    },
    {
      "inputs": [],
      "name": "renounceOwnership",
      "outputs": [],
      "stateMutability": "nonpayable",
      "type": "function"
    },
    {
      "inputs": [
        {
          "internalType": "bytes32",
          "name": "",
          "type": "bytes32"
        }
      ],
      "name": "repository",
      "outputs": [
        {
          "internalType": "address",
          "name": "",
          "type": "address"
        }
      ],
      "stateMutability": "view",
      "type": "function"
    },
    {
      "inputs": [
        {
          "internalType": "address",
          "name": "newOwner",
          "type": "address"
        }
      ],
      "name": "transferOwnership",
      "outputs": [],
      "stateMutability": "nonpayable",
      "type": "function"
    },
    {
      "inputs": [
        {
          "internalType": "bytes32",
          "name": "currencyKey",
          "type": "bytes32"
        },
        {
          "internalType": "uint8",
          "name": "direction",
          "type": "uint8"
        },
        {
          "internalType": "uint16",
          "name": "level",
          "type": "uint16"
        },
        {
          "internalType": "uint256",
          "name": "position",
          "type": "uint256"
        }
      ],
      "name": "openPosition",
      "outputs": [
        {
          "internalType": "uint32",
          "name": "",
          "type": "uint32"
        }
      ],
      "stateMutability": "nonpayable",
      "type": "function"
    },
    {
      "inputs": [
        {
          "internalType": "uint32",
          "name": "positionId",
          "type": "uint32"
        },
        {
          "internalType": "uint256",
          "name": "margin",
          "type": "uint256"
        }
      ],
      "name": "addDeposit",
      "outputs": [],
      "stateMutability": "nonpayable",
      "type": "function"
    },
    {
      "inputs": [
        {
          "internalType": "uint32",
          "name": "positionId",
          "type": "uint32"
        }
      ],
      "name": "closePosition",
      "outputs": [],
      "stateMutability": "nonpayable",
      "type": "function"
    },
    {
      "inputs": [],
      "name": "rebase",
      "outputs": [],
      "stateMutability": "nonpayable",
      "type": "function"
    }
  ],
  "bytecode": "0x6080604052600060025534801561001557600080fd5b50600061002061006f565b600080546001600160a01b0319166001600160a01b0383169081178255604051929350917f8be0079c531659141344cd1fd0a4f28419497f9722a3daafe3b4186f6b6457e0908290a350610073565b3390565b611bf1806100826000396000f3fe608060405234801561001057600080fd5b506004361061009e5760003560e01c80638da5cb5b116100665780638da5cb5b14610111578063ab0b8f7714610119578063af14052c1461012c578063e1fff61f14610134578063f2fde38b146101545761009e565b8063187f7935146100a357806351f954bf146100cc578063715018a6146100e15780637715dd4d146100e957806381495710146100fc575b600080fd5b6100b66100b1366004611639565b610167565b6040516100c3919061178b565b60405180910390f35b6100df6100da3660046116eb565b610182565b005b6100df610629565b6100df6100f7366004611723565b6106e7565b6101046107fa565b6040516100c39190611830565b6100b6610800565b6100df6101273660046115d0565b61080f565b6100df610954565b610147610142366004611651565b610e8c565b6040516100c39190611a9d565b6100df610162366004611539565b611096565b6001602052600090815260409020546001600160a01b031681565b600061018c6111aa565b9050806001600160a01b031663086dabd16040518163ffffffff1660e01b8152600401600060405180830381600087803b1580156101c957600080fd5b505af11580156101dd573d6000803e3d6000fd5b5050505060006101eb611200565b90506101f5611499565b60405163f77fc80160e01b81526001600160a01b0383169063f77fc80190610221908790600401611a9d565b6101006040518083038186803b15801561023a57600080fd5b505afa15801561024e573d6000803e3d6000fd5b505050506040513d601f19601f820116820180604052508101906102729190611555565b6080890152606088015260ff1660e087015263ffffffff1660c08601526020850152604084015282526001600160a01b031660a0820181905233146102d25760405162461bcd60e51b81526004016102c9906119b1565b60405180910390fd5b6000670de0b6b3a7640000610368846001600160a01b031663739039f18560e001516040518263ffffffff1660e01b81526004016103109190611b2d565b60206040518083038186803b15801561032857600080fd5b505afa15801561033c573d6000803e3d6000fd5b505050506040513d601f19601f82011682018060405250810190610360919061169e565b84519061120a565b8161036f57fe5b0490506000670de0b6b3a76400006103fc866001600160a01b031663292b63a86040518163ffffffff1660e01b815260040160206040518083038186803b1580156103b957600080fd5b505afa1580156103cd573d6000803e3d6000fd5b505050506040513d601f19601f820116820180604052508101906103f1919061169e565b60408601519061120a565b8161040357fe5b049050600061041f83856040015161126c90919063ffffffff16565b9050600061042b611287565b6001600160a01b03166316d71eb68660c001516040518263ffffffff1660e01b815260040161045a9190611a9d565b60206040518083038186803b15801561047257600080fd5b505afa158015610486573d6000803e3d6000fd5b505050506040513d601f19601f820116820180604052508101906104aa919061169e565b60208601519091506000906104cd6104c284836112d8565b60408901519061120a565b816104d457fe5b04905060008660e0015160ff1660011415158760200151841015151514905080156105345761050385856112f3565b606088015161051290846112f3565b1161052f5760405162461bcd60e51b81526004016102c990611981565b61056a565b6105488461054284886112f3565b906112f3565b87606001511161056a5760405162461bcd60e51b81526004016102c990611981565b604051631b840ed760e11b81526001600160a01b038916906337081dae906105a0908a908e90869088908b908d906004016119dd565b600060405180830381600087803b1580156105ba57600080fd5b505af11580156105ce573d6000803e3d6000fd5b50505050336001600160a01b03167fe3908c692348f2511672c034ea1462b7c8f90f0a24bb9a5fefaa6efdcfd9c2d98b858888868860405161061596959493929190611afb565b60405180910390a250505050505050505050565b61063161134d565b6001600160a01b0316610642610800565b6001600160a01b03161461069d576040805162461bcd60e51b815260206004820181905260248201527f4f776e61626c653a2063616c6c6572206973206e6f7420746865206f776e6572604482015290519081900360640190fd5b600080546040516001600160a01b03909116907f8be0079c531659141344cd1fd0a4f28419497f9722a3daafe3b4186f6b6457e0908390a3600080546001600160a01b0319169055565b6106ef6111aa565b6001600160a01b0316635e58685e826040518263ffffffff1660e01b815260040161071a9190611830565b60006040518083038186803b15801561073257600080fd5b505afa158015610746573d6000803e3d6000fd5b50505050610752611200565b6001600160a01b0316631e5ffd693384846040518463ffffffff1660e01b8152600401610781939291906117df565b600060405180830381600087803b15801561079b57600080fd5b505af11580156107af573d6000803e3d6000fd5b50505050336001600160a01b03167f4b51eca45b3849a44b2d78b44b600b65b92ce53a53b3f652f75f3f227a5988b983836040516107ee929190611aae565b60405180910390a25050565b60025481565b6000546001600160a01b031690565b61081761134d565b6001600160a01b0316610828610800565b6001600160a01b031614610883576040805162461bcd60e51b815260206004820181905260248201527f4f776e61626c653a2063616c6c6572206973206e6f7420746865206f776e6572604482015290519081900360640190fd5b8281146108d7576040805162461bcd60e51b815260206004820152601860248201527f496e707574206c656e67746873206d757374206d617463680000000000000000604482015290519081900360640190fd5b60005b8381101561094d578282828181106108ee57fe5b905060200201356001600160a01b03166001600087878581811061090e57fe5b6020908102929092013583525081019190915260400160002080546001600160a01b0319166001600160a01b03929092169190911790556001016108da565b5050505050565b600061095e611200565b9050600061096a6111aa565b9050600042905080826001600160a01b03166389edeb746040518163ffffffff1660e01b815260040160206040518083038186803b1580156109ab57600080fd5b505afa1580156109bf573d6000803e3d6000fd5b505050506040513d601f19601f820116820180604052508101906109e3919061169e565b600254011115610a055760405162461bcd60e51b81526004016102c990611870565b6000836001600160a01b031663665a11ca6040518163ffffffff1660e01b815260040160206040518083038186803b158015610a4057600080fd5b505afa158015610a54573d6000803e3d6000fd5b505050506040513d601f19601f82011682018060405250810190610a78919061169e565b11610a955760405162461bcd60e51b81526004016102c990611839565b600080600080866001600160a01b031663120089ff6040518163ffffffff1660e01b815260040160806040518083038186803b158015610ad457600080fd5b505afa158015610ae8573d6000803e3d6000fd5b505050506040513d601f19601f82011682018060405250810190610b0c91906116b6565b93509350935093506000876001600160a01b031663665a11ca6040518163ffffffff1660e01b815260040160206040518083038186803b158015610b4f57600080fd5b505afa158015610b63573d6000803e3d6000fd5b505050506040513d601f19601f82011682018060405250810190610b87919061169e565b610ba3670de0b6b3a7640000610b9d86866112d8565b9061120a565b81610baa57fe5b049050866001600160a01b031663fa8b9a096040518163ffffffff1660e01b815260040160206040518083038186803b158015610be657600080fd5b505afa158015610bfa573d6000803e3d6000fd5b505050506040513d601f19601f82011682018060405250810190610c1e919061169e565b8111610c3c5760405162461bcd60e51b81526004016102c9906118de565b6000876001600160a01b0316637cb95d006040518163ffffffff1660e01b815260040160206040518083038186803b158015610c7757600080fd5b505afa158015610c8b573d6000803e3d6000fd5b505050506040513d601f19601f82011682018060405250810190610caf919061169e565b610cb985856112d8565b81610cc057fe5b049050600083851115610d225781871015610ced5760405162461bcd60e51b81526004016102c9906118a7565b610d1b85610d0384670de0b6b3a764000061120a565b81610d0a57fe5b670de0b6b3a7640000919004611351565b9050610d5b565b81861015610d425760405162461bcd60e51b81526004016102c99061194c565b610d5884610d0384670de0b6b3a764000061120a565b90505b87600281905550896001600160a01b03166338dcc48a858711610def8d6001600160a01b031663665a11ca6040518163ffffffff1660e01b815260040160206040518083038186803b158015610db057600080fd5b505afa158015610dc4573d6000803e3d6000fd5b505050506040513d601f19601f82011682018060405250810190610de8919061169e565b86906112f3565b85866000876040518763ffffffff1660e01b8152600401610e1596959493929190611806565b600060405180830381600087803b158015610e2f57600080fd5b505af1158015610e43573d6000803e3d6000fd5b505050507f11c6bf55864ff83827df712625d7a80e5583eef0264921025e7cd22003a215118883604051610e78929190611a8f565b60405180910390a150505050505050505050565b6000610e966111aa565b6001600160a01b031663a0d07b7b83856040518363ffffffff1660e01b8152600401610ec3929190611a7d565b60006040518083038186803b158015610edb57600080fd5b505afa158015610eef573d6000803e3d6000fd5b505050508360ff1660011480610f0857508360ff166002145b610f245760405162461bcd60e51b81526004016102c990611915565b600080610f2f611287565b6001600160a01b031663ac82f608886040518263ffffffff1660e01b8152600401610f5a9190611830565b604080518083038186803b158015610f7157600080fd5b505afa158015610f85573d6000803e3d6000fd5b505050506040513d601f19601f82011682018060405250810190610fa9919061174e565b915091506000610fb7611200565b6001600160a01b0316637e94cc79338488878b8d6040518763ffffffff1660e01b8152600401610fec9695949392919061179f565b602060405180830381600087803b15801561100657600080fd5b505af115801561101a573d6000803e3d6000fd5b505050506040513d601f19601f8201168201806040525081019061103e9190611707565b9050336001600160a01b03167f1087889fe47e2598624d6476719fd6d0f0b247ccbb06e8bf31a0694efda3402082848b8b8b8b60405161108396959493929190611ac4565b60405180910390a2979650505050505050565b61109e61134d565b6001600160a01b03166110af610800565b6001600160a01b03161461110a576040805162461bcd60e51b815260206004820181905260248201527f4f776e61626c653a2063616c6c6572206973206e6f7420746865206f776e6572604482015290519081900360640190fd5b6001600160a01b03811661114f5760405162461bcd60e51b8152600401808060200182810382526026815260200180611b756026913960400191505060405180910390fd5b600080546040516001600160a01b03808516939216917f8be0079c531659141344cd1fd0a4f28419497f9722a3daafe3b4186f6b6457e091a3600080546001600160a01b0319166001600160a01b0392909216919091179055565b60006111fb6c53797374656d53657474696e6760981b6040518060400160405280601d81526020017f4d697373696e672053797374656d53657474696e6720416464726573730000008152506113ae565b905090565b60006111fb611458565b60008261121957506000611266565b8282028284828161122657fe5b04146112635760405162461bcd60e51b8152600401808060200182810382526021815260200180611b9b6021913960400191505060405180910390fd5b90505b92915050565b60008183111561127f5750808203611266565b506000611266565b60006111fb6c45786368616e6765526174657360981b6040518060400160405280601d81526020017f4d697373696e672045786368616e6765526174657320416464726573730000008152506113ae565b60008183106112ea5750808203611266565b50818103611266565b600082820183811015611263576040805162461bcd60e51b815260206004820152601b60248201527f536166654d6174683a206164646974696f6e206f766572666c6f770000000000604482015290519081900360640190fd5b3390565b6000828211156113a8576040805162461bcd60e51b815260206004820152601e60248201527f536166654d6174683a207375627472616374696f6e206f766572666c6f770000604482015290519081900360640190fd5b50900390565b6000828152600160205260408120546001600160a01b031682816114505760405162461bcd60e51b81526004018080602001828103825283818151815260200191508051906020019080838360005b838110156114155781810151838201526020016113fd565b50505050905090810190601f1680156114425780820380516001836020036101000a031916815260200191505b509250505060405180910390fd5b509392505050565b60006111fb6411195c1bdd60da1b604051806040016040528060158152602001744d697373696e67204465706f74204164647265737360581b8152506113ae565b604051806101000160405280600081526020016000815260200160008152602001600081526020016000815260200160006001600160a01b03168152602001600063ffffffff168152602001600060ff1681525090565b60008083601f840112611501578182fd5b50813567ffffffffffffffff811115611518578182fd5b602083019150836020808302850101111561153257600080fd5b9250929050565b60006020828403121561154a578081fd5b813561126381611b3b565b600080600080600080600080610100898b031215611571578384fd5b885161157c81611b3b565b8098505060208901519650604089015195506060890151945060808901516115a381611b53565b60a08a01519094506115b481611b65565b60c08a015160e0909a0151989b979a5095989497939692505050565b600080600080604085870312156115e5578384fd5b843567ffffffffffffffff808211156115fc578586fd5b611608888389016114f0565b90965094506020870135915080821115611620578384fd5b5061162d878288016114f0565b95989497509550505050565b60006020828403121561164a578081fd5b5035919050565b60008060008060808587031215611666578384fd5b84359350602085013561167881611b65565b9250604085013561ffff8116811461168e578283fd5b9396929550929360600135925050565b6000602082840312156116af578081fd5b5051919050565b600080600080608085870312156116cb578384fd5b505082516020840151604085015160609095015191969095509092509050565b6000602082840312156116fc578081fd5b813561126381611b53565b600060208284031215611718578081fd5b815161126381611b53565b60008060408385031215611735578182fd5b823561174081611b53565b946020939093013593505050565b60008060408385031215611760578182fd5b825161176b81611b53565b6020939093015192949293505050565b15159052565b63ffffffff169052565b6001600160a01b0391909116815260200190565b6001600160a01b039690961686526020860194909452604085019290925263ffffffff16606084015261ffff16608083015260ff1660a082015260c00190565b6001600160a01b0393909316835263ffffffff919091166020830152604082015260600190565b9515158652602086019490945260408501929092526060840152608083015260a082015260c00190565b90815260200190565b6020808252601f908201527f6c697175696469747920706f6f6c206d757374206d6f7265207468616e203000604082015260600190565b60208082526018908201527f4e6f74204d6565742052656261736520496e74657276616c0000000000000000604082015260600190565b6020808252601f908201527f4c6f6e67204d617267696e20506f6f6c204861732042616e6b72757074656400604082015260600190565b6020808252601c908201527f6e6f74206d65657420696d62616c616e6365207468726573686f6c6400000000604082015260600190565b6020808252601c908201527f446972656374696f6e204f6e6c792043616e2042652031204f72203200000000604082015260600190565b6020808252818101527f53686f7274204d617267696e20506f6f6c204861732042616e6b727570746564604082015260600190565b6020808252601690820152752130b735b93ab83a32b2102634b8bab4b230ba34b7b760511b604082015260600190565b6020808252601290820152710a0dee6d2e8d2dedc409cdee8409ac2e8c6d60731b604082015260600190565b60006101a082019050875182526020880151602083015260408801516040830152606088015160608301526080880151608083015260018060a01b0360a08901511660a083015263ffffffff60c08901511660c083015260ff60e08901511660e0830152611a4f610100830188611781565b611a5d61012083018761177b565b846101408301528361016083015282610180830152979650505050505050565b91825261ffff16602082015260400190565b918252602082015260400190565b63ffffffff91909116815260200190565b63ffffffff929092168252602082015260400190565b63ffffffff9690961686526020860194909452604085019290925260ff16606084015261ffff16608083015260a082015260c00190565b63ffffffff9690961686526020860194909452604085019290925260608401521515608083015260a082015260c00190565b60ff91909116815260200190565b6001600160a01b0381168114611b5057600080fd5b50565b63ffffffff81168114611b5057600080fd5b60ff81168114611b5057600080fdfe4f776e61626c653a206e6577206f776e657220697320746865207a65726f2061646472657373536166654d6174683a206d756c7469706c69636174696f6e206f766572666c6f77a2646970667358221220697ac5a635805d4bf09fcfde2743a17f0120eb5143101669cc60c4ada15d34e864736f6c63430007060033",
  "immutableReferences": {},
  "source": "// SPDX-License-Identifier: GPL-3.0\npragma solidity 0.7.6;\npragma abicoder v2;\n\nimport \"@openzeppelin/contracts/math/SafeMath.sol\";\nimport \"@openzeppelin/contracts/token/ERC20/IERC20.sol\";\nimport \"@openzeppelin/contracts/token/ERC20/SafeERC20.sol\";\n\nimport \"./interfaces/IFluidity.sol\";\nimport \"./interfaces/ILiquidation.sol\";\nimport \"./interfaces/IExchange.sol\";\nimport \"./interfaces/IExchangeRates.sol\";\nimport \"./interfaces/IFundToken.sol\";\nimport \"./interfaces/ISystemSetting.sol\";\nimport \"./interfaces/IDepot.sol\";\n\nimport \"./utils/AddressResolver.sol\";\nimport \"./utils/BasicMaths.sol\";\n\ncontract Exchange is AddressResolver, IExchange {\n    using SafeMath for uint;\n    using BasicMaths for uint;\n    using BasicMaths for bool;\n    using SafeERC20 for IERC20;\n\n    uint public _lastRebaseTime = 0;\n\n    uint private constant E18 = 1e18;\n    bytes32 private constant CONTRACT_FUNDTOKEN = \"FundToken\";\n    bytes32 private constant CONTRACT_EXCHANGERATES = \"ExchangeRates\";\n    bytes32 private constant CONTRACT_DEPOT = \"Depot\";\n    bytes32 private constant CONTRACT_SYSTEMSETTING = \"SystemSetting\";\n    bytes32 private constant CONTRACT_BASECURRENCY = \"BaseCurrency\";\n\n    function fundToken() internal view returns (address) {\n        return requireAndGetAddress(CONTRACT_FUNDTOKEN, \"Missing FundToken Address\");\n    }\n\n    function exchangeRates() internal view returns (IExchangeRates) {\n        return IExchangeRates(requireAndGetAddress(CONTRACT_EXCHANGERATES, \"Missing ExchangeRates Address\"));\n    }\n\n    function systemSetting() internal view returns (ISystemSetting) {\n        return ISystemSetting(requireAndGetAddress(CONTRACT_SYSTEMSETTING, \"Missing SystemSetting Address\"));\n    }\n\n    function depotAddress() internal view returns (address) {\n        return requireAndGetAddress(CONTRACT_DEPOT, \"Missing Depot Address\");\n    }\n\n    function getDepot() internal view returns (IDepot) {\n        return IDepot(depotAddress());\n    }\n\n    function baseCurrency() internal view returns (IERC20) {\n        return IERC20(requireAndGetAddress(CONTRACT_BASECURRENCY, \"Missing BaseCurrency Address\"));\n    }\n\n    function openPosition(bytes32 currencyKey, uint8 direction, uint16 level, uint position) external override returns (uint32) {\n        systemSetting().checkOpenPosition(position, level);\n\n        require(direction == 1 || direction == 2, \"Direction Only Can Be 1 Or 2\");\n\n        (uint32 currencyKeyIdx, uint openPrice) = exchangeRates().rateForCurrency(currencyKey);\n        uint32 index = getDepot().newPosition(msg.sender, openPrice, position, currencyKeyIdx, level, direction);\n\n        emit OpenPosition(msg.sender, index, openPrice, currencyKey, direction, level, position);\n\n        return index;\n    }\n\n    function addDeposit(uint32 positionId, uint margin) external override {\n        systemSetting().checkAddDeposit(margin);\n        getDepot().addDeposit(msg.sender, positionId, margin);\n        emit MarginCall(msg.sender, positionId, margin);\n    }\n\n    function closePosition(uint32 positionId) external override {\n        ISystemSetting setting = systemSetting();\n        setting.requireSystemActive();\n\n        IDepot depot = getDepot();\n\n        Position memory position;\n        (\n            position.account,\n            position.share,\n            position.leveragedPosition,\n            position.openPositionPrice,\n            position.currencyKeyIdx,\n            position.direction,\n            position.margin,\n            position.openRebaseLeft\n        ) = depot.position(positionId);\n\n        require(position.account == msg.sender, \"Position Not Match\");\n\n        uint shareSubnetValue = position.share.mul(depot.netValue(position.direction)) / 1e18;\n        uint serviceFee = position.leveragedPosition.mul(setting.positionClosingFee()) / 1e18;\n        uint marginLoss = position.leveragedPosition.sub2Zero(shareSubnetValue);\n\n        uint rateForCurrency = exchangeRates().rateForCurrencyByIdx(position.currencyKeyIdx);\n        uint value = position.leveragedPosition.mul(rateForCurrency.diff(position.openPositionPrice)) / position.openPositionPrice;\n\n        bool isProfit = (rateForCurrency >= position.openPositionPrice) == (position.direction == 1);\n\n        if ( isProfit ) {\n            require(position.margin.add(value) > serviceFee.add(marginLoss), \"Bankrupted Liquidation\");\n        } else {\n            require(position.margin > value.add(serviceFee).add(marginLoss), \"Bankrupted Liquidation\");\n        }\n\n        depot.closePosition(\n            position,\n            positionId,\n            isProfit,\n            value,\n            marginLoss,\n            serviceFee);\n\n        emit ClosePosition(msg.sender, positionId, rateForCurrency, serviceFee, marginLoss, isProfit, value);\n    }\n\n    function rebase() external override {\n        IDepot depot = getDepot();\n        ISystemSetting setting = systemSetting();\n        uint time = block.timestamp;\n\n        require(_lastRebaseTime + setting.rebaseInterval() <= time, \"Not Meet Rebase Interval\");\n        require(depot.liquidityPool() > 0, \"liquidity pool must more than 0\");\n\n        (uint totalMarginLong, uint totalMarginShort, uint totalValueLong, uint totalValueShort) = depot.getTotalPositionState();\n        uint D = (totalValueLong.diff(totalValueShort)).mul(1e18) / depot.liquidityPool();\n\n        require(D > setting.imbalanceThreshold(), \"not meet imbalance threshold\");\n\n        uint r = totalValueLong.diff(totalValueShort) / setting.rebaseRate();\n        uint rebaseLeft;\n\n        if(totalValueLong > totalValueShort) {\n            require(totalMarginLong >= r, \"Long Margin Pool Has Bankrupted\");\n            rebaseLeft = E18.sub(r.mul(1e18) / totalValueLong);\n        } else {\n            require(totalMarginShort >= r, \"Short Margin Pool Has Bankrupted\");\n            rebaseLeft = E18.sub(r.mul(1e18) / totalValueShort);\n        }\n\n        _lastRebaseTime = time;\n        depot.updateSubTotalState(totalValueLong > totalValueShort,\n            r.add(depot.liquidityPool()),\n            r, r, 0, rebaseLeft);\n\n        emit Rebase(time, r);\n    }\n\n    event OpenPosition(address indexed sender, uint32 positionId, uint price, bytes32 currencyKey, uint8 direction, uint16 level, uint position);\n    event MarginCall(address indexed sender, uint32 positionId, uint margin);\n    event ClosePosition(address indexed sender, uint32 positionId, uint price, uint serviceFee, uint marginLoss, bool isProfit, uint value);\n    event Rebase(uint time, uint r);\n}\n",
  "sourcePath": "/mnt/zp/QiLin-v1/test/QiLin-v1-master/contracts/Exchange.sol",
  "compiler": {
    "name": "solc",
    "version": "0.7.6+commit.7338295f.Emscripten.clang"
  },
  "schemaVersion": "3.4.1",
  "updatedAt": "2021-06-30T09:07:07.909Z",
  "devdoc": {
    "kind": "dev",
    "methods": {
      "owner()": {
        "details": "Returns the address of the current owner."
      },
      "renounceOwnership()": {
        "details": "Leaves the contract without owner. It will not be possible to call `onlyOwner` functions anymore. Can only be called by the current owner. NOTE: Renouncing ownership will leave the contract without an owner, thereby removing any functionality that is only available to the owner."
      },
      "transferOwnership(address)": {
        "details": "Transfers ownership of the contract to a new account (`newOwner`). Can only be called by the current owner."
      }
    },
    "version": 1
  },
  "userdoc": {
    "kind": "user",
    "methods": {},
    "version": 1
  }
}