{
  "contractName": "ExchangeMock",
  "abi": [
    {
      "anonymous": false,
      "inputs": [
        {
          "indexed": true,
          "internalType": "address",
          "name": "sender",
          "type": "address"
        },
        {
          "indexed": false,
          "internalType": "uint32",
          "name": "positionId",
          "type": "uint32"
        },
        {
          "indexed": false,
          "internalType": "uint256",
          "name": "price",
          "type": "uint256"
        },
        {
          "indexed": false,
          "internalType": "uint256",
          "name": "serviceFee",
          "type": "uint256"
        },
        {
          "indexed": false,
          "internalType": "uint256",
          "name": "marginLoss",
          "type": "uint256"
        },
        {
          "indexed": false,
          "internalType": "bool",
          "name": "isProfit",
          "type": "bool"
        },
        {
          "indexed": false,
          "internalType": "uint256",
          "name": "value",
          "type": "uint256"
        }
      ],
      "name": "ClosePosition",
      "type": "event"
    },
    {
      "anonymous": false,
      "inputs": [
        {
          "indexed": true,
          "internalType": "address",
          "name": "sender",
          "type": "address"
        },
        {
          "indexed": false,
          "internalType": "uint32",
          "name": "positionId",
          "type": "uint32"
        },
        {
          "indexed": false,
          "internalType": "uint256",
          "name": "margin",
          "type": "uint256"
        }
      ],
      "name": "MarginCall",
      "type": "event"
    },
    {
      "anonymous": false,
      "inputs": [
        {
          "indexed": true,
          "internalType": "address",
          "name": "sender",
          "type": "address"
        },
        {
          "indexed": false,
          "internalType": "uint32",
          "name": "positionId",
          "type": "uint32"
        },
        {
          "indexed": false,
          "internalType": "uint256",
          "name": "price",
          "type": "uint256"
        },
        {
          "indexed": false,
          "internalType": "bytes32",
          "name": "currencyKey",
          "type": "bytes32"
        },
        {
          "indexed": false,
          "internalType": "uint8",
          "name": "direction",
          "type": "uint8"
        },
        {
          "indexed": false,
          "internalType": "uint16",
          "name": "level",
          "type": "uint16"
        },
        {
          "indexed": false,
          "internalType": "uint256",
          "name": "position",
          "type": "uint256"
        }
      ],
      "name": "OpenPosition",
      "type": "event"
    },
    {
      "anonymous": false,
      "inputs": [
        {
          "indexed": true,
          "internalType": "address",
          "name": "previousOwner",
          "type": "address"
        },
        {
          "indexed": true,
          "internalType": "address",
          "name": "newOwner",
          "type": "address"
        }
      ],
      "name": "OwnershipTransferred",
      "type": "event"
    },
    {
      "anonymous": false,
      "inputs": [
        {
          "indexed": false,
          "internalType": "uint256",
          "name": "time",
          "type": "uint256"
        },
        {
          "indexed": false,
          "internalType": "uint256",
          "name": "r",
          "type": "uint256"
        }
      ],
      "name": "Rebase",
      "type": "event"
    },
    {
      "inputs": [],
      "name": "_lastRebaseTime",
      "outputs": [
        {
          "internalType": "uint256",
          "name": "",
          "type": "uint256"
        }
      ],
      "stateMutability": "view",
      "type": "function"
    },
    {
      "inputs": [
        {
          "internalType": "uint32",
          "name": "positionId",
          "type": "uint32"
        },
        {
          "internalType": "uint256",
          "name": "margin",
          "type": "uint256"
        }
      ],
      "name": "addDeposit",
      "outputs": [],
      "stateMutability": "nonpayable",
      "type": "function"
    },
    {
      "inputs": [
        {
          "internalType": "uint32",
          "name": "positionId",
          "type": "uint32"
        }
      ],
      "name": "closePosition",
      "outputs": [],
      "stateMutability": "nonpayable",
      "type": "function"
    },
    {
      "inputs": [
        {
          "internalType": "bytes32[]",
          "name": "names",
          "type": "bytes32[]"
        },
        {
          "internalType": "address[]",
          "name": "destinations",
          "type": "address[]"
        }
      ],
      "name": "importAddresses",
      "outputs": [],
      "stateMutability": "nonpayable",
      "type": "function"
    },
    {
      "inputs": [
        {
          "internalType": "bytes32",
          "name": "currencyKey",
          "type": "bytes32"
        },
        {
          "internalType": "uint8",
          "name": "direction",
          "type": "uint8"
        },
        {
          "internalType": "uint16",
          "name": "level",
          "type": "uint16"
        },
        {
          "internalType": "uint256",
          "name": "position",
          "type": "uint256"
        }
      ],
      "name": "openPosition",
      "outputs": [
        {
          "internalType": "uint32",
          "name": "",
          "type": "uint32"
        }
      ],
      "stateMutability": "nonpayable",
      "type": "function"
    },
    {
      "inputs": [],
      "name": "owner",
      "outputs": [
        {
          "internalType": "address",
          "name": "",
          "type": "address"
        }
      ],
      "stateMutability": "view",
      "type": "function"
    },
    {
      "inputs": [],
      "name": "rebase",
      "outputs": [],
      "stateMutability": "nonpayable",
      "type": "function"
    },
    {
      "inputs": [],
      "name": "renounceOwnership",
      "outputs": [],
      "stateMutability": "nonpayable",
      "type": "function"
    },
    {
      "inputs": [
        {
          "internalType": "bytes32",
          "name": "",
          "type": "bytes32"
        }
      ],
      "name": "repository",
      "outputs": [
        {
          "internalType": "address",
          "name": "",
          "type": "address"
        }
      ],
      "stateMutability": "view",
      "type": "function"
    },
    {
      "inputs": [
        {
          "internalType": "address",
          "name": "newOwner",
          "type": "address"
        }
      ],
      "name": "transferOwnership",
      "outputs": [],
      "stateMutability": "nonpayable",
      "type": "function"
    },
    {
      "inputs": [],
      "name": "fundToken_",
      "outputs": [
        {
          "internalType": "address",
          "name": "",
          "type": "address"
        }
      ],
      "stateMutability": "view",
      "type": "function"
    },
    {
      "inputs": [],
      "name": "exchangeRates_",
      "outputs": [
        {
          "internalType": "contract IExchangeRates",
          "name": "",
          "type": "address"
        }
      ],
      "stateMutability": "view",
      "type": "function"
    },
    {
      "inputs": [],
      "name": "systemSetting_",
      "outputs": [
        {
          "internalType": "contract ISystemSetting",
          "name": "",
          "type": "address"
        }
      ],
      "stateMutability": "view",
      "type": "function"
    },
    {
      "inputs": [],
      "name": "depotAddress_",
      "outputs": [
        {
          "internalType": "address",
          "name": "",
          "type": "address"
        }
      ],
      "stateMutability": "view",
      "type": "function"
    },
    {
      "inputs": [],
      "name": "depot_",
      "outputs": [
        {
          "internalType": "contract IDepot",
          "name": "",
          "type": "address"
        }
      ],
      "stateMutability": "view",
      "type": "function"
    },
    {
      "inputs": [],
      "name": "baseCurrency_",
      "outputs": [
        {
          "internalType": "contract IERC20",
          "name": "",
          "type": "address"
        }
      ],
      "stateMutability": "view",
      "type": "function"
    }
  ],
  "bytecode": "0x6080604052600060025534801561001557600080fd5b50600061002061006f565b600080546001600160a01b0319166001600160a01b0383169081178255604051929350917f8be0079c531659141344cd1fd0a4f28419497f9722a3daafe3b4186f6b6457e0908290a350610073565b3390565b611cdc806100826000396000f3fe608060405234801561001057600080fd5b50600436106101005760003560e01c80638149571011610097578063e1fff61f11610066578063e1fff61f146102a0578063e9acc23d146102ef578063f2fde38b146102f7578063f83f18641461031d57610100565b806381495710146101b45780638da5cb5b146101ce578063ab0b8f77146101d6578063af14052c1461029857610100565b806351f954bf116100d357806351f954bf14610156578063715018a61461017b5780637715dd4d146101835780637cd649a2146101ac57610100565b8063040805961461010557806314298c4f14610129578063187f79351461013157806347eb551b1461014e575b600080fd5b61010d610325565b604080516001600160a01b039092168252519081900360200190f35b61010d610334565b61010d6004803603602081101561014757600080fd5b503561033e565b61010d610359565b6101796004803603602081101561016c57600080fd5b503563ffffffff16610363565b005b61017961080a565b6101796004803603604081101561019957600080fd5b5063ffffffff81351690602001356108c8565b61010d6109db565b6101bc6109e5565b60408051918252519081900360200190f35b61010d6109eb565b610179600480360360408110156101ec57600080fd5b81019060208101813564010000000081111561020757600080fd5b82018360208201111561021957600080fd5b8035906020019184602083028401116401000000008311171561023b57600080fd5b91939092909160208101903564010000000081111561025957600080fd5b82018360208201111561026b57600080fd5b8035906020019184602083028401116401000000008311171561028d57600080fd5b5090925090506109fa565b610179610b3f565b6102d6600480360360808110156102b657600080fd5b5080359060ff6020820135169061ffff6040820135169060600135611077565b6040805163ffffffff9092168252519081900360200190f35b61010d611281565b6101796004803603602081101561030d57600080fd5b50356001600160a01b031661128b565b61010d61139f565b600061032f6113a9565b905090565b600061032f6113f6565b6001602052600090815260409020546001600160a01b031681565b600061032f61139f565b600061036d611446565b9050806001600160a01b031663086dabd16040518163ffffffff1660e01b8152600401600060405180830381600087803b1580156103aa57600080fd5b505af11580156103be573d6000803e3d6000fd5b5050505060006103cc61139f565b90506103d6611722565b60405163f77fc80160e01b81526001600160a01b0383169063f77fc80190610402908790600401611bc1565b6101006040518083038186803b15801561041b57600080fd5b505afa15801561042f573d6000803e3d6000fd5b505050506040513d601f19601f820116820180604052508101906104539190611792565b6080890152606088015260ff1660e087015263ffffffff1660c08601526020850152604084015282526001600160a01b031660a0820181905233146104b35760405162461bcd60e51b81526004016104aa90611ad5565b60405180910390fd5b6000670de0b6b3a7640000610549846001600160a01b031663739039f18560e001516040518263ffffffff1660e01b81526004016104f19190611c51565b60206040518083038186803b15801561050957600080fd5b505afa15801561051d573d6000803e3d6000fd5b505050506040513d601f19601f82011682018060405250810190610541919061181a565b845190611497565b8161055057fe5b0490506000670de0b6b3a76400006105dd866001600160a01b031663292b63a86040518163ffffffff1660e01b815260040160206040518083038186803b15801561059a57600080fd5b505afa1580156105ae573d6000803e3d6000fd5b505050506040513d601f19601f820116820180604052508101906105d2919061181a565b604086015190611497565b816105e457fe5b04905060006106008385604001516114f990919063ffffffff16565b9050600061060c611514565b6001600160a01b03166316d71eb68660c001516040518263ffffffff1660e01b815260040161063b9190611bc1565b60206040518083038186803b15801561065357600080fd5b505afa158015610667573d6000803e3d6000fd5b505050506040513d601f19601f8201168201806040525081019061068b919061181a565b60208601519091506000906106ae6106a38483611565565b604089015190611497565b816106b557fe5b04905060008660e0015160ff166001141515876020015184101515151490508015610715576106e48585611580565b60608801516106f39084611580565b116107105760405162461bcd60e51b81526004016104aa90611aa5565b61074b565b610729846107238488611580565b90611580565b87606001511161074b5760405162461bcd60e51b81526004016104aa90611aa5565b604051631b840ed760e11b81526001600160a01b038916906337081dae90610781908a908e90869088908b908d90600401611b01565b600060405180830381600087803b15801561079b57600080fd5b505af11580156107af573d6000803e3d6000fd5b50505050336001600160a01b03167fe3908c692348f2511672c034ea1462b7c8f90f0a24bb9a5fefaa6efdcfd9c2d98b85888886886040516107f696959493929190611c1f565b60405180910390a250505050505050505050565b6108126115da565b6001600160a01b03166108236109eb565b6001600160a01b03161461087e576040805162461bcd60e51b815260206004820181905260248201527f4f776e61626c653a2063616c6c6572206973206e6f7420746865206f776e6572604482015290519081900360640190fd5b600080546040516001600160a01b03909116907f8be0079c531659141344cd1fd0a4f28419497f9722a3daafe3b4186f6b6457e0908390a3600080546001600160a01b0319169055565b6108d0611446565b6001600160a01b0316635e58685e826040518263ffffffff1660e01b81526004016108fb9190611954565b60006040518083038186803b15801561091357600080fd5b505afa158015610927573d6000803e3d6000fd5b5050505061093361139f565b6001600160a01b0316631e5ffd693384846040518463ffffffff1660e01b815260040161096293929190611903565b600060405180830381600087803b15801561097c57600080fd5b505af1158015610990573d6000803e3d6000fd5b50505050336001600160a01b03167f4b51eca45b3849a44b2d78b44b600b65b92ce53a53b3f652f75f3f227a5988b983836040516109cf929190611bd2565b60405180910390a25050565b600061032f611446565b60025481565b6000546001600160a01b031690565b610a026115da565b6001600160a01b0316610a136109eb565b6001600160a01b031614610a6e576040805162461bcd60e51b815260206004820181905260248201527f4f776e61626c653a2063616c6c6572206973206e6f7420746865206f776e6572604482015290519081900360640190fd5b828114610ac2576040805162461bcd60e51b815260206004820152601860248201527f496e707574206c656e67746873206d757374206d617463680000000000000000604482015290519081900360640190fd5b60005b83811015610b3857828282818110610ad957fe5b905060200201356001600160a01b031660016000878785818110610af957fe5b6020908102929092013583525081019190915260400160002080546001600160a01b0319166001600160a01b0392909216919091179055600101610ac5565b5050505050565b6000610b4961139f565b90506000610b55611446565b9050600042905080826001600160a01b03166389edeb746040518163ffffffff1660e01b815260040160206040518083038186803b158015610b9657600080fd5b505afa158015610baa573d6000803e3d6000fd5b505050506040513d601f19601f82011682018060405250810190610bce919061181a565b600254011115610bf05760405162461bcd60e51b81526004016104aa90611994565b6000836001600160a01b031663665a11ca6040518163ffffffff1660e01b815260040160206040518083038186803b158015610c2b57600080fd5b505afa158015610c3f573d6000803e3d6000fd5b505050506040513d601f19601f82011682018060405250810190610c63919061181a565b11610c805760405162461bcd60e51b81526004016104aa9061195d565b600080600080866001600160a01b031663120089ff6040518163ffffffff1660e01b815260040160806040518083038186803b158015610cbf57600080fd5b505afa158015610cd3573d6000803e3d6000fd5b505050506040513d601f19601f82011682018060405250810190610cf79190611832565b93509350935093506000876001600160a01b031663665a11ca6040518163ffffffff1660e01b815260040160206040518083038186803b158015610d3a57600080fd5b505afa158015610d4e573d6000803e3d6000fd5b505050506040513d601f19601f82011682018060405250810190610d72919061181a565b610d8e670de0b6b3a7640000610d888686611565565b90611497565b81610d9557fe5b049050866001600160a01b031663fa8b9a096040518163ffffffff1660e01b815260040160206040518083038186803b158015610dd157600080fd5b505afa158015610de5573d6000803e3d6000fd5b505050506040513d601f19601f82011682018060405250810190610e09919061181a565b8111610e275760405162461bcd60e51b81526004016104aa90611a02565b6000876001600160a01b0316637cb95d006040518163ffffffff1660e01b815260040160206040518083038186803b158015610e6257600080fd5b505afa158015610e76573d6000803e3d6000fd5b505050506040513d601f19601f82011682018060405250810190610e9a919061181a565b610ea48585611565565b81610eab57fe5b049050600083851115610f0d5781871015610ed85760405162461bcd60e51b81526004016104aa906119cb565b610f0685610eee84670de0b6b3a7640000611497565b81610ef557fe5b670de0b6b3a76400009190046115de565b9050610f46565b81861015610f2d5760405162461bcd60e51b81526004016104aa90611a70565b610f4384610eee84670de0b6b3a7640000611497565b90505b87600281905550896001600160a01b03166338dcc48a858711610fda8d6001600160a01b031663665a11ca6040518163ffffffff1660e01b815260040160206040518083038186803b158015610f9b57600080fd5b505afa158015610faf573d6000803e3d6000fd5b505050506040513d601f19601f82011682018060405250810190610fd3919061181a565b8690611580565b85866000876040518763ffffffff1660e01b81526004016110009695949392919061192a565b600060405180830381600087803b15801561101a57600080fd5b505af115801561102e573d6000803e3d6000fd5b505050507f11c6bf55864ff83827df712625d7a80e5583eef0264921025e7cd22003a215118883604051611063929190611bb3565b60405180910390a150505050505050505050565b6000611081611446565b6001600160a01b031663a0d07b7b83856040518363ffffffff1660e01b81526004016110ae929190611ba1565b60006040518083038186803b1580156110c657600080fd5b505afa1580156110da573d6000803e3d6000fd5b505050508360ff16600114806110f357508360ff166002145b61110f5760405162461bcd60e51b81526004016104aa90611a39565b60008061111a611514565b6001600160a01b031663ac82f608886040518263ffffffff1660e01b81526004016111459190611954565b604080518083038186803b15801561115c57600080fd5b505afa158015611170573d6000803e3d6000fd5b505050506040513d601f19601f820116820180604052508101906111949190611888565b9150915060006111a261139f565b6001600160a01b0316637e94cc79338488878b8d6040518763ffffffff1660e01b81526004016111d7969594939291906118c3565b602060405180830381600087803b1580156111f157600080fd5b505af1158015611205573d6000803e3d6000fd5b505050506040513d601f19601f820116820180604052508101906112299190611867565b9050336001600160a01b03167f1087889fe47e2598624d6476719fd6d0f0b247ccbb06e8bf31a0694efda3402082848b8b8b8b60405161126e96959493929190611be8565b60405180910390a2979650505050505050565b600061032f611514565b6112936115da565b6001600160a01b03166112a46109eb565b6001600160a01b0316146112ff576040805162461bcd60e51b815260206004820181905260248201527f4f776e61626c653a2063616c6c6572206973206e6f7420746865206f776e6572604482015290519081900360640190fd5b6001600160a01b0381166113445760405162461bcd60e51b8152600401808060200182810382526026815260200180611c606026913960400191505060405180910390fd5b600080546040516001600160a01b03808516939216917f8be0079c531659141344cd1fd0a4f28419497f9722a3daafe3b4186f6b6457e091a3600080546001600160a01b0319166001600160a01b0392909216919091179055565b600061032f61163b565b600061032f68233ab7322a37b5b2b760b91b6040518060400160405280601981526020017f4d697373696e672046756e64546f6b656e204164647265737300000000000000815250611678565b600061032f6b4261736543757272656e637960a01b6040518060400160405280601c81526020017f4d697373696e67204261736543757272656e6379204164647265737300000000815250611678565b600061032f6c53797374656d53657474696e6760981b6040518060400160405280601d81526020017f4d697373696e672053797374656d53657474696e672041646472657373000000815250611678565b6000826114a6575060006114f3565b828202828482816114b357fe5b04146114f05760405162461bcd60e51b8152600401808060200182810382526021815260200180611c866021913960400191505060405180910390fd5b90505b92915050565b60008183111561150c57508082036114f3565b5060006114f3565b600061032f6c45786368616e6765526174657360981b6040518060400160405280601d81526020017f4d697373696e672045786368616e676552617465732041646472657373000000815250611678565b600081831061157757508082036114f3565b508181036114f3565b6000828201838110156114f0576040805162461bcd60e51b815260206004820152601b60248201527f536166654d6174683a206164646974696f6e206f766572666c6f770000000000604482015290519081900360640190fd5b3390565b600082821115611635576040805162461bcd60e51b815260206004820152601e60248201527f536166654d6174683a207375627472616374696f6e206f766572666c6f770000604482015290519081900360640190fd5b50900390565b600061032f6411195c1bdd60da1b604051806040016040528060158152602001744d697373696e67204465706f74204164647265737360581b8152505b6000828152600160205260408120546001600160a01b0316828161171a5760405162461bcd60e51b81526004018080602001828103825283818151815260200191508051906020019080838360005b838110156116df5781810151838201526020016116c7565b50505050905090810190601f16801561170c5780820380516001836020036101000a031916815260200191505b509250505060405180910390fd5b509392505050565b604051806101000160405280600081526020016000815260200160008152602001600081526020016000815260200160006001600160a01b03168152602001600063ffffffff168152602001600060ff1681525090565b805163ffffffff8116811461178d57600080fd5b919050565b600080600080600080600080610100898b0312156117ae578384fd5b88516001600160a01b03811681146117c4578485fd5b809850506020890151965060408901519550606089015194506117e960808a01611779565b935060a089015160ff811681146117fe578384fd5b60c08a015160e0909a0151989b979a5095989497939692505050565b60006020828403121561182b578081fd5b5051919050565b60008060008060808587031215611847578384fd5b505082516020840151604085015160609095015191969095509092509050565b600060208284031215611878578081fd5b61188182611779565b9392505050565b6000806040838503121561189a578182fd5b6118a383611779565b9150602083015190509250929050565b15159052565b63ffffffff169052565b6001600160a01b039690961686526020860194909452604085019290925263ffffffff16606084015261ffff16608083015260ff1660a082015260c00190565b6001600160a01b0393909316835263ffffffff919091166020830152604082015260600190565b9515158652602086019490945260408501929092526060840152608083015260a082015260c00190565b90815260200190565b6020808252601f908201527f6c697175696469747920706f6f6c206d757374206d6f7265207468616e203000604082015260600190565b60208082526018908201527f4e6f74204d6565742052656261736520496e74657276616c0000000000000000604082015260600190565b6020808252601f908201527f4c6f6e67204d617267696e20506f6f6c204861732042616e6b72757074656400604082015260600190565b6020808252601c908201527f6e6f74206d65657420696d62616c616e6365207468726573686f6c6400000000604082015260600190565b6020808252601c908201527f446972656374696f6e204f6e6c792043616e2042652031204f72203200000000604082015260600190565b6020808252818101527f53686f7274204d617267696e20506f6f6c204861732042616e6b727570746564604082015260600190565b6020808252601690820152752130b735b93ab83a32b2102634b8bab4b230ba34b7b760511b604082015260600190565b6020808252601290820152710a0dee6d2e8d2dedc409cdee8409ac2e8c6d60731b604082015260600190565b60006101a082019050875182526020880151602083015260408801516040830152606088015160608301526080880151608083015260018060a01b0360a08901511660a083015263ffffffff60c08901511660c083015260ff60e08901511660e0830152611b736101008301886118b9565b611b816101208301876118b3565b846101408301528361016083015282610180830152979650505050505050565b91825261ffff16602082015260400190565b918252602082015260400190565b63ffffffff91909116815260200190565b63ffffffff929092168252602082015260400190565b63ffffffff9690961686526020860194909452604085019290925260ff16606084015261ffff16608083015260a082015260c00190565b63ffffffff9690961686526020860194909452604085019290925260608401521515608083015260a082015260c00190565b60ff9190911681526020019056fe4f776e61626c653a206e6577206f776e657220697320746865207a65726f2061646472657373536166654d6174683a206d756c7469706c69636174696f6e206f766572666c6f77a264697066735822122069b648a75c918b833fd1fb0a1ce9543552ba46e99bb76c3e87e71bca5080685764736f6c63430007060033",
  "immutableReferences": {},
  "source": "// SPDX-License-Identifier: GPL-3.0\npragma solidity 0.7.6;\n\nimport \"@openzeppelin/contracts/math/SafeMath.sol\";\nimport \"@openzeppelin/contracts/token/ERC20/IERC20.sol\";\n\nimport \"../interfaces/IFluidity.sol\";\nimport \"../interfaces/ILiquidation.sol\";\nimport \"../interfaces/IExchange.sol\";\nimport \"../interfaces/IExchangeRates.sol\";\nimport \"../interfaces/IFundToken.sol\";\nimport \"../interfaces/ISystemSetting.sol\";\nimport \"../interfaces/IDepot.sol\";\n\nimport \"../Exchange.sol\";\n\ncontract ExchangeMock is Exchange {\n    function fundToken_() public view returns (address) {\n        return fundToken();\n    }\n\n    function exchangeRates_() public view returns (IExchangeRates) {\n        return exchangeRates();\n    }\n\n    function systemSetting_() public view returns (ISystemSetting) {\n        return systemSetting();\n    }\n\n    function depotAddress_() public view returns (address) {\n        return depotAddress();\n    }\n\n    function depot_() public view returns (IDepot) {\n        return getDepot();\n    }\n\n    function baseCurrency_() public view returns (IERC20) {\n        return baseCurrency();\n    }\n}",
  "sourcePath": "/mnt/zp/QiLin-v1/test/QiLin-v1-master/contracts/mocks/ExchangeMock.sol",
  "compiler": {
    "name": "solc",
    "version": "0.7.6+commit.7338295f.Emscripten.clang"
  },
  "schemaVersion": "3.4.1",
  "updatedAt": "2021-06-30T09:07:07.956Z",
  "devdoc": {
    "kind": "dev",
    "methods": {
      "owner()": {
        "details": "Returns the address of the current owner."
      },
      "renounceOwnership()": {
        "details": "Leaves the contract without owner. It will not be possible to call `onlyOwner` functions anymore. Can only be called by the current owner. NOTE: Renouncing ownership will leave the contract without an owner, thereby removing any functionality that is only available to the owner."
      },
      "transferOwnership(address)": {
        "details": "Transfers ownership of the contract to a new account (`newOwner`). Can only be called by the current owner."
      }
    },
    "version": 1
  },
  "userdoc": {
    "kind": "user",
    "methods": {},
    "version": 1
  }
}