{
  "contractName": "Fluidity",
  "abi": [
    {
      "anonymous": false,
      "inputs": [
        {
          "indexed": true,
          "internalType": "address",
          "name": "subscriber",
          "type": "address"
        },
        {
          "indexed": false,
          "internalType": "uint256",
          "name": "value",
          "type": "uint256"
        },
        {
          "indexed": false,
          "internalType": "uint256",
          "name": "price",
          "type": "uint256"
        }
      ],
      "name": "FundLiquidity",
      "type": "event"
    },
    {
      "anonymous": false,
      "inputs": [
        {
          "indexed": true,
          "internalType": "address",
          "name": "subscriber",
          "type": "address"
        },
        {
          "indexed": false,
          "internalType": "uint256",
          "name": "value",
          "type": "uint256"
        }
      ],
      "name": "InitialFunding",
      "type": "event"
    },
    {
      "anonymous": false,
      "inputs": [
        {
          "indexed": true,
          "internalType": "address",
          "name": "previousOwner",
          "type": "address"
        },
        {
          "indexed": true,
          "internalType": "address",
          "name": "newOwner",
          "type": "address"
        }
      ],
      "name": "OwnershipTransferred",
      "type": "event"
    },
    {
      "anonymous": false,
      "inputs": [
        {
          "indexed": true,
          "internalType": "address",
          "name": "redempter",
          "type": "address"
        },
        {
          "indexed": false,
          "internalType": "uint256",
          "name": "value",
          "type": "uint256"
        },
        {
          "indexed": false,
          "internalType": "uint256",
          "name": "price",
          "type": "uint256"
        }
      ],
      "name": "WithdrawLiquidity",
      "type": "event"
    },
    {
      "inputs": [
        {
          "internalType": "bytes32[]",
          "name": "names",
          "type": "bytes32[]"
        },
        {
          "internalType": "address[]",
          "name": "destinations",
          "type": "address[]"
        }
      ],
      "name": "importAddresses",
      "outputs": [],
      "stateMutability": "nonpayable",
      "type": "function"
    },
    {
      "inputs": [],
      "name": "owner",
      "outputs": [
        {
          "internalType": "address",
          "name": "",
          "type": "address"
        }
      ],
      "stateMutability": "view",
      "type": "function"
    },
    {
      "inputs": [],
      "name": "renounceOwnership",
      "outputs": [],
      "stateMutability": "nonpayable",
      "type": "function"
    },
    {
      "inputs": [
        {
          "internalType": "bytes32",
          "name": "",
          "type": "bytes32"
        }
      ],
      "name": "repository",
      "outputs": [
        {
          "internalType": "address",
          "name": "",
          "type": "address"
        }
      ],
      "stateMutability": "view",
      "type": "function"
    },
    {
      "inputs": [
        {
          "internalType": "address",
          "name": "newOwner",
          "type": "address"
        }
      ],
      "name": "transferOwnership",
      "outputs": [],
      "stateMutability": "nonpayable",
      "type": "function"
    },
    {
      "inputs": [],
      "name": "depotAddress2",
      "outputs": [
        {
          "internalType": "address",
          "name": "",
          "type": "address"
        }
      ],
      "stateMutability": "view",
      "type": "function"
    },
    {
      "inputs": [],
      "name": "fundTokenPrice2",
      "outputs": [
        {
          "internalType": "uint256",
          "name": "",
          "type": "uint256"
        }
      ],
      "stateMutability": "view",
      "type": "function"
    },
    {
      "inputs": [
        {
          "internalType": "uint256",
          "name": "value",
          "type": "uint256"
        }
      ],
      "name": "initialFunding",
      "outputs": [],
      "stateMutability": "nonpayable",
      "type": "function"
    },
    {
      "inputs": [],
      "name": "closeInitialFunding",
      "outputs": [],
      "stateMutability": "nonpayable",
      "type": "function"
    },
    {
      "inputs": [
        {
          "internalType": "uint256",
          "name": "value",
          "type": "uint256"
        }
      ],
      "name": "fundLiquidity",
      "outputs": [],
      "stateMutability": "nonpayable",
      "type": "function"
    },
    {
      "inputs": [
        {
          "internalType": "uint256",
          "name": "value",
          "type": "uint256"
        }
      ],
      "name": "withdrawLiquidity",
      "outputs": [],
      "stateMutability": "nonpayable",
      "type": "function"
    },
    {
      "inputs": [],
      "name": "fundTokenPrice",
      "outputs": [
        {
          "internalType": "uint256",
          "name": "",
          "type": "uint256"
        }
      ],
      "stateMutability": "view",
      "type": "function"
    },
    {
      "inputs": [],
      "name": "availableToFund",
      "outputs": [
        {
          "internalType": "uint256",
          "name": "",
          "type": "uint256"
        }
      ],
      "stateMutability": "view",
      "type": "function"
    },
    {
      "inputs": [],
      "name": "availableToFund_test",
      "outputs": [
        {
          "internalType": "uint256",
          "name": "",
          "type": "uint256"
        }
      ],
      "stateMutability": "view",
      "type": "function"
    }
  ],
  "bytecode": "0x608060405234801561001057600080fd5b50600061001b61006a565b600080546001600160a01b0319166001600160a01b0383169081178255604051929350917f8be0079c531659141344cd1fd0a4f28419497f9722a3daafe3b4186f6b6457e0908290a35061006e565b3390565b611f468061007d6000396000f3fe608060405234801561001057600080fd5b50600436106100ea5760003560e01c8063a3d482e41161008c578063e6863b5411610066578063e6863b5414610253578063f0f437b61461025b578063f2fde38b14610278578063f3ade4581461029e576100ea565b8063a3d482e414610181578063ab0b8f7714610189578063c45087b51461024b576100ea565b806357800736116100c8578063578007361461014f578063715018a6146101695780637cebe10a146101715780638da5cb5b14610179576100ea565b80630a861f2a146100ef57806316c01afd1461010e578063187f793514610132575b600080fd5b61010c6004803603602081101561010557600080fd5b50356102bb565b005b6101166105f4565b604080516001600160a01b039092168252519081900360200190f35b6101166004803603602081101561014857600080fd5b503561063b565b610157610656565b60408051918252519081900360200190f35b61010c610660565b61015761070c565b610116610853565b610157610862565b61010c6004803603604081101561019f57600080fd5b8101906020810181356401000000008111156101ba57600080fd5b8201836020820111156101cc57600080fd5b803590602001918460208302840111640100000000831117156101ee57600080fd5b91939092909160208101903564010000000081111561020c57600080fd5b82018360208201111561021e57600080fd5b8035906020019184602083028401116401000000008311171561024057600080fd5b509092509050610c98565b61010c610dcb565b610157610fef565b61010c6004803603602081101561027157600080fd5b503561116c565b61010c6004803603602081101561028e57600080fd5b50356001600160a01b031661167c565b61010c600480360360208110156102b457600080fd5b503561177e565b60006102c5611b93565b9050806001600160a01b031663086dabd16040518163ffffffff1660e01b8152600401600060405180830381600087803b15801561030257600080fd5b505af1158015610316573d6000803e3d6000fd5b505050506000610324611be4565b9050806001600160a01b031663210f1e066040518163ffffffff1660e01b815260040160206040518083038186803b15801561035f57600080fd5b505afa158015610373573d6000803e3d6000fd5b505050506040513d602081101561038957600080fd5b50516103c65760405162461bcd60e51b8152600401808060200182810382526021815260200180611ef06021913960400191505060405180910390fd5b3360006103d161070c565b9050846103dc611bee565b6001600160a01b03166370a08231846040518263ffffffff1660e01b815260040180826001600160a01b0316815260200191505060206040518083038186803b15801561042857600080fd5b505afa15801561043c573d6000803e3d6000fd5b505050506040513d602081101561045257600080fd5b505110156104a7576040805162461bcd60e51b815260206004820152601860248201527f46756e6420546f6b656e204973204e6f7420456e6f7567680000000000000000604482015290519081900360640190fd5b6104af611bee565b6001600160a01b0316639dc29fac83876040518363ffffffff1660e01b815260040180836001600160a01b0316815260200182815260200192505050600060405180830381600087803b15801561050557600080fd5b505af1158015610519573d6000803e3d6000fd5b5050506001600160a01b03841690506306d47de983670de0b6b3a76400006105418986611c3b565b8161054857fe5b046040518363ffffffff1660e01b815260040180836001600160a01b0316815260200182815260200192505050600060405180830381600087803b15801561058f57600080fd5b505af11580156105a3573d6000803e3d6000fd5b5050604080518881526020810185905281516001600160a01b03871694507fac927268ea9ae2e55027e6ab727fc2db8e3ea48c56c658223a1074567e4298c093509081900390910190a25050505050565b60006106356411195c1bdd60da1b604051806040016040528060158152602001744d697373696e67204465706f74204164647265737360581b815250611c9d565b90505b90565b6001602052600090815260409020546001600160a01b031681565b600061063561070c565b610668611d47565b6001600160a01b0316610679610853565b6001600160a01b0316146106c2576040805162461bcd60e51b81526020600482018190526024820152600080516020611ea9833981519152604482015290519081900360640190fd5b600080546040516001600160a01b03909116907f8be0079c531659141344cd1fd0a4f28419497f9722a3daafe3b4186f6b6457e0908390a3600080546001600160a01b0319169055565b600080610717611bee565b6001600160a01b03166318160ddd6040518163ffffffff1660e01b815260040160206040518083038186803b15801561074f57600080fd5b505afa158015610763573d6000803e3d6000fd5b505050506040513d602081101561077957600080fd5b50519050806107c6576040805162461bcd60e51b8152602060048201526014602482015273139bc8119d5b9908151bdad95b88135a5b9d195960621b604482015290519081900360640190fd5b80610845670de0b6b3a76400006107db611be4565b6001600160a01b031663665a11ca6040518163ffffffff1660e01b815260040160206040518083038186803b15801561081357600080fd5b505afa158015610827573d6000803e3d6000fd5b505050506040513d602081101561083d57600080fd5b505190611c3b565b8161084c57fe5b0491505090565b6000546001600160a01b031690565b60008061086d611b93565b90506000610879611be4565b9050806001600160a01b031663210f1e066040518163ffffffff1660e01b815260040160206040518083038186803b1580156108b457600080fd5b505afa1580156108c8573d6000803e3d6000fd5b505050506040513d60208110156108de57600080fd5b50516109c057806001600160a01b031663665a11ca6040518163ffffffff1660e01b815260040160206040518083038186803b15801561091d57600080fd5b505afa158015610931573d6000803e3d6000fd5b505050506040513d602081101561094757600080fd5b5051604080516330832d3760e11b815290516001600160a01b038516916361065a6e916004808301926020929190829003018186803b15801561098957600080fd5b505afa15801561099d573d6000803e3d6000fd5b505050506040513d60208110156109b357600080fd5b5051039250610638915050565b670de0b6b3a7640000610a71826001600160a01b031663d4c3eea06040518163ffffffff1660e01b815260040160206040518083038186803b158015610a0557600080fd5b505afa158015610a19573d6000803e3d6000fd5b505050506040513d6020811015610a2f57600080fd5b5051604080516340c889bb60e01b815290516001600160a01b038716916340c889bb916004808301926020929190829003018186803b15801561081357600080fd5b81610a7857fe5b04816001600160a01b031663665a11ca6040518163ffffffff1660e01b815260040160206040518083038186803b158015610ab257600080fd5b505afa158015610ac6573d6000803e3d6000fd5b505050506040513d6020811015610adc57600080fd5b505110610b6957670de0b6b3a7640000610b28826001600160a01b031663d4c3eea06040518163ffffffff1660e01b815260040160206040518083038186803b158015610a0557600080fd5b81610b2f57fe5b04816001600160a01b031663665a11ca6040518163ffffffff1660e01b815260040160206040518083038186803b15801561098957600080fd5b806001600160a01b031663665a11ca6040518163ffffffff1660e01b815260040160206040518083038186803b158015610ba257600080fd5b505afa158015610bb6573d6000803e3d6000fd5b505050506040513d6020811015610bcc57600080fd5b5051604080516306a61f7560e51b81529051670de0b6b3a764000091610c88916001600160a01b0386169163d4c3eea0916004808301926020929190829003018186803b158015610c1c57600080fd5b505afa158015610c30573d6000803e3d6000fd5b505050506040513d6020811015610c4657600080fd5b5051604080516340c889bb60e01b815290516001600160a01b038816916340c889bb916004808301926020929190829003018186803b15801561081357600080fd5b81610c8f57fe5b04039250505090565b610ca0611d47565b6001600160a01b0316610cb1610853565b6001600160a01b031614610cfa576040805162461bcd60e51b81526020600482018190526024820152600080516020611ea9833981519152604482015290519081900360640190fd5b828114610d4e576040805162461bcd60e51b815260206004820152601860248201527f496e707574206c656e67746873206d757374206d617463680000000000000000604482015290519081900360640190fd5b60005b83811015610dc457828282818110610d6557fe5b905060200201356001600160a01b031660016000878785818110610d8557fe5b6020908102929092013583525081019190915260400160002080546001600160a01b0319166001600160a01b0392909216919091179055600101610d51565b5050505050565b610dd3611d47565b6001600160a01b0316610de4610853565b6001600160a01b031614610e2d576040805162461bcd60e51b81526020600482018190526024820152600080516020611ea9833981519152604482015290519081900360640190fd5b6000610e37611b93565b9050806001600160a01b031663086dabd16040518163ffffffff1660e01b8152600401600060405180830381600087803b158015610e7457600080fd5b505af1158015610e88573d6000803e3d6000fd5b50505050806001600160a01b03166361065a6e6040518163ffffffff1660e01b815260040160206040518083038186803b158015610ec557600080fd5b505afa158015610ed9573d6000803e3d6000fd5b505050506040513d6020811015610eef57600080fd5b5051610ef9611bee565b6001600160a01b03166318160ddd6040518163ffffffff1660e01b815260040160206040518083038186803b158015610f3157600080fd5b505afa158015610f45573d6000803e3d6000fd5b505050506040513d6020811015610f5b57600080fd5b505114610f995760405162461bcd60e51b8152600401808060200182810382526026815260200180611df66026913960400191505060405180910390fd5b610fa1611be4565b6001600160a01b031663b70759016040518163ffffffff1660e01b8152600401600060405180830381600087803b158015610fdb57600080fd5b505af1158015610dc4573d6000803e3d6000fd5b600080610ffa611b93565b90506000611006611be4565b9050806001600160a01b031663210f1e066040518163ffffffff1660e01b815260040160206040518083038186803b15801561104157600080fd5b505afa158015611055573d6000803e3d6000fd5b505050506040513d602081101561106b57600080fd5b50516110aa57806001600160a01b031663665a11ca6040518163ffffffff1660e01b815260040160206040518083038186803b15801561091d57600080fd5b670de0b6b3a76400006110ef826001600160a01b031663d4c3eea06040518163ffffffff1660e01b815260040160206040518083038186803b158015610a0557600080fd5b816110f657fe5b04816001600160a01b031663665a11ca6040518163ffffffff1660e01b815260040160206040518083038186803b15801561113057600080fd5b505afa158015611144573d6000803e3d6000fd5b505050506040513d602081101561115a57600080fd5b505110610b6957600092505050610638565b6000611176611b93565b9050806001600160a01b031663086dabd16040518163ffffffff1660e01b8152600401600060405180830381600087803b1580156111b357600080fd5b505af11580156111c7573d6000803e3d6000fd5b5050505060006111d5611be4565b9050806001600160a01b031663210f1e066040518163ffffffff1660e01b815260040160206040518083038186803b15801561121057600080fd5b505afa158015611224573d6000803e3d6000fd5b505050506040513d602081101561123a57600080fd5b50516112775760405162461bcd60e51b8152600401808060200182810382526021815260200180611ef06021913960400191505060405180910390fd5b33600061128261070c565b9050600081116112d9576040805162461bcd60e51b815260206004820152601d60248201527f6c702070726963652073686f756c6420626967676572207468616e2030000000604482015290519081900360640190fd5b6000670de0b6b3a76400006112ee8784611c3b565b816112f557fe5b04905080611301611d4b565b6001600160a01b031663dd62ed3e856113186105f4565b6040518363ffffffff1660e01b815260040180836001600160a01b03168152602001826001600160a01b031681526020019250505060206040518083038186803b15801561136557600080fd5b505afa158015611379573d6000803e3d6000fd5b505050506040513d602081101561138f57600080fd5b505110156113ce5760405162461bcd60e51b8152600401808060200182810382526027815260200180611ec96027913960400191505060405180910390fd5b670de0b6b3a764000061147f856001600160a01b031663d4c3eea06040518163ffffffff1660e01b815260040160206040518083038186803b15801561141357600080fd5b505afa158015611427573d6000803e3d6000fd5b505050506040513d602081101561143d57600080fd5b5051604080516340c889bb60e01b815290516001600160a01b038a16916340c889bb916004808301926020929190829003018186803b15801561081357600080fd5b8161148657fe5b046114f682866001600160a01b031663665a11ca6040518163ffffffff1660e01b815260040160206040518083038186803b1580156114c457600080fd5b505afa1580156114d8573d6000803e3d6000fd5b505050506040513d60208110156114ee57600080fd5b505190611d9b565b1115611549576040805162461bcd60e51b815260206004820152601a60248201527f4f766572204d6178204c69717569646974792046756e64696e67000000000000604482015290519081900360640190fd5b836001600160a01b0316635668870084836040518363ffffffff1660e01b815260040180836001600160a01b0316815260200182815260200192505050600060405180830381600087803b1580156115a057600080fd5b505af11580156115b4573d6000803e3d6000fd5b505050506115c0611bee565b6001600160a01b03166340c10f1984886040518363ffffffff1660e01b815260040180836001600160a01b0316815260200182815260200192505050600060405180830381600087803b15801561161657600080fd5b505af115801561162a573d6000803e3d6000fd5b5050604080518981526020810186905281516001600160a01b03881694507fab3577c00596fa3638b63885bc5558bbc7e92bc5a1b25286301eee28d9f810fb93509081900390910190a2505050505050565b611684611d47565b6001600160a01b0316611695610853565b6001600160a01b0316146116de576040805162461bcd60e51b81526020600482018190526024820152600080516020611ea9833981519152604482015290519081900360640190fd5b6001600160a01b0381166117235760405162461bcd60e51b8152600401808060200182810382526026815260200180611e1c6026913960400191505060405180910390fd5b600080546040516001600160a01b03808516939216917f8be0079c531659141344cd1fd0a4f28419497f9722a3daafe3b4186f6b6457e091a3600080546001600160a01b0319166001600160a01b0392909216919091179055565b6000611788611b93565b9050806001600160a01b031663086dabd16040518163ffffffff1660e01b8152600401600060405180830381600087803b1580156117c557600080fd5b505af11580156117d9573d6000803e3d6000fd5b5050505060006117e7611be4565b905060006117f3611d4b565b90503360006118006105f4565b9050836001600160a01b031663210f1e066040518163ffffffff1660e01b815260040160206040518083038186803b15801561183b57600080fd5b505afa15801561184f573d6000803e3d6000fd5b505050506040513d602081101561186557600080fd5b5051156118b9576040805162461bcd60e51b815260206004820152601d60248201527f496e697469616c2046756e64696e672048617320436f6d706c65746564000000604482015290519081900360640190fd5b85836001600160a01b031663dd62ed3e84846040518363ffffffff1660e01b815260040180836001600160a01b03168152602001826001600160a01b031681526020019250505060206040518083038186803b15801561191857600080fd5b505afa15801561192c573d6000803e3d6000fd5b505050506040513d602081101561194257600080fd5b505110156119815760405162461bcd60e51b8152600401808060200182810382526024815260200180611e426024913960400191505060405180910390fd5b846001600160a01b03166361065a6e6040518163ffffffff1660e01b815260040160206040518083038186803b1580156119ba57600080fd5b505afa1580156119ce573d6000803e3d6000fd5b505050506040513d60208110156119e457600080fd5b5051611a2a876119f2611bee565b6001600160a01b03166318160ddd6040518163ffffffff1660e01b815260040160206040518083038186803b1580156114c457600080fd5b1115611a675760405162461bcd60e51b8152600401808060200182810382526022815260200180611e876022913960400191505060405180910390fd5b836001600160a01b0316635668870083886040518363ffffffff1660e01b815260040180836001600160a01b0316815260200182815260200192505050600060405180830381600087803b158015611abe57600080fd5b505af1158015611ad2573d6000803e3d6000fd5b50505050611ade611bee565b6001600160a01b03166340c10f1983886040518363ffffffff1660e01b815260040180836001600160a01b0316815260200182815260200192505050600060405180830381600087803b158015611b3457600080fd5b505af1158015611b48573d6000803e3d6000fd5b50506040805189815290516001600160a01b03861693507f07f28791b3e561ae19d53f7a82e19d11855a7b344bf6a2c5eaf259e2201dd40692509081900360200190a2505050505050565b60006106356c53797374656d53657474696e6760981b6040518060400160405280601d81526020017f4d697373696e672053797374656d53657474696e672041646472657373000000815250611c9d565b60006106356105f4565b600061063568233ab7322a37b5b2b760b91b6040518060400160405280601981526020017f4d697373696e672046756e64546f6b656e204164647265737300000000000000815250611c9d565b600082611c4a57506000611c97565b82820282848281611c5757fe5b0414611c945760405162461bcd60e51b8152600401808060200182810382526021815260200180611e666021913960400191505060405180910390fd5b90505b92915050565b6000828152600160205260408120546001600160a01b03168281611d3f5760405162461bcd60e51b81526004018080602001828103825283818151815260200191508051906020019080838360005b83811015611d04578181015183820152602001611cec565b50505050905090810190601f168015611d315780820380516001836020036101000a031916815260200191505b509250505060405180910390fd5b509392505050565b3390565b60006106356b4261736543757272656e637960a01b6040518060400160405280601c81526020017f4d697373696e67204261736543757272656e6379204164647265737300000000815250611c9d565b600082820183811015611c94576040805162461bcd60e51b815260206004820152601b60248201527f536166654d6174683a206164646974696f6e206f766572666c6f770000000000604482015290519081900360640190fdfe4e6f74204d656574204d617820496e697469616c204c69717569646974792046756e64696e674f776e61626c653a206e6577206f776e657220697320746865207a65726f20616464726573735553445420417070726f76656420546f204465706f74204973204e6f7420456e6f756768536166654d6174683a206d756c7469706c69636174696f6e206f766572666c6f774f766572204d617820496e697469616c204c69717569646974792046756e64696e674f776e61626c653a2063616c6c6572206973206e6f7420746865206f776e65725553445420417070726f76656420546f2045786368616e6765204973204e6f7420456e6f756768496e697469616c2046756e64696e6720486173204e6f7420436f6d706c65746564a2646970667358221220c8df45101ac43ece50e303343fe3ecd4843187c8c7b86ca5fc6a1d03d531c05b64736f6c63430007060033",
  "immutableReferences": {},
  "source": "// SPDX-License-Identifier: GPL-3.0\npragma solidity 0.7.6;\n\nimport \"@openzeppelin/contracts/math/SafeMath.sol\";\nimport \"@openzeppelin/contracts/token/ERC20/IERC20.sol\";\nimport \"@openzeppelin/contracts/token/ERC20/SafeERC20.sol\";\n\nimport \"./interfaces/IFluidity.sol\";\nimport \"./interfaces/IFundToken.sol\";\nimport \"./interfaces/ISystemSetting.sol\";\nimport \"./interfaces/IDepot.sol\";\nimport \"./interfaces/IExchange.sol\";\n\nimport \"./utils/AddressResolver.sol\";\n\ncontract Fluidity is AddressResolver, IFluidity {\n    using SafeMath for uint;\n    using SafeERC20 for IERC20;\n\n    bytes32 private constant CONTRACT_FUNDTOKEN = \"FundToken\";\n    bytes32 private constant CONTRACT_DEPOT = \"Depot\";\n    bytes32 private constant CONTRACT_SYSTEMSETTING = \"SystemSetting\";\n    bytes32 private constant CONTRACT_BASECURRENCY = \"BaseCurrency\";\n\n    function fundToken() internal view returns (address) {\n        return requireAndGetAddress(CONTRACT_FUNDTOKEN, \"Missing FundToken Address\");\n    }\n\n    function systemSetting() internal view returns (ISystemSetting) {\n        return ISystemSetting(requireAndGetAddress(CONTRACT_SYSTEMSETTING, \"Missing SystemSetting Address\"));\n    }\n\n    function depotAddress() internal view returns (address) {\n        return requireAndGetAddress(CONTRACT_DEPOT, \"Missing Depot Address\");\n    }\n    function depotAddress2() external view returns (address) {\n        return requireAndGetAddress(CONTRACT_DEPOT, \"Missing Depot Address\");\n    }\n\n    function getDepot() internal view returns (IDepot) {\n        return IDepot(depotAddress());\n    }\n\n    function baseCurrency() internal view returns (IERC20) {\n        return IERC20(requireAndGetAddress(CONTRACT_BASECURRENCY, \"Missing BaseCurrency Address\"));\n    }\n    \n    function _fundTokenPrice() internal view returns (uint) {\n        uint totalSupply = IERC20(fundToken()).totalSupply();\n        require(totalSupply > 0, \"No Fund Token Minted\");\n        return getDepot().liquidityPool().mul(1e18) / totalSupply;\n    }\n\n    function fundTokenPrice2() external view returns (uint) {\n        uint totalSupply = IERC20(fundToken()).totalSupply();\n        require(totalSupply > 0, \"No Fund Token Minted\");\n        return getDepot().liquidityPool().mul(1e18) / totalSupply;\n    }\n\n    function initialFunding(uint value) external override {\n        ISystemSetting setting = systemSetting();\n        setting.requireSystemActive();\n\n        IDepot depot = getDepot();\n        IERC20 bCurrency = baseCurrency();\n\n        address msgSender = msg.sender;\n        address depotAddr = depotAddress();\n\n        require(!depot.initialFundingCompleted(), 'Initial Funding Has Completed');\n        require(bCurrency.allowance(msgSender, depotAddr) >= value, \"USDT Approved To Depot Is Not Enough\");\n        require(\n            IERC20(fundToken()).totalSupply().add(value) <= setting.maxInitialLiquidityFunding(),\n            \"Over Max Initial Liquidity Funding\");\n\n        depot.addLiquidity(msgSender, value);\n        IFundToken(fundToken()).mint(msgSender, value);\n\n        emit InitialFunding(msgSender, value);\n    }\n\n    function closeInitialFunding() external override onlyOwner {\n        ISystemSetting setting = systemSetting();\n        setting.requireSystemActive();\n        require(IERC20(fundToken()).totalSupply() == setting.maxInitialLiquidityFunding(),\n            \"Not Meet Max Initial Liquidity Funding\");\n        getDepot().completeInitialFunding();\n    }\n\n    function fundLiquidity(uint value) external override {\n        ISystemSetting setting = systemSetting();\n        setting.requireSystemActive();\n        IDepot depot = getDepot();\n        require(depot.initialFundingCompleted(), 'Initial Funding Has Not Completed');\n\n        address msgSender = msg.sender;\n        uint price = _fundTokenPrice();\n        require(price > 0, \"lp price should bigger than 0\");\n\n        uint baseCurrencyValue = value.mul(price) / 1e18;\n        require(baseCurrency().allowance(msgSender, depotAddress()) >= baseCurrencyValue,\n            \"USDT Approved To Exchange Is Not Enough\");\n        \n       \n        require(depot.liquidityPool().add(baseCurrencyValue) <= setting.constantMarginRatio().mul(depot.totalValue()) / 1e18,\n            \"Over Max Liquidity Funding\");\n        // require(false,\" false   \");\n        depot.addLiquidity(msgSender, baseCurrencyValue);\n         \n        IFundToken(fundToken()).mint(msgSender, value);\n        emit FundLiquidity(msgSender, value, price);\n    }\n\n    function withdrawLiquidity(uint value) external override {\n        ISystemSetting setting = systemSetting();\n        setting.requireSystemActive();\n        IDepot depot = getDepot();\n        require(depot.initialFundingCompleted(), 'Initial Funding Has Not Completed');\n\n        address msgSender = msg.sender;\n        uint price = _fundTokenPrice();\n\n        require(IERC20(fundToken()).balanceOf(msgSender) >= value, \"Fund Token Is Not Enough\");\n        IFundToken(fundToken()).burn(msgSender, value);\n\n        depot.withdrawLiquidity(msgSender, value.mul(price) / 1e18);\n\n        emit WithdrawLiquidity(msgSender, value, price);\n    }\n\n    function fundTokenPrice() external override view returns (uint) {\n        return _fundTokenPrice();\n    }\n\n    function availableToFund() external override view returns (uint) {\n        ISystemSetting setting = systemSetting();\n        IDepot depot = getDepot();\n\n        if (!depot.initialFundingCompleted()) {\n            return setting.maxInitialLiquidityFunding() - depot.liquidityPool();\n        }\n\n        if (depot.liquidityPool() >= setting.constantMarginRatio().mul(depot.totalValue()) / 1e18) {\n            return 0;\n        }\n\n        return setting.constantMarginRatio().mul(depot.totalValue()) / 1e18 - depot.liquidityPool();\n    }\n    function availableToFund_test() external  view returns (uint) {\n        ISystemSetting setting = systemSetting();\n        IDepot depot = getDepot();\n\n        if (!depot.initialFundingCompleted()) {\n            return setting.maxInitialLiquidityFunding() - depot.liquidityPool();\n        }\n        if (depot.liquidityPool() >= setting.constantMarginRatio().mul(depot.totalValue()) / 1e18) {\n            return depot.liquidityPool()-(setting.constantMarginRatio().mul(depot.totalValue()) / 1e18);\n        }\n\n        return setting.constantMarginRatio().mul(depot.totalValue()) / 1e18 - depot.liquidityPool();\n    }\n\n    event InitialFunding(address indexed subscriber, uint value);\n    event FundLiquidity(address indexed subscriber, uint value, uint price);\n    event WithdrawLiquidity(address indexed redempter, uint value, uint price);\n}\n\n",
  "sourcePath": "/mnt/zp/QiLin-v1/test/QiLin-v1-master/contracts/Fluidity.sol",
  "compiler": {
    "name": "solc",
    "version": "0.7.6+commit.7338295f.Emscripten.clang"
  },
  "schemaVersion": "3.4.1",
  "updatedAt": "2021-07-02T09:11:14.860Z",
  "devdoc": {
    "kind": "dev",
    "methods": {
      "owner()": {
        "details": "Returns the address of the current owner."
      },
      "renounceOwnership()": {
        "details": "Leaves the contract without owner. It will not be possible to call `onlyOwner` functions anymore. Can only be called by the current owner. NOTE: Renouncing ownership will leave the contract without an owner, thereby removing any functionality that is only available to the owner."
      },
      "transferOwnership(address)": {
        "details": "Transfers ownership of the contract to a new account (`newOwner`). Can only be called by the current owner."
      }
    },
    "version": 1
  },
  "userdoc": {
    "kind": "user",
    "methods": {},
    "version": 1
  }
}