{
  "contractName": "IntTest",
  "abi": [
    {
      "inputs": [
        {
          "internalType": "address[]",
          "name": "powers",
          "type": "address[]"
        }
      ],
      "stateMutability": "nonpayable",
      "type": "constructor"
    },
    {
      "anonymous": false,
      "inputs": [
        {
          "indexed": true,
          "internalType": "address",
          "name": "previousOwner",
          "type": "address"
        },
        {
          "indexed": true,
          "internalType": "address",
          "name": "newOwner",
          "type": "address"
        }
      ],
      "name": "OwnershipTransferred",
      "type": "event"
    },
    {
      "inputs": [],
      "name": "_positionIndex",
      "outputs": [
        {
          "internalType": "uint32",
          "name": "",
          "type": "uint32"
        }
      ],
      "stateMutability": "view",
      "type": "function"
    },
    {
      "inputs": [
        {
          "internalType": "uint32",
          "name": "",
          "type": "uint32"
        }
      ],
      "name": "_positions",
      "outputs": [
        {
          "internalType": "uint256",
          "name": "share",
          "type": "uint256"
        },
        {
          "internalType": "uint256",
          "name": "openPositionPrice",
          "type": "uint256"
        },
        {
          "internalType": "uint256",
          "name": "leveragedPosition",
          "type": "uint256"
        },
        {
          "internalType": "uint256",
          "name": "margin",
          "type": "uint256"
        },
        {
          "internalType": "uint256",
          "name": "openRebaseLeft",
          "type": "uint256"
        },
        {
          "internalType": "address",
          "name": "account",
          "type": "address"
        },
        {
          "internalType": "uint32",
          "name": "currencyKeyIdx",
          "type": "uint32"
        },
        {
          "internalType": "uint8",
          "name": "direction",
          "type": "uint8"
        }
      ],
      "stateMutability": "view",
      "type": "function"
    },
    {
      "inputs": [
        {
          "internalType": "address",
          "name": "",
          "type": "address"
        }
      ],
      "name": "_powers",
      "outputs": [
        {
          "internalType": "uint8",
          "name": "",
          "type": "uint8"
        }
      ],
      "stateMutability": "view",
      "type": "function"
    },
    {
      "inputs": [],
      "name": "_rebaseLeftLong",
      "outputs": [
        {
          "internalType": "uint256",
          "name": "",
          "type": "uint256"
        }
      ],
      "stateMutability": "view",
      "type": "function"
    },
    {
      "inputs": [],
      "name": "_rebaseLeftShort",
      "outputs": [
        {
          "internalType": "uint256",
          "name": "",
          "type": "uint256"
        }
      ],
      "stateMutability": "view",
      "type": "function"
    },
    {
      "inputs": [],
      "name": "_totalLeveragedPositionsLong",
      "outputs": [
        {
          "internalType": "uint256",
          "name": "",
          "type": "uint256"
        }
      ],
      "stateMutability": "view",
      "type": "function"
    },
    {
      "inputs": [],
      "name": "_totalLeveragedPositionsShort",
      "outputs": [
        {
          "internalType": "uint256",
          "name": "",
          "type": "uint256"
        }
      ],
      "stateMutability": "view",
      "type": "function"
    },
    {
      "inputs": [],
      "name": "_totalMarginLong",
      "outputs": [
        {
          "internalType": "uint256",
          "name": "",
          "type": "uint256"
        }
      ],
      "stateMutability": "view",
      "type": "function"
    },
    {
      "inputs": [],
      "name": "_totalMarginShort",
      "outputs": [
        {
          "internalType": "uint256",
          "name": "",
          "type": "uint256"
        }
      ],
      "stateMutability": "view",
      "type": "function"
    },
    {
      "inputs": [],
      "name": "_totalShareLong",
      "outputs": [
        {
          "internalType": "uint256",
          "name": "",
          "type": "uint256"
        }
      ],
      "stateMutability": "view",
      "type": "function"
    },
    {
      "inputs": [],
      "name": "_totalShareShort",
      "outputs": [
        {
          "internalType": "uint256",
          "name": "",
          "type": "uint256"
        }
      ],
      "stateMutability": "view",
      "type": "function"
    },
    {
      "inputs": [],
      "name": "_totalSizeLong",
      "outputs": [
        {
          "internalType": "uint256",
          "name": "",
          "type": "uint256"
        }
      ],
      "stateMutability": "view",
      "type": "function"
    },
    {
      "inputs": [],
      "name": "_totalSizeShort",
      "outputs": [
        {
          "internalType": "uint256",
          "name": "",
          "type": "uint256"
        }
      ],
      "stateMutability": "view",
      "type": "function"
    },
    {
      "inputs": [
        {
          "internalType": "address",
          "name": "account",
          "type": "address"
        },
        {
          "internalType": "uint32",
          "name": "positionId",
          "type": "uint32"
        },
        {
          "internalType": "uint256",
          "name": "margin",
          "type": "uint256"
        }
      ],
      "name": "addDeposit",
      "outputs": [],
      "stateMutability": "nonpayable",
      "type": "function"
    },
    {
      "inputs": [
        {
          "internalType": "address",
          "name": "account",
          "type": "address"
        },
        {
          "internalType": "uint256",
          "name": "value",
          "type": "uint256"
        }
      ],
      "name": "addLiquidity",
      "outputs": [],
      "stateMutability": "nonpayable",
      "type": "function"
    },
    {
      "inputs": [
        {
          "components": [
            {
              "internalType": "uint256",
              "name": "share",
              "type": "uint256"
            },
            {
              "internalType": "uint256",
              "name": "openPositionPrice",
              "type": "uint256"
            },
            {
              "internalType": "uint256",
              "name": "leveragedPosition",
              "type": "uint256"
            },
            {
              "internalType": "uint256",
              "name": "margin",
              "type": "uint256"
            },
            {
              "internalType": "uint256",
              "name": "openRebaseLeft",
              "type": "uint256"
            },
            {
              "internalType": "address",
              "name": "account",
              "type": "address"
            },
            {
              "internalType": "uint32",
              "name": "currencyKeyIdx",
              "type": "uint32"
            },
            {
              "internalType": "uint8",
              "name": "direction",
              "type": "uint8"
            }
          ],
          "internalType": "struct Position",
          "name": "position",
          "type": "tuple"
        },
        {
          "internalType": "uint32",
          "name": "positionId",
          "type": "uint32"
        },
        {
          "internalType": "uint256",
          "name": "liquidateFee",
          "type": "uint256"
        },
        {
          "internalType": "uint256",
          "name": "marginLoss",
          "type": "uint256"
        }
      ],
      "name": "bankruptedLiquidate",
      "outputs": [],
      "stateMutability": "nonpayable",
      "type": "function"
    },
    {
      "inputs": [
        {
          "internalType": "uint256",
          "name": "leveragedPosition",
          "type": "uint256"
        },
        {
          "internalType": "uint256",
          "name": "share",
          "type": "uint256"
        },
        {
          "internalType": "uint8",
          "name": "direction",
          "type": "uint8"
        }
      ],
      "name": "calMarginLoss",
      "outputs": [
        {
          "internalType": "uint256",
          "name": "",
          "type": "uint256"
        }
      ],
      "stateMutability": "view",
      "type": "function"
    },
    {
      "inputs": [
        {
          "internalType": "uint32",
          "name": "currencyKeyIdx",
          "type": "uint32"
        },
        {
          "internalType": "uint256",
          "name": "leveragedPosition",
          "type": "uint256"
        },
        {
          "internalType": "uint256",
          "name": "openPositionPrice",
          "type": "uint256"
        },
        {
          "internalType": "uint8",
          "name": "direction",
          "type": "uint8"
        }
      ],
      "name": "calNetProfit",
      "outputs": [
        {
          "internalType": "bool",
          "name": "",
          "type": "bool"
        },
        {
          "internalType": "uint256",
          "name": "",
          "type": "uint256"
        }
      ],
      "stateMutability": "view",
      "type": "function"
    },
    {
      "inputs": [
        {
          "components": [
            {
              "internalType": "uint256",
              "name": "share",
              "type": "uint256"
            },
            {
              "internalType": "uint256",
              "name": "openPositionPrice",
              "type": "uint256"
            },
            {
              "internalType": "uint256",
              "name": "leveragedPosition",
              "type": "uint256"
            },
            {
              "internalType": "uint256",
              "name": "margin",
              "type": "uint256"
            },
            {
              "internalType": "uint256",
              "name": "openRebaseLeft",
              "type": "uint256"
            },
            {
              "internalType": "address",
              "name": "account",
              "type": "address"
            },
            {
              "internalType": "uint32",
              "name": "currencyKeyIdx",
              "type": "uint32"
            },
            {
              "internalType": "uint8",
              "name": "direction",
              "type": "uint8"
            }
          ],
          "internalType": "struct Position",
          "name": "position",
          "type": "tuple"
        },
        {
          "internalType": "uint32",
          "name": "positionId",
          "type": "uint32"
        },
        {
          "internalType": "bool",
          "name": "isProfit",
          "type": "bool"
        },
        {
          "internalType": "uint256",
          "name": "value",
          "type": "uint256"
        },
        {
          "internalType": "uint256",
          "name": "marginLoss",
          "type": "uint256"
        },
        {
          "internalType": "uint256",
          "name": "fee",
          "type": "uint256"
        }
      ],
      "name": "closePosition",
      "outputs": [],
      "stateMutability": "nonpayable",
      "type": "function"
    },
    {
      "inputs": [],
      "name": "completeInitialFunding",
      "outputs": [],
      "stateMutability": "nonpayable",
      "type": "function"
    },
    {
      "inputs": [],
      "name": "getTotalPositionState",
      "outputs": [
        {
          "internalType": "uint256",
          "name": "",
          "type": "uint256"
        },
        {
          "internalType": "uint256",
          "name": "",
          "type": "uint256"
        },
        {
          "internalType": "uint256",
          "name": "",
          "type": "uint256"
        },
        {
          "internalType": "uint256",
          "name": "",
          "type": "uint256"
        }
      ],
      "stateMutability": "view",
      "type": "function"
    },
    {
      "inputs": [
        {
          "internalType": "bytes32[]",
          "name": "names",
          "type": "bytes32[]"
        },
        {
          "internalType": "address[]",
          "name": "destinations",
          "type": "address[]"
        }
      ],
      "name": "importAddresses",
      "outputs": [],
      "stateMutability": "nonpayable",
      "type": "function"
    },
    {
      "inputs": [],
      "name": "initialFundingCompleted",
      "outputs": [
        {
          "internalType": "bool",
          "name": "",
          "type": "bool"
        }
      ],
      "stateMutability": "view",
      "type": "function"
    },
    {
      "inputs": [
        {
          "components": [
            {
              "internalType": "uint256",
              "name": "share",
              "type": "uint256"
            },
            {
              "internalType": "uint256",
              "name": "openPositionPrice",
              "type": "uint256"
            },
            {
              "internalType": "uint256",
              "name": "leveragedPosition",
              "type": "uint256"
            },
            {
              "internalType": "uint256",
              "name": "margin",
              "type": "uint256"
            },
            {
              "internalType": "uint256",
              "name": "openRebaseLeft",
              "type": "uint256"
            },
            {
              "internalType": "address",
              "name": "account",
              "type": "address"
            },
            {
              "internalType": "uint32",
              "name": "currencyKeyIdx",
              "type": "uint32"
            },
            {
              "internalType": "uint8",
              "name": "direction",
              "type": "uint8"
            }
          ],
          "internalType": "struct Position",
          "name": "position",
          "type": "tuple"
        },
        {
          "internalType": "uint32",
          "name": "positionId",
          "type": "uint32"
        },
        {
          "internalType": "bool",
          "name": "isProfit",
          "type": "bool"
        },
        {
          "internalType": "uint256",
          "name": "fee",
          "type": "uint256"
        },
        {
          "internalType": "uint256",
          "name": "value",
          "type": "uint256"
        },
        {
          "internalType": "uint256",
          "name": "marginLoss",
          "type": "uint256"
        },
        {
          "internalType": "uint256",
          "name": "liqReward",
          "type": "uint256"
        }
      ],
      "name": "liquidate",
      "outputs": [],
      "stateMutability": "nonpayable",
      "type": "function"
    },
    {
      "inputs": [],
      "name": "liquidityPool",
      "outputs": [
        {
          "internalType": "uint256",
          "name": "",
          "type": "uint256"
        }
      ],
      "stateMutability": "view",
      "type": "function"
    },
    {
      "inputs": [
        {
          "internalType": "uint8",
          "name": "direction",
          "type": "uint8"
        }
      ],
      "name": "netValue",
      "outputs": [
        {
          "internalType": "uint256",
          "name": "",
          "type": "uint256"
        }
      ],
      "stateMutability": "view",
      "type": "function"
    },
    {
      "inputs": [
        {
          "internalType": "address",
          "name": "account",
          "type": "address"
        },
        {
          "internalType": "uint256",
          "name": "openPositionPrice",
          "type": "uint256"
        },
        {
          "internalType": "uint256",
          "name": "margin",
          "type": "uint256"
        },
        {
          "internalType": "uint32",
          "name": "currencyKeyIdx",
          "type": "uint32"
        },
        {
          "internalType": "uint16",
          "name": "level",
          "type": "uint16"
        },
        {
          "internalType": "uint8",
          "name": "direction",
          "type": "uint8"
        }
      ],
      "name": "newPosition",
      "outputs": [
        {
          "internalType": "uint32",
          "name": "",
          "type": "uint32"
        }
      ],
      "stateMutability": "nonpayable",
      "type": "function"
    },
    {
      "inputs": [],
      "name": "owner",
      "outputs": [
        {
          "internalType": "address",
          "name": "",
          "type": "address"
        }
      ],
      "stateMutability": "view",
      "type": "function"
    },
    {
      "inputs": [
        {
          "internalType": "uint32",
          "name": "positionId",
          "type": "uint32"
        }
      ],
      "name": "position",
      "outputs": [
        {
          "internalType": "address",
          "name": "account",
          "type": "address"
        },
        {
          "internalType": "uint256",
          "name": "share",
          "type": "uint256"
        },
        {
          "internalType": "uint256",
          "name": "leveragedPosition",
          "type": "uint256"
        },
        {
          "internalType": "uint256",
          "name": "openPositionPrice",
          "type": "uint256"
        },
        {
          "internalType": "uint32",
          "name": "currencyKeyIdx",
          "type": "uint32"
        },
        {
          "internalType": "uint8",
          "name": "direction",
          "type": "uint8"
        },
        {
          "internalType": "uint256",
          "name": "margin",
          "type": "uint256"
        },
        {
          "internalType": "uint256",
          "name": "openRebaseLeft",
          "type": "uint256"
        }
      ],
      "stateMutability": "view",
      "type": "function"
    },
    {
      "inputs": [
        {
          "internalType": "bytes32",
          "name": "currencyKey",
          "type": "bytes32"
        },
        {
          "internalType": "uint32",
          "name": "positionId",
          "type": "uint32"
        }
      ],
      "name": "positionState",
      "outputs": [
        {
          "internalType": "address",
          "name": "account",
          "type": "address"
        },
        {
          "internalType": "uint256",
          "name": "pSize",
          "type": "uint256"
        },
        {
          "internalType": "uint256",
          "name": "pValue",
          "type": "uint256"
        },
        {
          "internalType": "uint256",
          "name": "forceLiquidation",
          "type": "uint256"
        },
        {
          "internalType": "uint256",
          "name": "PnL",
          "type": "uint256"
        }
      ],
      "stateMutability": "view",
      "type": "function"
    },
    {
      "inputs": [],
      "name": "renounceOwnership",
      "outputs": [],
      "stateMutability": "nonpayable",
      "type": "function"
    },
    {
      "inputs": [
        {
          "internalType": "bytes32",
          "name": "",
          "type": "bytes32"
        }
      ],
      "name": "repository",
      "outputs": [
        {
          "internalType": "address",
          "name": "",
          "type": "address"
        }
      ],
      "stateMutability": "view",
      "type": "function"
    },
    {
      "inputs": [],
      "name": "totalLeveragedPositions",
      "outputs": [
        {
          "internalType": "uint256",
          "name": "",
          "type": "uint256"
        }
      ],
      "stateMutability": "view",
      "type": "function"
    },
    {
      "inputs": [],
      "name": "totalValue",
      "outputs": [
        {
          "internalType": "uint256",
          "name": "",
          "type": "uint256"
        }
      ],
      "stateMutability": "view",
      "type": "function"
    },
    {
      "inputs": [
        {
          "internalType": "address",
          "name": "newOwner",
          "type": "address"
        }
      ],
      "name": "transferOwnership",
      "outputs": [],
      "stateMutability": "nonpayable",
      "type": "function"
    },
    {
      "inputs": [
        {
          "internalType": "bool",
          "name": "isLong",
          "type": "bool"
        },
        {
          "internalType": "uint256",
          "name": "liquidity",
          "type": "uint256"
        },
        {
          "internalType": "uint256",
          "name": "detaMargin",
          "type": "uint256"
        },
        {
          "internalType": "uint256",
          "name": "detaLeveraged",
          "type": "uint256"
        },
        {
          "internalType": "uint256",
          "name": "detaShare",
          "type": "uint256"
        },
        {
          "internalType": "uint256",
          "name": "rebaseLeft",
          "type": "uint256"
        }
      ],
      "name": "updateSubTotalState",
      "outputs": [],
      "stateMutability": "nonpayable",
      "type": "function"
    },
    {
      "inputs": [
        {
          "internalType": "address",
          "name": "account",
          "type": "address"
        },
        {
          "internalType": "uint256",
          "name": "value",
          "type": "uint256"
        }
      ],
      "name": "withdrawLiquidity",
      "outputs": [],
      "stateMutability": "nonpayable",
      "type": "function"
    },
    {
      "inputs": [],
      "name": "testParams",
      "outputs": [
        {
          "internalType": "uint256",
          "name": "",
          "type": "uint256"
        }
      ],
      "stateMutability": "pure",
      "type": "function"
    },
    {
      "inputs": [],
      "name": "overflow",
      "outputs": [
        {
          "internalType": "uint256",
          "name": "",
          "type": "uint256"
        },
        {
          "internalType": "uint136",
          "name": "",
          "type": "uint136"
        },
        {
          "internalType": "uint168",
          "name": "",
          "type": "uint168"
        },
        {
          "internalType": "uint128",
          "name": "",
          "type": "uint128"
        }
      ],
      "stateMutability": "pure",
      "type": "function"
    }
  ],
  "bytecode": "0x60806040526003805464ffffffffff19169055600060058190556006819055600781905560088190556009819055600a819055600b819055600c819055600d819055600e819055600f553480156200005657600080fd5b5060405162002f2c38038062002f2c833981016040819052620000799162000169565b8060006200008662000148565b600080546001600160a01b0319166001600160a01b0383169081178255604051929350917f8be0079c531659141344cd1fd0a4f28419497f9722a3daafe3b4186f6b6457e0908290a350670de0b6b3a7640000600e819055600f5560005b81518110156200013f576001600260008484815181106200010157fe5b6020908102919091018101516001600160a01b03168252810191909152604001600020805460ff191660ff92909216919091179055600101620000e4565b50505062000227565b3390565b80516001600160a01b03811681146200016457600080fd5b919050565b600060208083850312156200017c578182fd5b82516001600160401b038082111562000193578384fd5b818501915085601f830112620001a7578384fd5b815181811115620001b457fe5b83810260405185828201018181108582111715620001ce57fe5b604052828152858101935084860182860187018a1015620001ed578788fd5b8795505b838610156200021a5762000205816200014c565b855260019590950194938601938601620001f1565b5098975050505050505050565b612cf580620002376000396000f3fe608060405234801561001057600080fd5b506004361061023c5760003560e01c80637b08e9df1161013b578063afaeca03116100b8578063d8097c901161007c578063d8097c9014610495578063dec525021461049d578063e6235a8d146104a5578063f2fde38b146104b8578063f77fc801146104cb5761023c565b8063afaeca031461046d578063b040283714610475578063b70759011461047d578063cb02869214610485578063d4c3eea01461048d5761023c565b806399210dd0116100ff57806399210dd01461043a5780639a47974114610442578063a67c4e501461044a578063a96b163414610452578063ab0b8f771461045a5761023c565b80637b08e9df146103db5780637d2a8ff9146104025780637e94cc79146104175780637f1aedc31461042a5780638da5cb5b146104325761023c565b806337081dae116101c9578063566887001161018d5780635668870014610385578063603ec47614610398578063665a11ca146103b8578063715018a6146103c0578063739039f1146103c85761023c565b806337081dae14610320578063378847001461033357806338dcc48a1461033b57806345d077721461034e5780634622f439146103725761023c565b8063187f793511610210578063187f7935146102a45780631e5ffd69146102c4578063210f1e06146102d75780632215b77c146102ec57806328169307146102ff5761023c565b80624264c31461024157806306d47de91461026257806309898ade14610277578063120089ff1461028c575b600080fd5b6102496104f2565b6040516102599493929190612b81565b60405180910390f35b6102756102703660046125ca565b610513565b005b61027f61057f565b6040516102599190612a70565b610294610585565b6040516102599493929190612bb7565b6102b76102b2366004612752565b61068a565b60405161025991906129af565b6102756102d2366004612662565b6106a5565b6102df6108a5565b6040516102599190612a55565b6102756102fa366004612871565b6108ae565b61031261030d36600461294e565b610acc565b604051610259929190612a60565b61027561032e366004612799565b610bb3565b61027f610e01565b610275610349366004612709565b610e07565b61036161035c36600461276a565b610f3f565b6040516102599594939291906129dd565b610275610380366004612800565b61122d565b6102756103933660046125ca565b6113ce565b6103ab6103a63660046125b0565b61142f565b6040516102599190612c2b565b61027f611444565b61027561144a565b61027f6103d6366004612995565b611508565b6103ee6103e9366004612905565b61151b565b604051610259989796959493929190612bd2565b61040a611573565b6040516102599190612c1a565b61040a6104253660046125f3565b611584565b61027f611919565b6102b7611937565b61027f611946565b61027f61194c565b61027f611988565b61027f61198e565b6102756104683660046126a0565b611994565b61027f611ad2565b61027f611ad8565b610275611ade565b61027f611b1f565b61027f611b25565b61027f611bef565b61027f611bf5565b61027f6104b33660046128d1565b611bfb565b6102756104c63660046125b0565b611c36565b6104de6104d9366004612905565b611d4a565b604051610259989796959493929190612a0b565b6000196001600160881b036001600160a81b036001600160801b0390919293565b3360009081526002602052604090205460ff1660011461054e5760405162461bcd60e51b815260040161054590612ac5565b60405180910390fd5b60055461055b9082611de5565b60055561057b828261056b611e47565b6001600160a01b03169190611e97565b5050565b600e5481565b6000806000806000610595611eee565b6001600160a01b031663ac82f60861636b60f01b6040518263ffffffff1660e01b81526004016105c59190612a70565b604080518083038186803b1580156105dc57600080fd5b505afa1580156105f0573d6000803e3d6000fd5b505050506040513d601f19601f820116820180604052508101906106149190612921565b91505060006c0c9f2c9cd04674edea4000000061063c83600c54611f3f90919063ffffffff16565b8161064357fe5b04905060006c0c9f2c9cd04674edea4000000061066b84600d54611f3f90919063ffffffff16565b8161067257fe5b600654600754909a9099509397500494509092505050565b6001602052600090815260409020546001600160a01b031681565b3360009081526002602052604090205460ff166001146106d75760405162461bcd60e51b815260040161054590612ac5565b63ffffffff82811660009081526004602081815260409283902083516101008101855281548152600182015492810192909252600281015493820193909352600383015460608201529082015460808201526005909101546001600160a01b0380821660a08401819052600160a01b830490941660c0840152600160c01b90910460ff1660e08301529091908516146107825760405162461bcd60e51b815260040161054590612b55565b600061078c611e47565b905082816001600160a01b031663dd62ed3e87306040518363ffffffff1660e01b81526004016107bd9291906129c3565b60206040518083038186803b1580156107d557600080fd5b505afa1580156107e9573d6000803e3d6000fd5b505050506040513d601f19601f8201168201806040525081019061080d91906128b9565b101561082b5760405162461bcd60e51b815260040161054590612a79565b6108406001600160a01b038216863086611f98565b606082015161084f9084611ff8565b63ffffffff851660009081526004602052604090206003015560e082015160ff166001141561088d576006546108859084611ff8565b60065561089e565b60075461089a9084611ff8565b6007555b5050505050565b60035460ff1690565b3360009081526002602052604090205460ff166001146108e05760405162461bcd60e51b815260040161054590612ac5565b600061091783610911600554610903868a6060015161205290919063ffffffff16565b60608a01518710919061206d565b90611de5565b90506000670de0b6b3a764000061093c6109348860e00151612090565b885190611f3f565b8161094357fe5b049050600086602001516109716c0c9f2c9cd04674edea400000008960400151611f3f90919063ffffffff16565b8161097857fe5b0490508660e0015160ff16600114156109fd57600583905560608701516006546109a791906109119087611ff8565b6006556008546109b79083611de5565b6008558651600a546109c891611de5565b600a556080870151600e546109f591906109e3908490611f3f565b816109ea57fe5b600c54919004611de5565b600c55610a6b565b60058390556060870151600754610a1991906109119087611ff8565b600755600954610a299083611de5565b6009558651600b54610a3a91611de5565b600b556080870151600f54610a679190610a55908490611f3f565b81610a5c57fe5b600d54919004611de5565b600d555b610a7c8760a001518661056b611e47565b50505063ffffffff909216600090815260046020819052604082208281556001810183905560028101839055600381018390559081019190915560050180546001600160c81b0319169055505050565b6000806000610ad9611eee565b6001600160a01b03166316d71eb6886040518263ffffffff1660e01b8152600401610b049190612c1a565b60206040518083038186803b158015610b1c57600080fd5b505afa158015610b30573d6000803e3d6000fd5b505050506040513d601f19601f82011682018060405250810190610b5491906128b9565b90506000858210158015610b6b57508460ff166001145b80610b8457508582108015610b8457508460ff16600114155b90508086610b9c610b958583612052565b8a90611f3f565b81610ba357fe5b0493509350505094509492505050565b3360009081526002602052604090205460ff16600114610be55760405162461bcd60e51b815260040161054590612ac5565b6000610c0a83610911846109118b60600151898b151561206d9092919063ffffffff16565b9050848015610c31575080610c2e8860600151600554611ff890919063ffffffff16565b11155b15610c4a576060870151600554610c4791611ff8565b90505b610c5b8760a001518261056b611e47565b6000610c7e610c7584600554611ff890919063ffffffff16565b871590876120ff565b90506000670de0b6b3a7640000610ca3610c9b8b60e00151612090565b8b5190611f3f565b81610caa57fe5b04905060008960200151610cd86c0c9f2c9cd04674edea400000008c60400151611f3f90919063ffffffff16565b81610cdf57fe5b0490508960e0015160ff1660011415610d5257600583905560608a0151600654610d0e91906109119089611ff8565b600655600854610d1e9083611de5565b6008558951600a54610d2f91611de5565b600a5560808a0151600e54610d4a91906109e3908490611f3f565b600c55610dae565b600583905560608a0151600754610d6e91906109119089611ff8565b600755600954610d7e9083611de5565b6009558951600b54610d8f91611de5565b600b5560808a0151600f54610daa9190610a55908490611f3f565b600d555b50505063ffffffff909516600090815260046020819052604082208281556001810183905560028101839055600381018390559081019190915560050180546001600160c81b0319169055505050505050565b600d5481565b3360009081526002602052604090205460ff16600114610e395760405162461bcd60e51b815260040161054590612ac5565b8515610ebd576005859055600654610e519085611de5565b600655600854610e619084611de5565b600855600a54610e719083611de5565b600a55600e54670de0b6b3a764000090610e8b9083611f3f565b81610e9257fe5b04600e55600c54670de0b6b3a764000090610ead9083611f3f565b81610eb457fe5b04600c55610f37565b6005859055600754610ecf9085611de5565b600755600954610edf9084611de5565b600955600b54610eef9083611de5565b600b55600f54670de0b6b3a764000090610f099083611f3f565b81610f1057fe5b04600f55600d54670de0b6b3a764000090610f2b9083611f3f565b81610f3257fe5b04600d555b505050505050565b600080600080600080610f5061212a565b63ffffffff888116600090815260046020818152604092839020835161010081018552815481526001820154928101839052600282015494810185905260038201546060820152928101546080840152600501546001600160a01b03811660a0840152600160a01b8104851660c0840152600160c01b900460ff1660e08301529394509291610ffb9164e8d4a5100091610ff59190670de0b6b3a764000090611f3f16565b90611f3f565b8161100257fe5b049550600080611010611eee565b6001600160a01b031663ac82f6088c6040518263ffffffff1660e01b815260040161103b9190612a70565b604080518083038186803b15801561105257600080fd5b505afa158015611066573d6000803e3d6000fd5b505050506040513d601f19601f8201168201806040525081019061108a9190612921565b91509150670de0b6b3a7640000818902816110a157fe5b0496508260e0015160ff16600114156111525787846001600160a01b0316632d31c16e6040518163ffffffff1660e01b815260040160206040518083038186803b1580156110ee57600080fd5b505afa158015611102573d6000803e3d6000fd5b505050506040513d601f19601f8201168201806040525081019061112691906128b9565b670de0b6b3a7640000038460600151028161113d57fe5b0464e8d4a510000283602001510395506111ec565b87846001600160a01b0316632d31c16e6040518163ffffffff1660e01b815260040160206040518083038186803b15801561118c57600080fd5b505afa1580156111a0573d6000803e3d6000fd5b505050506040513d601f19601f820116820180604052508101906111c491906128b9565b670de0b6b3a764000003846060015102816111db57fe5b0464e8d4a510000283602001510195505b87670de0b6b3a764000061120d83866020015161205290919063ffffffff16565b8161121457fe5b040294508260a001519850505050509295509295909350565b3360009081526002602052604090205460ff1660011461125f5760405162461bcd60e51b815260040161054590612ac5565b600061129561127b89606001518561217b90919063ffffffff16565b6005546109119061128c9089611ff8565b891590886120ff565b90506000670de0b6b3a76400006112b2610c9b8b60e00151612090565b816112b957fe5b049050600089602001516112e76c0c9f2c9cd04674edea400000008c60400151611f3f90919063ffffffff16565b816112ee57fe5b0490508960e0015160ff166001141561136157600583905560608a015160065461131d91906109119088611ff8565b60065560085461132d9083611de5565b6008558951600a5461133e91611de5565b600a5560808a0151600e5461135991906109e3908490611f3f565b600c556113bd565b600583905560608a015160075461137d91906109119088611ff8565b60075560095461138d9083611de5565b6009558951600b5461139e91611de5565b600b5560808a0151600f546113b99190610a55908490611f3f565b600d555b610dae8a60a001518561056b611e47565b3360009081526002602052604090205460ff166001146114005760405162461bcd60e51b815260040161054590612ac5565b60055461140d9082611ff8565b60055561057b82308361141e611e47565b6001600160a01b0316929190611f98565b60026020526000908152604090205460ff1681565b60055490565b611452612196565b6001600160a01b0316611463611937565b6001600160a01b0316146114be576040805162461bcd60e51b815260206004820181905260248201527f4f776e61626c653a2063616c6c6572206973206e6f7420746865206f776e6572604482015290519081900360640190fd5b600080546040516001600160a01b03909116907f8be0079c531659141344cd1fd0a4f28419497f9722a3daafe3b4186f6b6457e0908390a3600080546001600160a01b0319169055565b600061151382612090565b90505b919050565b60046020819052600091825260409091208054600182015460028301546003840154948401546005909401549294919390926001600160a01b03811690600160a01b810463ffffffff1690600160c01b900460ff1688565b600354610100900463ffffffff1681565b3360009081526002602052604081205460ff166001146115b65760405162461bcd60e51b815260040161054590612ac5565b60035460ff166115d85760405162461bcd60e51b815260040161054590612b14565b60006115e2611e47565b905085816001600160a01b031663dd62ed3e8a306040518363ffffffff1660e01b81526004016116139291906129c3565b60206040518083038186803b15801561162b57600080fd5b505afa15801561163f573d6000803e3d6000fd5b505050506040513d601f19601f8201168201806040525081019061166391906128b9565b10156116815760405162461bcd60e51b815260040161054590612a79565b6116966001600160a01b038216893089611f98565b60006116a68761ffff8716611f3f565b905060006116b385612090565b6116c583670de0b6b3a7640000611f3f565b816116cc57fe5b0490506000896116ed64e8d4a51000610ff586670de0b6b3a7640000611f3f565b816116f457fe5b04905060008660ff166001141561174e57600654611712908b611ff8565b6006556008546117229085611ff8565b600855600a546117329084611ff8565b600a55600c546117429083611ff8565b600c5550600e54611793565b60075461175b908b611ff8565b60075560095461176b9085611ff8565b600955600b5461177b9084611ff8565b600b55600d5461178b9083611ff8565b600d5550600f545b6003600181819054906101000a900463ffffffff168092919060010191906101000a81548163ffffffff021916908363ffffffff160217905550506040518061010001604052808481526020018c81526020018581526020018b81526020018281526020018d6001600160a01b031681526020018a63ffffffff1681526020018860ff1681525060046000600360019054906101000a900463ffffffff1663ffffffff1663ffffffff168152602001908152602001600020600082015181600001556020820151816001015560408201518160020155606082015181600301556080820151816004015560a08201518160050160006101000a8154816001600160a01b0302191690836001600160a01b0316021790555060c08201518160050160146101000a81548163ffffffff021916908363ffffffff16021790555060e08201518160050160186101000a81548160ff021916908360ff160217905550905050600360019054906101000a900463ffffffff16955050505050509695505050505050565b6000611932600954600854611ff890919063ffffffff16565b905090565b6000546001600160a01b031690565b600c5481565b6000600160ac1b6064826119608383611f3f565b90506000670de0b6b3a76400006119778382611f3f565b8161197e57fe5b0494505050505090565b600f5481565b60075481565b61199c612196565b6001600160a01b03166119ad611937565b6001600160a01b031614611a08576040805162461bcd60e51b815260206004820181905260248201527f4f776e61626c653a2063616c6c6572206973206e6f7420746865206f776e6572604482015290519081900360640190fd5b828114611a5c576040805162461bcd60e51b815260206004820152601860248201527f496e707574206c656e67746873206d757374206d617463680000000000000000604482015290519081900360640190fd5b60005b8381101561089e57828282818110611a7357fe5b905060200201356001600160a01b031660016000878785818110611a9357fe5b6020908102929092013583525081019190915260400160002080546001600160a01b0319166001600160a01b0392909216919091179055600101611a5f565b60065481565b60095481565b3360009081526002602052604090205460ff16600114611b105760405162461bcd60e51b815260040161054590612ac5565b6003805460ff19166001179055565b600a5481565b600080611b30611eee565b6001600160a01b031663ac82f60861636b60f01b6040518263ffffffff1660e01b8152600401611b609190612a70565b604080518083038186803b158015611b7757600080fd5b505afa158015611b8b573d6000803e3d6000fd5b505050506040513d601f19601f82011682018060405250810190611baf9190612921565b9150506c0c9f2c9cd04674edea40000000611be1611bda600d54600c54611ff890919063ffffffff16565b8390611f3f565b81611be857fe5b0491505090565b600b5481565b60085481565b6000611c2c670de0b6b3a7640000611c1c611c1585612090565b8690611f3f565b81611c2357fe5b8691900461217b565b90505b9392505050565b611c3e612196565b6001600160a01b0316611c4f611937565b6001600160a01b031614611caa576040805162461bcd60e51b815260206004820181905260248201527f4f776e61626c653a2063616c6c6572206973206e6f7420746865206f776e6572604482015290519081900360640190fd5b6001600160a01b038116611cef5760405162461bcd60e51b8152600401808060200182810382526026815260200180612c4f6026913960400191505060405180910390fd5b600080546040516001600160a01b03808516939216917f8be0079c531659141344cd1fd0a4f28419497f9722a3daafe3b4186f6b6457e091a3600080546001600160a01b0319166001600160a01b0392909216919091179055565b63ffffffff90811660009081526004602081815260409283902083516101008101855281548082526001830154938201849052600283015495820186905260038301546060830181905294830154608083018190526005909301546001600160a01b03811660a08401819052600160a01b820490981660c08401819052600160c01b90910460ff1660e0909301839052969790969394919290565b600082821115611e3c576040805162461bcd60e51b815260206004820152601e60248201527f536166654d6174683a207375627472616374696f6e206f766572666c6f770000604482015290519081900360640190fd5b508082035b92915050565b60006119326b4261736543757272656e637960a01b6040518060400160405280601c81526020017f4d697373696e67204261736543757272656e637920416464726573730000000081525061219a565b604080516001600160a01b038416602482015260448082018490528251808303909101815260649091019091526020810180516001600160e01b031663a9059cbb60e01b179052611ee9908490612244565b505050565b60006119326c45786368616e6765526174657360981b6040518060400160405280601d81526020017f4d697373696e672045786368616e67655261746573204164647265737300000081525061219a565b600082611f4e57506000611e41565b82820282848281611f5b57fe5b0414611c2f5760405162461bcd60e51b8152600401808060200182810382526021815260200180612c756021913960400191505060405180910390fd5b604080516001600160a01b0380861660248301528416604482015260648082018490528251808303909101815260849091019091526020810180516001600160e01b03166323b872dd60e01b179052611ff2908590612244565b50505050565b600082820183811015611c2f576040805162461bcd60e51b815260206004820152601b60248201527f536166654d6174683a206164646974696f6e206f766572666c6f770000000000604482015290519081900360640190fd5b60008183106120645750808203611e41565b50818103611e41565b600083156120865761207f8383611ff8565b9050611c2f565b61207f8383611de5565b60008160ff16600114156120d657600a546120af5750620f4240611516565b600a546008546120c790670de0b6b3a7640000611f3f565b816120ce57fe5b049050611516565b600b546120e75750620f4240611516565b600b546009546120c790670de0b6b3a7640000611f3f565b600083156121115761207f8383611ff8565b818311156121225750808203611c2f565b506000611c2f565b60006119326c53797374656d53657474696e6760981b6040518060400160405280601d81526020017f4d697373696e672053797374656d53657474696e67204164647265737300000081525061219a565b60008183111561218e5750808203611e41565b506000611e41565b3390565b6000828152600160205260408120546001600160a01b0316828161223c5760405162461bcd60e51b81526004018080602001828103825283818151815260200191508051906020019080838360005b838110156122015781810151838201526020016121e9565b50505050905090810190601f16801561222e5780820380516001836020036101000a031916815260200191505b509250505060405180910390fd5b509392505050565b6000612299826040518060400160405280602081526020017f5361666545524332303a206c6f772d6c6576656c2063616c6c206661696c6564815250856001600160a01b03166122f59092919063ffffffff16565b805190915015611ee9578080602001905160208110156122b857600080fd5b5051611ee95760405162461bcd60e51b815260040180806020018281038252602a815260200180612c96602a913960400191505060405180910390fd5b6060611c2c8484600085856123098561241a565b61235a576040805162461bcd60e51b815260206004820152601d60248201527f416464726573733a2063616c6c20746f206e6f6e2d636f6e7472616374000000604482015290519081900360640190fd5b600080866001600160a01b031685876040518082805190602001908083835b602083106123985780518252601f199092019160209182019101612379565b6001836020036101000a03801982511681845116808217855250505050505090500191505060006040518083038185875af1925050503d80600081146123fa576040519150601f19603f3d011682016040523d82523d6000602084013e6123ff565b606091505b509150915061240f828286612420565b979650505050505050565b3b151590565b6060831561242f575081611c2f565b82511561243f5782518084602001fd5b60405162461bcd60e51b81526020600482018181528451602484015284518593919283926044019190850190808383600083156122015781810151838201526020016121e9565b80356001600160a01b038116811461151657600080fd5b60008083601f8401126124ae578182fd5b50813567ffffffffffffffff8111156124c5578182fd5b60208301915083602080830285010111156124df57600080fd5b9250929050565b8035801515811461151657600080fd5b6000610100808385031215612509578182fd5b6040519081019067ffffffffffffffff8211818310171561252657fe5b81604052809250833581526020840135602082015260408401356040820152606084013560608201526080840135608082015261256560a08501612486565b60a082015261257660c08501612594565b60c082015261258760e0850161259f565b60e0820152505092915050565b803561151681612c39565b803560ff8116811461151657600080fd5b6000602082840312156125c1578081fd5b611c2f82612486565b600080604083850312156125dc578081fd5b6125e583612486565b946020939093013593505050565b60008060008060008060c0878903121561260b578182fd5b61261487612486565b95506020870135945060408701359350606087013561263281612c39565b9250608087013561ffff81168114612648578283fd5b915061265660a0880161259f565b90509295509295509295565b600080600060608486031215612676578283fd5b61267f84612486565b9250602084013561268f81612c39565b929592945050506040919091013590565b600080600080604085870312156126b5578384fd5b843567ffffffffffffffff808211156126cc578586fd5b6126d88883890161249d565b909650945060208701359150808211156126f0578384fd5b506126fd8782880161249d565b95989497509550505050565b60008060008060008060c08789031215612721578182fd5b61272a876124e6565b9860208801359850604088013597606081013597506080810135965060a00135945092505050565b600060208284031215612763578081fd5b5035919050565b6000806040838503121561277c578182fd5b82359150602083013561278e81612c39565b809150509250929050565b6000806000806000806101a087890312156127b2578384fd5b6127bc88886124f6565b95506101008701356127cd81612c39565b94506127dc61012088016124e6565b93506101408701359250610160870135915061018087013590509295509295509295565b60008060008060008060006101c0888a03121561281b578485fd5b61282589896124f6565b965061010088013561283681612c39565b955061284561012089016124e6565b9699959850959661014081013596506101608101359561018082013595506101a0909101359350915050565b6000806000806101608587031215612887578182fd5b61289186866124f6565b93506101008501356128a281612c39565b939693955050505061012082013591610140013590565b6000602082840312156128ca578081fd5b5051919050565b6000806000606084860312156128e5578081fd5b83359250602084013591506128fc6040850161259f565b90509250925092565b600060208284031215612916578081fd5b8135611c2f81612c39565b60008060408385031215612933578182fd5b825161293e81612c39565b6020939093015192949293505050565b60008060008060808587031215612963578182fd5b843561296e81612c39565b9350602085013592506040850135915061298a6060860161259f565b905092959194509250565b6000602082840312156129a6578081fd5b611c2f8261259f565b6001600160a01b0391909116815260200190565b6001600160a01b0392831681529116602082015260400190565b6001600160a01b03959095168552602085019390935260408401919091526060830152608082015260a00190565b6001600160a01b0398909816885260208801969096526040870194909452606086019290925263ffffffff16608085015260ff1660a084015260c083015260e08201526101000190565b901515815260200190565b9115158252602082015260400190565b90815260200190565b6020808252602c908201527f4261736543757272656e637920417070726f76656420546f204465706f74204960408201526b0e6409cdee8408adcdeeaced60a31b606082015260800190565b6020808252602f908201527f4f6e6c792074686520636f6e7472616374206f776e6572206d6179207065726660408201526e37b936903a3434b99030b1ba34b7b760891b606082015260800190565b60208082526021908201527f496e697469616c2046756e64696e6720486173204e6f7420436f6d706c6574656040820152601960fa1b606082015260800190565b6020808252601290820152710a0dee6d2e8d2dedc409cdee8409ac2e8c6d60731b604082015260600190565b9384526001600160881b039290921660208401526001600160a81b031660408301526001600160801b0316606082015260800190565b93845260208401929092526040830152606082015260800190565b97885260208801969096526040870194909452606086019290925260808501526001600160a01b031660a084015263ffffffff1660c083015260ff1660e08201526101000190565b63ffffffff91909116815260200190565b60ff91909116815260200190565b63ffffffff81168114612c4b57600080fd5b5056fe4f776e61626c653a206e6577206f776e657220697320746865207a65726f2061646472657373536166654d6174683a206d756c7469706c69636174696f6e206f766572666c6f775361666545524332303a204552433230206f7065726174696f6e20646964206e6f742073756363656564a26469706673582212203f7c9c67b596aa9f6874764e44ff11b772ddea6429e7a4202f7f860659e6309264736f6c63430007060033",
  "immutableReferences": {},
  "source": "// SPDX-License-Identifier: GPL-3.0\npragma solidity 0.7.6;\npragma abicoder v2;\n\nimport \"@openzeppelin/contracts/math/SafeMath.sol\";\nimport \"@openzeppelin/contracts/token/ERC20/IERC20.sol\";\nimport \"@openzeppelin/contracts/access/Ownable.sol\";\n\nimport \"../interfaces/IDepot.sol\";\nimport \"../utils/BasicMaths.sol\";\n\nimport \"../Depot.sol\";\n\ncontract IntTest is Depot {\n    using SafeMath for uint;\n    using BasicMaths for uint;\n\n    constructor(address[] memory powers) Depot(powers){\n    }\n\n    function testParams() external pure returns (uint) {\n        // In `newPosition`, the params is:\n        // - openPositionPrice from other contracts a uint\n        // - margin --> position : user def\n        // - level : user def, a uint16 0 -- 65535\n\n        uint margin = uint(2 ** 172);\n        uint16 level = 100;\n\n        // from newPosition\n        uint leveragedPosition = margin.mul(level);\n        uint share = leveragedPosition.mul(1e18) / 1e18;\n\n        return share;\n    }\n\n    function overflow() pure public returns (uint256, uint136, uint168, uint128) {\n        uint256 max1 = 2 ** 256 - 1;\n        uint128 max2 = 2 ** 128 - 1;\n        uint136 max3 = 2 ** 136 - 1;\n        uint168 max4 = 2 ** 168 - 1;\n        return (max1, max3, max4, max2);\n    }\n\n}",
  "sourcePath": "/mnt/zp/QiLin-v1/test/QiLin-v1-master/contracts/tests/IntTest.sol",
  "compiler": {
    "name": "solc",
    "version": "0.7.6+commit.7338295f.Emscripten.clang"
  },
  "schemaVersion": "3.4.1",
  "updatedAt": "2021-07-05T02:57:09.793Z",
  "devdoc": {
    "kind": "dev",
    "methods": {
      "owner()": {
        "details": "Returns the address of the current owner."
      },
      "renounceOwnership()": {
        "details": "Leaves the contract without owner. It will not be possible to call `onlyOwner` functions anymore. Can only be called by the current owner. NOTE: Renouncing ownership will leave the contract without an owner, thereby removing any functionality that is only available to the owner."
      },
      "transferOwnership(address)": {
        "details": "Transfers ownership of the contract to a new account (`newOwner`). Can only be called by the current owner."
      }
    },
    "version": 1
  },
  "userdoc": {
    "kind": "user",
    "methods": {},
    "version": 1
  }
}