{
  "contractName": "LiquidationMock",
  "abi": [
    {
      "anonymous": false,
      "inputs": [
        {
          "indexed": true,
          "internalType": "address",
          "name": "sender",
          "type": "address"
        },
        {
          "indexed": false,
          "internalType": "uint32",
          "name": "positionId",
          "type": "uint32"
        },
        {
          "indexed": false,
          "internalType": "uint256",
          "name": "price",
          "type": "uint256"
        },
        {
          "indexed": false,
          "internalType": "uint256",
          "name": "serviceFee",
          "type": "uint256"
        },
        {
          "indexed": false,
          "internalType": "uint256",
          "name": "liqReward",
          "type": "uint256"
        },
        {
          "indexed": false,
          "internalType": "uint256",
          "name": "marginLoss",
          "type": "uint256"
        },
        {
          "indexed": false,
          "internalType": "bool",
          "name": "isProfit",
          "type": "bool"
        },
        {
          "indexed": false,
          "internalType": "uint256",
          "name": "value",
          "type": "uint256"
        }
      ],
      "name": "BankruptedLiquidate",
      "type": "event"
    },
    {
      "anonymous": false,
      "inputs": [
        {
          "indexed": true,
          "internalType": "address",
          "name": "sender",
          "type": "address"
        },
        {
          "indexed": false,
          "internalType": "uint32",
          "name": "positionId",
          "type": "uint32"
        },
        {
          "indexed": false,
          "internalType": "uint256",
          "name": "price",
          "type": "uint256"
        },
        {
          "indexed": false,
          "internalType": "uint256",
          "name": "serviceFee",
          "type": "uint256"
        },
        {
          "indexed": false,
          "internalType": "uint256",
          "name": "liqReward",
          "type": "uint256"
        },
        {
          "indexed": false,
          "internalType": "uint256",
          "name": "marginLoss",
          "type": "uint256"
        },
        {
          "indexed": false,
          "internalType": "bool",
          "name": "isProfit",
          "type": "bool"
        },
        {
          "indexed": false,
          "internalType": "uint256",
          "name": "value",
          "type": "uint256"
        }
      ],
      "name": "Liquidate",
      "type": "event"
    },
    {
      "anonymous": false,
      "inputs": [
        {
          "indexed": true,
          "internalType": "address",
          "name": "previousOwner",
          "type": "address"
        },
        {
          "indexed": true,
          "internalType": "address",
          "name": "newOwner",
          "type": "address"
        }
      ],
      "name": "OwnershipTransferred",
      "type": "event"
    },
    {
      "inputs": [
        {
          "internalType": "uint32",
          "name": "positionId",
          "type": "uint32"
        }
      ],
      "name": "alertBankruptedLiquidation",
      "outputs": [
        {
          "internalType": "bool",
          "name": "",
          "type": "bool"
        }
      ],
      "stateMutability": "view",
      "type": "function"
    },
    {
      "inputs": [
        {
          "internalType": "uint32",
          "name": "positionId",
          "type": "uint32"
        }
      ],
      "name": "alertLiquidation",
      "outputs": [
        {
          "internalType": "bool",
          "name": "",
          "type": "bool"
        }
      ],
      "stateMutability": "view",
      "type": "function"
    },
    {
      "inputs": [
        {
          "internalType": "uint32",
          "name": "positionId",
          "type": "uint32"
        }
      ],
      "name": "bankruptedLiquidate",
      "outputs": [],
      "stateMutability": "nonpayable",
      "type": "function"
    },
    {
      "inputs": [
        {
          "internalType": "bytes32[]",
          "name": "names",
          "type": "bytes32[]"
        },
        {
          "internalType": "address[]",
          "name": "destinations",
          "type": "address[]"
        }
      ],
      "name": "importAddresses",
      "outputs": [],
      "stateMutability": "nonpayable",
      "type": "function"
    },
    {
      "inputs": [
        {
          "internalType": "uint32",
          "name": "positionId",
          "type": "uint32"
        }
      ],
      "name": "liquidate",
      "outputs": [],
      "stateMutability": "nonpayable",
      "type": "function"
    },
    {
      "inputs": [],
      "name": "owner",
      "outputs": [
        {
          "internalType": "address",
          "name": "",
          "type": "address"
        }
      ],
      "stateMutability": "view",
      "type": "function"
    },
    {
      "inputs": [],
      "name": "renounceOwnership",
      "outputs": [],
      "stateMutability": "nonpayable",
      "type": "function"
    },
    {
      "inputs": [
        {
          "internalType": "bytes32",
          "name": "",
          "type": "bytes32"
        }
      ],
      "name": "repository",
      "outputs": [
        {
          "internalType": "address",
          "name": "",
          "type": "address"
        }
      ],
      "stateMutability": "view",
      "type": "function"
    },
    {
      "inputs": [
        {
          "internalType": "address",
          "name": "newOwner",
          "type": "address"
        }
      ],
      "name": "transferOwnership",
      "outputs": [],
      "stateMutability": "nonpayable",
      "type": "function"
    },
    {
      "inputs": [
        {
          "internalType": "uint32",
          "name": "positionId",
          "type": "uint32"
        }
      ],
      "name": "getLiquidationStat",
      "outputs": [
        {
          "internalType": "uint256",
          "name": "",
          "type": "uint256"
        },
        {
          "internalType": "uint256",
          "name": "",
          "type": "uint256"
        },
        {
          "internalType": "uint256",
          "name": "",
          "type": "uint256"
        },
        {
          "internalType": "uint256",
          "name": "",
          "type": "uint256"
        },
        {
          "internalType": "uint256",
          "name": "",
          "type": "uint256"
        },
        {
          "internalType": "uint256",
          "name": "",
          "type": "uint256"
        },
        {
          "internalType": "uint256",
          "name": "",
          "type": "uint256"
        }
      ],
      "stateMutability": "view",
      "type": "function"
    }
  ],
  "bytecode": "0x608060405234801561001057600080fd5b50600061001b61006a565b600080546001600160a01b0319166001600160a01b0383169081178255604051929350917f8be0079c531659141344cd1fd0a4f28419497f9722a3daafe3b4186f6b6457e0908290a35061006e565b3390565b6123e68061007d6000396000f3fe608060405234801561001057600080fd5b506004361061009e5760003560e01c8063753c282511610066578063753c2825146101635780638da5cb5b14610186578063ab0b8f771461018e578063e683079214610250578063f2fde38b146102ab5761009e565b8063187f7935146100a357806318fe35c7146100dc5780635b5b121d146101135780636f2cfa9814610138578063715018a61461015b575b600080fd5b6100c0600480360360208110156100b957600080fd5b50356102d1565b604080516001600160a01b039092168252519081900360200190f35b6100ff600480360360208110156100f257600080fd5b503563ffffffff166102ec565b604080519115158252519081900360200190f35b6101366004803603602081101561012957600080fd5b503563ffffffff1661068d565b005b6101366004803603602081101561014e57600080fd5b503563ffffffff16610d05565b61013661128d565b6100ff6004803603602081101561017957600080fd5b503563ffffffff1661134b565b6100c0611587565b610136600480360360408110156101a457600080fd5b8101906020810181356401000000008111156101bf57600080fd5b8201836020820111156101d157600080fd5b803590602001918460208302840111640100000000831117156101f357600080fd5b91939092909160208101903564010000000081111561021157600080fd5b82018360208201111561022357600080fd5b8035906020019184602083028401116401000000008311171561024557600080fd5b509092509050611596565b6102736004803603602081101561026657600080fd5b503563ffffffff166116db565b604080519788526020880196909652868601949094526060860192909252608085015260a084015260c0830152519081900360e00190f35b610136600480360360208110156102c157600080fd5b50356001600160a01b0316611a6b565b6001602052600090815260409020546001600160a01b031681565b6000806102f7611b7f565b90506000806000806000806000876001600160a01b031663f77fc8018b6040518263ffffffff1660e01b815260040161033091906122f8565b6101006040518083038186803b15801561034957600080fd5b505afa15801561035d573d6000803e3d6000fd5b505050506040513d601f19601f820116820180604052508101906103819190611f84565b50965096509650965096509650965060006001600160a01b0316876001600160a01b03161461067b576000670de0b6b3a76400006104376103c0611b8e565b6001600160a01b031663292b63a86040518163ffffffff1660e01b815260040160206040518083038186803b1580156103f857600080fd5b505afa15801561040c573d6000803e3d6000fd5b505050506040513d601f19601f820116820180604052508101906104309190612048565b8890611bdf565b8161043e57fe5b0490506000896001600160a01b031663e6235a8d888a876040518463ffffffff1660e01b8152600401610473939291906122df565b60206040518083038186803b15801561048b57600080fd5b505afa15801561049f573d6000803e3d6000fd5b505050506040513d601f19601f820116820180604052508101906104c39190612048565b90506000808b6001600160a01b03166328169307888b8b8a6040518563ffffffff1660e01b81526004016104fa9493929190612343565b604080518083038186803b15801561051157600080fd5b505afa158015610525573d6000803e3d6000fd5b505050506040513d601f19601f820116820180604052508101906105499190612017565b91509150811561062f5761055d8484611c41565b6105678683611c41565b111561062a57670de0b6b3a76400006105f8610581611b8e565b6001600160a01b0316632d31c16e6040518163ffffffff1660e01b815260040160206040518083038186803b1580156105b957600080fd5b505afa1580156105cd573d6000803e3d6000fd5b505050506040513d601f19601f820116820180604052508101906105f19190612048565b8790611bdf565b816105ff57fe5b046106168461061087818a87611c41565b90611c9b565b109c50505050505050505050505050610688565b610676565b6106438361063d8387611c41565b90611c41565b85111561067657670de0b6b3a764000061065e610581611b8e565b8161066557fe5b046106168461061087818a87611c9b565b505050505b6000985050505050505050505b919050565b6000610697611b8e565b9050806001600160a01b031663086dabd16040518163ffffffff1660e01b8152600401600060405180830381600087803b1580156106d457600080fd5b505af11580156106e8573d6000803e3d6000fd5b5050505060006106f6611b7f565b9050816001600160a01b0316637bfaf82b6040518163ffffffff1660e01b815260040160206040518083038186803b15801561073157600080fd5b505afa158015610745573d6000803e3d6000fd5b505050506040513d601f19601f820116820180604052508101906107699190612048565b610771611cf8565b6001600160a01b03166370a08231336040518263ffffffff1660e01b815260040161079c91906120bf565b60206040518083038186803b1580156107b457600080fd5b505afa1580156107c8573d6000803e3d6000fd5b505050506040513d601f19601f820116820180604052508101906107ec9190612048565b10156108135760405162461bcd60e51b815260040161080a906120d3565b60405180910390fd5b61081b611f2d565b60405163f77fc80160e01b81526001600160a01b0383169063f77fc801906108479087906004016122f8565b6101006040518083038186803b15801561086057600080fd5b505afa158015610874573d6000803e3d6000fd5b505050506040513d601f19601f820116820180604052508101906108989190611f84565b6080890152606088015260ff1660e087015263ffffffff1660c08601526020850152604084015282526001600160a01b031660a082018190526108ed5760405162461bcd60e51b815260040161080a906121ed565b6000670de0b6b3a7640000610977856001600160a01b031663292b63a86040518163ffffffff1660e01b815260040160206040518083038186803b15801561093457600080fd5b505afa158015610948573d6000803e3d6000fd5b505050506040513d601f19601f8201168201806040525081019061096c9190612048565b604085015190611bdf565b8161097e57fe5b604080850151855160e0870151925163e6235a8d60e01b81529490930494506000936001600160a01b0388169363e6235a8d936109be93926004016122df565b60206040518083038186803b1580156109d657600080fd5b505afa1580156109ea573d6000803e3d6000fd5b505050506040513d601f19601f82011682018060405250810190610a0e9190612048565b90506000610a1a611d45565b6001600160a01b03166316d71eb68560c001516040518263ffffffff1660e01b8152600401610a4991906122f8565b60206040518083038186803b158015610a6157600080fd5b505afa158015610a75573d6000803e3d6000fd5b505050506040513d601f19601f82011682018060405250810190610a999190612048565b6020850151909150600090610ac690610ac0610ab58583611d96565b604089015190611bdf565b90611db1565b60e0860151602087015191925060ff1660011490831015146000610aea8686611c41565b90508115610b255760608701518190610b039085611c41565b11610b205760405162461bcd60e51b815260040161080a906121a6565b610b51565b610b2f8382611c41565b876060015111610b515760405162461bcd60e51b815260040161080a9061215b565b670de0b6b3a7640000610bd98a6001600160a01b0316632d31c16e6040518163ffffffff1660e01b815260040160206040518083038186803b158015610b9657600080fd5b505afa158015610baa573d6000803e3d6000fd5b505050506040513d601f19601f82011682018060405250810190610bce9190612048565b60608a015190611bdf565b81610be057fe5b04610c00826106108a6060015187871515611e189092919063ffffffff16565b10610c1d5760405162461bcd60e51b815260040161080a90612108565b6000610c3e826106108a6060015187871515611e189092919063ffffffff16565b604051634622f43960e01b81529091506001600160a01b038a1690634622f43990610c79908b908f9088908d908b908e908a90600401612261565b600060405180830381600087803b158015610c9357600080fd5b505af1158015610ca7573d6000803e3d6000fd5b50505050336001600160a01b03167fa7ff006340ebff2aef1b1c0a48465dfc58395f91419af7b2fefa791c783a64428c878a858b898b604051610cf09796959493929190612309565b60405180910390a25050505050505050505050565b6000610d0f611b8e565b9050806001600160a01b031663086dabd16040518163ffffffff1660e01b8152600401600060405180830381600087803b158015610d4c57600080fd5b505af1158015610d60573d6000803e3d6000fd5b505050506000610d6e611b7f565b9050816001600160a01b0316637bfaf82b6040518163ffffffff1660e01b815260040160206040518083038186803b158015610da957600080fd5b505afa158015610dbd573d6000803e3d6000fd5b505050506040513d601f19601f82011682018060405250810190610de19190612048565b610de9611cf8565b6001600160a01b03166370a08231336040518263ffffffff1660e01b8152600401610e1491906120bf565b60206040518083038186803b158015610e2c57600080fd5b505afa158015610e40573d6000803e3d6000fd5b505050506040513d601f19601f82011682018060405250810190610e649190612048565b1015610e825760405162461bcd60e51b815260040161080a906120d3565b610e8a611f2d565b60405163f77fc80160e01b81526001600160a01b0383169063f77fc80190610eb69087906004016122f8565b6101006040518083038186803b158015610ecf57600080fd5b505afa158015610ee3573d6000803e3d6000fd5b505050506040513d601f19601f82011682018060405250810190610f079190611f84565b6080890152606088015260ff1660e087015263ffffffff1660c08601526020850152604084015282526001600160a01b031660a08201819052610f5c5760405162461bcd60e51b815260040161080a906121ed565b6000670de0b6b3a7640000610fa3856001600160a01b031663292b63a86040518163ffffffff1660e01b815260040160206040518083038186803b15801561093457600080fd5b81610faa57fe5b604080850151855160e0870151925163e6235a8d60e01b81529490930494506000936001600160a01b0388169363e6235a8d93610fea93926004016122df565b60206040518083038186803b15801561100257600080fd5b505afa158015611016573d6000803e3d6000fd5b505050506040513d601f19601f8201168201806040525081019061103a9190612048565b90506000611046611d45565b6001600160a01b03166316d71eb68560c001516040518263ffffffff1660e01b815260040161107591906122f8565b60206040518083038186803b15801561108d57600080fd5b505afa1580156110a1573d6000803e3d6000fd5b505050506040513d601f19601f820116820180604052508101906110c59190612048565b60208501519091506000906110e86110dd8483611d96565b604088015190611bdf565b816110ef57fe5b04905060008560e0015160ff16600114151586602001518410151515149050801561114f5761111e8585611c41565b606087015161112d9084611c41565b1061114a5760405162461bcd60e51b815260040161080a90612219565b61117f565b61115d8461063d8488611c41565b86606001511061117f5760405162461bcd60e51b815260040161080a90612219565b6000670de0b6b3a76400006111c68a6001600160a01b031663a36a36306040518163ffffffff1660e01b815260040160206040518083038186803b158015610b9657600080fd5b816111cd57fe5b049050876001600160a01b0316632215b77c888c84896040518563ffffffff1660e01b815260040161120294939291906122ac565b600060405180830381600087803b15801561121c57600080fd5b505af1158015611230573d6000803e3d6000fd5b50505050336001600160a01b03167f9680468a1359dadd687162e9a17edd6a13c661e9612642eeccc58efabf07d6848b8689858a888a6040516112799796959493929190612309565b60405180910390a250505050505050505050565b611295611e42565b6001600160a01b03166112a6611587565b6001600160a01b031614611301576040805162461bcd60e51b815260206004820181905260248201527f4f776e61626c653a2063616c6c6572206973206e6f7420746865206f776e6572604482015290519081900360640190fd5b600080546040516001600160a01b03909116907f8be0079c531659141344cd1fd0a4f28419497f9722a3daafe3b4186f6b6457e0908390a3600080546001600160a01b0319169055565b600080611356611b7f565b90506000806000806000806000876001600160a01b031663f77fc8018b6040518263ffffffff1660e01b815260040161138f91906122f8565b6101006040518083038186803b1580156113a857600080fd5b505afa1580156113bc573d6000803e3d6000fd5b505050506040513d601f19601f820116820180604052508101906113e09190611f84565b50965096509650965096509650965060006001600160a01b0316876001600160a01b03161461067b576000670de0b6b3a764000061141f6103c0611b8e565b8161142657fe5b0490506000896001600160a01b031663e6235a8d888a876040518463ffffffff1660e01b815260040161145b939291906122df565b60206040518083038186803b15801561147357600080fd5b505afa158015611487573d6000803e3d6000fd5b505050506040513d601f19601f820116820180604052508101906114ab9190612048565b90506000808b6001600160a01b03166328169307888b8b8a6040518563ffffffff1660e01b81526004016114e29493929190612343565b604080518083038186803b1580156114f957600080fd5b505afa15801561150d573d6000803e3d6000fd5b505050506040513d601f19601f820116820180604052508101906115319190612017565b915091508115611564576115458484611c41565b61154f8683611c41565b11159c50505050505050505050505050610688565b6115728361063d8387611c41565b85109c50505050505050505050505050610688565b6000546001600160a01b031690565b61159e611e42565b6001600160a01b03166115af611587565b6001600160a01b03161461160a576040805162461bcd60e51b815260206004820181905260248201527f4f776e61626c653a2063616c6c6572206973206e6f7420746865206f776e6572604482015290519081900360640190fd5b82811461165e576040805162461bcd60e51b815260206004820152601860248201527f496e707574206c656e67746873206d757374206d617463680000000000000000604482015290519081900360640190fd5b60005b838110156116d45782828281811061167557fe5b905060200201356001600160a01b03166001600087878581811061169557fe5b6020908102929092013583525081019190915260400160002080546001600160a01b0319166001600160a01b0392909216919091179055600101611661565b5050505050565b6000806000806000806000806116ef611b7f565b905060006116fb611b8e565b9050611705611f2d565b826001600160a01b031663f77fc8018c6040518263ffffffff1660e01b8152600401808263ffffffff1681526020019150506101006040518083038186803b15801561175057600080fd5b505afa158015611764573d6000803e3d6000fd5b505050506040513d61010081101561177b57600080fd5b50805160208083015160408085015160608087015160808089015160a0808b015160c0808d015160e09d8e0151958f0195909552958d019390935260ff909216998b019990995263ffffffff9098169189019190915287850152868201529085526001600160a01b039283169385019390935282516305256c7560e31b81529251600093670de0b6b3a76400009361186a939088169263292b63a8926004808201939291829003018186803b15801561183357600080fd5b505afa158015611847573d6000803e3d6000fd5b505050506040513d602081101561185d57600080fd5b5051604085015190611bdf565b8161187157fe5b0490506000846001600160a01b031663e6235a8d846040015185600001518660e001516040518463ffffffff1660e01b8152600401808481526020018381526020018260ff168152602001935050505060206040518083038186803b1580156118d957600080fd5b505afa1580156118ed573d6000803e3d6000fd5b505050506040513d602081101561190357600080fd5b505190506000611911611d45565b6001600160a01b03166316d71eb68560c001516040518263ffffffff1660e01b8152600401808263ffffffff16815260200191505060206040518083038186803b15801561195e57600080fd5b505afa158015611972573d6000803e3d6000fd5b505050506040513d602081101561198857600080fd5b505160208501519091506000906119a26110dd8483611d96565b816119a957fe5b60608701519190049150848484846119c78361061086818986611c9b565b670de0b6b3a7640000611a438d6001600160a01b0316632d31c16e6040518163ffffffff1660e01b815260040160206040518083038186803b158015611a0c57600080fd5b505afa158015611a20573d6000803e3d6000fd5b505050506040513d6020811015611a3657600080fd5b505160608e015190611bdf565b81611a4a57fe5b049d509d509d509d509d509d509d5050505050505050919395979092949650565b611a73611e42565b6001600160a01b0316611a84611587565b6001600160a01b031614611adf576040805162461bcd60e51b815260206004820181905260248201527f4f776e61626c653a2063616c6c6572206973206e6f7420746865206f776e6572604482015290519081900360640190fd5b6001600160a01b038116611b245760405162461bcd60e51b815260040180806020018281038252602681526020018061236a6026913960400191505060405180910390fd5b600080546040516001600160a01b03808516939216917f8be0079c531659141344cd1fd0a4f28419497f9722a3daafe3b4186f6b6457e091a3600080546001600160a01b0319166001600160a01b0392909216919091179055565b6000611b89611e46565b905090565b6000611b896c53797374656d53657474696e6760981b6040518060400160405280601d81526020017f4d697373696e672053797374656d53657474696e672041646472657373000000815250611e83565b600082611bee57506000611c3b565b82820282848281611bfb57fe5b0414611c385760405162461bcd60e51b81526004018080602001828103825260218152602001806123906021913960400191505060405180910390fd5b90505b92915050565b600082820183811015611c38576040805162461bcd60e51b815260206004820152601b60248201527f536166654d6174683a206164646974696f6e206f766572666c6f770000000000604482015290519081900360640190fd5b600082821115611cf2576040805162461bcd60e51b815260206004820152601e60248201527f536166654d6174683a207375627472616374696f6e206f766572666c6f770000604482015290519081900360640190fd5b50900390565b6000611b8968233ab7322a37b5b2b760b91b6040518060400160405280601981526020017f4d697373696e672046756e64546f6b656e204164647265737300000000000000815250611e83565b6000611b896c45786368616e6765526174657360981b6040518060400160405280601d81526020017f4d697373696e672045786368616e676552617465732041646472657373000000815250611e83565b6000818310611da85750808203611c3b565b50818103611c3b565b6000808211611e07576040805162461bcd60e51b815260206004820152601a60248201527f536166654d6174683a206469766973696f6e206279207a65726f000000000000604482015290519081900360640190fd5b818381611e1057fe5b049392505050565b60008315611e3157611e2a8383611c41565b9050611e3b565b611e2a8383611c9b565b9392505050565b3390565b6000611b896411195c1bdd60da1b604051806040016040528060158152602001744d697373696e67204465706f74204164647265737360581b8152505b6000828152600160205260408120546001600160a01b03168281611f255760405162461bcd60e51b81526004018080602001828103825283818151815260200191508051906020019080838360005b83811015611eea578181015183820152602001611ed2565b50505050905090810190601f168015611f175780820380516001836020036101000a031916815260200191505b509250505060405180910390fd5b509392505050565b604051806101000160405280600081526020016000815260200160008152602001600081526020016000815260200160006001600160a01b03168152602001600063ffffffff168152602001600060ff1681525090565b600080600080600080600080610100898b031215611fa0578384fd5b88516001600160a01b0381168114611fb6578485fd5b80985050602089015196506040890151955060608901519450608089015163ffffffff81168114611fe5578485fd5b60a08a015190945060ff81168114611ffb578384fd5b60c08a015160e0909a0151989b979a5095989497939692505050565b60008060408385031215612029578182fd5b82518015158114612038578283fd5b6020939093015192949293505050565b600060208284031215612059578081fd5b5051919050565b805182526020810151602083015260408101516040830152606081015160608301526080810151608083015260018060a01b0360a08201511660a083015263ffffffff60c08201511660c083015260ff60e08201511660e08301525050565b6001600160a01b0391909116815260200190565b6020808252818101527f4e6f74204d656574204d696e2046756e6420546f6b656e205265717569726564604082015260600190565b60208082526033908201527f506f736974696f6e2043616e6e6f74204265204c697175696461746564206279604082015272206e6f7420696e206d617267696e526174696f60681b606082015260800190565b6020808252602b908201527f506f736974696f6e2043616e6e6f74204265204c69717569646174656420696e60408201526a081b9bdd081c1c9bd99a5d60aa1b606082015260800190565b60208082526027908201527f506f736974696f6e2043616e6e6f74204265204c69717569646174656420696e604082015266081c1c9bd99a5d60ca1b606082015260800190565b6020808252601290820152710a0dee6d2e8d2dedc409cdee8409ac2e8c6d60731b604082015260600190565b60208082526028908201527f506f736974696f6e2043616e6e6f742042652042616e6b727570746564204c696040820152671c5d5a59185d195960c21b606082015260800190565b6101c08101612270828a612060565b63ffffffff979097166101008201529415156101208601526101408501939093526101608401919091526101808301526101a090910152919050565b61016081016122bb8287612060565b63ffffffff8516610100830152836101208301528261014083015295945050505050565b928352602083019190915260ff16604082015260600190565b63ffffffff91909116815260200190565b63ffffffff9790971687526020870195909552604086019390935260608501919091526080840152151560a083015260c082015260e00190565b63ffffffff9490941684526020840192909252604083015260ff1660608201526080019056fe4f776e61626c653a206e6577206f776e657220697320746865207a65726f2061646472657373536166654d6174683a206d756c7469706c69636174696f6e206f766572666c6f77a2646970667358221220b075db92ca419953915ca2093df7936e7108d0ddf4921c062eac20a67aad37cc64736f6c63430007060033",
  "immutableReferences": {},
  "source": "// SPDX-License-Identifier: GPL-3.0\npragma solidity 0.7.6;\n\nimport \"@openzeppelin/contracts/math/SafeMath.sol\";\nimport \"@openzeppelin/contracts/token/ERC20/IERC20.sol\";\n\nimport \"../utils/AddressResolver.sol\";\nimport \"../utils/BasicMaths.sol\";\n\nimport \"../Liquidation.sol\";\n\ncontract LiquidationMock is Liquidation {\n    using SafeMath for uint;\n    using BasicMaths for uint;\n    using BasicMaths for bool;\n\n    function getLiquidationStat(uint32 positionId) external view returns( uint, uint, uint, uint, uint, uint, uint ) {\n        IDepot depot = getDepot();\n        ISystemSetting setting = systemSetting();\n\n        Position memory position;\n        (\n            position.account,\n            position.share,\n            position.leveragedPosition,\n            position.openPositionPrice,\n            position.currencyKeyIdx,\n            position.direction,\n            position.margin,\n            position.openRebaseLeft\n        ) = depot.position(positionId);\n\n        uint serviceFee = position.leveragedPosition.mul(setting.positionClosingFee()) / 1e18;\n        uint marginLoss = depot.calMarginLoss(position.leveragedPosition, position.share, position.direction);\n\n        uint rateForCurrency = exchangeRates().rateForCurrencyByIdx(position.currencyKeyIdx);\n        uint value = position.leveragedPosition.mul(rateForCurrency.diff(position.openPositionPrice)) / position.openPositionPrice;\n\n        return (\n            position.margin,\n            serviceFee,\n            marginLoss,\n            rateForCurrency,\n            value,\n            position.margin.sub(value).sub(serviceFee).sub(marginLoss),\n            position.margin.mul(setting.marginRatio()) / 1e18\n        );\n    }\n}",
  "sourcePath": "/mnt/zp/QiLin-v1/test/QiLin-v1-master/contracts/mocks/LiquidationMock.sol",
  "compiler": {
    "name": "solc",
    "version": "0.7.6+commit.7338295f.Emscripten.clang"
  },
  "schemaVersion": "3.4.1",
  "updatedAt": "2021-06-30T09:07:07.961Z",
  "devdoc": {
    "kind": "dev",
    "methods": {
      "owner()": {
        "details": "Returns the address of the current owner."
      },
      "renounceOwnership()": {
        "details": "Leaves the contract without owner. It will not be possible to call `onlyOwner` functions anymore. Can only be called by the current owner. NOTE: Renouncing ownership will leave the contract without an owner, thereby removing any functionality that is only available to the owner."
      },
      "transferOwnership(address)": {
        "details": "Transfers ownership of the contract to a new account (`newOwner`). Can only be called by the current owner."
      }
    },
    "version": 1
  },
  "userdoc": {
    "kind": "user",
    "methods": {},
    "version": 1
  }
}