{
  "contractName": "Liquidation",
  "abi": [
    {
      "anonymous": false,
      "inputs": [
        {
          "indexed": true,
          "internalType": "address",
          "name": "sender",
          "type": "address"
        },
        {
          "indexed": false,
          "internalType": "uint32",
          "name": "positionId",
          "type": "uint32"
        },
        {
          "indexed": false,
          "internalType": "uint256",
          "name": "price",
          "type": "uint256"
        },
        {
          "indexed": false,
          "internalType": "uint256",
          "name": "serviceFee",
          "type": "uint256"
        },
        {
          "indexed": false,
          "internalType": "uint256",
          "name": "liqReward",
          "type": "uint256"
        },
        {
          "indexed": false,
          "internalType": "uint256",
          "name": "marginLoss",
          "type": "uint256"
        },
        {
          "indexed": false,
          "internalType": "bool",
          "name": "isProfit",
          "type": "bool"
        },
        {
          "indexed": false,
          "internalType": "uint256",
          "name": "value",
          "type": "uint256"
        }
      ],
      "name": "BankruptedLiquidate",
      "type": "event"
    },
    {
      "anonymous": false,
      "inputs": [
        {
          "indexed": true,
          "internalType": "address",
          "name": "sender",
          "type": "address"
        },
        {
          "indexed": false,
          "internalType": "uint32",
          "name": "positionId",
          "type": "uint32"
        },
        {
          "indexed": false,
          "internalType": "uint256",
          "name": "price",
          "type": "uint256"
        },
        {
          "indexed": false,
          "internalType": "uint256",
          "name": "serviceFee",
          "type": "uint256"
        },
        {
          "indexed": false,
          "internalType": "uint256",
          "name": "liqReward",
          "type": "uint256"
        },
        {
          "indexed": false,
          "internalType": "uint256",
          "name": "marginLoss",
          "type": "uint256"
        },
        {
          "indexed": false,
          "internalType": "bool",
          "name": "isProfit",
          "type": "bool"
        },
        {
          "indexed": false,
          "internalType": "uint256",
          "name": "value",
          "type": "uint256"
        }
      ],
      "name": "Liquidate",
      "type": "event"
    },
    {
      "anonymous": false,
      "inputs": [
        {
          "indexed": true,
          "internalType": "address",
          "name": "previousOwner",
          "type": "address"
        },
        {
          "indexed": true,
          "internalType": "address",
          "name": "newOwner",
          "type": "address"
        }
      ],
      "name": "OwnershipTransferred",
      "type": "event"
    },
    {
      "inputs": [
        {
          "internalType": "bytes32[]",
          "name": "names",
          "type": "bytes32[]"
        },
        {
          "internalType": "address[]",
          "name": "destinations",
          "type": "address[]"
        }
      ],
      "name": "importAddresses",
      "outputs": [],
      "stateMutability": "nonpayable",
      "type": "function"
    },
    {
      "inputs": [],
      "name": "owner",
      "outputs": [
        {
          "internalType": "address",
          "name": "",
          "type": "address"
        }
      ],
      "stateMutability": "view",
      "type": "function"
    },
    {
      "inputs": [],
      "name": "renounceOwnership",
      "outputs": [],
      "stateMutability": "nonpayable",
      "type": "function"
    },
    {
      "inputs": [
        {
          "internalType": "bytes32",
          "name": "",
          "type": "bytes32"
        }
      ],
      "name": "repository",
      "outputs": [
        {
          "internalType": "address",
          "name": "",
          "type": "address"
        }
      ],
      "stateMutability": "view",
      "type": "function"
    },
    {
      "inputs": [
        {
          "internalType": "address",
          "name": "newOwner",
          "type": "address"
        }
      ],
      "name": "transferOwnership",
      "outputs": [],
      "stateMutability": "nonpayable",
      "type": "function"
    },
    {
      "inputs": [
        {
          "internalType": "uint32",
          "name": "positionId",
          "type": "uint32"
        }
      ],
      "name": "liquidate",
      "outputs": [],
      "stateMutability": "nonpayable",
      "type": "function"
    },
    {
      "inputs": [
        {
          "internalType": "uint32",
          "name": "positionId",
          "type": "uint32"
        }
      ],
      "name": "bankruptedLiquidate",
      "outputs": [],
      "stateMutability": "nonpayable",
      "type": "function"
    },
    {
      "inputs": [
        {
          "internalType": "uint32",
          "name": "positionId",
          "type": "uint32"
        }
      ],
      "name": "alertLiquidation",
      "outputs": [
        {
          "internalType": "bool",
          "name": "",
          "type": "bool"
        }
      ],
      "stateMutability": "view",
      "type": "function"
    },
    {
      "inputs": [
        {
          "internalType": "uint32",
          "name": "positionId",
          "type": "uint32"
        }
      ],
      "name": "alertBankruptedLiquidation",
      "outputs": [
        {
          "internalType": "bool",
          "name": "",
          "type": "bool"
        }
      ],
      "stateMutability": "view",
      "type": "function"
    }
  ],
  "bytecode": "0x608060405234801561001057600080fd5b50600061001b61006a565b600080546001600160a01b0319166001600160a01b0383169081178255604051929350917f8be0079c531659141344cd1fd0a4f28419497f9722a3daafe3b4186f6b6457e0908290a35061006e565b3390565b611ffb8061007d6000396000f3fe608060405234801561001057600080fd5b50600436106100935760003560e01c8063715018a611610066578063715018a614610109578063753c2825146101115780638da5cb5b14610124578063ab0b8f771461012c578063f2fde38b1461013f57610093565b8063187f79351461009857806318fe35c7146100c15780635b5b121d146100e15780636f2cfa98146100f6575b600080fd5b6100ab6100a6366004611bf4565b610152565b6040516100b89190611c9f565b60405180910390f35b6100d46100cf366004611c24565b61016d565b6040516100b89190611cb3565b6100f46100ef366004611c24565b61050e565b005b6100f4610104366004611c24565b610b86565b6100f461110e565b6100d461011f366004611c24565b6111cc565b6100ab611408565b6100f461013a366004611b5a565b611417565b6100f461014d366004611abe565b61155c565b6001602052600090815260409020546001600160a01b031681565b600080610178611670565b90506000806000806000806000876001600160a01b031663f77fc8018b6040518263ffffffff1660e01b81526004016101b19190611ee3565b6101006040518083038186803b1580156101ca57600080fd5b505afa1580156101de573d6000803e3d6000fd5b505050506040513d601f19601f820116820180604052508101906102029190611ada565b50965096509650965096509650965060006001600160a01b0316876001600160a01b0316146104fc576000670de0b6b3a76400006102b861024161167f565b6001600160a01b031663292b63a86040518163ffffffff1660e01b815260040160206040518083038186803b15801561027957600080fd5b505afa15801561028d573d6000803e3d6000fd5b505050506040513d601f19601f820116820180604052508101906102b19190611c0c565b88906116d0565b816102bf57fe5b0490506000896001600160a01b031663e6235a8d888a876040518463ffffffff1660e01b81526004016102f493929190611eca565b60206040518083038186803b15801561030c57600080fd5b505afa158015610320573d6000803e3d6000fd5b505050506040513d601f19601f820116820180604052508101906103449190611c0c565b90506000808b6001600160a01b03166328169307888b8b8a6040518563ffffffff1660e01b815260040161037b9493929190611f2e565b604080518083038186803b15801561039257600080fd5b505afa1580156103a6573d6000803e3d6000fd5b505050506040513d601f19601f820116820180604052508101906103ca9190611bc3565b9150915081156104b0576103de8484611732565b6103e88683611732565b11156104ab57670de0b6b3a764000061047961040261167f565b6001600160a01b0316632d31c16e6040518163ffffffff1660e01b815260040160206040518083038186803b15801561043a57600080fd5b505afa15801561044e573d6000803e3d6000fd5b505050506040513d601f19601f820116820180604052508101906104729190611c0c565b87906116d0565b8161048057fe5b046104978461049187818a87611732565b9061178c565b109c50505050505050505050505050610509565b6104f7565b6104c4836104be8387611732565b90611732565b8511156104f757670de0b6b3a76400006104df61040261167f565b816104e657fe5b046104978461049187818a8761178c565b505050505b6000985050505050505050505b919050565b600061051861167f565b9050806001600160a01b031663086dabd16040518163ffffffff1660e01b8152600401600060405180830381600087803b15801561055557600080fd5b505af1158015610569573d6000803e3d6000fd5b505050506000610577611670565b9050816001600160a01b0316637bfaf82b6040518163ffffffff1660e01b815260040160206040518083038186803b1580156105b257600080fd5b505afa1580156105c6573d6000803e3d6000fd5b505050506040513d601f19601f820116820180604052508101906105ea9190611c0c565b6105f26117e9565b6001600160a01b03166370a08231336040518263ffffffff1660e01b815260040161061d9190611c9f565b60206040518083038186803b15801561063557600080fd5b505afa158015610649573d6000803e3d6000fd5b505050506040513d601f19601f8201168201806040525081019061066d9190611c0c565b10156106945760405162461bcd60e51b815260040161068b90611cbe565b60405180910390fd5b61069c611a1e565b60405163f77fc80160e01b81526001600160a01b0383169063f77fc801906106c8908790600401611ee3565b6101006040518083038186803b1580156106e157600080fd5b505afa1580156106f5573d6000803e3d6000fd5b505050506040513d601f19601f820116820180604052508101906107199190611ada565b6080890152606088015260ff1660e087015263ffffffff1660c08601526020850152604084015282526001600160a01b031660a0820181905261076e5760405162461bcd60e51b815260040161068b90611dd8565b6000670de0b6b3a76400006107f8856001600160a01b031663292b63a86040518163ffffffff1660e01b815260040160206040518083038186803b1580156107b557600080fd5b505afa1580156107c9573d6000803e3d6000fd5b505050506040513d601f19601f820116820180604052508101906107ed9190611c0c565b6040850151906116d0565b816107ff57fe5b604080850151855160e0870151925163e6235a8d60e01b81529490930494506000936001600160a01b0388169363e6235a8d9361083f9392600401611eca565b60206040518083038186803b15801561085757600080fd5b505afa15801561086b573d6000803e3d6000fd5b505050506040513d601f19601f8201168201806040525081019061088f9190611c0c565b9050600061089b611836565b6001600160a01b03166316d71eb68560c001516040518263ffffffff1660e01b81526004016108ca9190611ee3565b60206040518083038186803b1580156108e257600080fd5b505afa1580156108f6573d6000803e3d6000fd5b505050506040513d601f19601f8201168201806040525081019061091a9190611c0c565b6020850151909150600090610947906109416109368583611887565b6040890151906116d0565b906118a2565b60e0860151602087015191925060ff166001149083101514600061096b8686611732565b905081156109a657606087015181906109849085611732565b116109a15760405162461bcd60e51b815260040161068b90611d91565b6109d2565b6109b08382611732565b8760600151116109d25760405162461bcd60e51b815260040161068b90611d46565b670de0b6b3a7640000610a5a8a6001600160a01b0316632d31c16e6040518163ffffffff1660e01b815260040160206040518083038186803b158015610a1757600080fd5b505afa158015610a2b573d6000803e3d6000fd5b505050506040513d601f19601f82011682018060405250810190610a4f9190611c0c565b60608a0151906116d0565b81610a6157fe5b04610a81826104918a60600151878715156119099092919063ffffffff16565b10610a9e5760405162461bcd60e51b815260040161068b90611cf3565b6000610abf826104918a60600151878715156119099092919063ffffffff16565b604051634622f43960e01b81529091506001600160a01b038a1690634622f43990610afa908b908f9088908d908b908e908a90600401611e4c565b600060405180830381600087803b158015610b1457600080fd5b505af1158015610b28573d6000803e3d6000fd5b50505050336001600160a01b03167fa7ff006340ebff2aef1b1c0a48465dfc58395f91419af7b2fefa791c783a64428c878a858b898b604051610b719796959493929190611ef4565b60405180910390a25050505050505050505050565b6000610b9061167f565b9050806001600160a01b031663086dabd16040518163ffffffff1660e01b8152600401600060405180830381600087803b158015610bcd57600080fd5b505af1158015610be1573d6000803e3d6000fd5b505050506000610bef611670565b9050816001600160a01b0316637bfaf82b6040518163ffffffff1660e01b815260040160206040518083038186803b158015610c2a57600080fd5b505afa158015610c3e573d6000803e3d6000fd5b505050506040513d601f19601f82011682018060405250810190610c629190611c0c565b610c6a6117e9565b6001600160a01b03166370a08231336040518263ffffffff1660e01b8152600401610c959190611c9f565b60206040518083038186803b158015610cad57600080fd5b505afa158015610cc1573d6000803e3d6000fd5b505050506040513d601f19601f82011682018060405250810190610ce59190611c0c565b1015610d035760405162461bcd60e51b815260040161068b90611cbe565b610d0b611a1e565b60405163f77fc80160e01b81526001600160a01b0383169063f77fc80190610d37908790600401611ee3565b6101006040518083038186803b158015610d5057600080fd5b505afa158015610d64573d6000803e3d6000fd5b505050506040513d601f19601f82011682018060405250810190610d889190611ada565b6080890152606088015260ff1660e087015263ffffffff1660c08601526020850152604084015282526001600160a01b031660a08201819052610ddd5760405162461bcd60e51b815260040161068b90611dd8565b6000670de0b6b3a7640000610e24856001600160a01b031663292b63a86040518163ffffffff1660e01b815260040160206040518083038186803b1580156107b557600080fd5b81610e2b57fe5b604080850151855160e0870151925163e6235a8d60e01b81529490930494506000936001600160a01b0388169363e6235a8d93610e6b9392600401611eca565b60206040518083038186803b158015610e8357600080fd5b505afa158015610e97573d6000803e3d6000fd5b505050506040513d601f19601f82011682018060405250810190610ebb9190611c0c565b90506000610ec7611836565b6001600160a01b03166316d71eb68560c001516040518263ffffffff1660e01b8152600401610ef69190611ee3565b60206040518083038186803b158015610f0e57600080fd5b505afa158015610f22573d6000803e3d6000fd5b505050506040513d601f19601f82011682018060405250810190610f469190611c0c565b6020850151909150600090610f69610f5e8483611887565b6040880151906116d0565b81610f7057fe5b04905060008560e0015160ff166001141515866020015184101515151490508015610fd057610f9f8585611732565b6060870151610fae9084611732565b10610fcb5760405162461bcd60e51b815260040161068b90611e04565b611000565b610fde846104be8488611732565b8660600151106110005760405162461bcd60e51b815260040161068b90611e04565b6000670de0b6b3a76400006110478a6001600160a01b031663a36a36306040518163ffffffff1660e01b815260040160206040518083038186803b158015610a1757600080fd5b8161104e57fe5b049050876001600160a01b0316632215b77c888c84896040518563ffffffff1660e01b81526004016110839493929190611e97565b600060405180830381600087803b15801561109d57600080fd5b505af11580156110b1573d6000803e3d6000fd5b50505050336001600160a01b03167f9680468a1359dadd687162e9a17edd6a13c661e9612642eeccc58efabf07d6848b8689858a888a6040516110fa9796959493929190611ef4565b60405180910390a250505050505050505050565b611116611933565b6001600160a01b0316611127611408565b6001600160a01b031614611182576040805162461bcd60e51b815260206004820181905260248201527f4f776e61626c653a2063616c6c6572206973206e6f7420746865206f776e6572604482015290519081900360640190fd5b600080546040516001600160a01b03909116907f8be0079c531659141344cd1fd0a4f28419497f9722a3daafe3b4186f6b6457e0908390a3600080546001600160a01b0319169055565b6000806111d7611670565b90506000806000806000806000876001600160a01b031663f77fc8018b6040518263ffffffff1660e01b81526004016112109190611ee3565b6101006040518083038186803b15801561122957600080fd5b505afa15801561123d573d6000803e3d6000fd5b505050506040513d601f19601f820116820180604052508101906112619190611ada565b50965096509650965096509650965060006001600160a01b0316876001600160a01b0316146104fc576000670de0b6b3a76400006112a061024161167f565b816112a757fe5b0490506000896001600160a01b031663e6235a8d888a876040518463ffffffff1660e01b81526004016112dc93929190611eca565b60206040518083038186803b1580156112f457600080fd5b505afa158015611308573d6000803e3d6000fd5b505050506040513d601f19601f8201168201806040525081019061132c9190611c0c565b90506000808b6001600160a01b03166328169307888b8b8a6040518563ffffffff1660e01b81526004016113639493929190611f2e565b604080518083038186803b15801561137a57600080fd5b505afa15801561138e573d6000803e3d6000fd5b505050506040513d601f19601f820116820180604052508101906113b29190611bc3565b9150915081156113e5576113c68484611732565b6113d08683611732565b11159c50505050505050505050505050610509565b6113f3836104be8387611732565b85109c50505050505050505050505050610509565b6000546001600160a01b031690565b61141f611933565b6001600160a01b0316611430611408565b6001600160a01b03161461148b576040805162461bcd60e51b815260206004820181905260248201527f4f776e61626c653a2063616c6c6572206973206e6f7420746865206f776e6572604482015290519081900360640190fd5b8281146114df576040805162461bcd60e51b815260206004820152601860248201527f496e707574206c656e67746873206d757374206d617463680000000000000000604482015290519081900360640190fd5b60005b83811015611555578282828181106114f657fe5b905060200201356001600160a01b03166001600087878581811061151657fe5b6020908102929092013583525081019190915260400160002080546001600160a01b0319166001600160a01b03929092169190911790556001016114e2565b5050505050565b611564611933565b6001600160a01b0316611575611408565b6001600160a01b0316146115d0576040805162461bcd60e51b815260206004820181905260248201527f4f776e61626c653a2063616c6c6572206973206e6f7420746865206f776e6572604482015290519081900360640190fd5b6001600160a01b0381166116155760405162461bcd60e51b8152600401808060200182810382526026815260200180611f7f6026913960400191505060405180910390fd5b600080546040516001600160a01b03808516939216917f8be0079c531659141344cd1fd0a4f28419497f9722a3daafe3b4186f6b6457e091a3600080546001600160a01b0319166001600160a01b0392909216919091179055565b600061167a611937565b905090565b600061167a6c53797374656d53657474696e6760981b6040518060400160405280601d81526020017f4d697373696e672053797374656d53657474696e672041646472657373000000815250611974565b6000826116df5750600061172c565b828202828482816116ec57fe5b04146117295760405162461bcd60e51b8152600401808060200182810382526021815260200180611fa56021913960400191505060405180910390fd5b90505b92915050565b600082820183811015611729576040805162461bcd60e51b815260206004820152601b60248201527f536166654d6174683a206164646974696f6e206f766572666c6f770000000000604482015290519081900360640190fd5b6000828211156117e3576040805162461bcd60e51b815260206004820152601e60248201527f536166654d6174683a207375627472616374696f6e206f766572666c6f770000604482015290519081900360640190fd5b50900390565b600061167a68233ab7322a37b5b2b760b91b6040518060400160405280601981526020017f4d697373696e672046756e64546f6b656e204164647265737300000000000000815250611974565b600061167a6c45786368616e6765526174657360981b6040518060400160405280601d81526020017f4d697373696e672045786368616e676552617465732041646472657373000000815250611974565b6000818310611899575080820361172c565b5081810361172c565b60008082116118f8576040805162461bcd60e51b815260206004820152601a60248201527f536166654d6174683a206469766973696f6e206279207a65726f000000000000604482015290519081900360640190fd5b81838161190157fe5b049392505050565b600083156119225761191b8383611732565b905061192c565b61191b838361178c565b9392505050565b3390565b600061167a6411195c1bdd60da1b604051806040016040528060158152602001744d697373696e67204465706f74204164647265737360581b8152505b6000828152600160205260408120546001600160a01b03168281611a165760405162461bcd60e51b81526004018080602001828103825283818151815260200191508051906020019080838360005b838110156119db5781810151838201526020016119c3565b50505050905090810190601f168015611a085780820380516001836020036101000a031916815260200191505b509250505060405180910390fd5b509392505050565b604051806101000160405280600081526020016000815260200160008152602001600081526020016000815260200160006001600160a01b03168152602001600063ffffffff168152602001600060ff1681525090565b60008083601f840112611a86578182fd5b50813567ffffffffffffffff811115611a9d578182fd5b6020830191508360208083028501011115611ab757600080fd5b9250929050565b600060208284031215611acf578081fd5b813561172981611f54565b600080600080600080600080610100898b031215611af6578384fd5b8851611b0181611f54565b809850506020890151965060408901519550606089015194506080890151611b2881611f6c565b60a08a015190945060ff81168114611b3e578384fd5b60c08a015160e0909a0151989b979a5095989497939692505050565b60008060008060408587031215611b6f578384fd5b843567ffffffffffffffff80821115611b86578586fd5b611b9288838901611a75565b90965094506020870135915080821115611baa578384fd5b50611bb787828801611a75565b95989497509550505050565b60008060408385031215611bd5578182fd5b82518015158114611be4578283fd5b6020939093015192949293505050565b600060208284031215611c05578081fd5b5035919050565b600060208284031215611c1d578081fd5b5051919050565b600060208284031215611c35578081fd5b813561172981611f6c565b805182526020810151602083015260408101516040830152606081015160608301526080810151608083015260018060a01b0360a08201511660a083015263ffffffff60c08201511660c083015260ff60e08201511660e08301525050565b6001600160a01b0391909116815260200190565b901515815260200190565b6020808252818101527f4e6f74204d656574204d696e2046756e6420546f6b656e205265717569726564604082015260600190565b60208082526033908201527f506f736974696f6e2043616e6e6f74204265204c697175696461746564206279604082015272206e6f7420696e206d617267696e526174696f60681b606082015260800190565b6020808252602b908201527f506f736974696f6e2043616e6e6f74204265204c69717569646174656420696e60408201526a081b9bdd081c1c9bd99a5d60aa1b606082015260800190565b60208082526027908201527f506f736974696f6e2043616e6e6f74204265204c69717569646174656420696e604082015266081c1c9bd99a5d60ca1b606082015260800190565b6020808252601290820152710a0dee6d2e8d2dedc409cdee8409ac2e8c6d60731b604082015260600190565b60208082526028908201527f506f736974696f6e2043616e6e6f742042652042616e6b727570746564204c696040820152671c5d5a59185d195960c21b606082015260800190565b6101c08101611e5b828a611c40565b63ffffffff979097166101008201529415156101208601526101408501939093526101608401919091526101808301526101a090910152919050565b6101608101611ea68287611c40565b63ffffffff8516610100830152836101208301528261014083015295945050505050565b928352602083019190915260ff16604082015260600190565b63ffffffff91909116815260200190565b63ffffffff9790971687526020870195909552604086019390935260608501919091526080840152151560a083015260c082015260e00190565b63ffffffff9490941684526020840192909252604083015260ff16606082015260800190565b6001600160a01b0381168114611f6957600080fd5b50565b63ffffffff81168114611f6957600080fdfe4f776e61626c653a206e6577206f776e657220697320746865207a65726f2061646472657373536166654d6174683a206d756c7469706c69636174696f6e206f766572666c6f77a264697066735822122045fad459c91faf3efa512fbabf345173ab269171720a53314d6edf59791a21bb64736f6c63430007060033",
  "immutableReferences": {},
  "source": "// SPDX-License-Identifier: GPL-3.0\npragma solidity 0.7.6;\npragma abicoder v2;\n\nimport \"@openzeppelin/contracts/math/SafeMath.sol\";\nimport \"@openzeppelin/contracts/token/ERC20/IERC20.sol\";\n\nimport \"./utils/AddressResolver.sol\";\nimport \"./utils/BasicMaths.sol\";\n\nimport \"./interfaces/ISystemSetting.sol\";\nimport \"./interfaces/IDepot.sol\";\nimport \"./interfaces/ILiquidation.sol\";\nimport \"./interfaces/IExchangeRates.sol\";\n\ncontract Liquidation is AddressResolver, ILiquidation {\n    using SafeMath for uint;\n    using BasicMaths for uint;\n    using BasicMaths for bool;\n\n    bytes32 private constant CONTRACT_FUNDTOKEN = \"FundToken\";\n    bytes32 private constant CONTRACT_EXCHANGERATES = \"ExchangeRates\";\n    bytes32 private constant CONTRACT_DEPOT = \"Depot\";\n    bytes32 private constant CONTRACT_SYSTEMSETTING = \"SystemSetting\";\n    bytes32 private constant CONTRACT_BASECURRENCY = \"BaseCurrency\";\n\n    /* -------------  contract interfaces  ------------- */\n    function fundToken() internal view returns (address) {\n        return requireAndGetAddress(CONTRACT_FUNDTOKEN, \"Missing FundToken Address\");\n    }\n\n    function exchangeRates() internal view returns (IExchangeRates) {\n        return IExchangeRates(requireAndGetAddress(CONTRACT_EXCHANGERATES, \"Missing ExchangeRates Address\"));\n    }\n\n    function systemSetting() internal view returns (ISystemSetting) {\n        return ISystemSetting(requireAndGetAddress(CONTRACT_SYSTEMSETTING, \"Missing SystemSetting Address\"));\n    }\n\n    function depotAddress() internal view returns (address) {\n        return requireAndGetAddress(CONTRACT_DEPOT, \"Missing Depot Address\");\n    }\n\n    function getDepot() internal view returns (IDepot) {\n        return IDepot(depotAddress());\n    }\n\n    function baseCurrency() internal view returns (IERC20) {\n        return IERC20(requireAndGetAddress(CONTRACT_BASECURRENCY, \"Missing BaseCurrency Address\"));\n    }\n\n\n    function liquidate(uint32 positionId) external override {\n        ISystemSetting setting = systemSetting();\n        setting.requireSystemActive();\n        IDepot depot = getDepot();\n\n        require(IERC20(fundToken()).balanceOf(msg.sender) >= setting.minFundTokenRequired(),\n            \"Not Meet Min Fund Token Required\");\n\n        Position memory position;\n        (\n            position.account,\n            position.share,\n            position.leveragedPosition,\n            position.openPositionPrice,\n            position.currencyKeyIdx,\n            position.direction,\n            position.margin,\n            position.openRebaseLeft\n        ) = depot.position(positionId);\n\n        require(position.account != address(0), \"Position Not Match\");\n\n        uint serviceFee = position.leveragedPosition.mul(setting.positionClosingFee()) / 1e18;\n        uint marginLoss = depot.calMarginLoss(position.leveragedPosition, position.share, position.direction);\n\n        uint rateForCurrency = exchangeRates().rateForCurrencyByIdx(position.currencyKeyIdx);\n        uint value = position.leveragedPosition.mul(rateForCurrency.diff(position.openPositionPrice)).div(position.openPositionPrice);\n\n        bool isProfit = (rateForCurrency >= position.openPositionPrice) == (position.direction == 1);\n        uint feeAddML = serviceFee.add(marginLoss);\n\n        if ( isProfit ) {\n            require(position.margin.add(value) > feeAddML, \"Position Cannot Be Liquidated in profit\");\n        } else {\n            require(position.margin > value.add(feeAddML), \"Position Cannot Be Liquidated in not profit\");\n        }\n\n        require(\n            isProfit.addOrSub(position.margin, value).sub(feeAddML) < position.margin.mul(setting.marginRatio()) / 1e18,\n            \"Position Cannot Be Liquidated by not in marginRatio\");\n\n        uint liqReward = isProfit.addOrSub(position.margin, value).sub(feeAddML);\n\n        depot.liquidate(\n            position,\n            positionId,\n            isProfit,\n            serviceFee,\n            value,\n            marginLoss,\n            liqReward);\n\n        emit Liquidate(\n            msg.sender,\n            positionId,\n            rateForCurrency,\n            serviceFee,\n            liqReward,\n            marginLoss,\n            isProfit,\n            value);\n    }\n\n    function bankruptedLiquidate(uint32 positionId) external override {\n        ISystemSetting setting = systemSetting();\n        setting.requireSystemActive();\n        IDepot depot = getDepot();\n        require(IERC20(fundToken()).balanceOf(msg.sender) >= setting.minFundTokenRequired(),\n            \"Not Meet Min Fund Token Required\");\n\n        Position memory position;\n        (\n            position.account,\n            position.share,\n            position.leveragedPosition,\n            position.openPositionPrice,\n            position.currencyKeyIdx,\n            position.direction,\n            position.margin,\n            position.openRebaseLeft\n        ) = depot.position(positionId);\n        require(position.account != address(0), \"Position Not Match\");\n\n        uint serviceFee = position.leveragedPosition.mul(setting.positionClosingFee()) / 1e18;\n        uint marginLoss = depot.calMarginLoss(position.leveragedPosition, position.share, position.direction);\n\n        uint rateForCurrency = exchangeRates().rateForCurrencyByIdx(position.currencyKeyIdx);\n        uint value = position.leveragedPosition.mul(rateForCurrency.diff(position.openPositionPrice)) / position.openPositionPrice;\n\n        bool isProfit = (rateForCurrency >= position.openPositionPrice) == (position.direction == 1);\n\n        if ( isProfit ) {\n            require(position.margin.add(value) < serviceFee.add(marginLoss), \"Position Cannot Be Bankrupted Liquidated\");\n        } else {\n            require(position.margin < value.add(serviceFee).add(marginLoss), \"Position Cannot Be Bankrupted Liquidated\");\n        }\n\n        uint liquidateFee = position.margin.mul(setting.liquidationFee()) / 1e18;\n\n        depot.bankruptedLiquidate(\n            position,\n            positionId,\n            liquidateFee,\n            marginLoss);\n\n        emit BankruptedLiquidate(msg.sender, positionId, rateForCurrency, serviceFee, liquidateFee, marginLoss, isProfit, value);\n    }\n\n    function alertLiquidation(uint32 positionId) external override view returns (bool) {\n        IDepot depot = getDepot();\n\n        (\n            address account,\n            uint share,\n            uint leveragedPosition,\n            uint openPositionPrice,\n            uint32 currencyKeyIdx,\n            uint8 direction,\n            uint margin,\n        ) = depot.position(positionId);\n\n        if (account != address(0)) {\n            uint serviceFee = leveragedPosition.mul(systemSetting().positionClosingFee()) / 1e18;\n            uint marginLoss = depot.calMarginLoss(leveragedPosition, share, direction);\n\n            (bool isProfit, uint value) = depot.calNetProfit(currencyKeyIdx, leveragedPosition, openPositionPrice, direction);\n\n            if (isProfit) {\n                if (margin.add(value) > serviceFee.add(marginLoss)) {\n                    return margin.add(value).sub(serviceFee).sub(marginLoss) < margin.mul(systemSetting().marginRatio()) / 1e18;\n                }\n            } else {\n                if (margin > value.add(serviceFee).add(marginLoss)) {\n                    return margin.sub(value).sub(serviceFee).sub(marginLoss) < margin.mul(systemSetting().marginRatio()) / 1e18;\n                }\n            }\n        }\n\n        return false;\n    }\n\n    function alertBankruptedLiquidation(uint32 positionId) external override view returns (bool) {\n        IDepot depot = getDepot();\n\n        (\n            address account,\n            uint share,\n            uint leveragedPosition,\n            uint openPositionPrice,\n            uint32 currencyKeyIdx,\n            uint8 direction,\n            uint margin,\n        ) = depot.position(positionId);\n\n        if (account != address(0)) {\n            uint serviceFee = leveragedPosition.mul(systemSetting().positionClosingFee()) / 1e18;\n            uint marginLoss = depot.calMarginLoss(leveragedPosition, share, direction);\n\n            (bool isProfit, uint value) = depot.calNetProfit(currencyKeyIdx, leveragedPosition, openPositionPrice, direction);\n\n            if (isProfit) {\n                return margin.add(value) <= serviceFee.add(marginLoss);\n            } else {\n                return margin < value.add(serviceFee).add(marginLoss);\n            }\n        }\n\n        return false;\n    }\n\n    event Liquidate(\n        address indexed sender,\n        uint32 positionId,\n        uint price,\n        uint serviceFee,\n        uint liqReward,\n        uint marginLoss,\n        bool isProfit,\n        uint value);\n\n    event BankruptedLiquidate(address indexed sender,\n        uint32 positionId,\n        uint price,\n        uint serviceFee,\n        uint liqReward,\n        uint marginLoss,\n        bool isProfit,\n        uint value);\n}\n",
  "sourcePath": "/mnt/zp/QiLin-v1/test/QiLin-v1-master/contracts/Liquidation.sol",
  "compiler": {
    "name": "solc",
    "version": "0.7.6+commit.7338295f.Emscripten.clang"
  },
  "schemaVersion": "3.4.1",
  "updatedAt": "2021-06-30T09:07:07.928Z",
  "devdoc": {
    "kind": "dev",
    "methods": {
      "owner()": {
        "details": "Returns the address of the current owner."
      },
      "renounceOwnership()": {
        "details": "Leaves the contract without owner. It will not be possible to call `onlyOwner` functions anymore. Can only be called by the current owner. NOTE: Renouncing ownership will leave the contract without an owner, thereby removing any functionality that is only available to the owner."
      },
      "transferOwnership(address)": {
        "details": "Transfers ownership of the contract to a new account (`newOwner`). Can only be called by the current owner."
      }
    },
    "version": 1
  },
  "userdoc": {
    "kind": "user",
    "methods": {},
    "version": 1
  }
}