{
  "contractName": "SystemSetting",
  "abi": [
    {
      "anonymous": false,
      "inputs": [
        {
          "indexed": true,
          "internalType": "address",
          "name": "previousOwner",
          "type": "address"
        },
        {
          "indexed": true,
          "internalType": "address",
          "name": "newOwner",
          "type": "address"
        }
      ],
      "name": "OwnershipTransferred",
      "type": "event"
    },
    {
      "anonymous": false,
      "inputs": [
        {
          "indexed": true,
          "internalType": "address",
          "name": "sender",
          "type": "address"
        }
      ],
      "name": "Resume",
      "type": "event"
    },
    {
      "anonymous": false,
      "inputs": [
        {
          "indexed": true,
          "internalType": "address",
          "name": "sender",
          "type": "address"
        }
      ],
      "name": "Suspend",
      "type": "event"
    },
    {
      "inputs": [],
      "name": "owner",
      "outputs": [
        {
          "internalType": "address",
          "name": "",
          "type": "address"
        }
      ],
      "stateMutability": "view",
      "type": "function"
    },
    {
      "inputs": [],
      "name": "renounceOwnership",
      "outputs": [],
      "stateMutability": "nonpayable",
      "type": "function"
    },
    {
      "inputs": [
        {
          "internalType": "address",
          "name": "newOwner",
          "type": "address"
        }
      ],
      "name": "transferOwnership",
      "outputs": [],
      "stateMutability": "nonpayable",
      "type": "function"
    },
    {
      "inputs": [],
      "name": "requireSystemActive",
      "outputs": [],
      "stateMutability": "view",
      "type": "function"
    },
    {
      "inputs": [],
      "name": "resumeSystem",
      "outputs": [],
      "stateMutability": "nonpayable",
      "type": "function"
    },
    {
      "inputs": [],
      "name": "suspendSystem",
      "outputs": [],
      "stateMutability": "nonpayable",
      "type": "function"
    },
    {
      "inputs": [],
      "name": "maxInitialLiquidityFunding",
      "outputs": [
        {
          "internalType": "uint256",
          "name": "",
          "type": "uint256"
        }
      ],
      "stateMutability": "view",
      "type": "function"
    },
    {
      "inputs": [],
      "name": "constantMarginRatio",
      "outputs": [
        {
          "internalType": "uint256",
          "name": "",
          "type": "uint256"
        }
      ],
      "stateMutability": "view",
      "type": "function"
    },
    {
      "inputs": [
        {
          "internalType": "uint32",
          "name": "leverage_",
          "type": "uint32"
        }
      ],
      "name": "leverageExist",
      "outputs": [
        {
          "internalType": "bool",
          "name": "",
          "type": "bool"
        }
      ],
      "stateMutability": "view",
      "type": "function"
    },
    {
      "inputs": [],
      "name": "minInitialMargin",
      "outputs": [
        {
          "internalType": "uint256",
          "name": "",
          "type": "uint256"
        }
      ],
      "stateMutability": "view",
      "type": "function"
    },
    {
      "inputs": [],
      "name": "minAddDeposit",
      "outputs": [
        {
          "internalType": "uint256",
          "name": "",
          "type": "uint256"
        }
      ],
      "stateMutability": "view",
      "type": "function"
    },
    {
      "inputs": [],
      "name": "minHoldingPeriod",
      "outputs": [
        {
          "internalType": "uint256",
          "name": "",
          "type": "uint256"
        }
      ],
      "stateMutability": "view",
      "type": "function"
    },
    {
      "inputs": [],
      "name": "marginRatio",
      "outputs": [
        {
          "internalType": "uint256",
          "name": "",
          "type": "uint256"
        }
      ],
      "stateMutability": "view",
      "type": "function"
    },
    {
      "inputs": [],
      "name": "positionClosingFee",
      "outputs": [
        {
          "internalType": "uint256",
          "name": "",
          "type": "uint256"
        }
      ],
      "stateMutability": "view",
      "type": "function"
    },
    {
      "inputs": [],
      "name": "liquidationFee",
      "outputs": [
        {
          "internalType": "uint256",
          "name": "",
          "type": "uint256"
        }
      ],
      "stateMutability": "view",
      "type": "function"
    },
    {
      "inputs": [],
      "name": "rebaseInterval",
      "outputs": [
        {
          "internalType": "uint256",
          "name": "",
          "type": "uint256"
        }
      ],
      "stateMutability": "view",
      "type": "function"
    },
    {
      "inputs": [],
      "name": "rebaseRate",
      "outputs": [
        {
          "internalType": "uint256",
          "name": "",
          "type": "uint256"
        }
      ],
      "stateMutability": "view",
      "type": "function"
    },
    {
      "inputs": [],
      "name": "imbalanceThreshold",
      "outputs": [
        {
          "internalType": "uint256",
          "name": "",
          "type": "uint256"
        }
      ],
      "stateMutability": "view",
      "type": "function"
    },
    {
      "inputs": [],
      "name": "minFundTokenRequired",
      "outputs": [
        {
          "internalType": "uint256",
          "name": "",
          "type": "uint256"
        }
      ],
      "stateMutability": "view",
      "type": "function"
    },
    {
      "inputs": [
        {
          "internalType": "uint256",
          "name": "maxInitialLiquidityFunding_",
          "type": "uint256"
        }
      ],
      "name": "setMaxInitialLiquidityFunding",
      "outputs": [],
      "stateMutability": "nonpayable",
      "type": "function"
    },
    {
      "inputs": [
        {
          "internalType": "uint256",
          "name": "constantMarginRatio_",
          "type": "uint256"
        }
      ],
      "name": "setConstantMarginRatio",
      "outputs": [],
      "stateMutability": "nonpayable",
      "type": "function"
    },
    {
      "inputs": [
        {
          "internalType": "uint256",
          "name": "minInitialMargin_",
          "type": "uint256"
        }
      ],
      "name": "setMinInitialMargin",
      "outputs": [],
      "stateMutability": "nonpayable",
      "type": "function"
    },
    {
      "inputs": [
        {
          "internalType": "uint256",
          "name": "minAddDeposit_",
          "type": "uint256"
        }
      ],
      "name": "setMinAddDeposit",
      "outputs": [],
      "stateMutability": "nonpayable",
      "type": "function"
    },
    {
      "inputs": [
        {
          "internalType": "uint256",
          "name": "minHoldingPeriod_",
          "type": "uint256"
        }
      ],
      "name": "setMinHoldingPeriod",
      "outputs": [],
      "stateMutability": "nonpayable",
      "type": "function"
    },
    {
      "inputs": [
        {
          "internalType": "uint256",
          "name": "marginRatio_",
          "type": "uint256"
        }
      ],
      "name": "setMarginRatio",
      "outputs": [],
      "stateMutability": "nonpayable",
      "type": "function"
    },
    {
      "inputs": [
        {
          "internalType": "uint256",
          "name": "positionClosingFee_",
          "type": "uint256"
        }
      ],
      "name": "setPositionClosingFee",
      "outputs": [],
      "stateMutability": "nonpayable",
      "type": "function"
    },
    {
      "inputs": [
        {
          "internalType": "uint256",
          "name": "liquidationFee_",
          "type": "uint256"
        }
      ],
      "name": "setLiquidationFee",
      "outputs": [],
      "stateMutability": "nonpayable",
      "type": "function"
    },
    {
      "inputs": [
        {
          "internalType": "uint32",
          "name": "leverage_",
          "type": "uint32"
        }
      ],
      "name": "addLeverage",
      "outputs": [],
      "stateMutability": "nonpayable",
      "type": "function"
    },
    {
      "inputs": [
        {
          "internalType": "uint32",
          "name": "leverage_",
          "type": "uint32"
        }
      ],
      "name": "deleteLeverage",
      "outputs": [],
      "stateMutability": "nonpayable",
      "type": "function"
    },
    {
      "inputs": [
        {
          "internalType": "uint256",
          "name": "rebaseInterval_",
          "type": "uint256"
        }
      ],
      "name": "setRebaseInterval",
      "outputs": [],
      "stateMutability": "nonpayable",
      "type": "function"
    },
    {
      "inputs": [
        {
          "internalType": "uint256",
          "name": "rebaseRate_",
          "type": "uint256"
        }
      ],
      "name": "setRebaseRate",
      "outputs": [],
      "stateMutability": "nonpayable",
      "type": "function"
    },
    {
      "inputs": [
        {
          "internalType": "uint256",
          "name": "imbalanceThreshold_",
          "type": "uint256"
        }
      ],
      "name": "setImbalanceThreshold",
      "outputs": [],
      "stateMutability": "nonpayable",
      "type": "function"
    },
    {
      "inputs": [
        {
          "internalType": "uint256",
          "name": "minFundTokenRequired_",
          "type": "uint256"
        }
      ],
      "name": "setMinFundTokenRequired",
      "outputs": [],
      "stateMutability": "nonpayable",
      "type": "function"
    },
    {
      "inputs": [
        {
          "internalType": "uint256",
          "name": "position",
          "type": "uint256"
        },
        {
          "internalType": "uint16",
          "name": "level",
          "type": "uint16"
        }
      ],
      "name": "checkOpenPosition",
      "outputs": [],
      "stateMutability": "view",
      "type": "function"
    },
    {
      "inputs": [
        {
          "internalType": "uint256",
          "name": "margin",
          "type": "uint256"
        }
      ],
      "name": "checkAddDeposit",
      "outputs": [],
      "stateMutability": "view",
      "type": "function"
    }
  ],
  "bytecode": "0x608060405234801561001057600080fd5b50600061001b61006a565b600080546001600160a01b0319166001600160a01b0383169081178255604051929350917f8be0079c531659141344cd1fd0a4f28419497f9722a3daafe3b4186f6b6457e0908290a35061006e565b3390565b6112df8061007d6000396000f3fe608060405234801561001057600080fd5b50600436106102115760003560e01c806382b20fb511610125578063a0d07b7b116100ad578063c199211c1161007c578063c199211c146104a1578063ef037fb9146104a9578063f2fde38b146104c6578063fa8b9a09146104ec578063fef0bec8146104f457610211565b8063a0d07b7b1461041e578063a36a363014610445578063b0b076e51461044d578063b6d7a1c91461048457610211565b80638da5cb5b116100f45780638da5cb5b146103b05780638e876de6146103d45780638f20f2ea146103dc5780639a336555146103e45780639b4eaff31461040157610211565b806382b20fb51461035a57806386d03f801461037d57806389edeb74146103a05780638c929837146103a857610211565b80634d4b9c71116101a85780636b111e96116101775780636b111e9614610308578063713c2fe614610325578063715018a6146103425780637bfaf82b1461034a5780637cb95d001461035257610211565b80634d4b9c71146102a957806355d29034146102c65780635e58685e146102e357806361065a6e1461030057610211565b8063292b63a8116101e4578063292b63a8146102625780632d31c16e1461027c57806340c889bb146102845780634ced226d1461028c57610211565b8063086dabd114610216578063157c51d31461022057806320edcdb814610228578063277fe49314610245575b600080fd5b61021e610511565b005b61021e610560565b61021e6004803603602081101561023e57600080fd5b50356105fc565b61021e6004803603602081101561025b57600080fd5b5035610663565b61026a6106ca565b60408051918252519081900360200190f35b61026a6106d0565b61026a6106d6565b61021e600480360360208110156102a257600080fd5b50356106dc565b61021e600480360360208110156102bf57600080fd5b5035610743565b61021e600480360360208110156102dc57600080fd5b50356107aa565b61021e600480360360208110156102f957600080fd5b5035610811565b61026a6108aa565b61021e6004803603602081101561031e57600080fd5b50356108b0565b61021e6004803603602081101561033b57600080fd5b50356109a3565b61021e610a0a565b61026a610ab6565b61026a610abc565b61021e6004803603602081101561037057600080fd5b503563ffffffff16610ac2565b61021e6004803603602081101561039357600080fd5b503563ffffffff16610b45565b61026a610bc5565b61026a610bcb565b6103b8610bd1565b604080516001600160a01b039092168252519081900360200190f35b61021e610be0565b61026a610c79565b61021e600480360360208110156103fa57600080fd5b5035610c7f565b61021e6004803603602081101561041757600080fd5b5035610ce6565b61021e6004803603604081101561043457600080fd5b508035906020013561ffff16610dfa565b61026a610eff565b6104706004803603602081101561046357600080fd5b503563ffffffff16610f05565b604080519115158252519081900360200190f35b61021e6004803603602081101561049a57600080fd5b5035610f20565b61026a610f87565b61021e600480360360208110156104bf57600080fd5b5035610f8d565b61021e600480360360208110156104dc57600080fd5b50356001600160a01b0316610ff4565b61026a6110f6565b61021e6004803603602081101561050a57600080fd5b50356110fc565b600e5460ff1661055e576040805162461bcd60e51b81526020600482015260136024820152721cde5cdd195b481a5cc81cdd5cdc195b991959606a1b604482015290519081900360640190fd5b565b61056861121b565b6001600160a01b0316610579610bd1565b6001600160a01b0316146105c2576040805162461bcd60e51b81526020600482018190526024820152600080516020611268833981519152604482015290519081900360640190fd5b600e805460ff1916600117905560405133907fdc5393690c6579b944c67b47465cff82c4f93733768919fe80c29ef57717776390600090a2565b61060461121b565b6001600160a01b0316610615610bd1565b6001600160a01b03161461065e576040805162461bcd60e51b81526020600482018190526024820152600080516020611268833981519152604482015290519081900360640190fd5b600455565b61066b61121b565b6001600160a01b031661067c610bd1565b6001600160a01b0316146106c5576040805162461bcd60e51b81526020600482018190526024820152600080516020611268833981519152604482015290519081900360640190fd5b600555565b60085490565b60075490565b60025490565b6106e461121b565b6001600160a01b03166106f5610bd1565b6001600160a01b03161461073e576040805162461bcd60e51b81526020600482018190526024820152600080516020611268833981519152604482015290519081900360640190fd5b600255565b61074b61121b565b6001600160a01b031661075c610bd1565b6001600160a01b0316146107a5576040805162461bcd60e51b81526020600482018190526024820152600080516020611268833981519152604482015290519081900360640190fd5b600655565b6107b261121b565b6001600160a01b03166107c3610bd1565b6001600160a01b03161461080c576040805162461bcd60e51b81526020600482018190526024820152600080516020611268833981519152604482015290519081900360640190fd5b600155565b600e5460ff1661085e576040805162461bcd60e51b81526020600482015260136024820152721cde5cdd195b481a5cc81cdd5cdc195b991959606a1b604482015290519081900360640190fd5b8060055411156108a7576040805162461bcd60e51b815260206004820152600f60248201526e2a37b7902632b9b99026b0b933b4b760891b604482015290519081900360640190fd5b50565b60015490565b6108b861121b565b6001600160a01b03166108c9610bd1565b6001600160a01b031614610912576040805162461bcd60e51b81526020600482018190526024820152600080516020611268833981519152604482015290519081900360640190fd5b66038d7ea4c680008110156109585760405162461bcd60e51b81526004018080602001828103825260228152602001806112886022913960400191505060405180910390fd5b6611c37937e0800081111561099e5760405162461bcd60e51b81526004018080602001828103825260228152602001806112466022913960400191505060405180910390fd5b600855565b6109ab61121b565b6001600160a01b03166109bc610bd1565b6001600160a01b031614610a05576040805162461bcd60e51b81526020600482018190526024820152600080516020611268833981519152604482015290519081900360640190fd5b600d55565b610a1261121b565b6001600160a01b0316610a23610bd1565b6001600160a01b031614610a6c576040805162461bcd60e51b81526020600482018190526024820152600080516020611268833981519152604482015290519081900360640190fd5b600080546040516001600160a01b03909116907f8be0079c531659141344cd1fd0a4f28419497f9722a3daafe3b4186f6b6457e0908390a3600080546001600160a01b0319169055565b600d5490565b600b5490565b610aca61121b565b6001600160a01b0316610adb610bd1565b6001600160a01b031614610b24576040805162461bcd60e51b81526020600482018190526024820152600080516020611268833981519152604482015290519081900360640190fd5b63ffffffff166000908152600360205260409020805460ff19166001179055565b610b4d61121b565b6001600160a01b0316610b5e610bd1565b6001600160a01b031614610ba7576040805162461bcd60e51b81526020600482018190526024820152600080516020611268833981519152604482015290519081900360640190fd5b63ffffffff166000908152600360205260409020805460ff19169055565b600a5490565b60065490565b6000546001600160a01b031690565b610be861121b565b6001600160a01b0316610bf9610bd1565b6001600160a01b031614610c42576040805162461bcd60e51b81526020600482018190526024820152600080516020611268833981519152604482015290519081900360640190fd5b600e805460ff1916905560405133907f1a7ceaae869f7db85d5fa1a3fc2b486dbb5fd0247ba8f5007b78eb4332c9a6ad90600090a2565b60045490565b610c8761121b565b6001600160a01b0316610c98610bd1565b6001600160a01b031614610ce1576040805162461bcd60e51b81526020600482018190526024820152600080516020611268833981519152604482015290519081900360640190fd5b600c55565b610cee61121b565b6001600160a01b0316610cff610bd1565b6001600160a01b031614610d48576040805162461bcd60e51b81526020600482018190526024820152600080516020611268833981519152604482015290519081900360640190fd5b6014811015610d9e576040805162461bcd60e51b815260206004820152601960248201527f726562617365526174655f2073686f756c64203e3d2032303000000000000000604482015290519081900360640190fd5b6107d0811115610df5576040805162461bcd60e51b815260206004820152601a60248201527f726562617365526174655f2073686f756c64203c3d2032303030000000000000604482015290519081900360640190fd5b600b55565b600e5460ff16610e47576040805162461bcd60e51b81526020600482015260136024820152721cde5cdd195b481a5cc81cdd5cdc195b991959606a1b604482015290519081900360640190fd5b61ffff811660009081526003602052604090205460ff16610ea4576040805162461bcd60e51b815260206004820152601260248201527113195d995c9859d948139bdd08115e1a5cdd60721b604482015290519081900360640190fd5b816004541115610efb576040805162461bcd60e51b815260206004820152601760248201527f546f6f204c65737320496e697469616c204d617267696e000000000000000000604482015290519081900360640190fd5b5050565b60095490565b63ffffffff1660009081526003602052604090205460ff1690565b610f2861121b565b6001600160a01b0316610f39610bd1565b6001600160a01b031614610f82576040805162461bcd60e51b81526020600482018190526024820152600080516020611268833981519152604482015290519081900360640190fd5b600755565b60055490565b610f9561121b565b6001600160a01b0316610fa6610bd1565b6001600160a01b031614610fef576040805162461bcd60e51b81526020600482018190526024820152600080516020611268833981519152604482015290519081900360640190fd5b600a55565b610ffc61121b565b6001600160a01b031661100d610bd1565b6001600160a01b031614611056576040805162461bcd60e51b81526020600482018190526024820152600080516020611268833981519152604482015290519081900360640190fd5b6001600160a01b03811661109b5760405162461bcd60e51b81526004018080602001828103825260268152602001806112206026913960400191505060405180910390fd5b600080546040516001600160a01b03808516939216917f8be0079c531659141344cd1fd0a4f28419497f9722a3daafe3b4186f6b6457e091a3600080546001600160a01b0319166001600160a01b0392909216919091179055565b600c5490565b61110461121b565b6001600160a01b0316611115610bd1565b6001600160a01b03161461115e576040805162461bcd60e51b81526020600482018190526024820152600080516020611268833981519152604482015290519081900360640190fd5b662386f26fc100008110156111ba576040805162461bcd60e51b815260206004820152601d60248201527f6c69717569646174696f6e4665655f2073686f756c64203e3d20313025000000604482015290519081900360640190fd5b66b1a2bc2ec50000811115611216576040805162461bcd60e51b815260206004820152601d60248201527f6c69717569646174696f6e4665655f2073686f756c64203c3d20323025000000604482015290519081900360640190fd5b600955565b339056fe4f776e61626c653a206e6577206f776e657220697320746865207a65726f2061646472657373706f736974696f6e436c6f73696e674665655f2073686f756c64203c3d20302e35254f776e61626c653a2063616c6c6572206973206e6f7420746865206f776e6572706f736974696f6e436c6f73696e674665655f2073686f756c64203e3d20302e3125a264697066735822122039d6f07a0d83d281271a91929930c81c6c0328cef71e25fb23d5402a43280a5064736f6c63430007060033",
  "immutableReferences": {},
  "source": "// SPDX-License-Identifier: GPL-3.0\npragma solidity 0.7.6;\n\nimport \"@openzeppelin/contracts/access/Ownable.sol\";\n\nimport \"./interfaces/ISystemSetting.sol\";\n\ncontract SystemSetting is Ownable, ISystemSetting {\n    uint256 private _maxInitialLiquidityFunding;   // decimals 6\n    uint256 private _constantMarginRatio;\n    mapping (uint32 => bool) private _leverages;\n    uint256 private _minInitialMargin;             // decimals 6\n    uint256 private _minAddDeposit;                // decimals 6\n    uint256 private _minHoldingPeriod;\n    uint256 private _marginRatio;\n    uint256 private _positionClosingFee;    // decimals 18\n    uint256 private _liquidationFee;\n    uint256 private _rebaseInterval;\n    uint256 private _rebaseRate;\n    uint256 private _imbalanceThreshold;\n    uint256 private _minFundTokenRequired;         // decimals 6\n\n    uint256 private constant POSITION_CLOSING_FEE_MIN = 1 * 1e15; // 1e15 / 1e18 = 0.1%\n    uint256 private constant POSITION_CLOSING_FEE_MAX = 5 * 1e15; // 5e15 / 1e18 = 0.5%\n\n    uint256 private constant LIQUIDATION_FEE_MIN = 1 * 1e16; // 1e16 / 1e18 = 1%\n    uint256 private constant LIQUIDATION_FEE_MAX = 5 * 1e16; // 5e16 / 1e18 = 5%\n\n    uint256 private constant REBASE_RATE_MIN = 20;\n    uint256 private constant REBASE_RATE_MAX = 2000;\n\n    bool private _active;\n\n    function requireSystemActive() external override view {\n        require(_active, \"system is suspended\");\n    }\n\n    function resumeSystem() external override onlyOwner {\n        _active = true;\n        emit Resume(msg.sender);\n    }\n\n    function suspendSystem() external override onlyOwner {\n        _active = false;\n        emit Suspend(msg.sender);\n    }\n\n    function maxInitialLiquidityFunding() external override view returns (uint256) {\n        return _maxInitialLiquidityFunding;\n    }\n\n    function constantMarginRatio() external override view returns (uint256) {\n        return _constantMarginRatio;\n    }\n\n    function leverageExist(uint32 leverage_) external override view returns (bool) {\n        return _leverages[leverage_];\n    }\n\n    function minInitialMargin() external override view returns (uint256) {\n        return _minInitialMargin;\n    }\n\n    function minAddDeposit() external override view returns (uint256) {\n        return _minAddDeposit;\n    }\n\n    function minHoldingPeriod() external override view returns (uint) {\n        return _minHoldingPeriod;\n    }\n\n    function marginRatio() external override view returns (uint256) {\n        return _marginRatio;\n    }\n\n    function positionClosingFee() external override view returns (uint256) {\n        return _positionClosingFee;\n    }\n\n    function liquidationFee() external override view returns (uint256) {\n        return _liquidationFee;\n    }\n\n    function rebaseInterval() external override view returns (uint) {\n        return _rebaseInterval;\n    }\n\n    function rebaseRate() external override view returns (uint) {\n        return _rebaseRate;\n    }\n\n    function imbalanceThreshold() external override view returns (uint) {\n        return _imbalanceThreshold;\n    }\n\n    function minFundTokenRequired() external override view returns (uint) {\n        return _minFundTokenRequired;\n    }\n\n    function setMaxInitialLiquidityFunding(uint256 maxInitialLiquidityFunding_) external onlyOwner {\n        _maxInitialLiquidityFunding = maxInitialLiquidityFunding_;\n    }\n\n    function setConstantMarginRatio(uint256 constantMarginRatio_) external onlyOwner {\n        _constantMarginRatio = constantMarginRatio_;\n    }\n\n    function setMinInitialMargin(uint256 minInitialMargin_) external onlyOwner {\n        _minInitialMargin = minInitialMargin_;\n    }\n\n    function setMinAddDeposit(uint minAddDeposit_) external onlyOwner {\n        _minAddDeposit = minAddDeposit_;\n    }\n\n    function setMinHoldingPeriod(uint minHoldingPeriod_) external onlyOwner {\n        _minHoldingPeriod = minHoldingPeriod_;\n    }\n\n    function setMarginRatio(uint256 marginRatio_) external onlyOwner {\n        _marginRatio = marginRatio_;\n    }\n\n    function setPositionClosingFee(uint256 positionClosingFee_) external onlyOwner {\n        require(positionClosingFee_ >= POSITION_CLOSING_FEE_MIN, \"positionClosingFee_ should >= 0.1%\");\n        require(positionClosingFee_ <= POSITION_CLOSING_FEE_MAX, \"positionClosingFee_ should <= 0.5%\");\n\n        _positionClosingFee = positionClosingFee_;\n    }\n\n    function setLiquidationFee(uint256 liquidationFee_) external onlyOwner {\n        require(liquidationFee_ >= LIQUIDATION_FEE_MIN, \"liquidationFee_ should >= 10%\");\n        require(liquidationFee_ <= LIQUIDATION_FEE_MAX, \"liquidationFee_ should <= 20%\");\n\n        _liquidationFee = liquidationFee_;\n    }\n\n    function addLeverage(uint32 leverage_) external onlyOwner {\n        _leverages[leverage_] = true;\n    }\n\n    function deleteLeverage(uint32 leverage_) external onlyOwner {\n        _leverages[leverage_] = false;\n    }\n\n    function setRebaseInterval(uint rebaseInterval_) external onlyOwner {\n        _rebaseInterval = rebaseInterval_;\n    }\n\n    function setRebaseRate(uint rebaseRate_) external onlyOwner {\n        require(rebaseRate_ >= REBASE_RATE_MIN, \"rebaseRate_ should >= 200\");\n        require(rebaseRate_ <= REBASE_RATE_MAX, \"rebaseRate_ should <= 2000\");\n\n        _rebaseRate = rebaseRate_;\n    }\n\n    function setImbalanceThreshold(uint imbalanceThreshold_) external onlyOwner {\n        _imbalanceThreshold = imbalanceThreshold_;\n    }\n\n    function setMinFundTokenRequired(uint minFundTokenRequired_) external onlyOwner {\n        _minFundTokenRequired = minFundTokenRequired_;\n    }\n\n    function checkOpenPosition(uint position, uint16 level) external view override {\n        require(_active, \"system is suspended\");\n        require(_leverages[level], \"Leverage Not Exist\");\n        require(_minInitialMargin <= position, \"Too Less Initial Margin\");\n    }\n\n    function checkAddDeposit(uint margin) external view override {\n        require(_active, \"system is suspended\");\n        require(_minAddDeposit <= margin, \"Too Less Margin\");\n    }\n}\n",
  "sourcePath": "/mnt/zp/QiLin-v1/test/QiLin-v1-master/contracts/SystemSetting.sol",
  "compiler": {
    "name": "solc",
    "version": "0.7.6+commit.7338295f.Emscripten.clang"
  },
  "schemaVersion": "3.4.1",
  "updatedAt": "2021-07-01T11:35:23.463Z",
  "devdoc": {
    "kind": "dev",
    "methods": {
      "owner()": {
        "details": "Returns the address of the current owner."
      },
      "renounceOwnership()": {
        "details": "Leaves the contract without owner. It will not be possible to call `onlyOwner` functions anymore. Can only be called by the current owner. NOTE: Renouncing ownership will leave the contract without an owner, thereby removing any functionality that is only available to the owner."
      },
      "transferOwnership(address)": {
        "details": "Transfers ownership of the contract to a new account (`newOwner`). Can only be called by the current owner."
      }
    },
    "version": 1
  },
  "userdoc": {
    "kind": "user",
    "methods": {},
    "version": 1
  }
}