{
  "contractName": "TestAggregator",
  "abi": [
    {
      "anonymous": false,
      "inputs": [
        {
          "indexed": true,
          "internalType": "int256",
          "name": "current",
          "type": "int256"
        },
        {
          "indexed": true,
          "internalType": "uint256",
          "name": "roundId",
          "type": "uint256"
        },
        {
          "indexed": false,
          "internalType": "uint256",
          "name": "timestamp",
          "type": "uint256"
        }
      ],
      "name": "AnswerUpdated",
      "type": "event"
    },
    {
      "anonymous": false,
      "inputs": [
        {
          "indexed": true,
          "internalType": "uint256",
          "name": "roundId",
          "type": "uint256"
        },
        {
          "indexed": true,
          "internalType": "address",
          "name": "startedBy",
          "type": "address"
        },
        {
          "indexed": false,
          "internalType": "uint256",
          "name": "startedAt",
          "type": "uint256"
        }
      ],
      "name": "NewRound",
      "type": "event"
    },
    {
      "anonymous": false,
      "inputs": [
        {
          "indexed": true,
          "internalType": "address",
          "name": "previousOwner",
          "type": "address"
        },
        {
          "indexed": true,
          "internalType": "address",
          "name": "newOwner",
          "type": "address"
        }
      ],
      "name": "OwnershipTransferred",
      "type": "event"
    },
    {
      "inputs": [],
      "name": "owner",
      "outputs": [
        {
          "internalType": "address",
          "name": "",
          "type": "address"
        }
      ],
      "stateMutability": "view",
      "type": "function"
    },
    {
      "inputs": [],
      "name": "renounceOwnership",
      "outputs": [],
      "stateMutability": "nonpayable",
      "type": "function"
    },
    {
      "inputs": [
        {
          "internalType": "address",
          "name": "newOwner",
          "type": "address"
        }
      ],
      "name": "transferOwnership",
      "outputs": [],
      "stateMutability": "nonpayable",
      "type": "function"
    },
    {
      "inputs": [
        {
          "internalType": "uint8",
          "name": "dec",
          "type": "uint8"
        }
      ],
      "name": "setDecimals",
      "outputs": [],
      "stateMutability": "nonpayable",
      "type": "function"
    },
    {
      "inputs": [
        {
          "internalType": "int256",
          "name": "answer",
          "type": "int256"
        },
        {
          "internalType": "uint256",
          "name": "timestamp",
          "type": "uint256"
        },
        {
          "internalType": "uint256",
          "name": "round",
          "type": "uint256"
        }
      ],
      "name": "setState",
      "outputs": [],
      "stateMutability": "nonpayable",
      "type": "function"
    },
    {
      "inputs": [],
      "name": "decimals",
      "outputs": [
        {
          "internalType": "uint8",
          "name": "",
          "type": "uint8"
        }
      ],
      "stateMutability": "view",
      "type": "function"
    },
    {
      "inputs": [],
      "name": "latestAnswer",
      "outputs": [
        {
          "internalType": "int256",
          "name": "",
          "type": "int256"
        }
      ],
      "stateMutability": "view",
      "type": "function"
    },
    {
      "inputs": [],
      "name": "latestTimestamp",
      "outputs": [
        {
          "internalType": "uint256",
          "name": "",
          "type": "uint256"
        }
      ],
      "stateMutability": "view",
      "type": "function"
    },
    {
      "inputs": [],
      "name": "latestRound",
      "outputs": [
        {
          "internalType": "uint256",
          "name": "",
          "type": "uint256"
        }
      ],
      "stateMutability": "view",
      "type": "function"
    },
    {
      "inputs": [
        {
          "internalType": "uint256",
          "name": "roundId",
          "type": "uint256"
        }
      ],
      "name": "getAnswer",
      "outputs": [
        {
          "internalType": "int256",
          "name": "",
          "type": "int256"
        }
      ],
      "stateMutability": "pure",
      "type": "function"
    },
    {
      "inputs": [
        {
          "internalType": "uint256",
          "name": "roundId",
          "type": "uint256"
        }
      ],
      "name": "getTimestamp",
      "outputs": [
        {
          "internalType": "uint256",
          "name": "",
          "type": "uint256"
        }
      ],
      "stateMutability": "pure",
      "type": "function"
    },
    {
      "inputs": [],
      "name": "description",
      "outputs": [
        {
          "internalType": "string",
          "name": "",
          "type": "string"
        }
      ],
      "stateMutability": "pure",
      "type": "function"
    },
    {
      "inputs": [],
      "name": "version",
      "outputs": [
        {
          "internalType": "uint256",
          "name": "",
          "type": "uint256"
        }
      ],
      "stateMutability": "pure",
      "type": "function"
    },
    {
      "inputs": [
        {
          "internalType": "uint80",
          "name": "_roundId",
          "type": "uint80"
        }
      ],
      "name": "getRoundData",
      "outputs": [
        {
          "internalType": "uint80",
          "name": "roundId",
          "type": "uint80"
        },
        {
          "internalType": "int256",
          "name": "answer",
          "type": "int256"
        },
        {
          "internalType": "uint256",
          "name": "startedAt",
          "type": "uint256"
        },
        {
          "internalType": "uint256",
          "name": "updatedAt",
          "type": "uint256"
        },
        {
          "internalType": "uint80",
          "name": "answeredInRound",
          "type": "uint80"
        }
      ],
      "stateMutability": "pure",
      "type": "function"
    },
    {
      "inputs": [],
      "name": "latestRoundData",
      "outputs": [
        {
          "internalType": "uint80",
          "name": "roundId",
          "type": "uint80"
        },
        {
          "internalType": "int256",
          "name": "answer",
          "type": "int256"
        },
        {
          "internalType": "uint256",
          "name": "startedAt",
          "type": "uint256"
        },
        {
          "internalType": "uint256",
          "name": "updatedAt",
          "type": "uint256"
        },
        {
          "internalType": "uint80",
          "name": "answeredInRound",
          "type": "uint80"
        }
      ],
      "stateMutability": "pure",
      "type": "function"
    }
  ],
  "bytecode": "0x608060405234801561001057600080fd5b50600061001b61006a565b600080546001600160a01b0319166001600160a01b0383169081178255604051929350917f8be0079c531659141344cd1fd0a4f28419497f9722a3daafe3b4186f6b6457e0908290a35061006e565b3390565b6108658061007d6000396000f3fe608060405234801561001057600080fd5b50600436106100f55760003560e01c80637a1395aa11610097578063b5ab58dc11610066578063b5ab58dc146102b1578063b633620c146102ce578063f2fde38b146102eb578063feaf968c14610311576100f5565b80637a1395aa146101f25780638205bf6a146102125780638da5cb5b1461021a5780639a6fc8f51461023e576100f5565b806354fd4d50116100d357806354fd4d501461015d578063668a0f0214610165578063715018a61461016d5780637284e41614610175576100f5565b806317bfadd6146100fa578063313ce5671461012557806350d25bcd14610143575b600080fd5b6101236004803603606081101561011057600080fd5b5080359060208101359060400135610319565b005b61012d6103b4565b6040805160ff9092168252519081900360200190f35b61014b6103c4565b60408051918252519081900360200190f35b61014b6103ca565b61014b6103cf565b6101236103d5565b61017d610481565b6040805160208082528351818301528351919283929083019185019080838360005b838110156101b757818101518382015260200161019f565b50505050905090810190601f1680156101e45780820380516001836020036101000a031916815260200191505b509250505060405180910390f35b6101236004803603602081101561020857600080fd5b503560ff166104a8565b61014b61052a565b610222610530565b604080516001600160a01b039092168252519081900360200190f35b6102676004803603602081101561025457600080fd5b503569ffffffffffffffffffff1661053f565b604051808669ffffffffffffffffffff1681526020018581526020018481526020018381526020018269ffffffffffffffffffff1681526020019550505050505060405180910390f35b61014b600480360360208110156102c757600080fd5b503561057c565b61014b600480360360208110156102e457600080fd5b50356105b5565b6101236004803603602081101561030157600080fd5b50356001600160a01b03166105ee565b6102676106f0565b61032161072d565b6001600160a01b0316610332610530565b6001600160a01b03161461037b576040805162461bcd60e51b81526020600482018190526024820152600080516020610810833981519152604482015290519081900360640190fd5b60018390558115610390576002829055610395565b426002555b80156103a55760038190556103af565b6003805460010190555b505050565b600054600160a01b900460ff1690565b60015490565b600190565b60035490565b6103dd61072d565b6001600160a01b03166103ee610530565b6001600160a01b031614610437576040805162461bcd60e51b81526020600482018190526024820152600080516020610810833981519152604482015290519081900360640190fd5b600080546040516001600160a01b03909116907f8be0079c531659141344cd1fd0a4f28419497f9722a3daafe3b4186f6b6457e0908390a3600080546001600160a01b0319169055565b60408051808201909152600d81526c1a9d5cdd08199bdc881d195cdd609a1b602082015290565b6104b061072d565b6001600160a01b03166104c1610530565b6001600160a01b03161461050a576040805162461bcd60e51b81526020600482018190526024820152600080516020610810833981519152604482015290519081900360640190fd5b6000805460ff909216600160a01b0260ff60a01b19909216919091179055565b60025490565b6000546001600160a01b031690565b60008080808060405162461bcd60e51b815260040180806020018281038252602e815260200180610758602e913960400191505060405180910390fd5b600060405162461bcd60e51b815260040180806020018281038252602b815260200180610786602b913960400191505060405180910390fd5b600060405162461bcd60e51b815260040180806020018281038252602e8152602001806107b1602e913960400191505060405180910390fd5b6105f661072d565b6001600160a01b0316610607610530565b6001600160a01b031614610650576040805162461bcd60e51b81526020600482018190526024820152600080516020610810833981519152604482015290519081900360640190fd5b6001600160a01b0381166106955760405162461bcd60e51b81526004018080602001828103825260268152602001806107326026913960400191505060405180910390fd5b600080546040516001600160a01b03808516939216917f8be0079c531659141344cd1fd0a4f28419497f9722a3daafe3b4186f6b6457e091a3600080546001600160a01b0319166001600160a01b0392909216919091179055565b60008080808060405162461bcd60e51b81526004018080602001828103825260318152602001806107df6031913960400191505060405180910390fd5b339056fe4f776e61626c653a206e6577206f776e657220697320746865207a65726f2061646472657373746869732061706920676574526f756e6444617461206e6f7420617661696c61626c6520696e2063757272656e74746869732061706920676574416e73776572206e6f7420617661696c61626c6520696e2063757272656e7474686973206170692067657454696d657374616d70206e6f7420617661696c61626c6520696e2063757272656e747468697320617069206c6174657374526f756e6444617461206e6f7420617661696c61626c6520696e2063757272656e744f776e61626c653a2063616c6c6572206973206e6f7420746865206f776e6572a264697066735822122051fc64f489aba93b752944de701c54cacd9b05617d4df80595981ebe9cd5ca3c64736f6c63430007060033",
  "immutableReferences": {},
  "source": "// SPDX-License-Identifier: GPL-3.0\npragma solidity 0.7.6;\n\nimport \"@chainlink/contracts/src/v0.5/interfaces/AggregatorV2V3Interface.sol\";\n\nimport \"@openzeppelin/contracts/access/Ownable.sol\";\n\ncontract TestAggregator is Ownable, AggregatorV2V3Interface {\n    uint8 _decimals;\n    int256 _answer;\n    uint256 _timestamp;\n    uint256 _round;\n\n    function setDecimals(uint8 dec) external onlyOwner {\n        _decimals = dec;\n    }\n\n    function setState(\n        int256 answer,\n        uint256 timestamp,\n        uint256 round\n    ) external onlyOwner {\n        _answer = answer;\n        if (timestamp != 0) {\n            _timestamp = timestamp;\n        } else {\n            _timestamp = block.timestamp;\n        }\n\n        if (round != 0) {\n            _round = round;\n        } else {\n            _round = _round + 1;\n        }\n    }\n\n    function decimals() external view override returns (uint8) {\n        return _decimals;\n    }\n\n    function latestAnswer() external view override returns (int256) {\n        return _answer;\n    }\n\n    function latestTimestamp() external view override returns (uint256) {\n        return _timestamp;\n    }\n\n    function latestRound() external view override returns (uint256) {\n        return _round;\n    }\n\n    function getAnswer(uint256 roundId)\n        external\n        pure\n        override\n        returns (int256)\n    {\n        require(false, \"this api getAnswer not available in current\");\n        // empty\n        return 0;\n    }\n\n    function getTimestamp(uint256 roundId)\n        external\n        pure\n        override\n        returns (uint256)\n    {\n        require(false, \"this api getTimestamp not available in current\");\n        // empty\n        return 0;\n    }\n\n    function description() external pure override returns (string memory) {\n        return \"just for test\";\n    }\n\n    function version() external pure override returns (uint256) {\n        return 1;\n    }\n\n    // getRoundData and latestRoundData should both raise \"No data present\"\n    // if they do not have data to report, instead of returning unset values\n    // which could be misinterpreted as actual reported values.\n    function getRoundData(uint80 _roundId)\n        external\n        pure\n        override\n        returns (\n            uint80 roundId,\n            int256 answer,\n            uint256 startedAt,\n            uint256 updatedAt,\n            uint80 answeredInRound\n        )\n    {\n        require(false, \"this api getRoundData not available in current\");\n        // empty\n        return (0, 0, 0, 0, 0);\n    }\n\n    function latestRoundData()\n        external\n        pure\n        override\n        returns (\n            uint80 roundId,\n            int256 answer,\n            uint256 startedAt,\n            uint256 updatedAt,\n            uint80 answeredInRound\n        )\n    {\n        require(false, \"this api latestRoundData not available in current\");\n        // empty\n        return (0, 0, 0, 0, 0);\n    }\n}\n",
  "sourcePath": "/mnt/zp/QiLin-v1/test/QiLin-v1-master/contracts/mocks/TestAggregatorV2V3.sol",
  "compiler": {
    "name": "solc",
    "version": "0.7.6+commit.7338295f.Emscripten.clang"
  },
  "schemaVersion": "3.4.1",
  "updatedAt": "2021-06-29T03:41:25.885Z",
  "devdoc": {
    "kind": "dev",
    "methods": {
      "owner()": {
        "details": "Returns the address of the current owner."
      },
      "renounceOwnership()": {
        "details": "Leaves the contract without owner. It will not be possible to call `onlyOwner` functions anymore. Can only be called by the current owner. NOTE: Renouncing ownership will leave the contract without an owner, thereby removing any functionality that is only available to the owner."
      },
      "transferOwnership(address)": {
        "details": "Transfers ownership of the contract to a new account (`newOwner`). Can only be called by the current owner."
      }
    },
    "version": 1
  },
  "userdoc": {
    "kind": "user",
    "methods": {},
    "version": 1
  }
}