{
  "contractName": "USDC",
  "abi": [
    {
      "inputs": [],
      "stateMutability": "nonpayable",
      "type": "constructor"
    },
    {
      "anonymous": false,
      "inputs": [
        {
          "indexed": true,
          "internalType": "address",
          "name": "owner",
          "type": "address"
        },
        {
          "indexed": true,
          "internalType": "address",
          "name": "spender",
          "type": "address"
        },
        {
          "indexed": false,
          "internalType": "uint256",
          "name": "value",
          "type": "uint256"
        }
      ],
      "name": "Approval",
      "type": "event"
    },
    {
      "anonymous": false,
      "inputs": [
        {
          "indexed": true,
          "internalType": "address",
          "name": "from",
          "type": "address"
        },
        {
          "indexed": false,
          "internalType": "uint256",
          "name": "value",
          "type": "uint256"
        }
      ],
      "name": "Burn",
      "type": "event"
    },
    {
      "anonymous": false,
      "inputs": [
        {
          "indexed": true,
          "internalType": "address",
          "name": "to",
          "type": "address"
        },
        {
          "indexed": false,
          "internalType": "uint256",
          "name": "value",
          "type": "uint256"
        }
      ],
      "name": "Mint",
      "type": "event"
    },
    {
      "anonymous": false,
      "inputs": [
        {
          "indexed": true,
          "internalType": "address",
          "name": "previousOwner",
          "type": "address"
        },
        {
          "indexed": true,
          "internalType": "address",
          "name": "newOwner",
          "type": "address"
        }
      ],
      "name": "OwnershipTransferred",
      "type": "event"
    },
    {
      "anonymous": false,
      "inputs": [
        {
          "indexed": true,
          "internalType": "address",
          "name": "from",
          "type": "address"
        },
        {
          "indexed": true,
          "internalType": "address",
          "name": "to",
          "type": "address"
        },
        {
          "indexed": false,
          "internalType": "uint256",
          "name": "value",
          "type": "uint256"
        }
      ],
      "name": "Transfer",
      "type": "event"
    },
    {
      "inputs": [
        {
          "internalType": "address",
          "name": "owner",
          "type": "address"
        },
        {
          "internalType": "address",
          "name": "spender",
          "type": "address"
        }
      ],
      "name": "allowance",
      "outputs": [
        {
          "internalType": "uint256",
          "name": "",
          "type": "uint256"
        }
      ],
      "stateMutability": "view",
      "type": "function"
    },
    {
      "inputs": [
        {
          "internalType": "address",
          "name": "spender",
          "type": "address"
        },
        {
          "internalType": "uint256",
          "name": "amount",
          "type": "uint256"
        }
      ],
      "name": "approve",
      "outputs": [
        {
          "internalType": "bool",
          "name": "",
          "type": "bool"
        }
      ],
      "stateMutability": "nonpayable",
      "type": "function"
    },
    {
      "inputs": [
        {
          "internalType": "address",
          "name": "account",
          "type": "address"
        }
      ],
      "name": "balanceOf",
      "outputs": [
        {
          "internalType": "uint256",
          "name": "",
          "type": "uint256"
        }
      ],
      "stateMutability": "view",
      "type": "function"
    },
    {
      "inputs": [],
      "name": "decimals",
      "outputs": [
        {
          "internalType": "uint8",
          "name": "",
          "type": "uint8"
        }
      ],
      "stateMutability": "view",
      "type": "function"
    },
    {
      "inputs": [
        {
          "internalType": "address",
          "name": "spender",
          "type": "address"
        },
        {
          "internalType": "uint256",
          "name": "subtractedValue",
          "type": "uint256"
        }
      ],
      "name": "decreaseAllowance",
      "outputs": [
        {
          "internalType": "bool",
          "name": "",
          "type": "bool"
        }
      ],
      "stateMutability": "nonpayable",
      "type": "function"
    },
    {
      "inputs": [
        {
          "internalType": "address",
          "name": "spender",
          "type": "address"
        },
        {
          "internalType": "uint256",
          "name": "addedValue",
          "type": "uint256"
        }
      ],
      "name": "increaseAllowance",
      "outputs": [
        {
          "internalType": "bool",
          "name": "",
          "type": "bool"
        }
      ],
      "stateMutability": "nonpayable",
      "type": "function"
    },
    {
      "inputs": [],
      "name": "name",
      "outputs": [
        {
          "internalType": "string",
          "name": "",
          "type": "string"
        }
      ],
      "stateMutability": "view",
      "type": "function"
    },
    {
      "inputs": [],
      "name": "owner",
      "outputs": [
        {
          "internalType": "address",
          "name": "",
          "type": "address"
        }
      ],
      "stateMutability": "view",
      "type": "function"
    },
    {
      "inputs": [],
      "name": "renounceOwnership",
      "outputs": [],
      "stateMutability": "nonpayable",
      "type": "function"
    },
    {
      "inputs": [],
      "name": "symbol",
      "outputs": [
        {
          "internalType": "string",
          "name": "",
          "type": "string"
        }
      ],
      "stateMutability": "view",
      "type": "function"
    },
    {
      "inputs": [],
      "name": "totalSupply",
      "outputs": [
        {
          "internalType": "uint256",
          "name": "",
          "type": "uint256"
        }
      ],
      "stateMutability": "view",
      "type": "function"
    },
    {
      "inputs": [
        {
          "internalType": "address",
          "name": "recipient",
          "type": "address"
        },
        {
          "internalType": "uint256",
          "name": "amount",
          "type": "uint256"
        }
      ],
      "name": "transfer",
      "outputs": [
        {
          "internalType": "bool",
          "name": "",
          "type": "bool"
        }
      ],
      "stateMutability": "nonpayable",
      "type": "function"
    },
    {
      "inputs": [
        {
          "internalType": "address",
          "name": "sender",
          "type": "address"
        },
        {
          "internalType": "address",
          "name": "recipient",
          "type": "address"
        },
        {
          "internalType": "uint256",
          "name": "amount",
          "type": "uint256"
        }
      ],
      "name": "transferFrom",
      "outputs": [
        {
          "internalType": "bool",
          "name": "",
          "type": "bool"
        }
      ],
      "stateMutability": "nonpayable",
      "type": "function"
    },
    {
      "inputs": [
        {
          "internalType": "address",
          "name": "newOwner",
          "type": "address"
        }
      ],
      "name": "transferOwnership",
      "outputs": [],
      "stateMutability": "nonpayable",
      "type": "function"
    },
    {
      "inputs": [
        {
          "internalType": "address",
          "name": "to_",
          "type": "address"
        },
        {
          "internalType": "uint256",
          "name": "value_",
          "type": "uint256"
        }
      ],
      "name": "mint",
      "outputs": [],
      "stateMutability": "nonpayable",
      "type": "function"
    },
    {
      "inputs": [
        {
          "internalType": "uint256",
          "name": "value_",
          "type": "uint256"
        }
      ],
      "name": "selfMint",
      "outputs": [],
      "stateMutability": "nonpayable",
      "type": "function"
    },
    {
      "inputs": [
        {
          "internalType": "address",
          "name": "from_",
          "type": "address"
        },
        {
          "internalType": "uint256",
          "name": "value_",
          "type": "uint256"
        }
      ],
      "name": "burn",
      "outputs": [],
      "stateMutability": "nonpayable",
      "type": "function"
    }
  ],
  "bytecode": "0x60806040523480156200001157600080fd5b50604051806040016040528060048152602001635553444360e01b815250604051806040016040528060048152602001635553444360e01b81525060006200005e620000f460201b60201c565b600080546001600160a01b0319166001600160a01b0383169081178255604051929350917f8be0079c531659141344cd1fd0a4f28419497f9722a3daafe3b4186f6b6457e0908290a3508151620000bd9060049060208501906200010e565b508051620000d39060059060208401906200010e565b50506006805460ff19166012178155620000ee9150620000f8565b620001ba565b3390565b6006805460ff191660ff92909216919091179055565b828054600181600116156101000203166002900490600052602060002090601f01602090048101928262000146576000855562000191565b82601f106200016157805160ff191683800117855562000191565b8280016001018555821562000191579182015b828111156200019157825182559160200191906001019062000174565b506200019f929150620001a3565b5090565b5b808211156200019f5760008155600101620001a4565b6111c980620001ca6000396000f3fe608060405234801561001057600080fd5b506004361061010b5760003560e01c806370a08231116100a25780639dc29fac116100715780639dc29fac1461030c578063a457c2d714610338578063a9059cbb14610364578063dd62ed3e14610390578063f2fde38b146103be5761010b565b806370a08231146102b2578063715018a6146102d85780638da5cb5b146102e057806395d89b41146103045761010b565b806323b872dd116100de57806323b872dd14610206578063313ce5671461023c578063395093511461025a57806340c10f19146102865761010b565b806306fdde0314610110578063095ea7b31461018d5780630d3c69b4146101cd57806318160ddd146101ec575b600080fd5b6101186103e4565b6040805160208082528351818301528351919283929083019185019080838360005b8381101561015257818101518382015260200161013a565b50505050905090810190601f16801561017f5780820380516001836020036101000a031916815260200191505b509250505060405180910390f35b6101b9600480360360408110156101a357600080fd5b506001600160a01b03813516906020013561047a565b604080519115158252519081900360200190f35b6101ea600480360360208110156101e357600080fd5b5035610497565b005b6101f4610582565b60408051918252519081900360200190f35b6101b96004803603606081101561021c57600080fd5b506001600160a01b03813581169160208101359091169060400135610588565b61024461060f565b6040805160ff9092168252519081900360200190f35b6101b96004803603604081101561027057600080fd5b506001600160a01b038135169060200135610618565b6101ea6004803603604081101561029c57600080fd5b506001600160a01b038135169060200135610666565b6101f4600480360360208110156102c857600080fd5b50356001600160a01b03166106d6565b6101ea6106f1565b6102e861079d565b604080516001600160a01b039092168252519081900360200190f35b6101186107ac565b6101ea6004803603604081101561032257600080fd5b506001600160a01b03813516906020013561080d565b6101b96004803603604081101561034e57600080fd5b506001600160a01b0381351690602001356108cb565b6101b96004803603604081101561037a57600080fd5b506001600160a01b038135169060200135610933565b6101f4600480360360408110156103a657600080fd5b506001600160a01b0381358116916020013516610947565b6101ea600480360360208110156103d457600080fd5b50356001600160a01b0316610972565b60048054604080516020601f60026000196101006001881615020190951694909404938401819004810282018101909252828152606093909290918301828280156104705780601f1061044557610100808354040283529160200191610470565b820191906000526020600020905b81548152906001019060200180831161045357829003601f168201915b5050505050905090565b600061048e610487610a74565b8484610a78565b50600192915050565b3360009081526007602052604090205460ff16156104fc576040805162461bcd60e51b815260206004820152601760248201527f796f752068617665206d696e74656420616c7265616479000000000000000000604482015290519081900360640190fd5b69043c33c193756480000081111561055b576040805162461bcd60e51b815260206004820152601f60248201527f73656c66206d696e74206d757374206c657373207468616e2032303030305500604482015290519081900360640190fd5b6105653382610b64565b50336000908152600760205260409020805460ff19166001179055565b60035490565b6000610595848484610c56565b610605846105a1610a74565b610600856040518060600160405280602881526020016110bd602891396001600160a01b038a166000908152600260205260408120906105df610a74565b6001600160a01b031681526020810191909152604001600020549190610db3565b610a78565b5060019392505050565b60065460ff1690565b600061048e610625610a74565b846106008560026000610636610a74565b6001600160a01b03908116825260208083019390935260409182016000908120918c168152925290205490610e4a565b61066e610a74565b6001600160a01b031661067f61079d565b6001600160a01b0316146106c8576040805162461bcd60e51b815260206004820181905260248201526000805160206110e5833981519152604482015290519081900360640190fd5b6106d28282610b64565b5050565b6001600160a01b031660009081526001602052604090205490565b6106f9610a74565b6001600160a01b031661070a61079d565b6001600160a01b031614610753576040805162461bcd60e51b815260206004820181905260248201526000805160206110e5833981519152604482015290519081900360640190fd5b600080546040516001600160a01b03909116907f8be0079c531659141344cd1fd0a4f28419497f9722a3daafe3b4186f6b6457e0908390a3600080546001600160a01b0319169055565b6000546001600160a01b031690565b60058054604080516020601f60026000196101006001881615020190951694909404938401819004810282018101909252828152606093909290918301828280156104705780601f1061044557610100808354040283529160200191610470565b610815610a74565b6001600160a01b031661082661079d565b6001600160a01b03161461086f576040805162461bcd60e51b815260206004820181905260248201526000805160206110e5833981519152604482015290519081900360640190fd5b80610879836106d6565b10156108c1576040805162461bcd60e51b81526020600482015260126024820152710aaa6888640d2e640dcdee840cadcdeeaced60731b604482015290519081900360640190fd5b6106d28282610eab565b600061048e6108d8610a74565b846106008560405180606001604052806025815260200161116f6025913960026000610902610a74565b6001600160a01b03908116825260208083019390935260409182016000908120918d16815292529020549190610db3565b600061048e610940610a74565b8484610c56565b6001600160a01b03918216600090815260026020908152604080832093909416825291909152205490565b61097a610a74565b6001600160a01b031661098b61079d565b6001600160a01b0316146109d4576040805162461bcd60e51b815260206004820181905260248201526000805160206110e5833981519152604482015290519081900360640190fd5b6001600160a01b038116610a195760405162461bcd60e51b815260040180806020018281038252602681526020018061104f6026913960400191505060405180910390fd5b600080546040516001600160a01b03808516939216917f8be0079c531659141344cd1fd0a4f28419497f9722a3daafe3b4186f6b6457e091a3600080546001600160a01b0319166001600160a01b0392909216919091179055565b3390565b6001600160a01b038316610abd5760405162461bcd60e51b815260040180806020018281038252602481526020018061114b6024913960400191505060405180910390fd5b6001600160a01b038216610b025760405162461bcd60e51b81526004018080602001828103825260228152602001806110756022913960400191505060405180910390fd5b6001600160a01b03808416600081815260026020908152604080832094871680845294825291829020859055815185815291517f8c5be1e5ebec7d5bd14f71427d1e84f3dd0314c0f7b2291e5b200ac8c7c3b9259281900390910190a3505050565b6001600160a01b038216610bbf576040805162461bcd60e51b815260206004820152601f60248201527f45524332303a206d696e7420746f20746865207a65726f206164647265737300604482015290519081900360640190fd5b610bcb60008383610fa7565b600354610bd89082610e4a565b6003556001600160a01b038216600090815260016020526040902054610bfe9082610e4a565b6001600160a01b03831660008181526001602090815260408083209490945583518581529351929391927fddf252ad1be2c89b69c2b068fc378daa952ba7f163c4a11628f55a4df523b3ef9281900390910190a35050565b6001600160a01b038316610c9b5760405162461bcd60e51b81526004018080602001828103825260258152602001806111266025913960400191505060405180910390fd5b6001600160a01b038216610ce05760405162461bcd60e51b815260040180806020018281038252602381526020018061100a6023913960400191505060405180910390fd5b610ceb838383610fa7565b610d2881604051806060016040528060268152602001611097602691396001600160a01b0386166000908152600160205260409020549190610db3565b6001600160a01b038085166000908152600160205260408082209390935590841681522054610d579082610e4a565b6001600160a01b0380841660008181526001602090815260409182902094909455805185815290519193928716927fddf252ad1be2c89b69c2b068fc378daa952ba7f163c4a11628f55a4df523b3ef92918290030190a3505050565b60008184841115610e425760405162461bcd60e51b81526004018080602001828103825283818151815260200191508051906020019080838360005b83811015610e07578181015183820152602001610def565b50505050905090810190601f168015610e345780820380516001836020036101000a031916815260200191505b509250505060405180910390fd5b505050900390565b600082820183811015610ea4576040805162461bcd60e51b815260206004820152601b60248201527f536166654d6174683a206164646974696f6e206f766572666c6f770000000000604482015290519081900360640190fd5b9392505050565b6001600160a01b038216610ef05760405162461bcd60e51b81526004018080602001828103825260218152602001806111056021913960400191505060405180910390fd5b610efc82600083610fa7565b610f398160405180606001604052806022815260200161102d602291396001600160a01b0385166000908152600160205260409020549190610db3565b6001600160a01b038316600090815260016020526040902055600354610f5f9082610fac565b6003556040805182815290516000916001600160a01b038516917fddf252ad1be2c89b69c2b068fc378daa952ba7f163c4a11628f55a4df523b3ef9181900360200190a35050565b505050565b600082821115611003576040805162461bcd60e51b815260206004820152601e60248201527f536166654d6174683a207375627472616374696f6e206f766572666c6f770000604482015290519081900360640190fd5b5090039056fe45524332303a207472616e7366657220746f20746865207a65726f206164647265737345524332303a206275726e20616d6f756e7420657863656564732062616c616e63654f776e61626c653a206e6577206f776e657220697320746865207a65726f206164647265737345524332303a20617070726f766520746f20746865207a65726f206164647265737345524332303a207472616e7366657220616d6f756e7420657863656564732062616c616e636545524332303a207472616e7366657220616d6f756e74206578636565647320616c6c6f77616e63654f776e61626c653a2063616c6c6572206973206e6f7420746865206f776e657245524332303a206275726e2066726f6d20746865207a65726f206164647265737345524332303a207472616e736665722066726f6d20746865207a65726f206164647265737345524332303a20617070726f76652066726f6d20746865207a65726f206164647265737345524332303a2064656372656173656420616c6c6f77616e63652062656c6f77207a65726fa26469706673582212206cd7227b84168ecef4c956c534eb5ba71a4e2a3959c562c6b192e5fc28668c3964736f6c63430007060033",
  "immutableReferences": {},
  "source": "// SPDX-License-Identifier: GPL-3.0\npragma solidity 0.7.6;\n\nimport \"@openzeppelin/contracts/math/SafeMath.sol\";\nimport \"@openzeppelin/contracts/token/ERC20/ERC20.sol\";\n\nimport \"@openzeppelin/contracts/access/Ownable.sol\";\n\ncontract USDC is Ownable, ERC20(\"USDC\", \"USDC\") {\n    using SafeMath for uint256;\n    mapping(address => bool) private minters;\n\n    constructor() {\n        _setupDecimals(6);\n    }\n\n    function mint(address to_, uint256 value_) external onlyOwner {\n        _mint(to_, value_);\n    }\n\n    function selfMint(uint256 value_) external {\n        require(!minters[msg.sender], \"you have minted already\");\n        require(value_ <= 20000000000000000000000, \"self mint must less than 20000U\");\n        _mint(msg.sender, value_);\n        minters[msg.sender] = true;\n    }\n\n    function burn(address from_, uint256 value_) external onlyOwner {\n        require(balanceOf(from_) >= value_, \"USDC is not enough\");\n        _burn(from_, value_);\n    }\n\n    event Mint(address indexed to, uint256 value);\n    event Burn(address indexed from, uint256 value);\n}\n",
  "sourcePath": "/mnt/zp/QiLin-v1/test/QiLin-v1-master/contracts/USDC.sol",
  "compiler": {
    "name": "solc",
    "version": "0.7.6+commit.7338295f.Emscripten.clang"
  },
  "schemaVersion": "3.4.1",
  "updatedAt": "2021-06-29T03:41:25.865Z",
  "devdoc": {
    "kind": "dev",
    "methods": {
      "allowance(address,address)": {
        "details": "See {IERC20-allowance}."
      },
      "approve(address,uint256)": {
        "details": "See {IERC20-approve}. Requirements: - `spender` cannot be the zero address."
      },
      "balanceOf(address)": {
        "details": "See {IERC20-balanceOf}."
      },
      "decimals()": {
        "details": "Returns the number of decimals used to get its user representation. For example, if `decimals` equals `2`, a balance of `505` tokens should be displayed to a user as `5,05` (`505 / 10 ** 2`). Tokens usually opt for a value of 18, imitating the relationship between Ether and Wei. This is the value {ERC20} uses, unless {_setupDecimals} is called. NOTE: This information is only used for _display_ purposes: it in no way affects any of the arithmetic of the contract, including {IERC20-balanceOf} and {IERC20-transfer}."
      },
      "decreaseAllowance(address,uint256)": {
        "details": "Atomically decreases the allowance granted to `spender` by the caller. This is an alternative to {approve} that can be used as a mitigation for problems described in {IERC20-approve}. Emits an {Approval} event indicating the updated allowance. Requirements: - `spender` cannot be the zero address. - `spender` must have allowance for the caller of at least `subtractedValue`."
      },
      "increaseAllowance(address,uint256)": {
        "details": "Atomically increases the allowance granted to `spender` by the caller. This is an alternative to {approve} that can be used as a mitigation for problems described in {IERC20-approve}. Emits an {Approval} event indicating the updated allowance. Requirements: - `spender` cannot be the zero address."
      },
      "name()": {
        "details": "Returns the name of the token."
      },
      "owner()": {
        "details": "Returns the address of the current owner."
      },
      "renounceOwnership()": {
        "details": "Leaves the contract without owner. It will not be possible to call `onlyOwner` functions anymore. Can only be called by the current owner. NOTE: Renouncing ownership will leave the contract without an owner, thereby removing any functionality that is only available to the owner."
      },
      "symbol()": {
        "details": "Returns the symbol of the token, usually a shorter version of the name."
      },
      "totalSupply()": {
        "details": "See {IERC20-totalSupply}."
      },
      "transfer(address,uint256)": {
        "details": "See {IERC20-transfer}. Requirements: - `recipient` cannot be the zero address. - the caller must have a balance of at least `amount`."
      },
      "transferFrom(address,address,uint256)": {
        "details": "See {IERC20-transferFrom}. Emits an {Approval} event indicating the updated allowance. This is not required by the EIP. See the note at the beginning of {ERC20}. Requirements: - `sender` and `recipient` cannot be the zero address. - `sender` must have a balance of at least `amount`. - the caller must have allowance for ``sender``'s tokens of at least `amount`."
      },
      "transferOwnership(address)": {
        "details": "Transfers ownership of the contract to a new account (`newOwner`). Can only be called by the current owner."
      }
    },
    "version": 1
  },
  "userdoc": {
    "kind": "user",
    "methods": {},
    "version": 1
  }
}